{"contracts/UniswapV3Pool.sol":{"UniswapV3Pool":{"abi":[{"inputs":[],"stateMutability":"nonpayable","type":"constructor"},{"anonymous":false,"inputs":[{"indexed":true,"internalType":"address","name":"owner","type":"address"},{"indexed":true,"internalType":"int24","name":"tickLower","type":"int24"},{"indexed":true,"internalType":"int24","name":"tickUpper","type":"int24"},{"indexed":false,"internalType":"uint128","name":"amount","type":"uint128"},{"indexed":false,"internalType":"uint256","name":"amount0","type":"uint256"},{"indexed":false,"internalType":"uint256","name":"amount1","type":"uint256"}],"name":"Burn","type":"event"},{"anonymous":false,"inputs":[{"indexed":true,"internalType":"address","name":"owner","type":"address"},{"indexed":false,"internalType":"address","name":"recipient","type":"address"},{"indexed":true,"internalType":"int24","name":"tickLower","type":"int24"},{"indexed":true,"internalType":"int24","name":"tickUpper","type":"int24"},{"indexed":false,"internalType":"uint128","name":"amount0","type":"uint128"},{"indexed":false,"internalType":"uint128","name":"amount1","type":"uint128"}],"name":"Collect","type":"event"},{"anonymous":false,"inputs":[{"indexed":true,"internalType":"address","name":"sender","type":"address"},{"indexed":true,"internalType":"address","name":"recipient","type":"address"},{"indexed":false,"internalType":"uint128","name":"amount0","type":"uint128"},{"indexed":false,"internalType":"uint128","name":"amount1","type":"uint128"}],"name":"CollectProtocol","type":"event"},{"anonymous":false,"inputs":[{"indexed":true,"internalType":"address","name":"sender","type":"address"},{"indexed":true,"internalType":"address","name":"recipient","type":"address"},{"indexed":false,"internalType":"uint256","name":"amount0","type":"uint256"},{"indexed":false,"internalType":"uint256","name":"amount1","type":"uint256"},{"indexed":false,"internalType":"uint256","name":"paid0","type":"uint256"},{"indexed":false,"internalType":"uint256","name":"paid1","type":"uint256"}],"name":"Flash","type":"event"},{"anonymous":false,"inputs":[{"indexed":false,"internalType":"uint16","name":"observationCardinalityNextOld","type":"uint16"},{"indexed":false,"internalType":"uint16","name":"observationCardinalityNextNew","type":"uint16"}],"name":"IncreaseObservationCardinalityNext","type":"event"},{"anonymous":false,"inputs":[{"indexed":false,"internalType":"uint160","name":"sqrtPriceX96","type":"uint160"},{"indexed":false,"internalType":"int24","name":"tick","type":"int24"}],"name":"Initialize","type":"event"},{"anonymous":false,"inputs":[{"indexed":false,"internalType":"address","name":"sender","type":"address"},{"indexed":true,"internalType":"address","name":"owner","type":"address"},{"indexed":true,"internalType":"int24","name":"tickLower","type":"int24"},{"indexed":true,"internalType":"int24","name":"tickUpper","type":"int24"},{"indexed":false,"internalType":"uint128","name":"amount","type":"uint128"},{"indexed":false,"internalType":"uint256","name":"amount0","type":"uint256"},{"indexed":false,"internalType":"uint256","name":"amount1","type":"uint256"}],"name":"Mint","type":"event"},{"anonymous":false,"inputs":[{"indexed":false,"internalType":"uint8","name":"feeProtocol0Old","type":"uint8"},{"indexed":false,"internalType":"uint8","name":"feeProtocol1Old","type":"uint8"},{"indexed":false,"internalType":"uint8","name":"feeProtocol0New","type":"uint8"},{"indexed":false,"internalType":"uint8","name":"feeProtocol1New","type":"uint8"}],"name":"SetFeeProtocol","type":"event"},{"anonymous":false,"inputs":[{"indexed":true,"internalType":"address","name":"sender","type":"address"},{"indexed":true,"internalType":"address","name":"recipient","type":"address"},{"indexed":false,"internalType":"int256","name":"amount0","type":"int256"},{"indexed":false,"internalType":"int256","name":"amount1","type":"int256"},{"indexed":false,"internalType":"uint160","name":"sqrtPriceX96","type":"uint160"},{"indexed":false,"internalType":"uint128","name":"liquidity","type":"uint128"},{"indexed":false,"internalType":"int24","name":"tick","type":"int24"}],"name":"Swap","type":"event"},{"inputs":[{"internalType":"int24","name":"tickLower","type":"int24"},{"internalType":"int24","name":"tickUpper","type":"int24"},{"internalType":"uint128","name":"amount","type":"uint128"}],"name":"burn","outputs":[{"internalType":"uint256","name":"amount0","type":"uint256"},{"internalType":"uint256","name":"amount1","type":"uint256"}],"stateMutability":"nonpayable","type":"function"},{"inputs":[{"internalType":"address","name":"recipient","type":"address"},{"internalType":"int24","name":"tickLower","type":"int24"},{"internalType":"int24","name":"tickUpper","type":"int24"},{"internalType":"uint128","name":"amount0Requested","type":"uint128"},{"internalType":"uint128","name":"amount1Requested","type":"uint128"}],"name":"collect","outputs":[{"internalType":"uint128","name":"amount0","type":"uint128"},{"internalType":"uint128","name":"amount1","type":"uint128"}],"stateMutability":"nonpayable","type":"function"},{"inputs":[{"internalType":"address","name":"recipient","type":"address"},{"internalType":"uint128","name":"amount0Requested","type":"uint128"},{"internalType":"uint128","name":"amount1Requested","type":"uint128"}],"name":"collectProtocol","outputs":[{"internalType":"uint128","name":"amount0","type":"uint128"},{"internalType":"uint128","name":"amount1","type":"uint128"}],"stateMutability":"nonpayable","type":"function"},{"inputs":[],"name":"factory","outputs":[{"internalType":"address","name":"","type":"address"}],"stateMutability":"view","type":"function"},{"inputs":[],"name":"fee","outputs":[{"internalType":"uint24","name":"","type":"uint24"}],"stateMutability":"view","type":"function"},{"inputs":[],"name":"feeGrowthGlobal0X128","outputs":[{"internalType":"uint256","name":"","type":"uint256"}],"stateMutability":"view","type":"function"},{"inputs":[],"name":"feeGrowthGlobal1X128","outputs":[{"internalType":"uint256","name":"","type":"uint256"}],"stateMutability":"view","type":"function"},{"inputs":[{"internalType":"address","name":"recipient","type":"address"},{"internalType":"uint256","name":"amount0","type":"uint256"},{"internalType":"uint256","name":"amount1","type":"uint256"},{"internalType":"bytes","name":"data","type":"bytes"}],"name":"flash","outputs":[],"stateMutability":"nonpayable","type":"function"},{"inputs":[{"internalType":"uint16","name":"observationCardinalityNext","type":"uint16"}],"name":"increaseObservationCardinalityNext","outputs":[],"stateMutability":"nonpayable","type":"function"},{"inputs":[{"internalType":"uint160","name":"sqrtPriceX96","type":"uint160"}],"name":"initialize","outputs":[],"stateMutability":"nonpayable","type":"function"},{"inputs":[],"name":"liquidity","outputs":[{"internalType":"uint128","name":"","type":"uint128"}],"stateMutability":"view","type":"function"},{"inputs":[],"name":"maxLiquidityPerTick","outputs":[{"internalType":"uint128","name":"","type":"uint128"}],"stateMutability":"view","type":"function"},{"inputs":[{"internalType":"address","name":"recipient","type":"address"},{"internalType":"int24","name":"tickLower","type":"int24"},{"internalType":"int24","name":"tickUpper","type":"int24"},{"internalType":"uint128","name":"amount","type":"uint128"},{"internalType":"bytes","name":"data","type":"bytes"}],"name":"mint","outputs":[{"internalType":"uint256","name":"amount0","type":"uint256"},{"internalType":"uint256","name":"amount1","type":"uint256"}],"stateMutability":"nonpayable","type":"function"},{"inputs":[{"internalType":"uint256","name":"","type":"uint256"}],"name":"observations","outputs":[{"internalType":"uint32","name":"blockTimestamp","type":"uint32"},{"internalType":"int56","name":"tickCumulative","type":"int56"},{"internalType":"uint160","name":"secondsPerLiquidityCumulativeX128","type":"uint160"},{"internalType":"bool","name":"initialized","type":"bool"}],"stateMutability":"view","type":"function"},{"inputs":[{"internalType":"uint32[]","name":"secondsAgos","type":"uint32[]"}],"name":"observe","outputs":[{"internalType":"int56[]","name":"tickCumulatives","type":"int56[]"},{"internalType":"uint160[]","name":"secondsPerLiquidityCumulativeX128s","type":"uint160[]"}],"stateMutability":"view","type":"function"},{"inputs":[{"internalType":"bytes32","name":"","type":"bytes32"}],"name":"positions","outputs":[{"internalType":"uint128","name":"liquidity","type":"uint128"},{"internalType":"uint256","name":"feeGrowthInside0LastX128","type":"uint256"},{"internalType":"uint256","name":"feeGrowthInside1LastX128","type":"uint256"},{"internalType":"uint128","name":"tokensOwed0","type":"uint128"},{"internalType":"uint128","name":"tokensOwed1","type":"uint128"}],"stateMutability":"view","type":"function"},{"inputs":[],"name":"protocolFees","outputs":[{"internalType":"uint128","name":"token0","type":"uint128"},{"internalType":"uint128","name":"token1","type":"uint128"}],"stateMutability":"view","type":"function"},{"inputs":[{"internalType":"uint8","name":"feeProtocol0","type":"uint8"},{"internalType":"uint8","name":"feeProtocol1","type":"uint8"}],"name":"setFeeProtocol","outputs":[],"stateMutability":"nonpayable","type":"function"},{"inputs":[],"name":"slot0","outputs":[{"internalType":"uint160","name":"sqrtPriceX96","type":"uint160"},{"internalType":"int24","name":"tick","type":"int24"},{"internalType":"uint16","name":"observationIndex","type":"uint16"},{"internalType":"uint16","name":"observationCardinality","type":"uint16"},{"internalType":"uint16","name":"observationCardinalityNext","type":"uint16"},{"internalType":"uint8","name":"feeProtocol","type":"uint8"},{"internalType":"bool","name":"unlocked","type":"bool"}],"stateMutability":"view","type":"function"},{"inputs":[{"internalType":"int24","name":"tickLower","type":"int24"},{"internalType":"int24","name":"tickUpper","type":"int24"}],"name":"snapshotCumulativesInside","outputs":[{"internalType":"int56","name":"tickCumulativeInside","type":"int56"},{"internalType":"uint160","name":"secondsPerLiquidityInsideX128","type":"uint160"},{"internalType":"uint32","name":"secondsInside","type":"uint32"}],"stateMutability":"view","type":"function"},{"inputs":[{"internalType":"address","name":"recipient","type":"address"},{"internalType":"bool","name":"zeroForOne","type":"bool"},{"internalType":"int256","name":"amountSpecified","type":"int256"},{"internalType":"uint160","name":"sqrtPriceLimitX96","type":"uint160"},{"internalType":"bytes","name":"data","type":"bytes"}],"name":"swap","outputs":[{"internalType":"int256","name":"amount0","type":"int256"},{"internalType":"int256","name":"amount1","type":"int256"}],"stateMutability":"nonpayable","type":"function"},{"inputs":[{"internalType":"int16","name":"","type":"int16"}],"name":"tickBitmap","outputs":[{"internalType":"uint256","name":"","type":"uint256"}],"stateMutability":"view","type":"function"},{"inputs":[],"name":"tickSpacing","outputs":[{"internalType":"int24","name":"","type":"int24"}],"stateMutability":"view","type":"function"},{"inputs":[{"internalType":"int24","name":"","type":"int24"}],"name":"ticks","outputs":[{"internalType":"uint128","name":"liquidityGross","type":"uint128"},{"internalType":"int128","name":"liquidityNet","type":"int128"},{"internalType":"uint256","name":"feeGrowthOutside0X128","type":"uint256"},{"internalType":"uint256","name":"feeGrowthOutside1X128","type":"uint256"},{"internalType":"int56","name":"tickCumulativeOutside","type":"int56"},{"internalType":"uint160","name":"secondsPerLiquidityOutsideX128","type":"uint160"},{"internalType":"uint32","name":"secondsOutside","type":"uint32"},{"internalType":"bool","name":"initialized","type":"bool"}],"stateMutability":"view","type":"function"},{"inputs":[],"name":"token0","outputs":[{"internalType":"address","name":"","type":"address"}],"stateMutability":"view","type":"function"},{"inputs":[],"name":"token1","outputs":[{"internalType":"address","name":"","type":"address"}],"stateMutability":"view","type":"function"}],"evm":{"bytecode":{"linkReferences":{},"object":"6101606040523480156200001257600080fd5b503073ffffffffffffffffffffffffffffffffffffffff1660808173ffffffffffffffffffffffffffffffffffffffff168152505060003373ffffffffffffffffffffffffffffffffffffffff1663890357306040518163ffffffff1660e01b815260040160a060405180830381865afa15801562000095573d6000803e3d6000fd5b505050506040513d601f19601f82011682018060405250810190620000bb919062000392565b8095508162ffffff166101009062ffffff168152508273ffffffffffffffffffffffffffffffffffffffff1660e09073ffffffffffffffffffffffffffffffffffffffff168152508373ffffffffffffffffffffffffffffffffffffffff1660c09073ffffffffffffffffffffffffffffffffffffffff168152508473ffffffffffffffffffffffffffffffffffffffff1660a09073ffffffffffffffffffffffffffffffffffffffff1681525050505050508060020b6101208160020b815250506200019381620001c660201b620038c21760201c565b6fffffffffffffffffffffffffffffffff16610140816fffffffffffffffffffffffffffffffff16815250505062000673565b60008082837ffffffffffffffffffffffffffffffffffffffffffffffffffffffffffff27618620001f8919062000478565b620002049190620004ec565b9050600083847ffffffffffffffffffffffffffffffffffffffffffffffffffffffffffff27618620002369062000532565b62000242919062000478565b6200024e9190620004ec565b9050600060018584846200026391906200057f565b6200026f919062000478565b6200027b9190620005e1565b90508062ffffff166fffffffffffffffffffffffffffffffff620002a091906200063b565b9350505050919050565b600080fd5b600073ffffffffffffffffffffffffffffffffffffffff82169050919050565b6000620002dc82620002af565b9050919050565b620002ee81620002cf565b8114620002fa57600080fd5b50565b6000815190506200030e81620002e3565b92915050565b600062ffffff82169050919050565b6200032e8162000314565b81146200033a57600080fd5b50565b6000815190506200034e8162000323565b92915050565b60008160020b9050919050565b6200036c8162000354565b81146200037857600080fd5b50565b6000815190506200038c8162000361565b92915050565b600080600080600060a08688031215620003b157620003b0620002aa565b5b6000620003c188828901620002fd565b9550506020620003d488828901620002fd565b9450506040620003e788828901620002fd565b9350506060620003fa888289016200033d565b92505060806200040d888289016200037b565b9150509295509295909350565b7f4e487b7100000000000000000000000000000000000000000000000000000000600052601260045260246000fd5b7f4e487b7100000000000000000000000000000000000000000000000000000000600052601160045260246000fd5b6000620004858262000354565b9150620004928362000354565b925082620004a557620004a46200041a565b5b600160000383147fffffffffffffffffffffffffffffffffffffffffffffffffffffffffff80000083141615620004e157620004e062000449565b5b828205905092915050565b6000620004f98262000354565b9150620005068362000354565b9250828202620005168162000354565b91508082146200052b576200052a62000449565b5b5092915050565b60006200053f8262000354565b91507fffffffffffffffffffffffffffffffffffffffffffffffffffffffffff800000820362000574576200057362000449565b5b816000039050919050565b60006200058c8262000354565b9150620005998362000354565b92508282039050627fffff81137fffffffffffffffffffffffffffffffffffffffffffffffffffffffffff80000082121715620005db57620005da62000449565b5b92915050565b6000620005ee8262000314565b9150620005fb8362000314565b9250828201905062ffffff81111562000619576200061862000449565b5b92915050565b60006fffffffffffffffffffffffffffffffff82169050919050565b600062000648826200061f565b915062000655836200061f565b9250826200066857620006676200041a565b5b828204905092915050565b60805160a05160c05160e05161010051610120516101405161a2d16200075a600039600081816126b7015281816167d5015261681e015260008181610a890152818161352f0152818161686401526168a1015260008181610c9101528181611d8e01528181611dc5015261357701526000818161142f01528181611e4f0152818161255801528181612d510152818161355301526152ee01526000818161057c0152818161154501528181611e1a0152818161249a01528181612c3301526151b701526000818161274901528181612994015261350b01526000613996015261a2d16000f3fe608060405234801561001057600080fd5b506004361061018e5760003560e01c806370cf754a116100de578063c45a015511610097578063ddca3f4311610071578063ddca3f43146104eb578063f305839914610509578063f30dba9314610527578063f637731d1461055e5761018e565b8063c45a015514610491578063d0c93a7c146104af578063d21220a7146104cd5761018e565b806370cf754a146103925780638206a4d1146103b057806385b66729146103cc578063883bdbfd146103fd578063a34123a71461042e578063a38807f21461045f5761018e565b80633850c7bd1161014b578063490e6cbc11610125578063490e6cbc146102e15780634f1eb3d8146102fd578063514ea4bf1461032e5780635339c296146103625761018e565b80633850c7bd1461026e5780633c8a7d8d1461029257806346141319146102c35761018e565b80630dfe168114610193578063128acb08146101b15780631a686502146101e25780631ad8b03b14610200578063252c09d71461021f57806332148f6714610252575b600080fd5b61019b61057a565b6040516101a89190617ac3565b60405180910390f35b6101cb60048036038101906101c69190617c13565b61059e565b6040516101d9929190617cbc565b60405180910390f35b6101ea6116ee565b6040516101f79190617d10565b60405180910390f35b610208611712565b604051610216929190617d2b565b60405180910390f35b61023960048036038101906102349190617d8a565b61175e565b6040516102499493929190617e10565b60405180910390f35b61026c60048036038101906102679190617e8f565b6117dc565b005b61027661190d565b6040516102899796959493929190617f03565b60405180910390f35b6102ac60048036038101906102a79190617fca565b6119ae565b6040516102ba929190618073565b60405180910390f35b6102cb611c90565b6040516102d8919061809c565b60405180910390f35b6102fb60048036038101906102f691906180b7565b611c96565b005b6103176004803603810190610312919061813f565b61229e565b604051610325929190617d2b565b60405180910390f35b610348600480360381019061034391906181f0565b612613565b60405161035995949392919061821d565b60405180910390f35b61037c600480360381019061037791906182a9565b61269d565b604051610389919061809c565b60405180910390f35b61039a6126b5565b6040516103a79190617d10565b60405180910390f35b6103ca60048036038101906103c59190618302565b6126d9565b005b6103e660048036038101906103e19190618342565b612921565b6040516103f4929190617d2b565b60405180910390f35b610417600480360381019061041291906183eb565b612e16565b6040516104259291906185b4565b60405180910390f35b610448600480360381019061044391906185eb565b612ee7565b604051610456929190618073565b60405180910390f35b6104796004803603810190610474919061863e565b613151565b6040516104889392919061867e565b60405180910390f35b610499613509565b6040516104a69190617ac3565b60405180910390f35b6104b761352d565b6040516104c491906186b5565b60405180910390f35b6104d5613551565b6040516104e29190617ac3565b60405180910390f35b6104f3613575565b60405161050091906186ee565b60405180910390f35b610511613599565b60405161051e919061809c565b60405180910390f35b610541600480360381019061053c9190618709565b61359f565b604051610555989796959493929190618752565b60405180910390f35b610578600480360381019061057391906187d0565b61365a565b005b7f000000000000000000000000000000000000000000000000000000000000000081565b6000806105a9613994565b600086036105ec576040517f08c379a00000000000000000000000000000000000000000000000000000000081526004016105e39061885a565b60405180910390fd5b6000806040518060e00160405290816000820160009054906101000a900473ffffffffffffffffffffffffffffffffffffffff1673ffffffffffffffffffffffffffffffffffffffff1673ffffffffffffffffffffffffffffffffffffffff1681526020016000820160149054906101000a900460020b60020b60020b81526020016000820160179054906101000a900461ffff1661ffff1661ffff1681526020016000820160199054906101000a900461ffff1661ffff1661ffff16815260200160008201601b9054906101000a900461ffff1661ffff1661ffff16815260200160008201601d9054906101000a900460ff1660ff1660ff16815260200160008201601e9054906101000a900460ff16151515158152505090508060c0015161074b576040517f08c379a0000000000000000000000000000000000000000000000000000000008152600401610742906188c6565b60405180910390fd5b876107d357806000015173ffffffffffffffffffffffffffffffffffffffff168673ffffffffffffffffffffffffffffffffffffffff161180156107ce575073fffd8963efd1fc6a506488495d951d5263988d2673ffffffffffffffffffffffffffffffffffffffff168673ffffffffffffffffffffffffffffffffffffffff16105b610843565b806000015173ffffffffffffffffffffffffffffffffffffffff168673ffffffffffffffffffffffffffffffffffffffff1610801561084257506401000276a373ffffffffffffffffffffffffffffffffffffffff168673ffffffffffffffffffffffffffffffffffffffff16115b5b610882576040517f08c379a000000000000000000000000000000000000000000000000000000000815260040161087990618932565b60405180910390fd5b600080600001601e6101000a81548160ff02191690831515021790555060006040518060c001604052808a6108c25760048460a0015160ff16901c6108d4565b60108460a001516108d39190618981565b5b60ff1681526020016201000660009054906101000a90046fffffffffffffffffffffffffffffffff166fffffffffffffffffffffffffffffffff16815260200161091c6139ee565b63ffffffff168152602001600060060b8152602001600073ffffffffffffffffffffffffffffffffffffffff1681526020016000151581525090506000808913905060006040518060e001604052808b815260200160008152602001856000015173ffffffffffffffffffffffffffffffffffffffff168152602001856020015160020b81526020018c6109b2576002546109b6565b6001545b815260200160006fffffffffffffffffffffffffffffffff16815260200184602001516fffffffffffffffffffffffffffffffff1681525090505b6000816000015114158015610a3657508873ffffffffffffffffffffffffffffffffffffffff16816040015173ffffffffffffffffffffffffffffffffffffffff1614155b156110cd57610a436179cb565b8160400151816000019073ffffffffffffffffffffffffffffffffffffffff16908173ffffffffffffffffffffffffffffffffffffffff1681525050610abb82606001517f00000000000000000000000000000000000000000000000000000000000000008e60046139f6909392919063ffffffff16565b826020018360400182151515158152508260020b60020b81525050507ffffffffffffffffffffffffffffffffffffffffffffffffffffffffffff2761860020b816020015160020b1215610b40577ffffffffffffffffffffffffffffffffffffffffffffffffffffffffffff27618816020019060020b908160020b81525050610bb8565b7ffffffffffffffffffffffffffffffffffffffffffffffffffffffffffff27618610b6a906189e1565b60020b816020015160020b1315610bb7577ffffffffffffffffffffffffffffffffffffffffffffffffffffffffffff27618610ba5906189e1565b816020019060020b908160020b815250505b5b610bc58160200151613be4565b816060019073ffffffffffffffffffffffffffffffffffffffff16908173ffffffffffffffffffffffffffffffffffffffff1681525050610cb582604001518d610c41578b73ffffffffffffffffffffffffffffffffffffffff16836060015173ffffffffffffffffffffffffffffffffffffffff1611610c75565b8b73ffffffffffffffffffffffffffffffffffffffff16836060015173ffffffffffffffffffffffffffffffffffffffff16105b610c83578260600151610c85565b8b5b8460c0015185600001517f00000000000000000000000000000000000000000000000000000000000000006140af565b85604001856080018660a0018760c0018481525084815250848152508473ffffffffffffffffffffffffffffffffffffffff1673ffffffffffffffffffffffffffffffffffffffff16815250505050508215610d6957610d278160c001518260800151610d229190618a29565b61433e565b82600001818151610d389190618a5d565b91508181525050610d4c8160a0015161433e565b8260200151610d5b9190618a5d565b826020018181525050610dc3565b610d768160a0015161433e565b82600001818151610d879190618aa0565b91508181525050610daa8160c001518260800151610da59190618a29565b61433e565b8260200151610db99190618aa0565b8260200181815250505b6000846000015160ff161115610e48576000846000015160ff168260c00151610dec9190618ae4565b9050808260c001818151610e009190618b15565b91508181525050808360a001818151610e199190618b49565b9150906fffffffffffffffffffffffffffffffff1690816fffffffffffffffffffffffffffffffff1681525050505b60008260c001516fffffffffffffffffffffffffffffffff161115610eb657610e9d8160c001517001000000000000000000000000000000008460c001516fffffffffffffffffffffffffffffffff16614374565b82608001818151610eae9190618a29565b915081815250505b806060015173ffffffffffffffffffffffffffffffffffffffff16826040015173ffffffffffffffffffffffffffffffffffffffff160361106c57806040015115611035578360a00151610f8d57610f37846040015160008760200151886040015188602001518a606001516006614514909695949392919063ffffffff16565b85606001866080018273ffffffffffffffffffffffffffffffffffffffff1673ffffffffffffffffffffffffffffffffffffffff168152508260060b60060b815250505060018460a00190151590811515815250505b6000610fe182602001518e610fa457600154610faa565b84608001515b8f610fb9578560800151610fbd565b6002545b886080015189606001518a60400151600361479d909695949392919063ffffffff16565b90508c15610ff65780610ff390618b8d565b90505b6110048360c0015182614906565b8360c001906fffffffffffffffffffffffffffffffff1690816fffffffffffffffffffffffffffffffff1681525050505b8b611044578060200151611056565b600181602001516110559190618bd5565b5b826060019060020b908160020b815250506110c7565b806000015173ffffffffffffffffffffffffffffffffffffffff16826040015173ffffffffffffffffffffffffffffffffffffffff16146110c6576110b48260400151614a11565b826060019060020b908160020b815250505b5b506109f1565b836020015160020b816060015160020b146111e35760008061111b86604001518660400151886020015188602001518a606001518b608001516006614e10909695949392919063ffffffff16565b915091508260400151836060015183836000800160008060000160146000800160176000800160198891906101000a81548161ffff021916908361ffff1602179055508791906101000a81548161ffff021916908361ffff1602179055508691906101000a81548162ffffff021916908360020b62ffffff1602179055508591906101000a81548173ffffffffffffffffffffffffffffffffffffffff021916908373ffffffffffffffffffffffffffffffffffffffff16021790555050505050505061122b565b80604001516000800160006101000a81548173ffffffffffffffffffffffffffffffffffffffff021916908373ffffffffffffffffffffffffffffffffffffffff1602179055505b8060c001516fffffffffffffffffffffffffffffffff1683602001516fffffffffffffffffffffffffffffffff161461129e578060c001516201000660006101000a8154816fffffffffffffffffffffffffffffffff02191690836fffffffffffffffffffffffffffffffff1602179055505b8a1561134057806080015160018190555060008160a001516fffffffffffffffffffffffffffffffff16111561133b578060a001516201000560000160008282829054906101000a90046fffffffffffffffffffffffffffffffff166113049190618b49565b92506101000a8154816fffffffffffffffffffffffffffffffff02191690836fffffffffffffffffffffffffffffffff1602179055505b6113d8565b806080015160028190555060008160a001516fffffffffffffffffffffffffffffffff1611156113d7578060a001516201000560000160108282829054906101000a90046fffffffffffffffffffffffffffffffff166113a09190618b49565b92506101000a8154816fffffffffffffffffffffffffffffffff02191690836fffffffffffffffffffffffffffffffff1602179055505b5b8115158b1515146113fd57806020015181600001518b6113f89190618a5d565b611413565b80600001518a61140d9190618a5d565b81602001515b80965081975050508a1561153757600085121561145f5761145e7f00000000000000000000000000000000000000000000000000000000000000008d8761145990618c30565b61505b565b5b60006114696151b0565b90503373ffffffffffffffffffffffffffffffffffffffff1663fa461e3388888c8c6040518563ffffffff1660e01b81526004016114aa9493929190618cd6565b600060405180830381600087803b1580156114c457600080fd5b505af11580156114d8573d6000803e3d6000fd5b505050506114e46151b0565b87826114f09190618a29565b1115611531576040517f08c379a000000000000000000000000000000000000000000000000000000000815260040161152890618d62565b60405180910390fd5b50611649565b6000861215611575576115747f00000000000000000000000000000000000000000000000000000000000000008d8861156f90618c30565b61505b565b5b600061157f6152e7565b90503373ffffffffffffffffffffffffffffffffffffffff1663fa461e3388888c8c6040518563ffffffff1660e01b81526004016115c09493929190618cd6565b600060405180830381600087803b1580156115da57600080fd5b505af11580156115ee573d6000803e3d6000fd5b505050506115fa6152e7565b86826116069190618a29565b1115611647576040517f08c379a000000000000000000000000000000000000000000000000000000000815260040161163e90618d62565b60405180910390fd5b505b8b73ffffffffffffffffffffffffffffffffffffffff163373ffffffffffffffffffffffffffffffffffffffff167fc42079f94a6350d7e6235f29174924f928cc2ac818eb64fed8004e115fbcca67888885604001518660c0015187606001516040516116ba959493929190618d82565b60405180910390a3600160008001601e6101000a81548160ff02191690831515021790555050505050965096945050505050565b6201000660009054906101000a90046fffffffffffffffffffffffffffffffff1681565b620100058060000160009054906101000a90046fffffffffffffffffffffffffffffffff16908060000160109054906101000a90046fffffffffffffffffffffffffffffffff16905082565b60068161ffff811061176f57600080fd5b016000915090508060000160009054906101000a900463ffffffff16908060000160049054906101000a900460060b9080600001600b9054906101000a900473ffffffffffffffffffffffffffffffffffffffff169080600001601f9054906101000a900460ff16905084565b60008001601e9054906101000a900460ff1661182d576040517f08c379a000000000000000000000000000000000000000000000000000000000815260040161182490618e21565b60405180910390fd5b600080600001601e6101000a81548160ff021916908315150217905550611852613994565b600080600001601b9054906101000a900461ffff16905060006118818284600661541e9092919063ffffffff16565b90508060008001601b6101000a81548161ffff021916908361ffff1602179055508061ffff168261ffff16146118eb577fac49e518f90a358f652e4400164f05a5d8f7e35e7747279bc3a93dbf584e125a82826040516118e2929190618e41565b60405180910390a15b5050600160008001601e6101000a81548160ff02191690831515021790555050565b60008060000160009054906101000a900473ffffffffffffffffffffffffffffffffffffffff16908060000160149054906101000a900460020b908060000160179054906101000a900461ffff16908060000160199054906101000a900461ffff169080600001601b9054906101000a900461ffff169080600001601d9054906101000a900460ff169080600001601e9054906101000a900460ff16905087565b60008060008001601e9054906101000a900460ff16611a02576040517f08c379a00000000000000000000000000000000000000000000000000000000081526004016119f990618e21565b60405180910390fd5b600080600001601e6101000a81548160ff0219169083151502179055506000856fffffffffffffffffffffffffffffffff1611611a3e57600080fd5b600080611aa360405180608001604052808c73ffffffffffffffffffffffffffffffffffffffff1681526020018b60020b81526020018a60020b8152602001611a988a6fffffffffffffffffffffffffffffffff166154ee565b600f0b815250615507565b92509250508193508092506000806000861115611ac557611ac26151b0565b91505b6000851115611ad957611ad66152e7565b90505b3373ffffffffffffffffffffffffffffffffffffffff1663d348799787878b8b6040518563ffffffff1660e01b8152600401611b189493929190618e6a565b600060405180830381600087803b158015611b3257600080fd5b505af1158015611b46573d6000803e3d6000fd5b505050506000861115611ba957611b5b6151b0565b8683611b679190618a29565b1115611ba8576040517f08c379a0000000000000000000000000000000000000000000000000000000008152600401611b9f90618ef6565b60405180910390fd5b5b6000851115611c0857611bba6152e7565b8582611bc69190618a29565b1115611c07576040517f08c379a0000000000000000000000000000000000000000000000000000000008152600401611bfe90618f62565b60405180910390fd5b5b8960020b8b60020b8d73ffffffffffffffffffffffffffffffffffffffff167f7a53080ba414158be7ec69b987b5fb7d07dee101fe85488f0853ae16239d0bde338d8b8b604051611c5c9493929190618f82565b60405180910390a450505050600160008001601e6101000a81548160ff021916908315150217905550965096945050505050565b60025481565b60008001601e9054906101000a900460ff16611ce7576040517f08c379a0000000000000000000000000000000000000000000000000000000008152600401611cde90618e21565b60405180910390fd5b600080600001601e6101000a81548160ff021916908315150217905550611d0c613994565b60006201000660009054906101000a90046fffffffffffffffffffffffffffffffff1690506000816fffffffffffffffffffffffffffffffff1611611d86576040517f08c379a0000000000000000000000000000000000000000000000000000000008152600401611d7d90619013565b60405180910390fd5b6000611dbb867f000000000000000000000000000000000000000000000000000000000000000062ffffff16620f424061582f565b90506000611df2867f000000000000000000000000000000000000000000000000000000000000000062ffffff16620f424061582f565b90506000611dfe6151b0565b90506000611e0a6152e7565b90506000891115611e4157611e407f00000000000000000000000000000000000000000000000000000000000000008b8b61505b565b5b6000881115611e7657611e757f00000000000000000000000000000000000000000000000000000000000000008b8a61505b565b5b3373ffffffffffffffffffffffffffffffffffffffff1663e9cbafb085858a8a6040518563ffffffff1660e01b8152600401611eb59493929190618e6a565b600060405180830381600087803b158015611ecf57600080fd5b505af1158015611ee3573d6000803e3d6000fd5b505050506000611ef16151b0565b90506000611efd6152e7565b9050818685611f0c9190618a29565b1115611f4d576040517f08c379a0000000000000000000000000000000000000000000000000000000008152600401611f449061907f565b60405180910390fd5b808584611f5a9190618a29565b1115611f9b576040517f08c379a0000000000000000000000000000000000000000000000000000000008152600401611f92906190eb565b60405180910390fd5b60008483611fa99190618b15565b905060008483611fb99190618b15565b905060008211156120e3576000601060008001601d9054906101000a900460ff16611fe49190618981565b90506000808260ff1614612006578160ff16846120019190618ae4565b612009565b60005b90506000816fffffffffffffffffffffffffffffffff16111561208f57806201000560000160008282829054906101000a90046fffffffffffffffffffffffffffffffff166120589190618b49565b92506101000a8154816fffffffffffffffffffffffffffffffff02191690836fffffffffffffffffffffffffffffffff1602179055505b6120c8818561209e9190618b15565b7001000000000000000000000000000000008d6fffffffffffffffffffffffffffffffff16614374565b600160008282546120d99190618a29565b9250508190555050505b6000811115612206576000600460008001601d9054906101000a900460ff1660ff16901c90506000808260ff1614612129578160ff16836121249190618ae4565b61212c565b60005b90506000816fffffffffffffffffffffffffffffffff1611156121b257806201000560000160108282829054906101000a90046fffffffffffffffffffffffffffffffff1661217b9190618b49565b92506101000a8154816fffffffffffffffffffffffffffffffff02191690836fffffffffffffffffffffffffffffffff1602179055505b6121eb81846121c19190618b15565b7001000000000000000000000000000000008d6fffffffffffffffffffffffffffffffff16614374565b600260008282546121fc9190618a29565b9250508190555050505b8d73ffffffffffffffffffffffffffffffffffffffff163373ffffffffffffffffffffffffffffffffffffffff167fbdbdb71d7860376ba52b25a5028beea23581364a40522f6bcfb86bb1f2dca6338f8f8686604051612269949392919061910b565b60405180910390a3505050505050505050600160008001601e6101000a81548160ff0219169083151502179055505050505050565b60008060008001601e9054906101000a900460ff166122f2576040517f08c379a00000000000000000000000000000000000000000000000000000000081526004016122e990618e21565b60405180910390fd5b600080600001601e6101000a81548160ff0219169083151502179055506000612329338888600561589a909392919063ffffffff16565b90508060030160009054906101000a90046fffffffffffffffffffffffffffffffff166fffffffffffffffffffffffffffffffff16856fffffffffffffffffffffffffffffffff161161237c578461239e565b8060030160009054906101000a90046fffffffffffffffffffffffffffffffff165b92508060030160109054906101000a90046fffffffffffffffffffffffffffffffff166fffffffffffffffffffffffffffffffff16846fffffffffffffffffffffffffffffffff16116123f15783612413565b8060030160109054906101000a90046fffffffffffffffffffffffffffffffff165b91506000836fffffffffffffffffffffffffffffffff1611156124d357828160030160008282829054906101000a90046fffffffffffffffffffffffffffffffff1661245f9190619150565b92506101000a8154816fffffffffffffffffffffffffffffffff02191690836fffffffffffffffffffffffffffffffff1602179055506124d27f000000000000000000000000000000000000000000000000000000000000000089856fffffffffffffffffffffffffffffffff1661505b565b5b6000826fffffffffffffffffffffffffffffffff16111561259157818160030160108282829054906101000a90046fffffffffffffffffffffffffffffffff1661251d9190619150565b92506101000a8154816fffffffffffffffffffffffffffffffff02191690836fffffffffffffffffffffffffffffffff1602179055506125907f000000000000000000000000000000000000000000000000000000000000000089846fffffffffffffffffffffffffffffffff1661505b565b5b8560020b8760020b3373ffffffffffffffffffffffffffffffffffffffff167f70935338e69775456a85ddef226c395fb668b63fa0115f5f20610b388e6ca9c08b87876040516125e393929190619194565b60405180910390a450600160008001601e6101000a81548160ff0219169083151502179055509550959350505050565b60056020528060005260406000206000915090508060000160009054906101000a90046fffffffffffffffffffffffffffffffff16908060010154908060020154908060030160009054906101000a90046fffffffffffffffffffffffffffffffff16908060030160109054906101000a90046fffffffffffffffffffffffffffffffff16905085565b60046020528060005260406000206000915090505481565b7f000000000000000000000000000000000000000000000000000000000000000081565b60008001601e9054906101000a900460ff1661272a576040517f08c379a000000000000000000000000000000000000000000000000000000000815260040161272190618e21565b60405180910390fd5b600080600001601e6101000a81548160ff0219169083151502179055507f000000000000000000000000000000000000000000000000000000000000000073ffffffffffffffffffffffffffffffffffffffff16638da5cb5b6040518163ffffffff1660e01b8152600401602060405180830381865afa1580156127b2573d6000803e3d6000fd5b505050506040513d601f19601f820116820180604052508101906127d691906191e0565b73ffffffffffffffffffffffffffffffffffffffff163373ffffffffffffffffffffffffffffffffffffffff161461280d57600080fd5b60008260ff161480612833575060048260ff16101580156128325750600a8260ff1611155b5b8015612861575060008160ff161480612860575060048160ff161015801561285f5750600a8160ff1611155b5b5b61286a57600080fd5b600080600001601d9054906101000a900460ff16905060048260ff16901b83612893919061920d565b60008001601d6101000a81548160ff021916908360ff1602179055507f973d8d92bb299f4af6ce49b52a8adb85ae46b9f214c4c4fc06ac77401237b1336010826128dd9190618981565b60048360ff16901c85856040516128f79493929190619242565b60405180910390a150600160008001601e6101000a81548160ff0219169083151502179055505050565b60008060008001601e9054906101000a900460ff16612975576040517f08c379a000000000000000000000000000000000000000000000000000000000815260040161296c90618e21565b60405180910390fd5b600080600001601e6101000a81548160ff0219169083151502179055507f000000000000000000000000000000000000000000000000000000000000000073ffffffffffffffffffffffffffffffffffffffff16638da5cb5b6040518163ffffffff1660e01b8152600401602060405180830381865afa1580156129fd573d6000803e3d6000fd5b505050506040513d601f19601f82011682018060405250810190612a2191906191e0565b73ffffffffffffffffffffffffffffffffffffffff163373ffffffffffffffffffffffffffffffffffffffff1614612a5857600080fd5b6201000560000160009054906101000a90046fffffffffffffffffffffffffffffffff166fffffffffffffffffffffffffffffffff16846fffffffffffffffffffffffffffffffff1611612aac5783612ad1565b6201000560000160009054906101000a90046fffffffffffffffffffffffffffffffff165b91506201000560000160109054906101000a90046fffffffffffffffffffffffffffffffff166fffffffffffffffffffffffffffffffff16836fffffffffffffffffffffffffffffffff1611612b275782612b4c565b6201000560000160109054906101000a90046fffffffffffffffffffffffffffffffff165b90506000826fffffffffffffffffffffffffffffffff161115612c6c576201000560000160009054906101000a90046fffffffffffffffffffffffffffffffff166fffffffffffffffffffffffffffffffff16826fffffffffffffffffffffffffffffffff1603612bc6578180612bc290619287565b9250505b816201000560000160008282829054906101000a90046fffffffffffffffffffffffffffffffff16612bf89190619150565b92506101000a8154816fffffffffffffffffffffffffffffffff02191690836fffffffffffffffffffffffffffffffff160217905550612c6b7f000000000000000000000000000000000000000000000000000000000000000086846fffffffffffffffffffffffffffffffff1661505b565b5b6000816fffffffffffffffffffffffffffffffff161115612d8a576201000560000160109054906101000a90046fffffffffffffffffffffffffffffffff166fffffffffffffffffffffffffffffffff16816fffffffffffffffffffffffffffffffff1603612ce4578080612ce090619287565b9150505b806201000560000160108282829054906101000a90046fffffffffffffffffffffffffffffffff16612d169190619150565b92506101000a8154816fffffffffffffffffffffffffffffffff02191690836fffffffffffffffffffffffffffffffff160217905550612d897f000000000000000000000000000000000000000000000000000000000000000086836fffffffffffffffffffffffffffffffff1661505b565b5b8473ffffffffffffffffffffffffffffffffffffffff163373ffffffffffffffffffffffffffffffffffffffff167f596b573906218d3411850b26a6b437d6c4522fdb43d2d2386263f86d50b8b1518484604051612de9929190617d2b565b60405180910390a3600160008001601e6101000a81548160ff021916908315150217905550935093915050565b606080612e21613994565b612edc612e2c6139ee565b858580806020026020016040519081016040528093929190818152602001838360200280828437600081840152601f19601f820116905080830192505050505050506000800160149054906101000a900460020b6000800160179054906101000a900461ffff166201000660009054906101000a90046fffffffffffffffffffffffffffffffff166000800160199054906101000a900461ffff1660066158e2909695949392919063ffffffff16565b915091509250929050565b60008060008001601e9054906101000a900460ff16612f3b576040517f08c379a0000000000000000000000000000000000000000000000000000000008152600401612f3290618e21565b60405180910390fd5b600080600001601e6101000a81548160ff0219169083151502179055506000806000612fc860405180608001604052803373ffffffffffffffffffffffffffffffffffffffff1681526020018a60020b81526020018960020b8152602001612fb4896fffffffffffffffffffffffffffffffff166154ee565b612fbd90618b8d565b600f0b815250615507565b92509250925081612fd890618c30565b945080612fe490618c30565b93506000851180612ff55750600084115b156130cf57848360030160009054906101000a90046fffffffffffffffffffffffffffffffff166130269190618b49565b848460030160109054906101000a90046fffffffffffffffffffffffffffffffff166130529190618b49565b8460030160008660030160108491906101000a8154816fffffffffffffffffffffffffffffffff02191690836fffffffffffffffffffffffffffffffff1602179055508391906101000a8154816fffffffffffffffffffffffffffffffff02191690836fffffffffffffffffffffffffffffffff16021790555050505b8660020b8860020b3373ffffffffffffffffffffffffffffffffffffffff167f0c396cd989a39f4459b5fa1aed6a9a8dcdbc45908acfd67e028cd568da98982c898989604051613121939291906192b0565b60405180910390a4505050600160008001601e6101000a81548160ff021916908315150217905550935093915050565b600080600061315e613994565b6131688585615a89565b6000806000806000806000600360008d60020b60020b815260200190815260200160002090506000600360008d60020b60020b8152602001908152602001600020905060008260030160009054906101000a900460060b8360030160079054906101000a900473ffffffffffffffffffffffffffffffffffffffff1684600301601b9054906101000a900463ffffffff1685600301601f9054906101000a900460ff16809450819850829a50839c50505050508061322557600080fd5b60008260030160009054906101000a900460060b8360030160079054906101000a900473ffffffffffffffffffffffffffffffffffffffff1684600301601b9054906101000a900463ffffffff1685600301601f9054906101000a900460ff16809450819850829a50839c50505050508061329f57600080fd5b505050506000806040518060e00160405290816000820160009054906101000a900473ffffffffffffffffffffffffffffffffffffffff1673ffffffffffffffffffffffffffffffffffffffff1673ffffffffffffffffffffffffffffffffffffffff1681526020016000820160149054906101000a900460020b60020b60020b81526020016000820160179054906101000a900461ffff1661ffff1661ffff1681526020016000820160199054906101000a900461ffff1661ffff1661ffff16815260200160008201601b9054906101000a900461ffff1661ffff1661ffff16815260200160008201601d9054906101000a900460ff1660ff1660ff16815260200160008201601e9054906101000a900460ff16151515158152505090508b60020b816020015160020b12156134065785876133dc91906192e7565b84866133e89190619346565b83856133f4919061938e565b99509950995050505050505050613502565b8a60020b816020015160020b12156134d05760006134226139ee565b9050600080613472836000866020015187604001516201000660009054906101000a90046fffffffffffffffffffffffffffffffff1689606001516006614514909695949392919063ffffffff16565b91509150888a8361348391906192e7565b61348d91906192e7565b87898361349a9190619346565b6134a49190619346565b8688866134b1919061938e565b6134bb919061938e565b9c509c509c5050505050505050505050613502565b86866134dc91906192e7565b85856134e89190619346565b84846134f4919061938e565b995099509950505050505050505b9250925092565b7f000000000000000000000000000000000000000000000000000000000000000081565b7f000000000000000000000000000000000000000000000000000000000000000081565b7f000000000000000000000000000000000000000000000000000000000000000081565b7f000000000000000000000000000000000000000000000000000000000000000081565b60015481565b60036020528060005260406000206000915090508060000160009054906101000a90046fffffffffffffffffffffffffffffffff16908060000160109054906101000a9004600f0b908060010154908060020154908060030160009054906101000a900460060b908060030160079054906101000a900473ffffffffffffffffffffffffffffffffffffffff169080600301601b9054906101000a900463ffffffff169080600301601f9054906101000a900460ff16905088565b60008060000160009054906101000a900473ffffffffffffffffffffffffffffffffffffffff1673ffffffffffffffffffffffffffffffffffffffff16146136d7576040517f08c379a00000000000000000000000000000000000000000000000000000000081526004016136ce90619412565b60405180910390fd5b60006136e282614a11565b90506000806137026136f26139ee565b6006615bb090919063ffffffff16565b915091506040518060e001604052808573ffffffffffffffffffffffffffffffffffffffff1681526020018460020b8152602001600061ffff1681526020018361ffff1681526020018261ffff168152602001600060ff168152602001600115158152506000808201518160000160006101000a81548173ffffffffffffffffffffffffffffffffffffffff021916908373ffffffffffffffffffffffffffffffffffffffff16021790555060208201518160000160146101000a81548162ffffff021916908360020b62ffffff16021790555060408201518160000160176101000a81548161ffff021916908361ffff16021790555060608201518160000160196101000a81548161ffff021916908361ffff160217905550608082015181600001601b6101000a81548161ffff021916908361ffff16021790555060a082015181600001601d6101000a81548160ff021916908360ff16021790555060c082015181600001601e6101000a81548160ff0219169083151502179055509050507f98636036cb66a9c19a37435efc1e90142190214e8abeb821bdba3f2990dd4c9584846040516138b4929190619432565b60405180910390a150505050565b60008082837ffffffffffffffffffffffffffffffffffffffffffffffffffffffffffff276186138f2919061945b565b6138fc91906194c5565b9050600083847ffffffffffffffffffffffffffffffffffffffffffffffffffffffffffff2761861392c906189e1565b613936919061945b565b61394091906194c5565b9050600060018584846139539190618bd5565b61395d919061945b565b6139679190619502565b90508062ffffff166fffffffffffffffffffffffffffffffff61398a9190619539565b9350505050919050565b7f000000000000000000000000000000000000000000000000000000000000000073ffffffffffffffffffffffffffffffffffffffff163073ffffffffffffffffffffffffffffffffffffffff16146139ec57600080fd5b565b600042905090565b60008060008486613a07919061945b565b905060008660020b128015613a2b575060008587613a25919061956a565b60020b14155b15613a3f578080613a3b9061959b565b9150505b8315613b0257600080613a5183615cdd565b9150915060008160ff166001901b60018360ff166001901b613a739190618b15565b613a7d9190618a29565b90506000818b60008660010b60010b8152602001908152602001600020541690506000811415955085613ac957888360ff1686613aba9190618bd5565b613ac491906194c5565b613af7565b88613ad382615cff565b84613ade91906195e3565b60ff1686613aec9190618bd5565b613af691906194c5565b5b965050505050613bda565b600080613b1a600184613b159190619618565b615cdd565b91509150600060018260ff166001901b613b349190618b15565b1990506000818b60008660010b60010b8152602001908152602001600020541690506000811415955085613b9957888360ff613b7091906195e3565b60ff16600187613b809190619618565b613b8a9190619618565b613b9491906194c5565b613bd3565b8883613ba483615e22565b613bae91906195e3565b60ff16600187613bbe9190619618565b613bc89190619618565b613bd291906194c5565b5b9650505050505b5094509492505050565b60008060008360020b12613bfb578260020b613c09565b8260020b613c0890618c30565b5b90507ffffffffffffffffffffffffffffffffffffffffffffffffffffffffffff27618613c35906189e1565b60020b811115613c7a576040517f08c379a0000000000000000000000000000000000000000000000000000000008152600401613c71906196bf565b60405180910390fd5b6000806001831603613c9d57700100000000000000000000000000000000613caf565b6ffffcb933bd6fad37aa2d162d1a5940015b70ffffffffffffffffffffffffffffffffff16905060006002831614613cf25760806ffff97272373d413259a46990580e213a82613ced91906196df565b901c90505b60006004831614613d205760806ffff2e50f5f656932ef12357cf3c7fdcc82613d1b91906196df565b901c90505b60006008831614613d4e5760806fffe5caca7e10e4e61c3624eaa0941cd082613d4991906196df565b901c90505b60006010831614613d7c5760806fffcb9843d60f6159c9db58835c92664482613d7791906196df565b901c90505b60006020831614613daa5760806fff973b41fa98c081472e6896dfb254c082613da591906196df565b901c90505b60006040831614613dd85760806fff2ea16466c96a3843ec78b326b5286182613dd391906196df565b901c90505b60006080831614613e065760806ffe5dee046a99a2a811c461f1969c305382613e0191906196df565b901c90505b6000610100831614613e355760806ffcbe86c7900a88aedcffc83b479aa3a482613e3091906196df565b901c90505b6000610200831614613e645760806ff987a7253ac413176f2b074cf7815e5482613e5f91906196df565b901c90505b6000610400831614613e935760806ff3392b0822b70005940c7a398e4b70f382613e8e91906196df565b901c90505b6000610800831614613ec25760806fe7159475a2c29b7443b29c7fa6e889d982613ebd91906196df565b901c90505b6000611000831614613ef15760806fd097f3bdfd2022b8845ad8f792aa582582613eec91906196df565b901c90505b6000612000831614613f205760806fa9f746462d870fdf8a65dc1f90e061e582613f1b91906196df565b901c90505b6000614000831614613f4f5760806f70d869a156d2a1b890bb3df62baf32f782613f4a91906196df565b901c90505b6000618000831614613f7e5760806f31be135f97d08fd981231505542fcfa682613f7991906196df565b901c90505b600062010000831614613fae5760806f09aa508b5b7a84e1c677de54f3e99bc982613fa991906196df565b901c90505b600062020000831614613fdd5760806e5d6af8dedb81196699c329225ee60482613fd891906196df565b901c90505b60006204000083161461400b5760806d2216e584f5fa1ea926041bedfe988261400691906196df565b901c90505b6000620800008316146140375760806b048a170391f7dc42444e8fa28261403291906196df565b901c90505b60008460020b131561407257807fffffffffffffffffffffffffffffffffffffffffffffffffffffffffffffffff61406f9190618ae4565b90505b6000640100000000826140859190619721565b14614091576001614094565b60005b60ff16602082901c6140a69190618a29565b92505050919050565b60008060008060008873ffffffffffffffffffffffffffffffffffffffff168a73ffffffffffffffffffffffffffffffffffffffff16101590506000808812159050801561416757600061411a8989620f424061410c9190619752565b62ffffff16620f4240614374565b9050826141335761412e8c8c8c6001615f91565b614141565b6141408b8d8c600161607d565b5b9550858110614152578a9650614161565b61415e8c8b83866161be565b96505b506141bf565b8161417e576141798b8b8b600061607d565b61418c565b61418b8a8c8b6000615f91565b5b9350838861419990618c30565b106141a6578995506141be565b6141bb8b8a8a6141b590618c30565b85616230565b95505b5b60008673ffffffffffffffffffffffffffffffffffffffff168b73ffffffffffffffffffffffffffffffffffffffff161490508215614246578080156142025750815b61421857614213878d8c600161607d565b61421a565b855b9550808015614227575081155b61423d57614238878d8c6000615f91565b61423f565b845b9450614290565b8080156142505750815b614266576142618c888c6001615f91565b614268565b855b9550808015614275575081155b61428b576142868c888c600061607d565b61428d565b845b94505b811580156142a65750886142a390618c30565b85115b156142b857886142b590618c30565b94505b8180156142f157508a73ffffffffffffffffffffffffffffffffffffffff168773ffffffffffffffffffffffffffffffffffffffff1614155b156143095785896143029190618b15565b935061432f565b61432c868962ffffff168a620f42406143229190619752565b62ffffff1661582f565b93505b50505095509550955095915050565b60007f8000000000000000000000000000000000000000000000000000000000000000821061436c57600080fd5b819050919050565b60008060008019858709858702925082811083820303915050600081036143ae57600084116143a257600080fd5b8382049250505061450d565b8084116143ba57600080fd5b6000848688099050828111820391508083039250600085600187196143df9190618a29565b169050808604955080840493506001818260000304019050808361440391906196df565b841793506000600287600361441891906196df565b189050808761442791906196df565b60026144339190618b15565b8161443e91906196df565b9050808761444c91906196df565b60026144589190618b15565b8161446391906196df565b9050808761447191906196df565b600261447d9190618b15565b8161448891906196df565b9050808761449691906196df565b60026144a29190618b15565b816144ad91906196df565b905080876144bb91906196df565b60026144c79190618b15565b816144d291906196df565b905080876144e091906196df565b60026144ec9190618b15565b816144f791906196df565b9050808561450591906196df565b955050505050505b9392505050565b60008060008763ffffffff160361463b576000898661ffff1661ffff811061453f5761453e619789565b5b016040518060800160405290816000820160009054906101000a900463ffffffff1663ffffffff1663ffffffff1681526020016000820160049054906101000a900460060b60060b60060b815260200160008201600b9054906101000a900473ffffffffffffffffffffffffffffffffffffffff1673ffffffffffffffffffffffffffffffffffffffff1673ffffffffffffffffffffffffffffffffffffffff16815260200160008201601f9054906101000a900460ff16151515158152505090508863ffffffff16816000015163ffffffff161461462757614624818a89886162a2565b90505b806020015181604001519250925050614791565b60008789614649919061938e565b905060008061465d8c8c858c8c8c8c61639d565b91509150816000015163ffffffff168363ffffffff160361468e578160200151826040015194509450505050614791565b806000015163ffffffff168363ffffffff16036146bb578060200151816040015194509450505050614791565b6000826000015182600001516146d1919061938e565b905060008360000151856146e5919061938e565b90508063ffffffff168263ffffffff168560200151856020015161470991906192e7565b61471391906197b8565b61471d9190619822565b846020015161472c919061985f565b8263ffffffff168263ffffffff168660400151866040015161474e9190619346565b73ffffffffffffffffffffffffffffffffffffffff1661476e91906196df565b6147789190618ae4565b856040015161478791906198be565b9650965050505050505b97509795505050505050565b6000808860008960020b60020b815260200190815260200160002090508060010154876147ca9190618b15565b81600101819055508060020154866147e29190618b15565b81600201819055508060030160079054906101000a900473ffffffffffffffffffffffffffffffffffffffff168561481a9190619346565b8160030160076101000a81548173ffffffffffffffffffffffffffffffffffffffff021916908373ffffffffffffffffffffffffffffffffffffffff1602179055508060030160009054906101000a900460060b8461487991906192e7565b8160030160006101000a81548166ffffffffffffff021916908360060b66ffffffffffffff16021790555080600301601b9054906101000a900463ffffffff16836148c4919061938e565b81600301601b6101000a81548163ffffffff021916908363ffffffff1602179055508060000160109054906101000a9004600f0b915050979650505050505050565b60008082600f0b121561499557826fffffffffffffffffffffffffffffffff168261493090618b8d565b8461493b9190619150565b9150816fffffffffffffffffffffffffffffffff1610614990576040517f08c379a000000000000000000000000000000000000000000000000000000000815260040161498790619952565b60405180910390fd5b614a0b565b826fffffffffffffffffffffffffffffffff1682846149b49190618b49565b9150816fffffffffffffffffffffffffffffffff161015614a0a576040517f08c379a0000000000000000000000000000000000000000000000000000000008152600401614a01906199be565b60405180910390fd5b5b92915050565b60006401000276a373ffffffffffffffffffffffffffffffffffffffff168273ffffffffffffffffffffffffffffffffffffffff1610158015614a93575073fffd8963efd1fc6a506488495d951d5263988d2673ffffffffffffffffffffffffffffffffffffffff168273ffffffffffffffffffffffffffffffffffffffff16105b614ad2576040517f08c379a0000000000000000000000000000000000000000000000000000000008152600401614ac990619a2a565b60405180910390fd5b600060208373ffffffffffffffffffffffffffffffffffffffff16901b9050600081905060006fffffffffffffffffffffffffffffffff821160071b808217915082811c92505067ffffffffffffffff821160061b808217915082811c92505063ffffffff821160051b808217915082811c92505061ffff821160041b808217915082811c92505060ff821160031b808217915082811c925050600f821160021b808217915082811c9250506003821160011b808217915082811c9250506001821180821791505060808110614bb957607f81614baf9190618b15565b83901c9150614bcc565b80607f614bc69190618b15565b83901b91505b60006040608083614bdd9190618a5d565b901b9050828302607f1c92508260801c80603f1b8217915083811c935050828302607f1c92508260801c80603e1b8217915083811c935050828302607f1c92508260801c80603d1b8217915083811c935050828302607f1c92508260801c80603c1b8217915083811c935050828302607f1c92508260801c80603b1b8217915083811c935050828302607f1c92508260801c80603a1b8217915083811c935050828302607f1c92508260801c8060391b8217915083811c935050828302607f1c92508260801c8060381b8217915083811c935050828302607f1c92508260801c8060371b8217915083811c935050828302607f1c92508260801c8060361b8217915083811c935050828302607f1c92508260801c8060351b8217915083811c935050828302607f1c92508260801c8060341b8217915083811c935050828302607f1c92508260801c8060331b8217915083811c935050828302607f1c92508260801c8060321b82179150506000693627a301d71055774c8582614d609190619a4a565b9050600060806f028f6481ab7f045a5af012a19d003aaa83614d829190618a5d565b901d9050600060806fdb2df09e81959a81455e260799a0632f84614da69190618aa0565b901d90508060020b8260020b14614e00578873ffffffffffffffffffffffffffffffffffffffff16614dd782613be4565b73ffffffffffffffffffffffffffffffffffffffff161115614df95781614dfb565b805b614e02565b815b975050505050505050919050565b6000806000898961ffff1661ffff8110614e2d57614e2c619789565b5b016040518060800160405290816000820160009054906101000a900463ffffffff1663ffffffff1663ffffffff1681526020016000820160049054906101000a900460060b60060b60060b815260200160008201600b9054906101000a900473ffffffffffffffffffffffffffffffffffffffff1673ffffffffffffffffffffffffffffffffffffffff1673ffffffffffffffffffffffffffffffffffffffff16815260200160008201601f9054906101000a900460ff16151515158152505090508763ffffffff16816000015163ffffffff1603614f12578885925092505061504f565b8461ffff168461ffff16118015614f3c5750600185614f319190619ac2565b61ffff168961ffff16145b15614f4957839150614f4d565b8491505b8160018a614f5b9190619af8565b614f659190619b2e565b9250614f73818989896162a2565b8a8461ffff1661ffff8110614f8b57614f8a619789565b5b0160008201518160000160006101000a81548163ffffffff021916908363ffffffff16021790555060208201518160000160046101000a81548166ffffffffffffff021916908360060b66ffffffffffffff160217905550604082015181600001600b6101000a81548173ffffffffffffffffffffffffffffffffffffffff021916908373ffffffffffffffffffffffffffffffffffffffff160217905550606082015181600001601f6101000a81548160ff021916908315150217905550905050505b97509795505050505050565b6000808473ffffffffffffffffffffffffffffffffffffffff1663a9059cbb60e01b8585604051602401615090929190619b5f565b604051602081830303815290604052907bffffffffffffffffffffffffffffffffffffffffffffffffffffffff19166020820180517bffffffffffffffffffffffffffffffffffffffffffffffffffffffff83818316178352505050506040516150fa9190619bf9565b6000604051808303816000865af19150503d8060008114615137576040519150601f19603f3d011682016040523d82523d6000602084013e61513c565b606091505b509150915081801561516a57506000815114806151695750808060200190518101906151689190619c25565b5b5b6151a9576040517f08c379a00000000000000000000000000000000000000000000000000000000081526004016151a090619c9e565b60405180910390fd5b5050505050565b60008060007f000000000000000000000000000000000000000000000000000000000000000073ffffffffffffffffffffffffffffffffffffffff166370a0823160e01b306040516024016152059190617ac3565b604051602081830303815290604052907bffffffffffffffffffffffffffffffffffffffffffffffffffffffff19166020820180517bffffffffffffffffffffffffffffffffffffffffffffffffffffffff838183161783525050505060405161526f9190619bf9565b600060405180830381855afa9150503d80600081146152aa576040519150601f19603f3d011682016040523d82523d6000602084013e6152af565b606091505b50915091508180156152c357506020815110155b6152cc57600080fd5b808060200190518101906152e09190619cd3565b9250505090565b60008060007f000000000000000000000000000000000000000000000000000000000000000073ffffffffffffffffffffffffffffffffffffffff166370a0823160e01b3060405160240161533c9190617ac3565b604051602081830303815290604052907bffffffffffffffffffffffffffffffffffffffffffffffffffffffff19166020820180517bffffffffffffffffffffffffffffffffffffffffffffffffffffffff83818316178352505050506040516153a69190619bf9565b600060405180830381855afa9150503d80600081146153e1576040519150601f19603f3d011682016040523d82523d6000602084013e6153e6565b606091505b50915091508180156153fa57506020815110155b61540357600080fd5b808060200190518101906154179190619cd3565b9250505090565b6000808361ffff1611615466576040517f08c379a000000000000000000000000000000000000000000000000000000000815260040161545d90619d4c565b60405180910390fd5b8261ffff168261ffff161161547d578290506154e7565b60008390505b8261ffff168161ffff1610156154e2576001858261ffff1661ffff81106154ad576154ac619789565b5b0160000160006101000a81548163ffffffff021916908363ffffffff16021790555080806154da90619d6c565b915050615483565b508190505b9392505050565b60008182915081600f0b1461550257600080fd5b919050565b6000806000615514613994565b61552684602001518560400151615a89565b6000806040518060e00160405290816000820160009054906101000a900473ffffffffffffffffffffffffffffffffffffffff1673ffffffffffffffffffffffffffffffffffffffff1673ffffffffffffffffffffffffffffffffffffffff1681526020016000820160149054906101000a900460020b60020b60020b81526020016000820160179054906101000a900461ffff1661ffff1661ffff1681526020016000820160199054906101000a900461ffff1661ffff1661ffff16815260200160008201601b9054906101000a900461ffff1661ffff1661ffff16815260200160008201601d9054906101000a900460ff1660ff1660ff16815260200160008201601e9054906101000a900460ff161515151581525050905061566285600001518660200151876040015188606001518560200151616707565b935060008560600151600f0b1461582757846020015160020b816020015160020b12156156b7576156b06156998660200151613be4565b6156a68760400151613be4565b8760600151616962565b9250615826565b846040015160020b816020015160020b12156157fb5760006201000660009054906101000a90046fffffffffffffffffffffffffffffffff16905061572782604001516157026139ee565b846020015184866060015187608001516006614e10909695949392919063ffffffff16565b6000800160176000800160198491906101000a81548161ffff021916908361ffff1602179055508391906101000a81548161ffff021916908361ffff160217905550505061578a82600001516157808860400151613be4565b8860600151616962565b93506157ab61579c8760200151613be4565b836000015188606001516169b9565b92506157bb818760600151614906565b6201000660006101000a8154816fffffffffffffffffffffffffffffffff02191690836fffffffffffffffffffffffffffffffff16021790555050615825565b61582261580b8660200151613be4565b6158188760400151613be4565b87606001516169b9565b91505b5b5b509193909250565b600061583c848484614374565b90506000828061584f5761584e618952565b5b8486091115615893577fffffffffffffffffffffffffffffffffffffffffffffffffffffffffffffffff811061588457600080fd5b808061588f90619d96565b9150505b9392505050565b60008460008585856040516020016158b493929190619e5c565b6040516020818303038152906040528051906020012081526020019081526020016000209050949350505050565b60608060008361ffff161161592c576040517f08c379a000000000000000000000000000000000000000000000000000000000815260040161592390619d4c565b60405180910390fd5b865167ffffffffffffffff81111561594757615946619e99565b5b6040519080825280602002602001820160405280156159755781602001602082028036833780820191505090505b509150865167ffffffffffffffff81111561599357615992619e99565b5b6040519080825280602002602001820160405280156159c15781602001602082028036833780820191505090505b50905060005b8751811015615a7c576159f98a8a8a84815181106159e8576159e7619789565b5b60200260200101518a8a8a8a614514565b848381518110615a0c57615a0b619789565b5b60200260200101848481518110615a2657615a25619789565b5b602002602001018273ffffffffffffffffffffffffffffffffffffffff1673ffffffffffffffffffffffffffffffffffffffff168152508260060b60060b81525050508080615a7490619d96565b9150506159c7565b5097509795505050505050565b8060020b8260020b12615ad1576040517f08c379a0000000000000000000000000000000000000000000000000000000008152600401615ac890619f14565b60405180910390fd5b7ffffffffffffffffffffffffffffffffffffffffffffffffffffffffffff2761860020b8260020b1215615b3a576040517f08c379a0000000000000000000000000000000000000000000000000000000008152600401615b3190619f80565b60405180910390fd5b7ffffffffffffffffffffffffffffffffffffffffffffffffffffffffffff27618615b64906189e1565b60020b8160020b1315615bac576040517f08c379a0000000000000000000000000000000000000000000000000000000008152600401615ba390619fec565b60405180910390fd5b5050565b60008060405180608001604052808463ffffffff168152602001600060060b8152602001600073ffffffffffffffffffffffffffffffffffffffff1681526020016001151581525084600061ffff8110615c0d57615c0c619789565b5b0160008201518160000160006101000a81548163ffffffff021916908363ffffffff16021790555060208201518160000160046101000a81548166ffffffffffffff021916908360060b66ffffffffffffff160217905550604082015181600001600b6101000a81548173ffffffffffffffffffffffffffffffffffffffff021916908373ffffffffffffffffffffffffffffffffffffffff160217905550606082015181600001601f6101000a81548160ff021916908315150217905550905050600180915091509250929050565b60008060088360020b901d915061010083615cf8919061956a565b9050915091565b6000808211615d0d57600080fd5b7001000000000000000000000000000000008210615d3c57608082901c9150608081615d39919061920d565b90505b680100000000000000008210615d6357604082901c9150604081615d60919061920d565b90505b6401000000008210615d8657602082901c9150602081615d83919061920d565b90505b620100008210615da757601082901c9150601081615da4919061920d565b90505b6101008210615dc757600882901c9150600881615dc4919061920d565b90505b60108210615de657600482901c9150600481615de3919061920d565b90505b60048210615e0557600282901c9150600281615e02919061920d565b90505b60028210615e1d57600181615e1a919061920d565b90505b919050565b6000808211615e3057600080fd5b60ff905060006fffffffffffffffffffffffffffffffff801683161115615e6557608081615e5e91906195e3565b9050615e6d565b608082901c91505b600067ffffffffffffffff801683161115615e9657604081615e8f91906195e3565b9050615e9e565b604082901c91505b600063ffffffff801683161115615ec357602081615ebc91906195e3565b9050615ecb565b602082901c91505b600061ffff801683161115615eee57601081615ee791906195e3565b9050615ef6565b601082901c91505b600060ff801683161115615f1857600881615f1191906195e3565b9050615f20565b600882901c91505b6000600f83161115615f4057600481615f3991906195e3565b9050615f48565b600482901c91505b6000600383161115615f6857600281615f6191906195e3565b9050615f70565b600282901c91505b6000600183161115615f8c57600181615f8991906195e3565b90505b919050565b60008373ffffffffffffffffffffffffffffffffffffffff168573ffffffffffffffffffffffffffffffffffffffff161115615fd257838580955081965050505b8161602757616022836fffffffffffffffffffffffffffffffff168686615ff99190619346565b73ffffffffffffffffffffffffffffffffffffffff166c01000000000000000000000000614374565b616073565b616072836fffffffffffffffffffffffffffffffff1686866160499190619346565b73ffffffffffffffffffffffffffffffffffffffff166c0100000000000000000000000061582f565b5b9050949350505050565b60008373ffffffffffffffffffffffffffffffffffffffff168573ffffffffffffffffffffffffffffffffffffffff1611156160be57838580955081965050505b6000606060ff16846fffffffffffffffffffffffffffffffff16901b9050600086866160ea9190619346565b73ffffffffffffffffffffffffffffffffffffffff16905060008773ffffffffffffffffffffffffffffffffffffffff161161612557600080fd5b83616171578673ffffffffffffffffffffffffffffffffffffffff1661616283838973ffffffffffffffffffffffffffffffffffffffff16614374565b61616c9190618ae4565b6161b2565b6161b161619583838973ffffffffffffffffffffffffffffffffffffffff1661582f565b8873ffffffffffffffffffffffffffffffffffffffff16616a10565b5b92505050949350505050565b6000808573ffffffffffffffffffffffffffffffffffffffff16116161e257600080fd5b6000846fffffffffffffffffffffffffffffffff161161620157600080fd5b81616218576162138585856001616a23565b616226565b6162258585856001616ba0565b5b9050949350505050565b6000808573ffffffffffffffffffffffffffffffffffffffff161161625457600080fd5b6000846fffffffffffffffffffffffffffffffff161161627357600080fd5b8161628a576162858585856000616ba0565b616298565b6162978585856000616a23565b5b9050949350505050565b6162aa617a39565b60008560000151856162bc919061938e565b905060405180608001604052808663ffffffff1681526020018263ffffffff168660020b6162ea9190619822565b88602001516162f9919061985f565b60060b81526020016000856fffffffffffffffffffffffffffffffff1611616322576001616324565b845b6fffffffffffffffffffffffffffffffff1660808463ffffffff1673ffffffffffffffffffffffffffffffffffffffff16901b616361919061a00c565b886040015161637091906198be565b73ffffffffffffffffffffffffffffffffffffffff16815260200160011515815250915050949350505050565b6163a5617a39565b6163ad617a39565b888561ffff1661ffff81106163c5576163c4619789565b5b016040518060800160405290816000820160009054906101000a900463ffffffff1663ffffffff1663ffffffff1681526020016000820160049054906101000a900460060b60060b60060b815260200160008201600b9054906101000a900473ffffffffffffffffffffffffffffffffffffffff1673ffffffffffffffffffffffffffffffffffffffff1673ffffffffffffffffffffffffffffffffffffffff16815260200160008201601f9054906101000a900460ff161515151581525050915061649688836000015189616d52565b156164c9578663ffffffff16826000015163ffffffff1603156166fb57816164c0838989886162a2565b915091506166fb565b88836001876164d89190619af8565b6164e29190619b2e565b61ffff1661ffff81106164f8576164f7619789565b5b016040518060800160405290816000820160009054906101000a900463ffffffff1663ffffffff1663ffffffff1681526020016000820160049054906101000a900460060b60060b60060b815260200160008201600b9054906101000a900473ffffffffffffffffffffffffffffffffffffffff1673ffffffffffffffffffffffffffffffffffffffff1673ffffffffffffffffffffffffffffffffffffffff16815260200160008201601f9054906101000a900460ff1615151515815250509150816060015161669b5788600061ffff81106165d8576165d7619789565b5b016040518060800160405290816000820160009054906101000a900463ffffffff1663ffffffff1663ffffffff1681526020016000820160049054906101000a900460060b60060b60060b815260200160008201600b9054906101000a900473ffffffffffffffffffffffffffffffffffffffff1673ffffffffffffffffffffffffffffffffffffffff1673ffffffffffffffffffffffffffffffffffffffff16815260200160008201601f9054906101000a900460ff16151515158152505091505b6166aa88836000015189616d52565b6166e9576040517f08c379a00000000000000000000000000000000000000000000000000000000081526004016166e09061a089565b60405180910390fd5b6166f68989898887616e2c565b915091505b97509795505050505050565b6000616721868686600561589a909392919063ffffffff16565b90506000600154905060006002549050600080600087600f0b146168d65760006167496139ee565b90506000806167c28360008060000160149054906101000a900460020b6000800160179054906101000a900461ffff166201000660009054906101000a90046fffffffffffffffffffffffffffffffff166000800160199054906101000a900461ffff166006614514909695949392919063ffffffff16565b9150915061680d8c8a8c8a8a86888a60007f00000000000000000000000000000000000000000000000000000000000000006003617105909a9998979695949392919063ffffffff16565b94506168568b8a8c8a8a86888a60017f00000000000000000000000000000000000000000000000000000000000000006003617105909a9998979695949392919063ffffffff16565b93508415616895576168948c7f000000000000000000000000000000000000000000000000000000000000000060046173a99092919063ffffffff16565b5b83156168d2576168d18b7f000000000000000000000000000000000000000000000000000000000000000060046173a99092919063ffffffff16565b5b5050505b6000806168f58b8b8a898960036174199095949392919063ffffffff16565b915091506169108983838a617527909392919063ffffffff16565b600089600f0b1215616953578315616937576169368b600361789b90919063ffffffff16565b5b8215616952576169518a600361789b90919063ffffffff16565b5b5b50505050505095945050505050565b60008082600f0b126169885761698361697e858585600161607d565b61433e565b6169b0565b6169a66169a185858561699a90618b8d565b600061607d565b61433e565b6169af90618c30565b5b90509392505050565b60008082600f0b126169df576169da6169d58585856001615f91565b61433e565b616a07565b6169fd6169f88585856169f190618b8d565b6000615f91565b61433e565b616a0690618c30565b5b90509392505050565b6000808284061182840401905092915050565b60008115616adb57600073ffffffffffffffffffffffffffffffffffffffff8016841115616a7a57616a75846c01000000000000000000000000876fffffffffffffffffffffffffffffffff16614374565b616aa0565b846fffffffffffffffffffffffffffffffff16606060ff1685901b616a9f9190618ae4565b5b9050616ad3616ace828873ffffffffffffffffffffffffffffffffffffffff1661797c90919063ffffffff16565b61799f565b915050616b98565b600073ffffffffffffffffffffffffffffffffffffffff8016841115616b2a57616b25846c01000000000000000000000000876fffffffffffffffffffffffffffffffff1661582f565b616b4e565b616b4d606060ff1685901b866fffffffffffffffffffffffffffffffff16616a10565b5b9050808673ffffffffffffffffffffffffffffffffffffffff1611616b7257600080fd5b808673ffffffffffffffffffffffffffffffffffffffff16616b949190618b15565b9150505b949350505050565b6000808303616bb157849050616d4a565b6000606060ff16856fffffffffffffffffffffffffffffffff16901b90508215616cad5760008673ffffffffffffffffffffffffffffffffffffffff16858873ffffffffffffffffffffffffffffffffffffffff1687616c1191906196df565b925082616c1e9190618ae4565b03616c675760008183616c319190618a29565b9050828110616c6557616c5b838973ffffffffffffffffffffffffffffffffffffffff168361582f565b9350505050616d4a565b505b616ca482616c9f878a73ffffffffffffffffffffffffffffffffffffffff1686616c919190618ae4565b61797c90919063ffffffff16565b616a10565b92505050616d4a565b60008673ffffffffffffffffffffffffffffffffffffffff16858873ffffffffffffffffffffffffffffffffffffffff1687616ce991906196df565b925082616cf69190618ae4565b148015616d0257508082115b616d0b57600080fd5b60008183616d199190618b15565b9050616d44616d3f848a73ffffffffffffffffffffffffffffffffffffffff168461582f565b61799f565b93505050505b949350505050565b60008363ffffffff168363ffffffff1611158015616d7c57508363ffffffff168263ffffffff1611155b15616d98578163ffffffff168363ffffffff1611159050616e25565b60008463ffffffff168463ffffffff1611616dc9576401000000008463ffffffff16616dc4919061a0ba565b616dd1565b8363ffffffff165b64ffffffffff16905060008563ffffffff168463ffffffff1611616e0b576401000000008463ffffffff16616e06919061a0ba565b616e13565b8363ffffffff165b64ffffffffff16905080821115925050505b9392505050565b616e34617a39565b616e3c617a39565b600083600186616e4c9190619af8565b616e569190619b2e565b61ffff169050600060018561ffff1683616e709190618a29565b616e7a9190618b15565b905060005b6001156170f85760028284616e949190618a29565b616e9e9190618ae4565b9050898661ffff1682616eb19190619721565b61ffff8110616ec357616ec2619789565b5b016040518060800160405290816000820160009054906101000a900463ffffffff1663ffffffff1663ffffffff1681526020016000820160049054906101000a900460060b60060b60060b815260200160008201600b9054906101000a900473ffffffffffffffffffffffffffffffffffffffff1673ffffffffffffffffffffffffffffffffffffffff1673ffffffffffffffffffffffffffffffffffffffff16815260200160008201601f9054906101000a900460ff16151515158152505094508460600151616fa257600181616f9b9190618a29565b9250616e7f565b898661ffff16600183616fb59190618a29565b616fbf9190619721565b61ffff8110616fd157616fd0619789565b5b016040518060800160405290816000820160009054906101000a900463ffffffff1663ffffffff1663ffffffff1681526020016000820160049054906101000a900460060b60060b60060b815260200160008201600b9054906101000a900473ffffffffffffffffffffffffffffffffffffffff1673ffffffffffffffffffffffffffffffffffffffff1673ffffffffffffffffffffffffffffffffffffffff16815260200160008201601f9054906101000a900460ff161515151581525050935060006170a48a87600001518b616d52565b90508080156170be57506170bd8a8a8760000151616d52565b5b156170c957506170f8565b806170e2576001826170db9190618b15565b92506170f2565b6001826170ef9190618a29565b93505b50616e7f565b5050509550959350505050565b6000808c60008d60020b60020b8152602001908152602001600020905060008160000160009054906101000a90046fffffffffffffffffffffffffffffffff1690506000617153828d614906565b9050846fffffffffffffffffffffffffffffffff16816fffffffffffffffffffffffffffffffff1611156171bc576040517f08c379a00000000000000000000000000000000000000000000000000000000081526004016171b39061a13f565b60405180910390fd5b6000816fffffffffffffffffffffffffffffffff161415156000836fffffffffffffffffffffffffffffffff16141515141593506000826fffffffffffffffffffffffffffffffff16036172da578c60020b8e60020b136172bc578a8360010181905550898360020181905550888360030160076101000a81548173ffffffffffffffffffffffffffffffffffffffff021916908373ffffffffffffffffffffffffffffffffffffffff160217905550878360030160006101000a81548166ffffffffffffff021916908360060b66ffffffffffffff1602179055508683600301601b6101000a81548163ffffffff021916908363ffffffff1602179055505b600183600301601f6101000a81548160ff0219169083151502179055505b808360000160006101000a8154816fffffffffffffffffffffffffffffffff02191690836fffffffffffffffffffffffffffffffff1602179055508561733c578b8360000160109054906101000a9004600f0b617337919061a15f565b61735a565b8b8360000160109054906101000a9004600f0b617359919061a1c7565b5b8360000160106101000a8154816fffffffffffffffffffffffffffffffff0219169083600f0b6fffffffffffffffffffffffffffffffff1602179055505050509b9a5050505050505050505050565b600081836173b7919061956a565b60020b146173c457600080fd5b6000806173db83856173d6919061945b565b615cdd565b9150915060008160ff166001901b9050808660008560010b60010b815260200190815260200160002060008282541892505081905550505050505050565b60008060008860008960020b60020b8152602001908152602001600020905060008960008960020b60020b815260200190815260200160002090506000808a60020b8960020b1261747757836001015491508360020154905061749c565b8360010154886174879190618b15565b91508360020154876174999190618b15565b90505b6000808b60020b8b60020b136174bf5784600101549150846002015490506174e4565b84600101548a6174cf9190618b15565b91508460020154896174e19190618b15565b90505b83826174f09190618a29565b8a6174fb9190618b15565b975082816175099190618a29565b896175149190618b15565b9650505050505050965096945050505050565b6000846040518060a00160405290816000820160009054906101000a90046fffffffffffffffffffffffffffffffff166fffffffffffffffffffffffffffffffff166fffffffffffffffffffffffffffffffff16815260200160018201548152602001600282015481526020016003820160009054906101000a90046fffffffffffffffffffffffffffffffff166fffffffffffffffffffffffffffffffff166fffffffffffffffffffffffffffffffff1681526020016003820160109054906101000a90046fffffffffffffffffffffffffffffffff166fffffffffffffffffffffffffffffffff166fffffffffffffffffffffffffffffffff1681525050905060008085600f0b0361769a57600082600001516fffffffffffffffffffffffffffffffff160361768e576040517f08c379a00000000000000000000000000000000000000000000000000000000081526004016176859061a27b565b60405180910390fd5b816000015190506176ab565b6176a8826000015186614906565b90505b60006176ee8360200151866176c09190618b15565b84600001516fffffffffffffffffffffffffffffffff16700100000000000000000000000000000000614374565b905060006177338460400151866177059190618b15565b85600001516fffffffffffffffffffffffffffffffff16700100000000000000000000000000000000614374565b9050600087600f0b1461777c57828860000160006101000a8154816fffffffffffffffffffffffffffffffff02191690836fffffffffffffffffffffffffffffffff1602179055505b8588600101819055508488600201819055506000826fffffffffffffffffffffffffffffffff1611806177c157506000816fffffffffffffffffffffffffffffffff16115b1561789157818860030160008282829054906101000a90046fffffffffffffffffffffffffffffffff166177f59190618b49565b92506101000a8154816fffffffffffffffffffffffffffffffff02191690836fffffffffffffffffffffffffffffffff160217905550808860030160108282829054906101000a90046fffffffffffffffffffffffffffffffff1661785a9190618b49565b92506101000a8154816fffffffffffffffffffffffffffffffff02191690836fffffffffffffffffffffffffffffffff1602179055505b5050505050505050565b8160008260020b60020b8152602001908152602001600020600080820160006101000a8154906fffffffffffffffffffffffffffffffff02191690556000820160106101000a8154906fffffffffffffffffffffffffffffffff0219169055600182016000905560028201600090556003820160006101000a81549066ffffffffffffff02191690556003820160076101000a81549073ffffffffffffffffffffffffffffffffffffffff021916905560038201601b6101000a81549063ffffffff021916905560038201601f6101000a81549060ff021916905550505050565b600082828461798b9190618a29565b915081101561799957600080fd5b92915050565b6000818291508173ffffffffffffffffffffffffffffffffffffffff16146179c657600080fd5b919050565b6040518060e00160405280600073ffffffffffffffffffffffffffffffffffffffff168152602001600060020b8152602001600015158152602001600073ffffffffffffffffffffffffffffffffffffffff1681526020016000815260200160008152602001600081525090565b6040518060800160405280600063ffffffff168152602001600060060b8152602001600073ffffffffffffffffffffffffffffffffffffffff1681526020016000151581525090565b600073ffffffffffffffffffffffffffffffffffffffff82169050919050565b6000617aad82617a82565b9050919050565b617abd81617aa2565b82525050565b6000602082019050617ad86000830184617ab4565b92915050565b600080fd5b600080fd5b617af181617aa2565b8114617afc57600080fd5b50565b600081359050617b0e81617ae8565b92915050565b60008115159050919050565b617b2981617b14565b8114617b3457600080fd5b50565b600081359050617b4681617b20565b92915050565b6000819050919050565b617b5f81617b4c565b8114617b6a57600080fd5b50565b600081359050617b7c81617b56565b92915050565b617b8b81617a82565b8114617b9657600080fd5b50565b600081359050617ba881617b82565b92915050565b600080fd5b600080fd5b600080fd5b60008083601f840112617bd357617bd2617bae565b5b8235905067ffffffffffffffff811115617bf057617bef617bb3565b5b602083019150836001820283011115617c0c57617c0b617bb8565b5b9250929050565b60008060008060008060a08789031215617c3057617c2f617ade565b5b6000617c3e89828a01617aff565b9650506020617c4f89828a01617b37565b9550506040617c6089828a01617b6d565b9450506060617c7189828a01617b99565b935050608087013567ffffffffffffffff811115617c9257617c91617ae3565b5b617c9e89828a01617bbd565b92509250509295509295509295565b617cb681617b4c565b82525050565b6000604082019050617cd16000830185617cad565b617cde6020830184617cad565b9392505050565b60006fffffffffffffffffffffffffffffffff82169050919050565b617d0a81617ce5565b82525050565b6000602082019050617d256000830184617d01565b92915050565b6000604082019050617d406000830185617d01565b617d4d6020830184617d01565b9392505050565b6000819050919050565b617d6781617d54565b8114617d7257600080fd5b50565b600081359050617d8481617d5e565b92915050565b600060208284031215617da057617d9f617ade565b5b6000617dae84828501617d75565b91505092915050565b600063ffffffff82169050919050565b617dd081617db7565b82525050565b60008160060b9050919050565b617dec81617dd6565b82525050565b617dfb81617a82565b82525050565b617e0a81617b14565b82525050565b6000608082019050617e256000830187617dc7565b617e326020830186617de3565b617e3f6040830185617df2565b617e4c6060830184617e01565b95945050505050565b600061ffff82169050919050565b617e6c81617e55565b8114617e7757600080fd5b50565b600081359050617e8981617e63565b92915050565b600060208284031215617ea557617ea4617ade565b5b6000617eb384828501617e7a565b91505092915050565b60008160020b9050919050565b617ed281617ebc565b82525050565b617ee181617e55565b82525050565b600060ff82169050919050565b617efd81617ee7565b82525050565b600060e082019050617f18600083018a617df2565b617f256020830189617ec9565b617f326040830188617ed8565b617f3f6060830187617ed8565b617f4c6080830186617ed8565b617f5960a0830185617ef4565b617f6660c0830184617e01565b98975050505050505050565b617f7b81617ebc565b8114617f8657600080fd5b50565b600081359050617f9881617f72565b92915050565b617fa781617ce5565b8114617fb257600080fd5b50565b600081359050617fc481617f9e565b92915050565b60008060008060008060a08789031215617fe757617fe6617ade565b5b6000617ff589828a01617aff565b965050602061800689828a01617f89565b955050604061801789828a01617f89565b945050606061802889828a01617fb5565b935050608087013567ffffffffffffffff81111561804957618048617ae3565b5b61805589828a01617bbd565b92509250509295509295509295565b61806d81617d54565b82525050565b60006040820190506180886000830185618064565b6180956020830184618064565b9392505050565b60006020820190506180b16000830184618064565b92915050565b6000806000806000608086880312156180d3576180d2617ade565b5b60006180e188828901617aff565b95505060206180f288828901617d75565b945050604061810388828901617d75565b935050606086013567ffffffffffffffff81111561812457618123617ae3565b5b61813088828901617bbd565b92509250509295509295909350565b600080600080600060a0868803121561815b5761815a617ade565b5b600061816988828901617aff565b955050602061817a88828901617f89565b945050604061818b88828901617f89565b935050606061819c88828901617fb5565b92505060806181ad88828901617fb5565b9150509295509295909350565b6000819050919050565b6181cd816181ba565b81146181d857600080fd5b50565b6000813590506181ea816181c4565b92915050565b60006020828403121561820657618205617ade565b5b6000618214848285016181db565b91505092915050565b600060a0820190506182326000830188617d01565b61823f6020830187618064565b61824c6040830186618064565b6182596060830185617d01565b6182666080830184617d01565b9695505050505050565b60008160010b9050919050565b61828681618270565b811461829157600080fd5b50565b6000813590506182a38161827d565b92915050565b6000602082840312156182bf576182be617ade565b5b60006182cd84828501618294565b91505092915050565b6182df81617ee7565b81146182ea57600080fd5b50565b6000813590506182fc816182d6565b92915050565b6000806040838503121561831957618318617ade565b5b6000618327858286016182ed565b9250506020618338858286016182ed565b9150509250929050565b60008060006060848603121561835b5761835a617ade565b5b600061836986828701617aff565b935050602061837a86828701617fb5565b925050604061838b86828701617fb5565b9150509250925092565b60008083601f8401126183ab576183aa617bae565b5b8235905067ffffffffffffffff8111156183c8576183c7617bb3565b5b6020830191508360208202830111156183e4576183e3617bb8565b5b9250929050565b6000806020838503121561840257618401617ade565b5b600083013567ffffffffffffffff8111156184205761841f617ae3565b5b61842c85828601618395565b92509250509250929050565b600081519050919050565b600082825260208201905092915050565b6000819050602082019050919050565b61846d81617dd6565b82525050565b600061847f8383618464565b60208301905092915050565b6000602082019050919050565b60006184a382618438565b6184ad8185618443565b93506184b883618454565b8060005b838110156184e95781516184d08882618473565b97506184db8361848b565b9250506001810190506184bc565b5085935050505092915050565b600081519050919050565b600082825260208201905092915050565b6000819050602082019050919050565b61852b81617a82565b82525050565b600061853d8383618522565b60208301905092915050565b6000602082019050919050565b6000618561826184f6565b61856b8185618501565b935061857683618512565b8060005b838110156185a757815161858e8882618531565b975061859983618549565b92505060018101905061857a565b5085935050505092915050565b600060408201905081810360008301526185ce8185618498565b905081810360208301526185e28184618556565b90509392505050565b60008060006060848603121561860457618603617ade565b5b600061861286828701617f89565b935050602061862386828701617f89565b925050604061863486828701617fb5565b9150509250925092565b6000806040838503121561865557618654617ade565b5b600061866385828601617f89565b925050602061867485828601617f89565b9150509250929050565b60006060820190506186936000830186617de3565b6186a06020830185617df2565b6186ad6040830184617dc7565b949350505050565b60006020820190506186ca6000830184617ec9565b92915050565b600062ffffff82169050919050565b6186e8816186d0565b82525050565b600060208201905061870360008301846186df565b92915050565b60006020828403121561871f5761871e617ade565b5b600061872d84828501617f89565b91505092915050565b600081600f0b9050919050565b61874c81618736565b82525050565b600061010082019050618768600083018b617d01565b618775602083018a618743565b6187826040830189618064565b61878f6060830188618064565b61879c6080830187617de3565b6187a960a0830186617df2565b6187b660c0830185617dc7565b6187c360e0830184617e01565b9998505050505050505050565b6000602082840312156187e6576187e5617ade565b5b60006187f484828501617b99565b91505092915050565b600082825260208201905092915050565b7f4153000000000000000000000000000000000000000000000000000000000000600082015250565b60006188446002836187fd565b915061884f8261880e565b602082019050919050565b6000602082019050818103600083015261887381618837565b9050919050565b7f4c4f4b0000000000000000000000000000000000000000000000000000000000600082015250565b60006188b06003836187fd565b91506188bb8261887a565b602082019050919050565b600060208201905081810360008301526188df816188a3565b9050919050565b7f53504c0000000000000000000000000000000000000000000000000000000000600082015250565b600061891c6003836187fd565b9150618927826188e6565b602082019050919050565b6000602082019050818103600083015261894b8161890f565b9050919050565b7f4e487b7100000000000000000000000000000000000000000000000000000000600052601260045260246000fd5b600061898c82617ee7565b915061899783617ee7565b9250826189a7576189a6618952565b5b828206905092915050565b7f4e487b7100000000000000000000000000000000000000000000000000000000600052601160045260246000fd5b60006189ec82617ebc565b91507fffffffffffffffffffffffffffffffffffffffffffffffffffffffffff8000008203618a1e57618a1d6189b2565b5b816000039050919050565b6000618a3482617d54565b9150618a3f83617d54565b9250828201905080821115618a5757618a566189b2565b5b92915050565b6000618a6882617b4c565b9150618a7383617b4c565b9250828203905081811260008412168282136000851215161715618a9a57618a996189b2565b5b92915050565b6000618aab82617b4c565b9150618ab683617b4c565b925082820190508281121560008312168382126000841215161715618ade57618add6189b2565b5b92915050565b6000618aef82617d54565b9150618afa83617d54565b925082618b0a57618b09618952565b5b828204905092915050565b6000618b2082617d54565b9150618b2b83617d54565b9250828203905081811115618b4357618b426189b2565b5b92915050565b6000618b5482617ce5565b9150618b5f83617ce5565b925082820190506fffffffffffffffffffffffffffffffff811115618b8757618b866189b2565b5b92915050565b6000618b9882618736565b91507fffffffffffffffffffffffffffffffff800000000000000000000000000000008203618bca57618bc96189b2565b5b816000039050919050565b6000618be082617ebc565b9150618beb83617ebc565b92508282039050627fffff81137fffffffffffffffffffffffffffffffffffffffffffffffffffffffffff80000082121715618c2a57618c296189b2565b5b92915050565b6000618c3b82617b4c565b91507f80000000000000000000000000000000000000000000000000000000000000008203618c6d57618c6c6189b2565b5b816000039050919050565b600082825260208201905092915050565b82818337600083830152505050565b6000601f19601f8301169050919050565b6000618cb58385618c78565b9350618cc2838584618c89565b618ccb83618c98565b840190509392505050565b6000606082019050618ceb6000830187617cad565b618cf86020830186617cad565b8181036040830152618d0b818486618ca9565b905095945050505050565b7f4949410000000000000000000000000000000000000000000000000000000000600082015250565b6000618d4c6003836187fd565b9150618d5782618d16565b602082019050919050565b60006020820190508181036000830152618d7b81618d3f565b9050919050565b600060a082019050618d976000830188617cad565b618da46020830187617cad565b618db16040830186617df2565b618dbe6060830185617d01565b618dcb6080830184617ec9565b9695505050505050565b7f4c6f636b65640000000000000000000000000000000000000000000000000000600082015250565b6000618e0b6006836187fd565b9150618e1682618dd5565b602082019050919050565b60006020820190508181036000830152618e3a81618dfe565b9050919050565b6000604082019050618e566000830185617ed8565b618e636020830184617ed8565b9392505050565b6000606082019050618e7f6000830187618064565b618e8c6020830186618064565b8181036040830152618e9f818486618ca9565b905095945050505050565b7f4d30000000000000000000000000000000000000000000000000000000000000600082015250565b6000618ee06002836187fd565b9150618eeb82618eaa565b602082019050919050565b60006020820190508181036000830152618f0f81618ed3565b9050919050565b7f4d31000000000000000000000000000000000000000000000000000000000000600082015250565b6000618f4c6002836187fd565b9150618f5782618f16565b602082019050919050565b60006020820190508181036000830152618f7b81618f3f565b9050919050565b6000608082019050618f976000830187617ab4565b618fa46020830186617d01565b618fb16040830185618064565b618fbe6060830184618064565b95945050505050565b7f4c00000000000000000000000000000000000000000000000000000000000000600082015250565b6000618ffd6001836187fd565b915061900882618fc7565b602082019050919050565b6000602082019050818103600083015261902c81618ff0565b9050919050565b7f4630000000000000000000000000000000000000000000000000000000000000600082015250565b60006190696002836187fd565b915061907482619033565b602082019050919050565b600060208201905081810360008301526190988161905c565b9050919050565b7f4631000000000000000000000000000000000000000000000000000000000000600082015250565b60006190d56002836187fd565b91506190e08261909f565b602082019050919050565b60006020820190508181036000830152619104816190c8565b9050919050565b60006080820190506191206000830187618064565b61912d6020830186618064565b61913a6040830185618064565b6191476060830184618064565b95945050505050565b600061915b82617ce5565b915061916683617ce5565b925082820390506fffffffffffffffffffffffffffffffff81111561918e5761918d6189b2565b5b92915050565b60006060820190506191a96000830186617ab4565b6191b66020830185617d01565b6191c36040830184617d01565b949350505050565b6000815190506191da81617ae8565b92915050565b6000602082840312156191f6576191f5617ade565b5b6000619204848285016191cb565b91505092915050565b600061921882617ee7565b915061922383617ee7565b9250828201905060ff81111561923c5761923b6189b2565b5b92915050565b60006080820190506192576000830187617ef4565b6192646020830186617ef4565b6192716040830185617ef4565b61927e6060830184617ef4565b95945050505050565b600061929282617ce5565b9150600082036192a5576192a46189b2565b5b600182039050919050565b60006060820190506192c56000830186617d01565b6192d26020830185618064565b6192df6040830184618064565b949350505050565b60006192f282617dd6565b91506192fd83617dd6565b92508282039050667fffffffffffff81137fffffffffffffffffffffffffffffffffffffffffffffffffff80000000000000821217156193405761933f6189b2565b5b92915050565b600061935182617a82565b915061935c83617a82565b9250828203905073ffffffffffffffffffffffffffffffffffffffff811115619388576193876189b2565b5b92915050565b600061939982617db7565b91506193a483617db7565b9250828203905063ffffffff8111156193c0576193bf6189b2565b5b92915050565b7f416c726561647920496e697469616c697a656400000000000000000000000000600082015250565b60006193fc6013836187fd565b9150619407826193c6565b602082019050919050565b6000602082019050818103600083015261942b816193ef565b9050919050565b60006040820190506194476000830185617df2565b6194546020830184617ec9565b9392505050565b600061946682617ebc565b915061947183617ebc565b92508261948157619480618952565b5b600160000383147fffffffffffffffffffffffffffffffffffffffffffffffffffffffffff800000831416156194ba576194b96189b2565b5b828205905092915050565b60006194d082617ebc565b91506194db83617ebc565b92508282026194e981617ebc565b91508082146194fb576194fa6189b2565b5b5092915050565b600061950d826186d0565b9150619518836186d0565b9250828201905062ffffff811115619533576195326189b2565b5b92915050565b600061954482617ce5565b915061954f83617ce5565b92508261955f5761955e618952565b5b828204905092915050565b600061957582617ebc565b915061958083617ebc565b9250826195905761958f618952565b5b828207905092915050565b60006195a682617ebc565b91507fffffffffffffffffffffffffffffffffffffffffffffffffffffffffff80000082036195d8576195d76189b2565b5b600182039050919050565b60006195ee82617ee7565b91506195f983617ee7565b9250828203905060ff811115619612576196116189b2565b5b92915050565b600061962382617ebc565b915061962e83617ebc565b925082820190507fffffffffffffffffffffffffffffffffffffffffffffffffffffffffff8000008112627fffff8213171561966d5761966c6189b2565b5b92915050565b7f5400000000000000000000000000000000000000000000000000000000000000600082015250565b60006196a96001836187fd565b91506196b482619673565b602082019050919050565b600060208201905081810360008301526196d88161969c565b9050919050565b60006196ea82617d54565b91506196f583617d54565b925082820261970381617d54565b9150828204841483151761971a576197196189b2565b5b5092915050565b600061972c82617d54565b915061973783617d54565b92508261974757619746618952565b5b828206905092915050565b600061975d826186d0565b9150619768836186d0565b9250828203905062ffffff811115619783576197826189b2565b5b92915050565b7f4e487b7100000000000000000000000000000000000000000000000000000000600052603260045260246000fd5b60006197c382617dd6565b91506197ce83617dd6565b9250826197de576197dd618952565b5b600160000383147fffffffffffffffffffffffffffffffffffffffffffffffffff8000000000000083141615619817576198166189b2565b5b828205905092915050565b600061982d82617dd6565b915061983883617dd6565b925082820261984681617dd6565b9150808214619858576198576189b2565b5b5092915050565b600061986a82617dd6565b915061987583617dd6565b925082820190507fffffffffffffffffffffffffffffffffffffffffffffffffff800000000000008112667fffffffffffff821317156198b8576198b76189b2565b5b92915050565b60006198c982617a82565b91506198d483617a82565b9250828201905073ffffffffffffffffffffffffffffffffffffffff811115619900576198ff6189b2565b5b92915050565b7f4c53000000000000000000000000000000000000000000000000000000000000600082015250565b600061993c6002836187fd565b915061994782619906565b602082019050919050565b6000602082019050818103600083015261996b8161992f565b9050919050565b7f4c41000000000000000000000000000000000000000000000000000000000000600082015250565b60006199a86002836187fd565b91506199b382619972565b602082019050919050565b600060208201905081810360008301526199d78161999b565b9050919050565b7f5200000000000000000000000000000000000000000000000000000000000000600082015250565b6000619a146001836187fd565b9150619a1f826199de565b602082019050919050565b60006020820190508181036000830152619a4381619a07565b9050919050565b6000619a5582617b4c565b9150619a6083617b4c565b9250828202619a6e81617b4c565b91507f80000000000000000000000000000000000000000000000000000000000000008414600084121615619aa657619aa56189b2565b5b8282058414831517619abb57619aba6189b2565b5b5092915050565b6000619acd82617e55565b9150619ad883617e55565b9250828203905061ffff811115619af257619af16189b2565b5b92915050565b6000619b0382617e55565b9150619b0e83617e55565b9250828201905061ffff811115619b2857619b276189b2565b5b92915050565b6000619b3982617e55565b9150619b4483617e55565b925082619b5457619b53618952565b5b828206905092915050565b6000604082019050619b746000830185617ab4565b619b816020830184618064565b9392505050565b600081519050919050565b600081905092915050565b60005b83811015619bbc578082015181840152602081019050619ba1565b60008484015250505050565b6000619bd382619b88565b619bdd8185619b93565b9350619bed818560208601619b9e565b80840191505092915050565b6000619c058284619bc8565b915081905092915050565b600081519050619c1f81617b20565b92915050565b600060208284031215619c3b57619c3a617ade565b5b6000619c4984828501619c10565b91505092915050565b7f5446000000000000000000000000000000000000000000000000000000000000600082015250565b6000619c886002836187fd565b9150619c9382619c52565b602082019050919050565b60006020820190508181036000830152619cb781619c7b565b9050919050565b600081519050619ccd81617d5e565b92915050565b600060208284031215619ce957619ce8617ade565b5b6000619cf784828501619cbe565b91505092915050565b7f4900000000000000000000000000000000000000000000000000000000000000600082015250565b6000619d366001836187fd565b9150619d4182619d00565b602082019050919050565b60006020820190508181036000830152619d6581619d29565b9050919050565b6000619d7782617e55565b915061ffff8203619d8b57619d8a6189b2565b5b600182019050919050565b6000619da182617d54565b91507fffffffffffffffffffffffffffffffffffffffffffffffffffffffffffffffff8203619dd357619dd26189b2565b5b600182019050919050565b60008160601b9050919050565b6000619df682619dde565b9050919050565b6000619e0882619deb565b9050919050565b619e20619e1b82617aa2565b619dfd565b82525050565b60008160e81b9050919050565b6000619e3e82619e26565b9050919050565b619e56619e5182617ebc565b619e33565b82525050565b6000619e688286619e0f565b601482019150619e788285619e45565b600382019150619e888284619e45565b600382019150819050949350505050565b7f4e487b7100000000000000000000000000000000000000000000000000000000600052604160045260246000fd5b7f544c550000000000000000000000000000000000000000000000000000000000600082015250565b6000619efe6003836187fd565b9150619f0982619ec8565b602082019050919050565b60006020820190508181036000830152619f2d81619ef1565b9050919050565b7f544c4d0000000000000000000000000000000000000000000000000000000000600082015250565b6000619f6a6003836187fd565b9150619f7582619f34565b602082019050919050565b60006020820190508181036000830152619f9981619f5d565b9050919050565b7f54554d0000000000000000000000000000000000000000000000000000000000600082015250565b6000619fd66003836187fd565b9150619fe182619fa0565b602082019050919050565b6000602082019050818103600083015261a00581619fc9565b9050919050565b600061a01782617a82565b915061a02283617a82565b92508261a0325761a031618952565b5b828204905092915050565b7f4f4c440000000000000000000000000000000000000000000000000000000000600082015250565b600061a0736003836187fd565b915061a07e8261a03d565b602082019050919050565b6000602082019050818103600083015261a0a28161a066565b9050919050565b600064ffffffffff82169050919050565b600061a0c58261a0a9565b915061a0d08361a0a9565b9250828201905064ffffffffff81111561a0ed5761a0ec6189b2565b5b92915050565b7f6c6971756964697479206f766572666c6f770000000000000000000000000000600082015250565b600061a1296012836187fd565b915061a1348261a0f3565b602082019050919050565b6000602082019050818103600083015261a1588161a11c565b9050919050565b600061a16a82618736565b915061a17583618736565b925082820190507fffffffffffffffffffffffffffffffff8000000000000000000000000000000081126f7fffffffffffffffffffffffffffffff8213171561a1c15761a1c06189b2565b5b92915050565b600061a1d282618736565b915061a1dd83618736565b925082820390506f7fffffffffffffffffffffffffffffff81137fffffffffffffffffffffffffffffffff800000000000000000000000000000008212171561a2295761a2286189b2565b5b92915050565b7f6e6f20706f6b6500000000000000000000000000000000000000000000000000600082015250565b600061a2656007836187fd565b915061a2708261a22f565b602082019050919050565b6000602082019050818103600083015261a2948161a258565b905091905056fea2646970667358221220a720cfd73c5a200a96561324f865af03dfb4bc5750da8d493d97b3f60455b2df64736f6c63430008120033","opcodes":"PUSH2 0x160 PUSH1 0x40 MSTORE CALLVALUE DUP1 ISZERO PUSH3 0x12 JUMPI PUSH1 0x0 DUP1 REVERT JUMPDEST POP ADDRESS PUSH20 0xFFFFFFFFFFFFFFFFFFFFFFFFFFFFFFFFFFFFFFFF AND PUSH1 0x80 DUP2 PUSH20 0xFFFFFFFFFFFFFFFFFFFFFFFFFFFFFFFFFFFFFFFF AND DUP2 MSTORE POP POP PUSH1 0x0 CALLER PUSH20 0xFFFFFFFFFFFFFFFFFFFFFFFFFFFFFFFFFFFFFFFF AND PUSH4 0x89035730 PUSH1 0x40 MLOAD DUP2 PUSH4 0xFFFFFFFF AND PUSH1 0xE0 SHL DUP2 MSTORE PUSH1 0x4 ADD PUSH1 0xA0 PUSH1 0x40 MLOAD DUP1 DUP4 SUB DUP2 DUP7 GAS STATICCALL ISZERO DUP1 ISZERO PUSH3 0x95 JUMPI RETURNDATASIZE PUSH1 0x0 DUP1 RETURNDATACOPY RETURNDATASIZE PUSH1 0x0 REVERT JUMPDEST POP POP POP POP PUSH1 0x40 MLOAD RETURNDATASIZE PUSH1 0x1F NOT PUSH1 0x1F DUP3 ADD AND DUP3 ADD DUP1 PUSH1 0x40 MSTORE POP DUP2 ADD SWAP1 PUSH3 0xBB SWAP2 SWAP1 PUSH3 0x392 JUMP JUMPDEST DUP1 SWAP6 POP DUP2 PUSH3 0xFFFFFF AND PUSH2 0x100 SWAP1 PUSH3 0xFFFFFF AND DUP2 MSTORE POP DUP3 PUSH20 0xFFFFFFFFFFFFFFFFFFFFFFFFFFFFFFFFFFFFFFFF AND PUSH1 0xE0 SWAP1 PUSH20 0xFFFFFFFFFFFFFFFFFFFFFFFFFFFFFFFFFFFFFFFF AND DUP2 MSTORE POP DUP4 PUSH20 0xFFFFFFFFFFFFFFFFFFFFFFFFFFFFFFFFFFFFFFFF AND PUSH1 0xC0 SWAP1 PUSH20 0xFFFFFFFFFFFFFFFFFFFFFFFFFFFFFFFFFFFFFFFF AND DUP2 MSTORE POP DUP5 PUSH20 0xFFFFFFFFFFFFFFFFFFFFFFFFFFFFFFFFFFFFFFFF AND PUSH1 0xA0 SWAP1 PUSH20 0xFFFFFFFFFFFFFFFFFFFFFFFFFFFFFFFFFFFFFFFF AND DUP2 MSTORE POP POP POP POP POP POP DUP1 PUSH1 0x2 SIGNEXTEND PUSH2 0x120 DUP2 PUSH1 0x2 SIGNEXTEND DUP2 MSTORE POP POP PUSH3 0x193 DUP2 PUSH3 0x1C6 PUSH1 0x20 SHL PUSH3 0x38C2 OR PUSH1 0x20 SHR JUMP JUMPDEST PUSH16 0xFFFFFFFFFFFFFFFFFFFFFFFFFFFFFFFF AND PUSH2 0x140 DUP2 PUSH16 0xFFFFFFFFFFFFFFFFFFFFFFFFFFFFFFFF AND DUP2 MSTORE POP POP POP PUSH3 0x673 JUMP JUMPDEST PUSH1 0x0 DUP1 DUP3 DUP4 PUSH32 0xFFFFFFFFFFFFFFFFFFFFFFFFFFFFFFFFFFFFFFFFFFFFFFFFFFFFFFFFFFF27618 PUSH3 0x1F8 SWAP2 SWAP1 PUSH3 0x478 JUMP JUMPDEST PUSH3 0x204 SWAP2 SWAP1 PUSH3 0x4EC JUMP JUMPDEST SWAP1 POP PUSH1 0x0 DUP4 DUP5 PUSH32 0xFFFFFFFFFFFFFFFFFFFFFFFFFFFFFFFFFFFFFFFFFFFFFFFFFFFFFFFFFFF27618 PUSH3 0x236 SWAP1 PUSH3 0x532 JUMP JUMPDEST PUSH3 0x242 SWAP2 SWAP1 PUSH3 0x478 JUMP JUMPDEST PUSH3 0x24E SWAP2 SWAP1 PUSH3 0x4EC JUMP JUMPDEST SWAP1 POP PUSH1 0x0 PUSH1 0x1 DUP6 DUP5 DUP5 PUSH3 0x263 SWAP2 SWAP1 PUSH3 0x57F JUMP JUMPDEST PUSH3 0x26F SWAP2 SWAP1 PUSH3 0x478 JUMP JUMPDEST PUSH3 0x27B SWAP2 SWAP1 PUSH3 0x5E1 JUMP JUMPDEST SWAP1 POP DUP1 PUSH3 0xFFFFFF AND PUSH16 0xFFFFFFFFFFFFFFFFFFFFFFFFFFFFFFFF PUSH3 0x2A0 SWAP2 SWAP1 PUSH3 0x63B JUMP JUMPDEST SWAP4 POP POP POP POP SWAP2 SWAP1 POP JUMP JUMPDEST PUSH1 0x0 DUP1 REVERT JUMPDEST PUSH1 0x0 PUSH20 0xFFFFFFFFFFFFFFFFFFFFFFFFFFFFFFFFFFFFFFFF DUP3 AND SWAP1 POP SWAP2 SWAP1 POP JUMP JUMPDEST PUSH1 0x0 PUSH3 0x2DC DUP3 PUSH3 0x2AF JUMP JUMPDEST SWAP1 POP SWAP2 SWAP1 POP JUMP JUMPDEST PUSH3 0x2EE DUP2 PUSH3 0x2CF JUMP JUMPDEST DUP2 EQ PUSH3 0x2FA JUMPI PUSH1 0x0 DUP1 REVERT JUMPDEST POP JUMP JUMPDEST PUSH1 0x0 DUP2 MLOAD SWAP1 POP PUSH3 0x30E DUP2 PUSH3 0x2E3 JUMP JUMPDEST SWAP3 SWAP2 POP POP JUMP JUMPDEST PUSH1 0x0 PUSH3 0xFFFFFF DUP3 AND SWAP1 POP SWAP2 SWAP1 POP JUMP JUMPDEST PUSH3 0x32E DUP2 PUSH3 0x314 JUMP JUMPDEST DUP2 EQ PUSH3 0x33A JUMPI PUSH1 0x0 DUP1 REVERT JUMPDEST POP JUMP JUMPDEST PUSH1 0x0 DUP2 MLOAD SWAP1 POP PUSH3 0x34E DUP2 PUSH3 0x323 JUMP JUMPDEST SWAP3 SWAP2 POP POP JUMP JUMPDEST PUSH1 0x0 DUP2 PUSH1 0x2 SIGNEXTEND SWAP1 POP SWAP2 SWAP1 POP JUMP JUMPDEST PUSH3 0x36C DUP2 PUSH3 0x354 JUMP JUMPDEST DUP2 EQ PUSH3 0x378 JUMPI PUSH1 0x0 DUP1 REVERT JUMPDEST POP JUMP JUMPDEST PUSH1 0x0 DUP2 MLOAD SWAP1 POP PUSH3 0x38C DUP2 PUSH3 0x361 JUMP JUMPDEST SWAP3 SWAP2 POP POP JUMP JUMPDEST PUSH1 0x0 DUP1 PUSH1 0x0 DUP1 PUSH1 0x0 PUSH1 0xA0 DUP7 DUP9 SUB SLT ISZERO PUSH3 0x3B1 JUMPI PUSH3 0x3B0 PUSH3 0x2AA JUMP JUMPDEST JUMPDEST PUSH1 0x0 PUSH3 0x3C1 DUP9 DUP3 DUP10 ADD PUSH3 0x2FD JUMP JUMPDEST SWAP6 POP POP PUSH1 0x20 PUSH3 0x3D4 DUP9 DUP3 DUP10 ADD PUSH3 0x2FD JUMP JUMPDEST SWAP5 POP POP PUSH1 0x40 PUSH3 0x3E7 DUP9 DUP3 DUP10 ADD PUSH3 0x2FD JUMP JUMPDEST SWAP4 POP POP PUSH1 0x60 PUSH3 0x3FA DUP9 DUP3 DUP10 ADD PUSH3 0x33D JUMP JUMPDEST SWAP3 POP POP PUSH1 0x80 PUSH3 0x40D DUP9 DUP3 DUP10 ADD PUSH3 0x37B JUMP JUMPDEST SWAP2 POP POP SWAP3 SWAP6 POP SWAP3 SWAP6 SWAP1 SWAP4 POP JUMP JUMPDEST PUSH32 0x4E487B7100000000000000000000000000000000000000000000000000000000 PUSH1 0x0 MSTORE PUSH1 0x12 PUSH1 0x4 MSTORE PUSH1 0x24 PUSH1 0x0 REVERT JUMPDEST PUSH32 0x4E487B7100000000000000000000000000000000000000000000000000000000 PUSH1 0x0 MSTORE PUSH1 0x11 PUSH1 0x4 MSTORE PUSH1 0x24 PUSH1 0x0 REVERT JUMPDEST PUSH1 0x0 PUSH3 0x485 DUP3 PUSH3 0x354 JUMP JUMPDEST SWAP2 POP PUSH3 0x492 DUP4 PUSH3 0x354 JUMP JUMPDEST SWAP3 POP DUP3 PUSH3 0x4A5 JUMPI PUSH3 0x4A4 PUSH3 0x41A JUMP JUMPDEST JUMPDEST PUSH1 0x1 PUSH1 0x0 SUB DUP4 EQ PUSH32 0xFFFFFFFFFFFFFFFFFFFFFFFFFFFFFFFFFFFFFFFFFFFFFFFFFFFFFFFFFF800000 DUP4 EQ AND ISZERO PUSH3 0x4E1 JUMPI PUSH3 0x4E0 PUSH3 0x449 JUMP JUMPDEST JUMPDEST DUP3 DUP3 SDIV SWAP1 POP SWAP3 SWAP2 POP POP JUMP JUMPDEST PUSH1 0x0 PUSH3 0x4F9 DUP3 PUSH3 0x354 JUMP JUMPDEST SWAP2 POP PUSH3 0x506 DUP4 PUSH3 0x354 JUMP JUMPDEST SWAP3 POP DUP3 DUP3 MUL PUSH3 0x516 DUP2 PUSH3 0x354 JUMP JUMPDEST SWAP2 POP DUP1 DUP3 EQ PUSH3 0x52B JUMPI PUSH3 0x52A PUSH3 0x449 JUMP JUMPDEST JUMPDEST POP SWAP3 SWAP2 POP POP JUMP JUMPDEST PUSH1 0x0 PUSH3 0x53F DUP3 PUSH3 0x354 JUMP JUMPDEST SWAP2 POP PUSH32 0xFFFFFFFFFFFFFFFFFFFFFFFFFFFFFFFFFFFFFFFFFFFFFFFFFFFFFFFFFF800000 DUP3 SUB PUSH3 0x574 JUMPI PUSH3 0x573 PUSH3 0x449 JUMP JUMPDEST JUMPDEST DUP2 PUSH1 0x0 SUB SWAP1 POP SWAP2 SWAP1 POP JUMP JUMPDEST PUSH1 0x0 PUSH3 0x58C DUP3 PUSH3 0x354 JUMP JUMPDEST SWAP2 POP PUSH3 0x599 DUP4 PUSH3 0x354 JUMP JUMPDEST SWAP3 POP DUP3 DUP3 SUB SWAP1 POP PUSH3 0x7FFFFF DUP2 SGT PUSH32 0xFFFFFFFFFFFFFFFFFFFFFFFFFFFFFFFFFFFFFFFFFFFFFFFFFFFFFFFFFF800000 DUP3 SLT OR ISZERO PUSH3 0x5DB JUMPI PUSH3 0x5DA PUSH3 0x449 JUMP JUMPDEST JUMPDEST SWAP3 SWAP2 POP POP JUMP JUMPDEST PUSH1 0x0 PUSH3 0x5EE DUP3 PUSH3 0x314 JUMP JUMPDEST SWAP2 POP PUSH3 0x5FB DUP4 PUSH3 0x314 JUMP JUMPDEST SWAP3 POP DUP3 DUP3 ADD SWAP1 POP PUSH3 0xFFFFFF DUP2 GT ISZERO PUSH3 0x619 JUMPI PUSH3 0x618 PUSH3 0x449 JUMP JUMPDEST JUMPDEST SWAP3 SWAP2 POP POP JUMP JUMPDEST PUSH1 0x0 PUSH16 0xFFFFFFFFFFFFFFFFFFFFFFFFFFFFFFFF DUP3 AND SWAP1 POP SWAP2 SWAP1 POP JUMP JUMPDEST PUSH1 0x0 PUSH3 0x648 DUP3 PUSH3 0x61F JUMP JUMPDEST SWAP2 POP PUSH3 0x655 DUP4 PUSH3 0x61F JUMP JUMPDEST SWAP3 POP DUP3 PUSH3 0x668 JUMPI PUSH3 0x667 PUSH3 0x41A JUMP JUMPDEST JUMPDEST DUP3 DUP3 DIV SWAP1 POP SWAP3 SWAP2 POP POP JUMP JUMPDEST PUSH1 0x80 MLOAD PUSH1 0xA0 MLOAD PUSH1 0xC0 MLOAD PUSH1 0xE0 MLOAD PUSH2 0x100 MLOAD PUSH2 0x120 MLOAD PUSH2 0x140 MLOAD PUSH2 0xA2D1 PUSH3 0x75A PUSH1 0x0 CODECOPY PUSH1 0x0 DUP2 DUP2 PUSH2 0x26B7 ADD MSTORE DUP2 DUP2 PUSH2 0x67D5 ADD MSTORE PUSH2 0x681E ADD MSTORE PUSH1 0x0 DUP2 DUP2 PUSH2 0xA89 ADD MSTORE DUP2 DUP2 PUSH2 0x352F ADD MSTORE DUP2 DUP2 PUSH2 0x6864 ADD MSTORE PUSH2 0x68A1 ADD MSTORE PUSH1 0x0 DUP2 DUP2 PUSH2 0xC91 ADD MSTORE DUP2 DUP2 PUSH2 0x1D8E ADD MSTORE DUP2 DUP2 PUSH2 0x1DC5 ADD MSTORE PUSH2 0x3577 ADD MSTORE PUSH1 0x0 DUP2 DUP2 PUSH2 0x142F ADD MSTORE DUP2 DUP2 PUSH2 0x1E4F ADD MSTORE DUP2 DUP2 PUSH2 0x2558 ADD MSTORE DUP2 DUP2 PUSH2 0x2D51 ADD MSTORE DUP2 DUP2 PUSH2 0x3553 ADD MSTORE PUSH2 0x52EE ADD MSTORE PUSH1 0x0 DUP2 DUP2 PUSH2 0x57C ADD MSTORE DUP2 DUP2 PUSH2 0x1545 ADD MSTORE DUP2 DUP2 PUSH2 0x1E1A ADD MSTORE DUP2 DUP2 PUSH2 0x249A ADD MSTORE DUP2 DUP2 PUSH2 0x2C33 ADD MSTORE PUSH2 0x51B7 ADD MSTORE PUSH1 0x0 DUP2 DUP2 PUSH2 0x2749 ADD MSTORE DUP2 DUP2 PUSH2 0x2994 ADD MSTORE PUSH2 0x350B ADD MSTORE PUSH1 0x0 PUSH2 0x3996 ADD MSTORE PUSH2 0xA2D1 PUSH1 0x0 RETURN INVALID PUSH1 0x80 PUSH1 0x40 MSTORE CALLVALUE DUP1 ISZERO PUSH2 0x10 JUMPI PUSH1 0x0 DUP1 REVERT JUMPDEST POP PUSH1 0x4 CALLDATASIZE LT PUSH2 0x18E JUMPI PUSH1 0x0 CALLDATALOAD PUSH1 0xE0 SHR DUP1 PUSH4 0x70CF754A GT PUSH2 0xDE JUMPI DUP1 PUSH4 0xC45A0155 GT PUSH2 0x97 JUMPI DUP1 PUSH4 0xDDCA3F43 GT PUSH2 0x71 JUMPI DUP1 PUSH4 0xDDCA3F43 EQ PUSH2 0x4EB JUMPI DUP1 PUSH4 0xF3058399 EQ PUSH2 0x509 JUMPI DUP1 PUSH4 0xF30DBA93 EQ PUSH2 0x527 JUMPI DUP1 PUSH4 0xF637731D EQ PUSH2 0x55E JUMPI PUSH2 0x18E JUMP JUMPDEST DUP1 PUSH4 0xC45A0155 EQ PUSH2 0x491 JUMPI DUP1 PUSH4 0xD0C93A7C EQ PUSH2 0x4AF JUMPI DUP1 PUSH4 0xD21220A7 EQ PUSH2 0x4CD JUMPI PUSH2 0x18E JUMP JUMPDEST DUP1 PUSH4 0x70CF754A EQ PUSH2 0x392 JUMPI DUP1 PUSH4 0x8206A4D1 EQ PUSH2 0x3B0 JUMPI DUP1 PUSH4 0x85B66729 EQ PUSH2 0x3CC JUMPI DUP1 PUSH4 0x883BDBFD EQ PUSH2 0x3FD JUMPI DUP1 PUSH4 0xA34123A7 EQ PUSH2 0x42E JUMPI DUP1 PUSH4 0xA38807F2 EQ PUSH2 0x45F JUMPI PUSH2 0x18E JUMP JUMPDEST DUP1 PUSH4 0x3850C7BD GT PUSH2 0x14B JUMPI DUP1 PUSH4 0x490E6CBC GT PUSH2 0x125 JUMPI DUP1 PUSH4 0x490E6CBC EQ PUSH2 0x2E1 JUMPI DUP1 PUSH4 0x4F1EB3D8 EQ PUSH2 0x2FD JUMPI DUP1 PUSH4 0x514EA4BF EQ PUSH2 0x32E JUMPI DUP1 PUSH4 0x5339C296 EQ PUSH2 0x362 JUMPI PUSH2 0x18E JUMP JUMPDEST DUP1 PUSH4 0x3850C7BD EQ PUSH2 0x26E JUMPI DUP1 PUSH4 0x3C8A7D8D EQ PUSH2 0x292 JUMPI DUP1 PUSH4 0x46141319 EQ PUSH2 0x2C3 JUMPI PUSH2 0x18E JUMP JUMPDEST DUP1 PUSH4 0xDFE1681 EQ PUSH2 0x193 JUMPI DUP1 PUSH4 0x128ACB08 EQ PUSH2 0x1B1 JUMPI DUP1 PUSH4 0x1A686502 EQ PUSH2 0x1E2 JUMPI DUP1 PUSH4 0x1AD8B03B EQ PUSH2 0x200 JUMPI DUP1 PUSH4 0x252C09D7 EQ PUSH2 0x21F JUMPI DUP1 PUSH4 0x32148F67 EQ PUSH2 0x252 JUMPI JUMPDEST PUSH1 0x0 DUP1 REVERT JUMPDEST PUSH2 0x19B PUSH2 0x57A JUMP JUMPDEST PUSH1 0x40 MLOAD PUSH2 0x1A8 SWAP2 SWAP1 PUSH2 0x7AC3 JUMP JUMPDEST PUSH1 0x40 MLOAD DUP1 SWAP2 SUB SWAP1 RETURN JUMPDEST PUSH2 0x1CB PUSH1 0x4 DUP1 CALLDATASIZE SUB DUP2 ADD SWAP1 PUSH2 0x1C6 SWAP2 SWAP1 PUSH2 0x7C13 JUMP JUMPDEST PUSH2 0x59E JUMP JUMPDEST PUSH1 0x40 MLOAD PUSH2 0x1D9 SWAP3 SWAP2 SWAP1 PUSH2 0x7CBC JUMP JUMPDEST PUSH1 0x40 MLOAD DUP1 SWAP2 SUB SWAP1 RETURN JUMPDEST PUSH2 0x1EA PUSH2 0x16EE JUMP JUMPDEST PUSH1 0x40 MLOAD PUSH2 0x1F7 SWAP2 SWAP1 PUSH2 0x7D10 JUMP JUMPDEST PUSH1 0x40 MLOAD DUP1 SWAP2 SUB SWAP1 RETURN JUMPDEST PUSH2 0x208 PUSH2 0x1712 JUMP JUMPDEST PUSH1 0x40 MLOAD PUSH2 0x216 SWAP3 SWAP2 SWAP1 PUSH2 0x7D2B JUMP JUMPDEST PUSH1 0x40 MLOAD DUP1 SWAP2 SUB SWAP1 RETURN JUMPDEST PUSH2 0x239 PUSH1 0x4 DUP1 CALLDATASIZE SUB DUP2 ADD SWAP1 PUSH2 0x234 SWAP2 SWAP1 PUSH2 0x7D8A JUMP JUMPDEST PUSH2 0x175E JUMP JUMPDEST PUSH1 0x40 MLOAD PUSH2 0x249 SWAP5 SWAP4 SWAP3 SWAP2 SWAP1 PUSH2 0x7E10 JUMP JUMPDEST PUSH1 0x40 MLOAD DUP1 SWAP2 SUB SWAP1 RETURN JUMPDEST PUSH2 0x26C PUSH1 0x4 DUP1 CALLDATASIZE SUB DUP2 ADD SWAP1 PUSH2 0x267 SWAP2 SWAP1 PUSH2 0x7E8F JUMP JUMPDEST PUSH2 0x17DC JUMP JUMPDEST STOP JUMPDEST PUSH2 0x276 PUSH2 0x190D JUMP JUMPDEST PUSH1 0x40 MLOAD PUSH2 0x289 SWAP8 SWAP7 SWAP6 SWAP5 SWAP4 SWAP3 SWAP2 SWAP1 PUSH2 0x7F03 JUMP JUMPDEST PUSH1 0x40 MLOAD DUP1 SWAP2 SUB SWAP1 RETURN JUMPDEST PUSH2 0x2AC PUSH1 0x4 DUP1 CALLDATASIZE SUB DUP2 ADD SWAP1 PUSH2 0x2A7 SWAP2 SWAP1 PUSH2 0x7FCA JUMP JUMPDEST PUSH2 0x19AE JUMP JUMPDEST PUSH1 0x40 MLOAD PUSH2 0x2BA SWAP3 SWAP2 SWAP1 PUSH2 0x8073 JUMP JUMPDEST PUSH1 0x40 MLOAD DUP1 SWAP2 SUB SWAP1 RETURN JUMPDEST PUSH2 0x2CB PUSH2 0x1C90 JUMP JUMPDEST PUSH1 0x40 MLOAD PUSH2 0x2D8 SWAP2 SWAP1 PUSH2 0x809C JUMP JUMPDEST PUSH1 0x40 MLOAD DUP1 SWAP2 SUB SWAP1 RETURN JUMPDEST PUSH2 0x2FB PUSH1 0x4 DUP1 CALLDATASIZE SUB DUP2 ADD SWAP1 PUSH2 0x2F6 SWAP2 SWAP1 PUSH2 0x80B7 JUMP JUMPDEST PUSH2 0x1C96 JUMP JUMPDEST STOP JUMPDEST PUSH2 0x317 PUSH1 0x4 DUP1 CALLDATASIZE SUB DUP2 ADD SWAP1 PUSH2 0x312 SWAP2 SWAP1 PUSH2 0x813F JUMP JUMPDEST PUSH2 0x229E JUMP JUMPDEST PUSH1 0x40 MLOAD PUSH2 0x325 SWAP3 SWAP2 SWAP1 PUSH2 0x7D2B JUMP JUMPDEST PUSH1 0x40 MLOAD DUP1 SWAP2 SUB SWAP1 RETURN JUMPDEST PUSH2 0x348 PUSH1 0x4 DUP1 CALLDATASIZE SUB DUP2 ADD SWAP1 PUSH2 0x343 SWAP2 SWAP1 PUSH2 0x81F0 JUMP JUMPDEST PUSH2 0x2613 JUMP JUMPDEST PUSH1 0x40 MLOAD PUSH2 0x359 SWAP6 SWAP5 SWAP4 SWAP3 SWAP2 SWAP1 PUSH2 0x821D JUMP JUMPDEST PUSH1 0x40 MLOAD DUP1 SWAP2 SUB SWAP1 RETURN JUMPDEST PUSH2 0x37C PUSH1 0x4 DUP1 CALLDATASIZE SUB DUP2 ADD SWAP1 PUSH2 0x377 SWAP2 SWAP1 PUSH2 0x82A9 JUMP JUMPDEST PUSH2 0x269D JUMP JUMPDEST PUSH1 0x40 MLOAD PUSH2 0x389 SWAP2 SWAP1 PUSH2 0x809C JUMP JUMPDEST PUSH1 0x40 MLOAD DUP1 SWAP2 SUB SWAP1 RETURN JUMPDEST PUSH2 0x39A PUSH2 0x26B5 JUMP JUMPDEST PUSH1 0x40 MLOAD PUSH2 0x3A7 SWAP2 SWAP1 PUSH2 0x7D10 JUMP JUMPDEST PUSH1 0x40 MLOAD DUP1 SWAP2 SUB SWAP1 RETURN JUMPDEST PUSH2 0x3CA PUSH1 0x4 DUP1 CALLDATASIZE SUB DUP2 ADD SWAP1 PUSH2 0x3C5 SWAP2 SWAP1 PUSH2 0x8302 JUMP JUMPDEST PUSH2 0x26D9 JUMP JUMPDEST STOP JUMPDEST PUSH2 0x3E6 PUSH1 0x4 DUP1 CALLDATASIZE SUB DUP2 ADD SWAP1 PUSH2 0x3E1 SWAP2 SWAP1 PUSH2 0x8342 JUMP JUMPDEST PUSH2 0x2921 JUMP JUMPDEST PUSH1 0x40 MLOAD PUSH2 0x3F4 SWAP3 SWAP2 SWAP1 PUSH2 0x7D2B JUMP JUMPDEST PUSH1 0x40 MLOAD DUP1 SWAP2 SUB SWAP1 RETURN JUMPDEST PUSH2 0x417 PUSH1 0x4 DUP1 CALLDATASIZE SUB DUP2 ADD SWAP1 PUSH2 0x412 SWAP2 SWAP1 PUSH2 0x83EB JUMP JUMPDEST PUSH2 0x2E16 JUMP JUMPDEST PUSH1 0x40 MLOAD PUSH2 0x425 SWAP3 SWAP2 SWAP1 PUSH2 0x85B4 JUMP JUMPDEST PUSH1 0x40 MLOAD DUP1 SWAP2 SUB SWAP1 RETURN JUMPDEST PUSH2 0x448 PUSH1 0x4 DUP1 CALLDATASIZE SUB DUP2 ADD SWAP1 PUSH2 0x443 SWAP2 SWAP1 PUSH2 0x85EB JUMP JUMPDEST PUSH2 0x2EE7 JUMP JUMPDEST PUSH1 0x40 MLOAD PUSH2 0x456 SWAP3 SWAP2 SWAP1 PUSH2 0x8073 JUMP JUMPDEST PUSH1 0x40 MLOAD DUP1 SWAP2 SUB SWAP1 RETURN JUMPDEST PUSH2 0x479 PUSH1 0x4 DUP1 CALLDATASIZE SUB DUP2 ADD SWAP1 PUSH2 0x474 SWAP2 SWAP1 PUSH2 0x863E JUMP JUMPDEST PUSH2 0x3151 JUMP JUMPDEST PUSH1 0x40 MLOAD PUSH2 0x488 SWAP4 SWAP3 SWAP2 SWAP1 PUSH2 0x867E JUMP JUMPDEST PUSH1 0x40 MLOAD DUP1 SWAP2 SUB SWAP1 RETURN JUMPDEST PUSH2 0x499 PUSH2 0x3509 JUMP JUMPDEST PUSH1 0x40 MLOAD PUSH2 0x4A6 SWAP2 SWAP1 PUSH2 0x7AC3 JUMP JUMPDEST PUSH1 0x40 MLOAD DUP1 SWAP2 SUB SWAP1 RETURN JUMPDEST PUSH2 0x4B7 PUSH2 0x352D JUMP JUMPDEST PUSH1 0x40 MLOAD PUSH2 0x4C4 SWAP2 SWAP1 PUSH2 0x86B5 JUMP JUMPDEST PUSH1 0x40 MLOAD DUP1 SWAP2 SUB SWAP1 RETURN JUMPDEST PUSH2 0x4D5 PUSH2 0x3551 JUMP JUMPDEST PUSH1 0x40 MLOAD PUSH2 0x4E2 SWAP2 SWAP1 PUSH2 0x7AC3 JUMP JUMPDEST PUSH1 0x40 MLOAD DUP1 SWAP2 SUB SWAP1 RETURN JUMPDEST PUSH2 0x4F3 PUSH2 0x3575 JUMP JUMPDEST PUSH1 0x40 MLOAD PUSH2 0x500 SWAP2 SWAP1 PUSH2 0x86EE JUMP JUMPDEST PUSH1 0x40 MLOAD DUP1 SWAP2 SUB SWAP1 RETURN JUMPDEST PUSH2 0x511 PUSH2 0x3599 JUMP JUMPDEST PUSH1 0x40 MLOAD PUSH2 0x51E SWAP2 SWAP1 PUSH2 0x809C JUMP JUMPDEST PUSH1 0x40 MLOAD DUP1 SWAP2 SUB SWAP1 RETURN JUMPDEST PUSH2 0x541 PUSH1 0x4 DUP1 CALLDATASIZE SUB DUP2 ADD SWAP1 PUSH2 0x53C SWAP2 SWAP1 PUSH2 0x8709 JUMP JUMPDEST PUSH2 0x359F JUMP JUMPDEST PUSH1 0x40 MLOAD PUSH2 0x555 SWAP9 SWAP8 SWAP7 SWAP6 SWAP5 SWAP4 SWAP3 SWAP2 SWAP1 PUSH2 0x8752 JUMP JUMPDEST PUSH1 0x40 MLOAD DUP1 SWAP2 SUB SWAP1 RETURN JUMPDEST PUSH2 0x578 PUSH1 0x4 DUP1 CALLDATASIZE SUB DUP2 ADD SWAP1 PUSH2 0x573 SWAP2 SWAP1 PUSH2 0x87D0 JUMP JUMPDEST PUSH2 0x365A JUMP JUMPDEST STOP JUMPDEST PUSH32 0x0 DUP2 JUMP JUMPDEST PUSH1 0x0 DUP1 PUSH2 0x5A9 PUSH2 0x3994 JUMP JUMPDEST PUSH1 0x0 DUP7 SUB PUSH2 0x5EC JUMPI PUSH1 0x40 MLOAD PUSH32 0x8C379A000000000000000000000000000000000000000000000000000000000 DUP2 MSTORE PUSH1 0x4 ADD PUSH2 0x5E3 SWAP1 PUSH2 0x885A JUMP JUMPDEST PUSH1 0x40 MLOAD DUP1 SWAP2 SUB SWAP1 REVERT JUMPDEST PUSH1 0x0 DUP1 PUSH1 0x40 MLOAD DUP1 PUSH1 0xE0 ADD PUSH1 0x40 MSTORE SWAP1 DUP2 PUSH1 0x0 DUP3 ADD PUSH1 0x0 SWAP1 SLOAD SWAP1 PUSH2 0x100 EXP SWAP1 DIV PUSH20 0xFFFFFFFFFFFFFFFFFFFFFFFFFFFFFFFFFFFFFFFF AND PUSH20 0xFFFFFFFFFFFFFFFFFFFFFFFFFFFFFFFFFFFFFFFF AND PUSH20 0xFFFFFFFFFFFFFFFFFFFFFFFFFFFFFFFFFFFFFFFF AND DUP2 MSTORE PUSH1 0x20 ADD PUSH1 0x0 DUP3 ADD PUSH1 0x14 SWAP1 SLOAD SWAP1 PUSH2 0x100 EXP SWAP1 DIV PUSH1 0x2 SIGNEXTEND PUSH1 0x2 SIGNEXTEND PUSH1 0x2 SIGNEXTEND DUP2 MSTORE PUSH1 0x20 ADD PUSH1 0x0 DUP3 ADD PUSH1 0x17 SWAP1 SLOAD SWAP1 PUSH2 0x100 EXP SWAP1 DIV PUSH2 0xFFFF AND PUSH2 0xFFFF AND PUSH2 0xFFFF AND DUP2 MSTORE PUSH1 0x20 ADD PUSH1 0x0 DUP3 ADD PUSH1 0x19 SWAP1 SLOAD SWAP1 PUSH2 0x100 EXP SWAP1 DIV PUSH2 0xFFFF AND PUSH2 0xFFFF AND PUSH2 0xFFFF AND DUP2 MSTORE PUSH1 0x20 ADD PUSH1 0x0 DUP3 ADD PUSH1 0x1B SWAP1 SLOAD SWAP1 PUSH2 0x100 EXP SWAP1 DIV PUSH2 0xFFFF AND PUSH2 0xFFFF AND PUSH2 0xFFFF AND DUP2 MSTORE PUSH1 0x20 ADD PUSH1 0x0 DUP3 ADD PUSH1 0x1D SWAP1 SLOAD SWAP1 PUSH2 0x100 EXP SWAP1 DIV PUSH1 0xFF AND PUSH1 0xFF AND PUSH1 0xFF AND DUP2 MSTORE PUSH1 0x20 ADD PUSH1 0x0 DUP3 ADD PUSH1 0x1E SWAP1 SLOAD SWAP1 PUSH2 0x100 EXP SWAP1 DIV PUSH1 0xFF AND ISZERO ISZERO ISZERO ISZERO DUP2 MSTORE POP POP SWAP1 POP DUP1 PUSH1 0xC0 ADD MLOAD PUSH2 0x74B JUMPI PUSH1 0x40 MLOAD PUSH32 0x8C379A000000000000000000000000000000000000000000000000000000000 DUP2 MSTORE PUSH1 0x4 ADD PUSH2 0x742 SWAP1 PUSH2 0x88C6 JUMP JUMPDEST PUSH1 0x40 MLOAD DUP1 SWAP2 SUB SWAP1 REVERT JUMPDEST DUP8 PUSH2 0x7D3 JUMPI DUP1 PUSH1 0x0 ADD MLOAD PUSH20 0xFFFFFFFFFFFFFFFFFFFFFFFFFFFFFFFFFFFFFFFF AND DUP7 PUSH20 0xFFFFFFFFFFFFFFFFFFFFFFFFFFFFFFFFFFFFFFFF AND GT DUP1 ISZERO PUSH2 0x7CE JUMPI POP PUSH20 0xFFFD8963EFD1FC6A506488495D951D5263988D26 PUSH20 0xFFFFFFFFFFFFFFFFFFFFFFFFFFFFFFFFFFFFFFFF AND DUP7 PUSH20 0xFFFFFFFFFFFFFFFFFFFFFFFFFFFFFFFFFFFFFFFF AND LT JUMPDEST PUSH2 0x843 JUMP JUMPDEST DUP1 PUSH1 0x0 ADD MLOAD PUSH20 0xFFFFFFFFFFFFFFFFFFFFFFFFFFFFFFFFFFFFFFFF AND DUP7 PUSH20 0xFFFFFFFFFFFFFFFFFFFFFFFFFFFFFFFFFFFFFFFF AND LT DUP1 ISZERO PUSH2 0x842 JUMPI POP PUSH5 0x1000276A3 PUSH20 0xFFFFFFFFFFFFFFFFFFFFFFFFFFFFFFFFFFFFFFFF AND DUP7 PUSH20 0xFFFFFFFFFFFFFFFFFFFFFFFFFFFFFFFFFFFFFFFF AND GT JUMPDEST JUMPDEST PUSH2 0x882 JUMPI PUSH1 0x40 MLOAD PUSH32 0x8C379A000000000000000000000000000000000000000000000000000000000 DUP2 MSTORE PUSH1 0x4 ADD PUSH2 0x879 SWAP1 PUSH2 0x8932 JUMP JUMPDEST PUSH1 0x40 MLOAD DUP1 SWAP2 SUB SWAP1 REVERT JUMPDEST PUSH1 0x0 DUP1 PUSH1 0x0 ADD PUSH1 0x1E PUSH2 0x100 EXP DUP2 SLOAD DUP2 PUSH1 0xFF MUL NOT AND SWAP1 DUP4 ISZERO ISZERO MUL OR SWAP1 SSTORE POP PUSH1 0x0 PUSH1 0x40 MLOAD DUP1 PUSH1 0xC0 ADD PUSH1 0x40 MSTORE DUP1 DUP11 PUSH2 0x8C2 JUMPI PUSH1 0x4 DUP5 PUSH1 0xA0 ADD MLOAD PUSH1 0xFF AND SWAP1 SHR PUSH2 0x8D4 JUMP JUMPDEST PUSH1 0x10 DUP5 PUSH1 0xA0 ADD MLOAD PUSH2 0x8D3 SWAP2 SWAP1 PUSH2 0x8981 JUMP JUMPDEST JUMPDEST PUSH1 0xFF AND DUP2 MSTORE PUSH1 0x20 ADD PUSH3 0x10006 PUSH1 0x0 SWAP1 SLOAD SWAP1 PUSH2 0x100 EXP SWAP1 DIV PUSH16 0xFFFFFFFFFFFFFFFFFFFFFFFFFFFFFFFF AND PUSH16 0xFFFFFFFFFFFFFFFFFFFFFFFFFFFFFFFF AND DUP2 MSTORE PUSH1 0x20 ADD PUSH2 0x91C PUSH2 0x39EE JUMP JUMPDEST PUSH4 0xFFFFFFFF AND DUP2 MSTORE PUSH1 0x20 ADD PUSH1 0x0 PUSH1 0x6 SIGNEXTEND DUP2 MSTORE PUSH1 0x20 ADD PUSH1 0x0 PUSH20 0xFFFFFFFFFFFFFFFFFFFFFFFFFFFFFFFFFFFFFFFF AND DUP2 MSTORE PUSH1 0x20 ADD PUSH1 0x0 ISZERO ISZERO DUP2 MSTORE POP SWAP1 POP PUSH1 0x0 DUP1 DUP10 SGT SWAP1 POP PUSH1 0x0 PUSH1 0x40 MLOAD DUP1 PUSH1 0xE0 ADD PUSH1 0x40 MSTORE DUP1 DUP12 DUP2 MSTORE PUSH1 0x20 ADD PUSH1 0x0 DUP2 MSTORE PUSH1 0x20 ADD DUP6 PUSH1 0x0 ADD MLOAD PUSH20 0xFFFFFFFFFFFFFFFFFFFFFFFFFFFFFFFFFFFFFFFF AND DUP2 MSTORE PUSH1 0x20 ADD DUP6 PUSH1 0x20 ADD MLOAD PUSH1 0x2 SIGNEXTEND DUP2 MSTORE PUSH1 0x20 ADD DUP13 PUSH2 0x9B2 JUMPI PUSH1 0x2 SLOAD PUSH2 0x9B6 JUMP JUMPDEST PUSH1 0x1 SLOAD JUMPDEST DUP2 MSTORE PUSH1 0x20 ADD PUSH1 0x0 PUSH16 0xFFFFFFFFFFFFFFFFFFFFFFFFFFFFFFFF AND DUP2 MSTORE PUSH1 0x20 ADD DUP5 PUSH1 0x20 ADD MLOAD PUSH16 0xFFFFFFFFFFFFFFFFFFFFFFFFFFFFFFFF AND DUP2 MSTORE POP SWAP1 POP JUMPDEST PUSH1 0x0 DUP2 PUSH1 0x0 ADD MLOAD EQ ISZERO DUP1 ISZERO PUSH2 0xA36 JUMPI POP DUP9 PUSH20 0xFFFFFFFFFFFFFFFFFFFFFFFFFFFFFFFFFFFFFFFF AND DUP2 PUSH1 0x40 ADD MLOAD PUSH20 0xFFFFFFFFFFFFFFFFFFFFFFFFFFFFFFFFFFFFFFFF AND EQ ISZERO JUMPDEST ISZERO PUSH2 0x10CD JUMPI PUSH2 0xA43 PUSH2 0x79CB JUMP JUMPDEST DUP2 PUSH1 0x40 ADD MLOAD DUP2 PUSH1 0x0 ADD SWAP1 PUSH20 0xFFFFFFFFFFFFFFFFFFFFFFFFFFFFFFFFFFFFFFFF AND SWAP1 DUP2 PUSH20 0xFFFFFFFFFFFFFFFFFFFFFFFFFFFFFFFFFFFFFFFF AND DUP2 MSTORE POP POP PUSH2 0xABB DUP3 PUSH1 0x60 ADD MLOAD PUSH32 0x0 DUP15 PUSH1 0x4 PUSH2 0x39F6 SWAP1 SWAP4 SWAP3 SWAP2 SWAP1 PUSH4 0xFFFFFFFF AND JUMP JUMPDEST DUP3 PUSH1 0x20 ADD DUP4 PUSH1 0x40 ADD DUP3 ISZERO ISZERO ISZERO ISZERO DUP2 MSTORE POP DUP3 PUSH1 0x2 SIGNEXTEND PUSH1 0x2 SIGNEXTEND DUP2 MSTORE POP POP POP PUSH32 0xFFFFFFFFFFFFFFFFFFFFFFFFFFFFFFFFFFFFFFFFFFFFFFFFFFFFFFFFFFF27618 PUSH1 0x2 SIGNEXTEND DUP2 PUSH1 0x20 ADD MLOAD PUSH1 0x2 SIGNEXTEND SLT ISZERO PUSH2 0xB40 JUMPI PUSH32 0xFFFFFFFFFFFFFFFFFFFFFFFFFFFFFFFFFFFFFFFFFFFFFFFFFFFFFFFFFFF27618 DUP2 PUSH1 0x20 ADD SWAP1 PUSH1 0x2 SIGNEXTEND SWAP1 DUP2 PUSH1 0x2 SIGNEXTEND DUP2 MSTORE POP POP PUSH2 0xBB8 JUMP JUMPDEST PUSH32 0xFFFFFFFFFFFFFFFFFFFFFFFFFFFFFFFFFFFFFFFFFFFFFFFFFFFFFFFFFFF27618 PUSH2 0xB6A SWAP1 PUSH2 0x89E1 JUMP JUMPDEST PUSH1 0x2 SIGNEXTEND DUP2 PUSH1 0x20 ADD MLOAD PUSH1 0x2 SIGNEXTEND SGT ISZERO PUSH2 0xBB7 JUMPI PUSH32 0xFFFFFFFFFFFFFFFFFFFFFFFFFFFFFFFFFFFFFFFFFFFFFFFFFFFFFFFFFFF27618 PUSH2 0xBA5 SWAP1 PUSH2 0x89E1 JUMP JUMPDEST DUP2 PUSH1 0x20 ADD SWAP1 PUSH1 0x2 SIGNEXTEND SWAP1 DUP2 PUSH1 0x2 SIGNEXTEND DUP2 MSTORE POP POP JUMPDEST JUMPDEST PUSH2 0xBC5 DUP2 PUSH1 0x20 ADD MLOAD PUSH2 0x3BE4 JUMP JUMPDEST DUP2 PUSH1 0x60 ADD SWAP1 PUSH20 0xFFFFFFFFFFFFFFFFFFFFFFFFFFFFFFFFFFFFFFFF AND SWAP1 DUP2 PUSH20 0xFFFFFFFFFFFFFFFFFFFFFFFFFFFFFFFFFFFFFFFF AND DUP2 MSTORE POP POP PUSH2 0xCB5 DUP3 PUSH1 0x40 ADD MLOAD DUP14 PUSH2 0xC41 JUMPI DUP12 PUSH20 0xFFFFFFFFFFFFFFFFFFFFFFFFFFFFFFFFFFFFFFFF AND DUP4 PUSH1 0x60 ADD MLOAD PUSH20 0xFFFFFFFFFFFFFFFFFFFFFFFFFFFFFFFFFFFFFFFF AND GT PUSH2 0xC75 JUMP JUMPDEST DUP12 PUSH20 0xFFFFFFFFFFFFFFFFFFFFFFFFFFFFFFFFFFFFFFFF AND DUP4 PUSH1 0x60 ADD MLOAD PUSH20 0xFFFFFFFFFFFFFFFFFFFFFFFFFFFFFFFFFFFFFFFF AND LT JUMPDEST PUSH2 0xC83 JUMPI DUP3 PUSH1 0x60 ADD MLOAD PUSH2 0xC85 JUMP JUMPDEST DUP12 JUMPDEST DUP5 PUSH1 0xC0 ADD MLOAD DUP6 PUSH1 0x0 ADD MLOAD PUSH32 0x0 PUSH2 0x40AF JUMP JUMPDEST DUP6 PUSH1 0x40 ADD DUP6 PUSH1 0x80 ADD DUP7 PUSH1 0xA0 ADD DUP8 PUSH1 0xC0 ADD DUP5 DUP2 MSTORE POP DUP5 DUP2 MSTORE POP DUP5 DUP2 MSTORE POP DUP5 PUSH20 0xFFFFFFFFFFFFFFFFFFFFFFFFFFFFFFFFFFFFFFFF AND PUSH20 0xFFFFFFFFFFFFFFFFFFFFFFFFFFFFFFFFFFFFFFFF AND DUP2 MSTORE POP POP POP POP POP DUP3 ISZERO PUSH2 0xD69 JUMPI PUSH2 0xD27 DUP2 PUSH1 0xC0 ADD MLOAD DUP3 PUSH1 0x80 ADD MLOAD PUSH2 0xD22 SWAP2 SWAP1 PUSH2 0x8A29 JUMP JUMPDEST PUSH2 0x433E JUMP JUMPDEST DUP3 PUSH1 0x0 ADD DUP2 DUP2 MLOAD PUSH2 0xD38 SWAP2 SWAP1 PUSH2 0x8A5D JUMP JUMPDEST SWAP2 POP DUP2 DUP2 MSTORE POP POP PUSH2 0xD4C DUP2 PUSH1 0xA0 ADD MLOAD PUSH2 0x433E JUMP JUMPDEST DUP3 PUSH1 0x20 ADD MLOAD PUSH2 0xD5B SWAP2 SWAP1 PUSH2 0x8A5D JUMP JUMPDEST DUP3 PUSH1 0x20 ADD DUP2 DUP2 MSTORE POP POP PUSH2 0xDC3 JUMP JUMPDEST PUSH2 0xD76 DUP2 PUSH1 0xA0 ADD MLOAD PUSH2 0x433E JUMP JUMPDEST DUP3 PUSH1 0x0 ADD DUP2 DUP2 MLOAD PUSH2 0xD87 SWAP2 SWAP1 PUSH2 0x8AA0 JUMP JUMPDEST SWAP2 POP DUP2 DUP2 MSTORE POP POP PUSH2 0xDAA DUP2 PUSH1 0xC0 ADD MLOAD DUP3 PUSH1 0x80 ADD MLOAD PUSH2 0xDA5 SWAP2 SWAP1 PUSH2 0x8A29 JUMP JUMPDEST PUSH2 0x433E JUMP JUMPDEST DUP3 PUSH1 0x20 ADD MLOAD PUSH2 0xDB9 SWAP2 SWAP1 PUSH2 0x8AA0 JUMP JUMPDEST DUP3 PUSH1 0x20 ADD DUP2 DUP2 MSTORE POP POP JUMPDEST PUSH1 0x0 DUP5 PUSH1 0x0 ADD MLOAD PUSH1 0xFF AND GT ISZERO PUSH2 0xE48 JUMPI PUSH1 0x0 DUP5 PUSH1 0x0 ADD MLOAD PUSH1 0xFF AND DUP3 PUSH1 0xC0 ADD MLOAD PUSH2 0xDEC SWAP2 SWAP1 PUSH2 0x8AE4 JUMP JUMPDEST SWAP1 POP DUP1 DUP3 PUSH1 0xC0 ADD DUP2 DUP2 MLOAD PUSH2 0xE00 SWAP2 SWAP1 PUSH2 0x8B15 JUMP JUMPDEST SWAP2 POP DUP2 DUP2 MSTORE POP POP DUP1 DUP4 PUSH1 0xA0 ADD DUP2 DUP2 MLOAD PUSH2 0xE19 SWAP2 SWAP1 PUSH2 0x8B49 JUMP JUMPDEST SWAP2 POP SWAP1 PUSH16 0xFFFFFFFFFFFFFFFFFFFFFFFFFFFFFFFF AND SWAP1 DUP2 PUSH16 0xFFFFFFFFFFFFFFFFFFFFFFFFFFFFFFFF AND DUP2 MSTORE POP POP POP JUMPDEST PUSH1 0x0 DUP3 PUSH1 0xC0 ADD MLOAD PUSH16 0xFFFFFFFFFFFFFFFFFFFFFFFFFFFFFFFF AND GT ISZERO PUSH2 0xEB6 JUMPI PUSH2 0xE9D DUP2 PUSH1 0xC0 ADD MLOAD PUSH17 0x100000000000000000000000000000000 DUP5 PUSH1 0xC0 ADD MLOAD PUSH16 0xFFFFFFFFFFFFFFFFFFFFFFFFFFFFFFFF AND PUSH2 0x4374 JUMP JUMPDEST DUP3 PUSH1 0x80 ADD DUP2 DUP2 MLOAD PUSH2 0xEAE SWAP2 SWAP1 PUSH2 0x8A29 JUMP JUMPDEST SWAP2 POP DUP2 DUP2 MSTORE POP POP JUMPDEST DUP1 PUSH1 0x60 ADD MLOAD PUSH20 0xFFFFFFFFFFFFFFFFFFFFFFFFFFFFFFFFFFFFFFFF AND DUP3 PUSH1 0x40 ADD MLOAD PUSH20 0xFFFFFFFFFFFFFFFFFFFFFFFFFFFFFFFFFFFFFFFF AND SUB PUSH2 0x106C JUMPI DUP1 PUSH1 0x40 ADD MLOAD ISZERO PUSH2 0x1035 JUMPI DUP4 PUSH1 0xA0 ADD MLOAD PUSH2 0xF8D JUMPI PUSH2 0xF37 DUP5 PUSH1 0x40 ADD MLOAD PUSH1 0x0 DUP8 PUSH1 0x20 ADD MLOAD DUP9 PUSH1 0x40 ADD MLOAD DUP9 PUSH1 0x20 ADD MLOAD DUP11 PUSH1 0x60 ADD MLOAD PUSH1 0x6 PUSH2 0x4514 SWAP1 SWAP7 SWAP6 SWAP5 SWAP4 SWAP3 SWAP2 SWAP1 PUSH4 0xFFFFFFFF AND JUMP JUMPDEST DUP6 PUSH1 0x60 ADD DUP7 PUSH1 0x80 ADD DUP3 PUSH20 0xFFFFFFFFFFFFFFFFFFFFFFFFFFFFFFFFFFFFFFFF AND PUSH20 0xFFFFFFFFFFFFFFFFFFFFFFFFFFFFFFFFFFFFFFFF AND DUP2 MSTORE POP DUP3 PUSH1 0x6 SIGNEXTEND PUSH1 0x6 SIGNEXTEND DUP2 MSTORE POP POP POP PUSH1 0x1 DUP5 PUSH1 0xA0 ADD SWAP1 ISZERO ISZERO SWAP1 DUP2 ISZERO ISZERO DUP2 MSTORE POP POP JUMPDEST PUSH1 0x0 PUSH2 0xFE1 DUP3 PUSH1 0x20 ADD MLOAD DUP15 PUSH2 0xFA4 JUMPI PUSH1 0x1 SLOAD PUSH2 0xFAA JUMP JUMPDEST DUP5 PUSH1 0x80 ADD MLOAD JUMPDEST DUP16 PUSH2 0xFB9 JUMPI DUP6 PUSH1 0x80 ADD MLOAD PUSH2 0xFBD JUMP JUMPDEST PUSH1 0x2 SLOAD JUMPDEST DUP9 PUSH1 0x80 ADD MLOAD DUP10 PUSH1 0x60 ADD MLOAD DUP11 PUSH1 0x40 ADD MLOAD PUSH1 0x3 PUSH2 0x479D SWAP1 SWAP7 SWAP6 SWAP5 SWAP4 SWAP3 SWAP2 SWAP1 PUSH4 0xFFFFFFFF AND JUMP JUMPDEST SWAP1 POP DUP13 ISZERO PUSH2 0xFF6 JUMPI DUP1 PUSH2 0xFF3 SWAP1 PUSH2 0x8B8D JUMP JUMPDEST SWAP1 POP JUMPDEST PUSH2 0x1004 DUP4 PUSH1 0xC0 ADD MLOAD DUP3 PUSH2 0x4906 JUMP JUMPDEST DUP4 PUSH1 0xC0 ADD SWAP1 PUSH16 0xFFFFFFFFFFFFFFFFFFFFFFFFFFFFFFFF AND SWAP1 DUP2 PUSH16 0xFFFFFFFFFFFFFFFFFFFFFFFFFFFFFFFF AND DUP2 MSTORE POP POP POP JUMPDEST DUP12 PUSH2 0x1044 JUMPI DUP1 PUSH1 0x20 ADD MLOAD PUSH2 0x1056 JUMP JUMPDEST PUSH1 0x1 DUP2 PUSH1 0x20 ADD MLOAD PUSH2 0x1055 SWAP2 SWAP1 PUSH2 0x8BD5 JUMP JUMPDEST JUMPDEST DUP3 PUSH1 0x60 ADD SWAP1 PUSH1 0x2 SIGNEXTEND SWAP1 DUP2 PUSH1 0x2 SIGNEXTEND DUP2 MSTORE POP POP PUSH2 0x10C7 JUMP JUMPDEST DUP1 PUSH1 0x0 ADD MLOAD PUSH20 0xFFFFFFFFFFFFFFFFFFFFFFFFFFFFFFFFFFFFFFFF AND DUP3 PUSH1 0x40 ADD MLOAD PUSH20 0xFFFFFFFFFFFFFFFFFFFFFFFFFFFFFFFFFFFFFFFF AND EQ PUSH2 0x10C6 JUMPI PUSH2 0x10B4 DUP3 PUSH1 0x40 ADD MLOAD PUSH2 0x4A11 JUMP JUMPDEST DUP3 PUSH1 0x60 ADD SWAP1 PUSH1 0x2 SIGNEXTEND SWAP1 DUP2 PUSH1 0x2 SIGNEXTEND DUP2 MSTORE POP POP JUMPDEST JUMPDEST POP PUSH2 0x9F1 JUMP JUMPDEST DUP4 PUSH1 0x20 ADD MLOAD PUSH1 0x2 SIGNEXTEND DUP2 PUSH1 0x60 ADD MLOAD PUSH1 0x2 SIGNEXTEND EQ PUSH2 0x11E3 JUMPI PUSH1 0x0 DUP1 PUSH2 0x111B DUP7 PUSH1 0x40 ADD MLOAD DUP7 PUSH1 0x40 ADD MLOAD DUP9 PUSH1 0x20 ADD MLOAD DUP9 PUSH1 0x20 ADD MLOAD DUP11 PUSH1 0x60 ADD MLOAD DUP12 PUSH1 0x80 ADD MLOAD PUSH1 0x6 PUSH2 0x4E10 SWAP1 SWAP7 SWAP6 SWAP5 SWAP4 SWAP3 SWAP2 SWAP1 PUSH4 0xFFFFFFFF AND JUMP JUMPDEST SWAP2 POP SWAP2 POP DUP3 PUSH1 0x40 ADD MLOAD DUP4 PUSH1 0x60 ADD MLOAD DUP4 DUP4 PUSH1 0x0 DUP1 ADD PUSH1 0x0 DUP1 PUSH1 0x0 ADD PUSH1 0x14 PUSH1 0x0 DUP1 ADD PUSH1 0x17 PUSH1 0x0 DUP1 ADD PUSH1 0x19 DUP9 SWAP2 SWAP1 PUSH2 0x100 EXP DUP2 SLOAD DUP2 PUSH2 0xFFFF MUL NOT AND SWAP1 DUP4 PUSH2 0xFFFF AND MUL OR SWAP1 SSTORE POP DUP8 SWAP2 SWAP1 PUSH2 0x100 EXP DUP2 SLOAD DUP2 PUSH2 0xFFFF MUL NOT AND SWAP1 DUP4 PUSH2 0xFFFF AND MUL OR SWAP1 SSTORE POP DUP7 SWAP2 SWAP1 PUSH2 0x100 EXP DUP2 SLOAD DUP2 PUSH3 0xFFFFFF MUL NOT AND SWAP1 DUP4 PUSH1 0x2 SIGNEXTEND PUSH3 0xFFFFFF AND MUL OR SWAP1 SSTORE POP DUP6 SWAP2 SWAP1 PUSH2 0x100 EXP DUP2 SLOAD DUP2 PUSH20 0xFFFFFFFFFFFFFFFFFFFFFFFFFFFFFFFFFFFFFFFF MUL NOT AND SWAP1 DUP4 PUSH20 0xFFFFFFFFFFFFFFFFFFFFFFFFFFFFFFFFFFFFFFFF AND MUL OR SWAP1 SSTORE POP POP POP POP POP POP POP PUSH2 0x122B JUMP JUMPDEST DUP1 PUSH1 0x40 ADD MLOAD PUSH1 0x0 DUP1 ADD PUSH1 0x0 PUSH2 0x100 EXP DUP2 SLOAD DUP2 PUSH20 0xFFFFFFFFFFFFFFFFFFFFFFFFFFFFFFFFFFFFFFFF MUL NOT AND SWAP1 DUP4 PUSH20 0xFFFFFFFFFFFFFFFFFFFFFFFFFFFFFFFFFFFFFFFF AND MUL OR SWAP1 SSTORE POP JUMPDEST DUP1 PUSH1 0xC0 ADD MLOAD PUSH16 0xFFFFFFFFFFFFFFFFFFFFFFFFFFFFFFFF AND DUP4 PUSH1 0x20 ADD MLOAD PUSH16 0xFFFFFFFFFFFFFFFFFFFFFFFFFFFFFFFF AND EQ PUSH2 0x129E JUMPI DUP1 PUSH1 0xC0 ADD MLOAD PUSH3 0x10006 PUSH1 0x0 PUSH2 0x100 EXP DUP2 SLOAD DUP2 PUSH16 0xFFFFFFFFFFFFFFFFFFFFFFFFFFFFFFFF MUL NOT AND SWAP1 DUP4 PUSH16 0xFFFFFFFFFFFFFFFFFFFFFFFFFFFFFFFF AND MUL OR SWAP1 SSTORE POP JUMPDEST DUP11 ISZERO PUSH2 0x1340 JUMPI DUP1 PUSH1 0x80 ADD MLOAD PUSH1 0x1 DUP2 SWAP1 SSTORE POP PUSH1 0x0 DUP2 PUSH1 0xA0 ADD MLOAD PUSH16 0xFFFFFFFFFFFFFFFFFFFFFFFFFFFFFFFF AND GT ISZERO PUSH2 0x133B JUMPI DUP1 PUSH1 0xA0 ADD MLOAD PUSH3 0x10005 PUSH1 0x0 ADD PUSH1 0x0 DUP3 DUP3 DUP3 SWAP1 SLOAD SWAP1 PUSH2 0x100 EXP SWAP1 DIV PUSH16 0xFFFFFFFFFFFFFFFFFFFFFFFFFFFFFFFF AND PUSH2 0x1304 SWAP2 SWAP1 PUSH2 0x8B49 JUMP JUMPDEST SWAP3 POP PUSH2 0x100 EXP DUP2 SLOAD DUP2 PUSH16 0xFFFFFFFFFFFFFFFFFFFFFFFFFFFFFFFF MUL NOT AND SWAP1 DUP4 PUSH16 0xFFFFFFFFFFFFFFFFFFFFFFFFFFFFFFFF AND MUL OR SWAP1 SSTORE POP JUMPDEST PUSH2 0x13D8 JUMP JUMPDEST DUP1 PUSH1 0x80 ADD MLOAD PUSH1 0x2 DUP2 SWAP1 SSTORE POP PUSH1 0x0 DUP2 PUSH1 0xA0 ADD MLOAD PUSH16 0xFFFFFFFFFFFFFFFFFFFFFFFFFFFFFFFF AND GT ISZERO PUSH2 0x13D7 JUMPI DUP1 PUSH1 0xA0 ADD MLOAD PUSH3 0x10005 PUSH1 0x0 ADD PUSH1 0x10 DUP3 DUP3 DUP3 SWAP1 SLOAD SWAP1 PUSH2 0x100 EXP SWAP1 DIV PUSH16 0xFFFFFFFFFFFFFFFFFFFFFFFFFFFFFFFF AND PUSH2 0x13A0 SWAP2 SWAP1 PUSH2 0x8B49 JUMP JUMPDEST SWAP3 POP PUSH2 0x100 EXP DUP2 SLOAD DUP2 PUSH16 0xFFFFFFFFFFFFFFFFFFFFFFFFFFFFFFFF MUL NOT AND SWAP1 DUP4 PUSH16 0xFFFFFFFFFFFFFFFFFFFFFFFFFFFFFFFF AND MUL OR SWAP1 SSTORE POP JUMPDEST JUMPDEST DUP2 ISZERO ISZERO DUP12 ISZERO ISZERO EQ PUSH2 0x13FD JUMPI DUP1 PUSH1 0x20 ADD MLOAD DUP2 PUSH1 0x0 ADD MLOAD DUP12 PUSH2 0x13F8 SWAP2 SWAP1 PUSH2 0x8A5D JUMP JUMPDEST PUSH2 0x1413 JUMP JUMPDEST DUP1 PUSH1 0x0 ADD MLOAD DUP11 PUSH2 0x140D SWAP2 SWAP1 PUSH2 0x8A5D JUMP JUMPDEST DUP2 PUSH1 0x20 ADD MLOAD JUMPDEST DUP1 SWAP7 POP DUP2 SWAP8 POP POP POP DUP11 ISZERO PUSH2 0x1537 JUMPI PUSH1 0x0 DUP6 SLT ISZERO PUSH2 0x145F JUMPI PUSH2 0x145E PUSH32 0x0 DUP14 DUP8 PUSH2 0x1459 SWAP1 PUSH2 0x8C30 JUMP JUMPDEST PUSH2 0x505B JUMP JUMPDEST JUMPDEST PUSH1 0x0 PUSH2 0x1469 PUSH2 0x51B0 JUMP JUMPDEST SWAP1 POP CALLER PUSH20 0xFFFFFFFFFFFFFFFFFFFFFFFFFFFFFFFFFFFFFFFF AND PUSH4 0xFA461E33 DUP9 DUP9 DUP13 DUP13 PUSH1 0x40 MLOAD DUP6 PUSH4 0xFFFFFFFF AND PUSH1 0xE0 SHL DUP2 MSTORE PUSH1 0x4 ADD PUSH2 0x14AA SWAP5 SWAP4 SWAP3 SWAP2 SWAP1 PUSH2 0x8CD6 JUMP JUMPDEST PUSH1 0x0 PUSH1 0x40 MLOAD DUP1 DUP4 SUB DUP2 PUSH1 0x0 DUP8 DUP1 EXTCODESIZE ISZERO DUP1 ISZERO PUSH2 0x14C4 JUMPI PUSH1 0x0 DUP1 REVERT JUMPDEST POP GAS CALL ISZERO DUP1 ISZERO PUSH2 0x14D8 JUMPI RETURNDATASIZE PUSH1 0x0 DUP1 RETURNDATACOPY RETURNDATASIZE PUSH1 0x0 REVERT JUMPDEST POP POP POP POP PUSH2 0x14E4 PUSH2 0x51B0 JUMP JUMPDEST DUP8 DUP3 PUSH2 0x14F0 SWAP2 SWAP1 PUSH2 0x8A29 JUMP JUMPDEST GT ISZERO PUSH2 0x1531 JUMPI PUSH1 0x40 MLOAD PUSH32 0x8C379A000000000000000000000000000000000000000000000000000000000 DUP2 MSTORE PUSH1 0x4 ADD PUSH2 0x1528 SWAP1 PUSH2 0x8D62 JUMP JUMPDEST PUSH1 0x40 MLOAD DUP1 SWAP2 SUB SWAP1 REVERT JUMPDEST POP PUSH2 0x1649 JUMP JUMPDEST PUSH1 0x0 DUP7 SLT ISZERO PUSH2 0x1575 JUMPI PUSH2 0x1574 PUSH32 0x0 DUP14 DUP9 PUSH2 0x156F SWAP1 PUSH2 0x8C30 JUMP JUMPDEST PUSH2 0x505B JUMP JUMPDEST JUMPDEST PUSH1 0x0 PUSH2 0x157F PUSH2 0x52E7 JUMP JUMPDEST SWAP1 POP CALLER PUSH20 0xFFFFFFFFFFFFFFFFFFFFFFFFFFFFFFFFFFFFFFFF AND PUSH4 0xFA461E33 DUP9 DUP9 DUP13 DUP13 PUSH1 0x40 MLOAD DUP6 PUSH4 0xFFFFFFFF AND PUSH1 0xE0 SHL DUP2 MSTORE PUSH1 0x4 ADD PUSH2 0x15C0 SWAP5 SWAP4 SWAP3 SWAP2 SWAP1 PUSH2 0x8CD6 JUMP JUMPDEST PUSH1 0x0 PUSH1 0x40 MLOAD DUP1 DUP4 SUB DUP2 PUSH1 0x0 DUP8 DUP1 EXTCODESIZE ISZERO DUP1 ISZERO PUSH2 0x15DA JUMPI PUSH1 0x0 DUP1 REVERT JUMPDEST POP GAS CALL ISZERO DUP1 ISZERO PUSH2 0x15EE JUMPI RETURNDATASIZE PUSH1 0x0 DUP1 RETURNDATACOPY RETURNDATASIZE PUSH1 0x0 REVERT JUMPDEST POP POP POP POP PUSH2 0x15FA PUSH2 0x52E7 JUMP JUMPDEST DUP7 DUP3 PUSH2 0x1606 SWAP2 SWAP1 PUSH2 0x8A29 JUMP JUMPDEST GT ISZERO PUSH2 0x1647 JUMPI PUSH1 0x40 MLOAD PUSH32 0x8C379A000000000000000000000000000000000000000000000000000000000 DUP2 MSTORE PUSH1 0x4 ADD PUSH2 0x163E SWAP1 PUSH2 0x8D62 JUMP JUMPDEST PUSH1 0x40 MLOAD DUP1 SWAP2 SUB SWAP1 REVERT JUMPDEST POP JUMPDEST DUP12 PUSH20 0xFFFFFFFFFFFFFFFFFFFFFFFFFFFFFFFFFFFFFFFF AND CALLER PUSH20 0xFFFFFFFFFFFFFFFFFFFFFFFFFFFFFFFFFFFFFFFF AND PUSH32 0xC42079F94A6350D7E6235F29174924F928CC2AC818EB64FED8004E115FBCCA67 DUP9 DUP9 DUP6 PUSH1 0x40 ADD MLOAD DUP7 PUSH1 0xC0 ADD MLOAD DUP8 PUSH1 0x60 ADD MLOAD PUSH1 0x40 MLOAD PUSH2 0x16BA SWAP6 SWAP5 SWAP4 SWAP3 SWAP2 SWAP1 PUSH2 0x8D82 JUMP JUMPDEST PUSH1 0x40 MLOAD DUP1 SWAP2 SUB SWAP1 LOG3 PUSH1 0x1 PUSH1 0x0 DUP1 ADD PUSH1 0x1E PUSH2 0x100 EXP DUP2 SLOAD DUP2 PUSH1 0xFF MUL NOT AND SWAP1 DUP4 ISZERO ISZERO MUL OR SWAP1 SSTORE POP POP POP POP POP SWAP7 POP SWAP7 SWAP5 POP POP POP POP POP JUMP JUMPDEST PUSH3 0x10006 PUSH1 0x0 SWAP1 SLOAD SWAP1 PUSH2 0x100 EXP SWAP1 DIV PUSH16 0xFFFFFFFFFFFFFFFFFFFFFFFFFFFFFFFF AND DUP2 JUMP JUMPDEST PUSH3 0x10005 DUP1 PUSH1 0x0 ADD PUSH1 0x0 SWAP1 SLOAD SWAP1 PUSH2 0x100 EXP SWAP1 DIV PUSH16 0xFFFFFFFFFFFFFFFFFFFFFFFFFFFFFFFF AND SWAP1 DUP1 PUSH1 0x0 ADD PUSH1 0x10 SWAP1 SLOAD SWAP1 PUSH2 0x100 EXP SWAP1 DIV PUSH16 0xFFFFFFFFFFFFFFFFFFFFFFFFFFFFFFFF AND SWAP1 POP DUP3 JUMP JUMPDEST PUSH1 0x6 DUP2 PUSH2 0xFFFF DUP2 LT PUSH2 0x176F JUMPI PUSH1 0x0 DUP1 REVERT JUMPDEST ADD PUSH1 0x0 SWAP2 POP SWAP1 POP DUP1 PUSH1 0x0 ADD PUSH1 0x0 SWAP1 SLOAD SWAP1 PUSH2 0x100 EXP SWAP1 DIV PUSH4 0xFFFFFFFF AND SWAP1 DUP1 PUSH1 0x0 ADD PUSH1 0x4 SWAP1 SLOAD SWAP1 PUSH2 0x100 EXP SWAP1 DIV PUSH1 0x6 SIGNEXTEND SWAP1 DUP1 PUSH1 0x0 ADD PUSH1 0xB SWAP1 SLOAD SWAP1 PUSH2 0x100 EXP SWAP1 DIV PUSH20 0xFFFFFFFFFFFFFFFFFFFFFFFFFFFFFFFFFFFFFFFF AND SWAP1 DUP1 PUSH1 0x0 ADD PUSH1 0x1F SWAP1 SLOAD SWAP1 PUSH2 0x100 EXP SWAP1 DIV PUSH1 0xFF AND SWAP1 POP DUP5 JUMP JUMPDEST PUSH1 0x0 DUP1 ADD PUSH1 0x1E SWAP1 SLOAD SWAP1 PUSH2 0x100 EXP SWAP1 DIV PUSH1 0xFF AND PUSH2 0x182D JUMPI PUSH1 0x40 MLOAD PUSH32 0x8C379A000000000000000000000000000000000000000000000000000000000 DUP2 MSTORE PUSH1 0x4 ADD PUSH2 0x1824 SWAP1 PUSH2 0x8E21 JUMP JUMPDEST PUSH1 0x40 MLOAD DUP1 SWAP2 SUB SWAP1 REVERT JUMPDEST PUSH1 0x0 DUP1 PUSH1 0x0 ADD PUSH1 0x1E PUSH2 0x100 EXP DUP2 SLOAD DUP2 PUSH1 0xFF MUL NOT AND SWAP1 DUP4 ISZERO ISZERO MUL OR SWAP1 SSTORE POP PUSH2 0x1852 PUSH2 0x3994 JUMP JUMPDEST PUSH1 0x0 DUP1 PUSH1 0x0 ADD PUSH1 0x1B SWAP1 SLOAD SWAP1 PUSH2 0x100 EXP SWAP1 DIV PUSH2 0xFFFF AND SWAP1 POP PUSH1 0x0 PUSH2 0x1881 DUP3 DUP5 PUSH1 0x6 PUSH2 0x541E SWAP1 SWAP3 SWAP2 SWAP1 PUSH4 0xFFFFFFFF AND JUMP JUMPDEST SWAP1 POP DUP1 PUSH1 0x0 DUP1 ADD PUSH1 0x1B PUSH2 0x100 EXP DUP2 SLOAD DUP2 PUSH2 0xFFFF MUL NOT AND SWAP1 DUP4 PUSH2 0xFFFF AND MUL OR SWAP1 SSTORE POP DUP1 PUSH2 0xFFFF AND DUP3 PUSH2 0xFFFF AND EQ PUSH2 0x18EB JUMPI PUSH32 0xAC49E518F90A358F652E4400164F05A5D8F7E35E7747279BC3A93DBF584E125A DUP3 DUP3 PUSH1 0x40 MLOAD PUSH2 0x18E2 SWAP3 SWAP2 SWAP1 PUSH2 0x8E41 JUMP JUMPDEST PUSH1 0x40 MLOAD DUP1 SWAP2 SUB SWAP1 LOG1 JUMPDEST POP POP PUSH1 0x1 PUSH1 0x0 DUP1 ADD PUSH1 0x1E PUSH2 0x100 EXP DUP2 SLOAD DUP2 PUSH1 0xFF MUL NOT AND SWAP1 DUP4 ISZERO ISZERO MUL OR SWAP1 SSTORE POP POP JUMP JUMPDEST PUSH1 0x0 DUP1 PUSH1 0x0 ADD PUSH1 0x0 SWAP1 SLOAD SWAP1 PUSH2 0x100 EXP SWAP1 DIV PUSH20 0xFFFFFFFFFFFFFFFFFFFFFFFFFFFFFFFFFFFFFFFF AND SWAP1 DUP1 PUSH1 0x0 ADD PUSH1 0x14 SWAP1 SLOAD SWAP1 PUSH2 0x100 EXP SWAP1 DIV PUSH1 0x2 SIGNEXTEND SWAP1 DUP1 PUSH1 0x0 ADD PUSH1 0x17 SWAP1 SLOAD SWAP1 PUSH2 0x100 EXP SWAP1 DIV PUSH2 0xFFFF AND SWAP1 DUP1 PUSH1 0x0 ADD PUSH1 0x19 SWAP1 SLOAD SWAP1 PUSH2 0x100 EXP SWAP1 DIV PUSH2 0xFFFF AND SWAP1 DUP1 PUSH1 0x0 ADD PUSH1 0x1B SWAP1 SLOAD SWAP1 PUSH2 0x100 EXP SWAP1 DIV PUSH2 0xFFFF AND SWAP1 DUP1 PUSH1 0x0 ADD PUSH1 0x1D SWAP1 SLOAD SWAP1 PUSH2 0x100 EXP SWAP1 DIV PUSH1 0xFF AND SWAP1 DUP1 PUSH1 0x0 ADD PUSH1 0x1E SWAP1 SLOAD SWAP1 PUSH2 0x100 EXP SWAP1 DIV PUSH1 0xFF AND SWAP1 POP DUP8 JUMP JUMPDEST PUSH1 0x0 DUP1 PUSH1 0x0 DUP1 ADD PUSH1 0x1E SWAP1 SLOAD SWAP1 PUSH2 0x100 EXP SWAP1 DIV PUSH1 0xFF AND PUSH2 0x1A02 JUMPI PUSH1 0x40 MLOAD PUSH32 0x8C379A000000000000000000000000000000000000000000000000000000000 DUP2 MSTORE PUSH1 0x4 ADD PUSH2 0x19F9 SWAP1 PUSH2 0x8E21 JUMP JUMPDEST PUSH1 0x40 MLOAD DUP1 SWAP2 SUB SWAP1 REVERT JUMPDEST PUSH1 0x0 DUP1 PUSH1 0x0 ADD PUSH1 0x1E PUSH2 0x100 EXP DUP2 SLOAD DUP2 PUSH1 0xFF MUL NOT AND SWAP1 DUP4 ISZERO ISZERO MUL OR SWAP1 SSTORE POP PUSH1 0x0 DUP6 PUSH16 0xFFFFFFFFFFFFFFFFFFFFFFFFFFFFFFFF AND GT PUSH2 0x1A3E JUMPI PUSH1 0x0 DUP1 REVERT JUMPDEST PUSH1 0x0 DUP1 PUSH2 0x1AA3 PUSH1 0x40 MLOAD DUP1 PUSH1 0x80 ADD PUSH1 0x40 MSTORE DUP1 DUP13 PUSH20 0xFFFFFFFFFFFFFFFFFFFFFFFFFFFFFFFFFFFFFFFF AND DUP2 MSTORE PUSH1 0x20 ADD DUP12 PUSH1 0x2 SIGNEXTEND DUP2 MSTORE PUSH1 0x20 ADD DUP11 PUSH1 0x2 SIGNEXTEND DUP2 MSTORE PUSH1 0x20 ADD PUSH2 0x1A98 DUP11 PUSH16 0xFFFFFFFFFFFFFFFFFFFFFFFFFFFFFFFF AND PUSH2 0x54EE JUMP JUMPDEST PUSH1 0xF SIGNEXTEND DUP2 MSTORE POP PUSH2 0x5507 JUMP JUMPDEST SWAP3 POP SWAP3 POP POP DUP2 SWAP4 POP DUP1 SWAP3 POP PUSH1 0x0 DUP1 PUSH1 0x0 DUP7 GT ISZERO PUSH2 0x1AC5 JUMPI PUSH2 0x1AC2 PUSH2 0x51B0 JUMP JUMPDEST SWAP2 POP JUMPDEST PUSH1 0x0 DUP6 GT ISZERO PUSH2 0x1AD9 JUMPI PUSH2 0x1AD6 PUSH2 0x52E7 JUMP JUMPDEST SWAP1 POP JUMPDEST CALLER PUSH20 0xFFFFFFFFFFFFFFFFFFFFFFFFFFFFFFFFFFFFFFFF AND PUSH4 0xD3487997 DUP8 DUP8 DUP12 DUP12 PUSH1 0x40 MLOAD DUP6 PUSH4 0xFFFFFFFF AND PUSH1 0xE0 SHL DUP2 MSTORE PUSH1 0x4 ADD PUSH2 0x1B18 SWAP5 SWAP4 SWAP3 SWAP2 SWAP1 PUSH2 0x8E6A JUMP JUMPDEST PUSH1 0x0 PUSH1 0x40 MLOAD DUP1 DUP4 SUB DUP2 PUSH1 0x0 DUP8 DUP1 EXTCODESIZE ISZERO DUP1 ISZERO PUSH2 0x1B32 JUMPI PUSH1 0x0 DUP1 REVERT JUMPDEST POP GAS CALL ISZERO DUP1 ISZERO PUSH2 0x1B46 JUMPI RETURNDATASIZE PUSH1 0x0 DUP1 RETURNDATACOPY RETURNDATASIZE PUSH1 0x0 REVERT JUMPDEST POP POP POP POP PUSH1 0x0 DUP7 GT ISZERO PUSH2 0x1BA9 JUMPI PUSH2 0x1B5B PUSH2 0x51B0 JUMP JUMPDEST DUP7 DUP4 PUSH2 0x1B67 SWAP2 SWAP1 PUSH2 0x8A29 JUMP JUMPDEST GT ISZERO PUSH2 0x1BA8 JUMPI PUSH1 0x40 MLOAD PUSH32 0x8C379A000000000000000000000000000000000000000000000000000000000 DUP2 MSTORE PUSH1 0x4 ADD PUSH2 0x1B9F SWAP1 PUSH2 0x8EF6 JUMP JUMPDEST PUSH1 0x40 MLOAD DUP1 SWAP2 SUB SWAP1 REVERT JUMPDEST JUMPDEST PUSH1 0x0 DUP6 GT ISZERO PUSH2 0x1C08 JUMPI PUSH2 0x1BBA PUSH2 0x52E7 JUMP JUMPDEST DUP6 DUP3 PUSH2 0x1BC6 SWAP2 SWAP1 PUSH2 0x8A29 JUMP JUMPDEST GT ISZERO PUSH2 0x1C07 JUMPI PUSH1 0x40 MLOAD PUSH32 0x8C379A000000000000000000000000000000000000000000000000000000000 DUP2 MSTORE PUSH1 0x4 ADD PUSH2 0x1BFE SWAP1 PUSH2 0x8F62 JUMP JUMPDEST PUSH1 0x40 MLOAD DUP1 SWAP2 SUB SWAP1 REVERT JUMPDEST JUMPDEST DUP10 PUSH1 0x2 SIGNEXTEND DUP12 PUSH1 0x2 SIGNEXTEND DUP14 PUSH20 0xFFFFFFFFFFFFFFFFFFFFFFFFFFFFFFFFFFFFFFFF AND PUSH32 0x7A53080BA414158BE7EC69B987B5FB7D07DEE101FE85488F0853AE16239D0BDE CALLER DUP14 DUP12 DUP12 PUSH1 0x40 MLOAD PUSH2 0x1C5C SWAP5 SWAP4 SWAP3 SWAP2 SWAP1 PUSH2 0x8F82 JUMP JUMPDEST PUSH1 0x40 MLOAD DUP1 SWAP2 SUB SWAP1 LOG4 POP POP POP POP PUSH1 0x1 PUSH1 0x0 DUP1 ADD PUSH1 0x1E PUSH2 0x100 EXP DUP2 SLOAD DUP2 PUSH1 0xFF MUL NOT AND SWAP1 DUP4 ISZERO ISZERO MUL OR SWAP1 SSTORE POP SWAP7 POP SWAP7 SWAP5 POP POP POP POP POP JUMP JUMPDEST PUSH1 0x2 SLOAD DUP2 JUMP JUMPDEST PUSH1 0x0 DUP1 ADD PUSH1 0x1E SWAP1 SLOAD SWAP1 PUSH2 0x100 EXP SWAP1 DIV PUSH1 0xFF AND PUSH2 0x1CE7 JUMPI PUSH1 0x40 MLOAD PUSH32 0x8C379A000000000000000000000000000000000000000000000000000000000 DUP2 MSTORE PUSH1 0x4 ADD PUSH2 0x1CDE SWAP1 PUSH2 0x8E21 JUMP JUMPDEST PUSH1 0x40 MLOAD DUP1 SWAP2 SUB SWAP1 REVERT JUMPDEST PUSH1 0x0 DUP1 PUSH1 0x0 ADD PUSH1 0x1E PUSH2 0x100 EXP DUP2 SLOAD DUP2 PUSH1 0xFF MUL NOT AND SWAP1 DUP4 ISZERO ISZERO MUL OR SWAP1 SSTORE POP PUSH2 0x1D0C PUSH2 0x3994 JUMP JUMPDEST PUSH1 0x0 PUSH3 0x10006 PUSH1 0x0 SWAP1 SLOAD SWAP1 PUSH2 0x100 EXP SWAP1 DIV PUSH16 0xFFFFFFFFFFFFFFFFFFFFFFFFFFFFFFFF AND SWAP1 POP PUSH1 0x0 DUP2 PUSH16 0xFFFFFFFFFFFFFFFFFFFFFFFFFFFFFFFF AND GT PUSH2 0x1D86 JUMPI PUSH1 0x40 MLOAD PUSH32 0x8C379A000000000000000000000000000000000000000000000000000000000 DUP2 MSTORE PUSH1 0x4 ADD PUSH2 0x1D7D SWAP1 PUSH2 0x9013 JUMP JUMPDEST PUSH1 0x40 MLOAD DUP1 SWAP2 SUB SWAP1 REVERT JUMPDEST PUSH1 0x0 PUSH2 0x1DBB DUP7 PUSH32 0x0 PUSH3 0xFFFFFF AND PUSH3 0xF4240 PUSH2 0x582F JUMP JUMPDEST SWAP1 POP PUSH1 0x0 PUSH2 0x1DF2 DUP7 PUSH32 0x0 PUSH3 0xFFFFFF AND PUSH3 0xF4240 PUSH2 0x582F JUMP JUMPDEST SWAP1 POP PUSH1 0x0 PUSH2 0x1DFE PUSH2 0x51B0 JUMP JUMPDEST SWAP1 POP PUSH1 0x0 PUSH2 0x1E0A PUSH2 0x52E7 JUMP JUMPDEST SWAP1 POP PUSH1 0x0 DUP10 GT ISZERO PUSH2 0x1E41 JUMPI PUSH2 0x1E40 PUSH32 0x0 DUP12 DUP12 PUSH2 0x505B JUMP JUMPDEST JUMPDEST PUSH1 0x0 DUP9 GT ISZERO PUSH2 0x1E76 JUMPI PUSH2 0x1E75 PUSH32 0x0 DUP12 DUP11 PUSH2 0x505B JUMP JUMPDEST JUMPDEST CALLER PUSH20 0xFFFFFFFFFFFFFFFFFFFFFFFFFFFFFFFFFFFFFFFF AND PUSH4 0xE9CBAFB0 DUP6 DUP6 DUP11 DUP11 PUSH1 0x40 MLOAD DUP6 PUSH4 0xFFFFFFFF AND PUSH1 0xE0 SHL DUP2 MSTORE PUSH1 0x4 ADD PUSH2 0x1EB5 SWAP5 SWAP4 SWAP3 SWAP2 SWAP1 PUSH2 0x8E6A JUMP JUMPDEST PUSH1 0x0 PUSH1 0x40 MLOAD DUP1 DUP4 SUB DUP2 PUSH1 0x0 DUP8 DUP1 EXTCODESIZE ISZERO DUP1 ISZERO PUSH2 0x1ECF JUMPI PUSH1 0x0 DUP1 REVERT JUMPDEST POP GAS CALL ISZERO DUP1 ISZERO PUSH2 0x1EE3 JUMPI RETURNDATASIZE PUSH1 0x0 DUP1 RETURNDATACOPY RETURNDATASIZE PUSH1 0x0 REVERT JUMPDEST POP POP POP POP PUSH1 0x0 PUSH2 0x1EF1 PUSH2 0x51B0 JUMP JUMPDEST SWAP1 POP PUSH1 0x0 PUSH2 0x1EFD PUSH2 0x52E7 JUMP JUMPDEST SWAP1 POP DUP2 DUP7 DUP6 PUSH2 0x1F0C SWAP2 SWAP1 PUSH2 0x8A29 JUMP JUMPDEST GT ISZERO PUSH2 0x1F4D JUMPI PUSH1 0x40 MLOAD PUSH32 0x8C379A000000000000000000000000000000000000000000000000000000000 DUP2 MSTORE PUSH1 0x4 ADD PUSH2 0x1F44 SWAP1 PUSH2 0x907F JUMP JUMPDEST PUSH1 0x40 MLOAD DUP1 SWAP2 SUB SWAP1 REVERT JUMPDEST DUP1 DUP6 DUP5 PUSH2 0x1F5A SWAP2 SWAP1 PUSH2 0x8A29 JUMP JUMPDEST GT ISZERO PUSH2 0x1F9B JUMPI PUSH1 0x40 MLOAD PUSH32 0x8C379A000000000000000000000000000000000000000000000000000000000 DUP2 MSTORE PUSH1 0x4 ADD PUSH2 0x1F92 SWAP1 PUSH2 0x90EB JUMP JUMPDEST PUSH1 0x40 MLOAD DUP1 SWAP2 SUB SWAP1 REVERT JUMPDEST PUSH1 0x0 DUP5 DUP4 PUSH2 0x1FA9 SWAP2 SWAP1 PUSH2 0x8B15 JUMP JUMPDEST SWAP1 POP PUSH1 0x0 DUP5 DUP4 PUSH2 0x1FB9 SWAP2 SWAP1 PUSH2 0x8B15 JUMP JUMPDEST SWAP1 POP PUSH1 0x0 DUP3 GT ISZERO PUSH2 0x20E3 JUMPI PUSH1 0x0 PUSH1 0x10 PUSH1 0x0 DUP1 ADD PUSH1 0x1D SWAP1 SLOAD SWAP1 PUSH2 0x100 EXP SWAP1 DIV PUSH1 0xFF AND PUSH2 0x1FE4 SWAP2 SWAP1 PUSH2 0x8981 JUMP JUMPDEST SWAP1 POP PUSH1 0x0 DUP1 DUP3 PUSH1 0xFF AND EQ PUSH2 0x2006 JUMPI DUP2 PUSH1 0xFF AND DUP5 PUSH2 0x2001 SWAP2 SWAP1 PUSH2 0x8AE4 JUMP JUMPDEST PUSH2 0x2009 JUMP JUMPDEST PUSH1 0x0 JUMPDEST SWAP1 POP PUSH1 0x0 DUP2 PUSH16 0xFFFFFFFFFFFFFFFFFFFFFFFFFFFFFFFF AND GT ISZERO PUSH2 0x208F JUMPI DUP1 PUSH3 0x10005 PUSH1 0x0 ADD PUSH1 0x0 DUP3 DUP3 DUP3 SWAP1 SLOAD SWAP1 PUSH2 0x100 EXP SWAP1 DIV PUSH16 0xFFFFFFFFFFFFFFFFFFFFFFFFFFFFFFFF AND PUSH2 0x2058 SWAP2 SWAP1 PUSH2 0x8B49 JUMP JUMPDEST SWAP3 POP PUSH2 0x100 EXP DUP2 SLOAD DUP2 PUSH16 0xFFFFFFFFFFFFFFFFFFFFFFFFFFFFFFFF MUL NOT AND SWAP1 DUP4 PUSH16 0xFFFFFFFFFFFFFFFFFFFFFFFFFFFFFFFF AND MUL OR SWAP1 SSTORE POP JUMPDEST PUSH2 0x20C8 DUP2 DUP6 PUSH2 0x209E SWAP2 SWAP1 PUSH2 0x8B15 JUMP JUMPDEST PUSH17 0x100000000000000000000000000000000 DUP14 PUSH16 0xFFFFFFFFFFFFFFFFFFFFFFFFFFFFFFFF AND PUSH2 0x4374 JUMP JUMPDEST PUSH1 0x1 PUSH1 0x0 DUP3 DUP3 SLOAD PUSH2 0x20D9 SWAP2 SWAP1 PUSH2 0x8A29 JUMP JUMPDEST SWAP3 POP POP DUP2 SWAP1 SSTORE POP POP POP JUMPDEST PUSH1 0x0 DUP2 GT ISZERO PUSH2 0x2206 JUMPI PUSH1 0x0 PUSH1 0x4 PUSH1 0x0 DUP1 ADD PUSH1 0x1D SWAP1 SLOAD SWAP1 PUSH2 0x100 EXP SWAP1 DIV PUSH1 0xFF AND PUSH1 0xFF AND SWAP1 SHR SWAP1 POP PUSH1 0x0 DUP1 DUP3 PUSH1 0xFF AND EQ PUSH2 0x2129 JUMPI DUP2 PUSH1 0xFF AND DUP4 PUSH2 0x2124 SWAP2 SWAP1 PUSH2 0x8AE4 JUMP JUMPDEST PUSH2 0x212C JUMP JUMPDEST PUSH1 0x0 JUMPDEST SWAP1 POP PUSH1 0x0 DUP2 PUSH16 0xFFFFFFFFFFFFFFFFFFFFFFFFFFFFFFFF AND GT ISZERO PUSH2 0x21B2 JUMPI DUP1 PUSH3 0x10005 PUSH1 0x0 ADD PUSH1 0x10 DUP3 DUP3 DUP3 SWAP1 SLOAD SWAP1 PUSH2 0x100 EXP SWAP1 DIV PUSH16 0xFFFFFFFFFFFFFFFFFFFFFFFFFFFFFFFF AND PUSH2 0x217B SWAP2 SWAP1 PUSH2 0x8B49 JUMP JUMPDEST SWAP3 POP PUSH2 0x100 EXP DUP2 SLOAD DUP2 PUSH16 0xFFFFFFFFFFFFFFFFFFFFFFFFFFFFFFFF MUL NOT AND SWAP1 DUP4 PUSH16 0xFFFFFFFFFFFFFFFFFFFFFFFFFFFFFFFF AND MUL OR SWAP1 SSTORE POP JUMPDEST PUSH2 0x21EB DUP2 DUP5 PUSH2 0x21C1 SWAP2 SWAP1 PUSH2 0x8B15 JUMP JUMPDEST PUSH17 0x100000000000000000000000000000000 DUP14 PUSH16 0xFFFFFFFFFFFFFFFFFFFFFFFFFFFFFFFF AND PUSH2 0x4374 JUMP JUMPDEST PUSH1 0x2 PUSH1 0x0 DUP3 DUP3 SLOAD PUSH2 0x21FC SWAP2 SWAP1 PUSH2 0x8A29 JUMP JUMPDEST SWAP3 POP POP DUP2 SWAP1 SSTORE POP POP POP JUMPDEST DUP14 PUSH20 0xFFFFFFFFFFFFFFFFFFFFFFFFFFFFFFFFFFFFFFFF AND CALLER PUSH20 0xFFFFFFFFFFFFFFFFFFFFFFFFFFFFFFFFFFFFFFFF AND PUSH32 0xBDBDB71D7860376BA52B25A5028BEEA23581364A40522F6BCFB86BB1F2DCA633 DUP16 DUP16 DUP7 DUP7 PUSH1 0x40 MLOAD PUSH2 0x2269 SWAP5 SWAP4 SWAP3 SWAP2 SWAP1 PUSH2 0x910B JUMP JUMPDEST PUSH1 0x40 MLOAD DUP1 SWAP2 SUB SWAP1 LOG3 POP POP POP POP POP POP POP POP POP PUSH1 0x1 PUSH1 0x0 DUP1 ADD PUSH1 0x1E PUSH2 0x100 EXP DUP2 SLOAD DUP2 PUSH1 0xFF MUL NOT AND SWAP1 DUP4 ISZERO ISZERO MUL OR SWAP1 SSTORE POP POP POP POP POP POP JUMP JUMPDEST PUSH1 0x0 DUP1 PUSH1 0x0 DUP1 ADD PUSH1 0x1E SWAP1 SLOAD SWAP1 PUSH2 0x100 EXP SWAP1 DIV PUSH1 0xFF AND PUSH2 0x22F2 JUMPI PUSH1 0x40 MLOAD PUSH32 0x8C379A000000000000000000000000000000000000000000000000000000000 DUP2 MSTORE PUSH1 0x4 ADD PUSH2 0x22E9 SWAP1 PUSH2 0x8E21 JUMP JUMPDEST PUSH1 0x40 MLOAD DUP1 SWAP2 SUB SWAP1 REVERT JUMPDEST PUSH1 0x0 DUP1 PUSH1 0x0 ADD PUSH1 0x1E PUSH2 0x100 EXP DUP2 SLOAD DUP2 PUSH1 0xFF MUL NOT AND SWAP1 DUP4 ISZERO ISZERO MUL OR SWAP1 SSTORE POP PUSH1 0x0 PUSH2 0x2329 CALLER DUP9 DUP9 PUSH1 0x5 PUSH2 0x589A SWAP1 SWAP4 SWAP3 SWAP2 SWAP1 PUSH4 0xFFFFFFFF AND JUMP JUMPDEST SWAP1 POP DUP1 PUSH1 0x3 ADD PUSH1 0x0 SWAP1 SLOAD SWAP1 PUSH2 0x100 EXP SWAP1 DIV PUSH16 0xFFFFFFFFFFFFFFFFFFFFFFFFFFFFFFFF AND PUSH16 0xFFFFFFFFFFFFFFFFFFFFFFFFFFFFFFFF AND DUP6 PUSH16 0xFFFFFFFFFFFFFFFFFFFFFFFFFFFFFFFF AND GT PUSH2 0x237C JUMPI DUP5 PUSH2 0x239E JUMP JUMPDEST DUP1 PUSH1 0x3 ADD PUSH1 0x0 SWAP1 SLOAD SWAP1 PUSH2 0x100 EXP SWAP1 DIV PUSH16 0xFFFFFFFFFFFFFFFFFFFFFFFFFFFFFFFF AND JUMPDEST SWAP3 POP DUP1 PUSH1 0x3 ADD PUSH1 0x10 SWAP1 SLOAD SWAP1 PUSH2 0x100 EXP SWAP1 DIV PUSH16 0xFFFFFFFFFFFFFFFFFFFFFFFFFFFFFFFF AND PUSH16 0xFFFFFFFFFFFFFFFFFFFFFFFFFFFFFFFF AND DUP5 PUSH16 0xFFFFFFFFFFFFFFFFFFFFFFFFFFFFFFFF AND GT PUSH2 0x23F1 JUMPI DUP4 PUSH2 0x2413 JUMP JUMPDEST DUP1 PUSH1 0x3 ADD PUSH1 0x10 SWAP1 SLOAD SWAP1 PUSH2 0x100 EXP SWAP1 DIV PUSH16 0xFFFFFFFFFFFFFFFFFFFFFFFFFFFFFFFF AND JUMPDEST SWAP2 POP PUSH1 0x0 DUP4 PUSH16 0xFFFFFFFFFFFFFFFFFFFFFFFFFFFFFFFF AND GT ISZERO PUSH2 0x24D3 JUMPI DUP3 DUP2 PUSH1 0x3 ADD PUSH1 0x0 DUP3 DUP3 DUP3 SWAP1 SLOAD SWAP1 PUSH2 0x100 EXP SWAP1 DIV PUSH16 0xFFFFFFFFFFFFFFFFFFFFFFFFFFFFFFFF AND PUSH2 0x245F SWAP2 SWAP1 PUSH2 0x9150 JUMP JUMPDEST SWAP3 POP PUSH2 0x100 EXP DUP2 SLOAD DUP2 PUSH16 0xFFFFFFFFFFFFFFFFFFFFFFFFFFFFFFFF MUL NOT AND SWAP1 DUP4 PUSH16 0xFFFFFFFFFFFFFFFFFFFFFFFFFFFFFFFF AND MUL OR SWAP1 SSTORE POP PUSH2 0x24D2 PUSH32 0x0 DUP10 DUP6 PUSH16 0xFFFFFFFFFFFFFFFFFFFFFFFFFFFFFFFF AND PUSH2 0x505B JUMP JUMPDEST JUMPDEST PUSH1 0x0 DUP3 PUSH16 0xFFFFFFFFFFFFFFFFFFFFFFFFFFFFFFFF AND GT ISZERO PUSH2 0x2591 JUMPI DUP2 DUP2 PUSH1 0x3 ADD PUSH1 0x10 DUP3 DUP3 DUP3 SWAP1 SLOAD SWAP1 PUSH2 0x100 EXP SWAP1 DIV PUSH16 0xFFFFFFFFFFFFFFFFFFFFFFFFFFFFFFFF AND PUSH2 0x251D SWAP2 SWAP1 PUSH2 0x9150 JUMP JUMPDEST SWAP3 POP PUSH2 0x100 EXP DUP2 SLOAD DUP2 PUSH16 0xFFFFFFFFFFFFFFFFFFFFFFFFFFFFFFFF MUL NOT AND SWAP1 DUP4 PUSH16 0xFFFFFFFFFFFFFFFFFFFFFFFFFFFFFFFF AND MUL OR SWAP1 SSTORE POP PUSH2 0x2590 PUSH32 0x0 DUP10 DUP5 PUSH16 0xFFFFFFFFFFFFFFFFFFFFFFFFFFFFFFFF AND PUSH2 0x505B JUMP JUMPDEST JUMPDEST DUP6 PUSH1 0x2 SIGNEXTEND DUP8 PUSH1 0x2 SIGNEXTEND CALLER PUSH20 0xFFFFFFFFFFFFFFFFFFFFFFFFFFFFFFFFFFFFFFFF AND PUSH32 0x70935338E69775456A85DDEF226C395FB668B63FA0115F5F20610B388E6CA9C0 DUP12 DUP8 DUP8 PUSH1 0x40 MLOAD PUSH2 0x25E3 SWAP4 SWAP3 SWAP2 SWAP1 PUSH2 0x9194 JUMP JUMPDEST PUSH1 0x40 MLOAD DUP1 SWAP2 SUB SWAP1 LOG4 POP PUSH1 0x1 PUSH1 0x0 DUP1 ADD PUSH1 0x1E PUSH2 0x100 EXP DUP2 SLOAD DUP2 PUSH1 0xFF MUL NOT AND SWAP1 DUP4 ISZERO ISZERO MUL OR SWAP1 SSTORE POP SWAP6 POP SWAP6 SWAP4 POP POP POP POP JUMP JUMPDEST PUSH1 0x5 PUSH1 0x20 MSTORE DUP1 PUSH1 0x0 MSTORE PUSH1 0x40 PUSH1 0x0 KECCAK256 PUSH1 0x0 SWAP2 POP SWAP1 POP DUP1 PUSH1 0x0 ADD PUSH1 0x0 SWAP1 SLOAD SWAP1 PUSH2 0x100 EXP SWAP1 DIV PUSH16 0xFFFFFFFFFFFFFFFFFFFFFFFFFFFFFFFF AND SWAP1 DUP1 PUSH1 0x1 ADD SLOAD SWAP1 DUP1 PUSH1 0x2 ADD SLOAD SWAP1 DUP1 PUSH1 0x3 ADD PUSH1 0x0 SWAP1 SLOAD SWAP1 PUSH2 0x100 EXP SWAP1 DIV PUSH16 0xFFFFFFFFFFFFFFFFFFFFFFFFFFFFFFFF AND SWAP1 DUP1 PUSH1 0x3 ADD PUSH1 0x10 SWAP1 SLOAD SWAP1 PUSH2 0x100 EXP SWAP1 DIV PUSH16 0xFFFFFFFFFFFFFFFFFFFFFFFFFFFFFFFF AND SWAP1 POP DUP6 JUMP JUMPDEST PUSH1 0x4 PUSH1 0x20 MSTORE DUP1 PUSH1 0x0 MSTORE PUSH1 0x40 PUSH1 0x0 KECCAK256 PUSH1 0x0 SWAP2 POP SWAP1 POP SLOAD DUP2 JUMP JUMPDEST PUSH32 0x0 DUP2 JUMP JUMPDEST PUSH1 0x0 DUP1 ADD PUSH1 0x1E SWAP1 SLOAD SWAP1 PUSH2 0x100 EXP SWAP1 DIV PUSH1 0xFF AND PUSH2 0x272A JUMPI PUSH1 0x40 MLOAD PUSH32 0x8C379A000000000000000000000000000000000000000000000000000000000 DUP2 MSTORE PUSH1 0x4 ADD PUSH2 0x2721 SWAP1 PUSH2 0x8E21 JUMP JUMPDEST PUSH1 0x40 MLOAD DUP1 SWAP2 SUB SWAP1 REVERT JUMPDEST PUSH1 0x0 DUP1 PUSH1 0x0 ADD PUSH1 0x1E PUSH2 0x100 EXP DUP2 SLOAD DUP2 PUSH1 0xFF MUL NOT AND SWAP1 DUP4 ISZERO ISZERO MUL OR SWAP1 SSTORE POP PUSH32 0x0 PUSH20 0xFFFFFFFFFFFFFFFFFFFFFFFFFFFFFFFFFFFFFFFF AND PUSH4 0x8DA5CB5B PUSH1 0x40 MLOAD DUP2 PUSH4 0xFFFFFFFF AND PUSH1 0xE0 SHL DUP2 MSTORE PUSH1 0x4 ADD PUSH1 0x20 PUSH1 0x40 MLOAD DUP1 DUP4 SUB DUP2 DUP7 GAS STATICCALL ISZERO DUP1 ISZERO PUSH2 0x27B2 JUMPI RETURNDATASIZE PUSH1 0x0 DUP1 RETURNDATACOPY RETURNDATASIZE PUSH1 0x0 REVERT JUMPDEST POP POP POP POP PUSH1 0x40 MLOAD RETURNDATASIZE PUSH1 0x1F NOT PUSH1 0x1F DUP3 ADD AND DUP3 ADD DUP1 PUSH1 0x40 MSTORE POP DUP2 ADD SWAP1 PUSH2 0x27D6 SWAP2 SWAP1 PUSH2 0x91E0 JUMP JUMPDEST PUSH20 0xFFFFFFFFFFFFFFFFFFFFFFFFFFFFFFFFFFFFFFFF AND CALLER PUSH20 0xFFFFFFFFFFFFFFFFFFFFFFFFFFFFFFFFFFFFFFFF AND EQ PUSH2 0x280D JUMPI PUSH1 0x0 DUP1 REVERT JUMPDEST PUSH1 0x0 DUP3 PUSH1 0xFF AND EQ DUP1 PUSH2 0x2833 JUMPI POP PUSH1 0x4 DUP3 PUSH1 0xFF AND LT ISZERO DUP1 ISZERO PUSH2 0x2832 JUMPI POP PUSH1 0xA DUP3 PUSH1 0xFF AND GT ISZERO JUMPDEST JUMPDEST DUP1 ISZERO PUSH2 0x2861 JUMPI POP PUSH1 0x0 DUP2 PUSH1 0xFF AND EQ DUP1 PUSH2 0x2860 JUMPI POP PUSH1 0x4 DUP2 PUSH1 0xFF AND LT ISZERO DUP1 ISZERO PUSH2 0x285F JUMPI POP PUSH1 0xA DUP2 PUSH1 0xFF AND GT ISZERO JUMPDEST JUMPDEST JUMPDEST PUSH2 0x286A JUMPI PUSH1 0x0 DUP1 REVERT JUMPDEST PUSH1 0x0 DUP1 PUSH1 0x0 ADD PUSH1 0x1D SWAP1 SLOAD SWAP1 PUSH2 0x100 EXP SWAP1 DIV PUSH1 0xFF AND SWAP1 POP PUSH1 0x4 DUP3 PUSH1 0xFF AND SWAP1 SHL DUP4 PUSH2 0x2893 SWAP2 SWAP1 PUSH2 0x920D JUMP JUMPDEST PUSH1 0x0 DUP1 ADD PUSH1 0x1D PUSH2 0x100 EXP DUP2 SLOAD DUP2 PUSH1 0xFF MUL NOT AND SWAP1 DUP4 PUSH1 0xFF AND MUL OR SWAP1 SSTORE POP PUSH32 0x973D8D92BB299F4AF6CE49B52A8ADB85AE46B9F214C4C4FC06AC77401237B133 PUSH1 0x10 DUP3 PUSH2 0x28DD SWAP2 SWAP1 PUSH2 0x8981 JUMP JUMPDEST PUSH1 0x4 DUP4 PUSH1 0xFF AND SWAP1 SHR DUP6 DUP6 PUSH1 0x40 MLOAD PUSH2 0x28F7 SWAP5 SWAP4 SWAP3 SWAP2 SWAP1 PUSH2 0x9242 JUMP JUMPDEST PUSH1 0x40 MLOAD DUP1 SWAP2 SUB SWAP1 LOG1 POP PUSH1 0x1 PUSH1 0x0 DUP1 ADD PUSH1 0x1E PUSH2 0x100 EXP DUP2 SLOAD DUP2 PUSH1 0xFF MUL NOT AND SWAP1 DUP4 ISZERO ISZERO MUL OR SWAP1 SSTORE POP POP POP JUMP JUMPDEST PUSH1 0x0 DUP1 PUSH1 0x0 DUP1 ADD PUSH1 0x1E SWAP1 SLOAD SWAP1 PUSH2 0x100 EXP SWAP1 DIV PUSH1 0xFF AND PUSH2 0x2975 JUMPI PUSH1 0x40 MLOAD PUSH32 0x8C379A000000000000000000000000000000000000000000000000000000000 DUP2 MSTORE PUSH1 0x4 ADD PUSH2 0x296C SWAP1 PUSH2 0x8E21 JUMP JUMPDEST PUSH1 0x40 MLOAD DUP1 SWAP2 SUB SWAP1 REVERT JUMPDEST PUSH1 0x0 DUP1 PUSH1 0x0 ADD PUSH1 0x1E PUSH2 0x100 EXP DUP2 SLOAD DUP2 PUSH1 0xFF MUL NOT AND SWAP1 DUP4 ISZERO ISZERO MUL OR SWAP1 SSTORE POP PUSH32 0x0 PUSH20 0xFFFFFFFFFFFFFFFFFFFFFFFFFFFFFFFFFFFFFFFF AND PUSH4 0x8DA5CB5B PUSH1 0x40 MLOAD DUP2 PUSH4 0xFFFFFFFF AND PUSH1 0xE0 SHL DUP2 MSTORE PUSH1 0x4 ADD PUSH1 0x20 PUSH1 0x40 MLOAD DUP1 DUP4 SUB DUP2 DUP7 GAS STATICCALL ISZERO DUP1 ISZERO PUSH2 0x29FD JUMPI RETURNDATASIZE PUSH1 0x0 DUP1 RETURNDATACOPY RETURNDATASIZE PUSH1 0x0 REVERT JUMPDEST POP POP POP POP PUSH1 0x40 MLOAD RETURNDATASIZE PUSH1 0x1F NOT PUSH1 0x1F DUP3 ADD AND DUP3 ADD DUP1 PUSH1 0x40 MSTORE POP DUP2 ADD SWAP1 PUSH2 0x2A21 SWAP2 SWAP1 PUSH2 0x91E0 JUMP JUMPDEST PUSH20 0xFFFFFFFFFFFFFFFFFFFFFFFFFFFFFFFFFFFFFFFF AND CALLER PUSH20 0xFFFFFFFFFFFFFFFFFFFFFFFFFFFFFFFFFFFFFFFF AND EQ PUSH2 0x2A58 JUMPI PUSH1 0x0 DUP1 REVERT JUMPDEST PUSH3 0x10005 PUSH1 0x0 ADD PUSH1 0x0 SWAP1 SLOAD SWAP1 PUSH2 0x100 EXP SWAP1 DIV PUSH16 0xFFFFFFFFFFFFFFFFFFFFFFFFFFFFFFFF AND PUSH16 0xFFFFFFFFFFFFFFFFFFFFFFFFFFFFFFFF AND DUP5 PUSH16 0xFFFFFFFFFFFFFFFFFFFFFFFFFFFFFFFF AND GT PUSH2 0x2AAC JUMPI DUP4 PUSH2 0x2AD1 JUMP JUMPDEST PUSH3 0x10005 PUSH1 0x0 ADD PUSH1 0x0 SWAP1 SLOAD SWAP1 PUSH2 0x100 EXP SWAP1 DIV PUSH16 0xFFFFFFFFFFFFFFFFFFFFFFFFFFFFFFFF AND JUMPDEST SWAP2 POP PUSH3 0x10005 PUSH1 0x0 ADD PUSH1 0x10 SWAP1 SLOAD SWAP1 PUSH2 0x100 EXP SWAP1 DIV PUSH16 0xFFFFFFFFFFFFFFFFFFFFFFFFFFFFFFFF AND PUSH16 0xFFFFFFFFFFFFFFFFFFFFFFFFFFFFFFFF AND DUP4 PUSH16 0xFFFFFFFFFFFFFFFFFFFFFFFFFFFFFFFF AND GT PUSH2 0x2B27 JUMPI DUP3 PUSH2 0x2B4C JUMP JUMPDEST PUSH3 0x10005 PUSH1 0x0 ADD PUSH1 0x10 SWAP1 SLOAD SWAP1 PUSH2 0x100 EXP SWAP1 DIV PUSH16 0xFFFFFFFFFFFFFFFFFFFFFFFFFFFFFFFF AND JUMPDEST SWAP1 POP PUSH1 0x0 DUP3 PUSH16 0xFFFFFFFFFFFFFFFFFFFFFFFFFFFFFFFF AND GT ISZERO PUSH2 0x2C6C JUMPI PUSH3 0x10005 PUSH1 0x0 ADD PUSH1 0x0 SWAP1 SLOAD SWAP1 PUSH2 0x100 EXP SWAP1 DIV PUSH16 0xFFFFFFFFFFFFFFFFFFFFFFFFFFFFFFFF AND PUSH16 0xFFFFFFFFFFFFFFFFFFFFFFFFFFFFFFFF AND DUP3 PUSH16 0xFFFFFFFFFFFFFFFFFFFFFFFFFFFFFFFF AND SUB PUSH2 0x2BC6 JUMPI DUP2 DUP1 PUSH2 0x2BC2 SWAP1 PUSH2 0x9287 JUMP JUMPDEST SWAP3 POP POP JUMPDEST DUP2 PUSH3 0x10005 PUSH1 0x0 ADD PUSH1 0x0 DUP3 DUP3 DUP3 SWAP1 SLOAD SWAP1 PUSH2 0x100 EXP SWAP1 DIV PUSH16 0xFFFFFFFFFFFFFFFFFFFFFFFFFFFFFFFF AND PUSH2 0x2BF8 SWAP2 SWAP1 PUSH2 0x9150 JUMP JUMPDEST SWAP3 POP PUSH2 0x100 EXP DUP2 SLOAD DUP2 PUSH16 0xFFFFFFFFFFFFFFFFFFFFFFFFFFFFFFFF MUL NOT AND SWAP1 DUP4 PUSH16 0xFFFFFFFFFFFFFFFFFFFFFFFFFFFFFFFF AND MUL OR SWAP1 SSTORE POP PUSH2 0x2C6B PUSH32 0x0 DUP7 DUP5 PUSH16 0xFFFFFFFFFFFFFFFFFFFFFFFFFFFFFFFF AND PUSH2 0x505B JUMP JUMPDEST JUMPDEST PUSH1 0x0 DUP2 PUSH16 0xFFFFFFFFFFFFFFFFFFFFFFFFFFFFFFFF AND GT ISZERO PUSH2 0x2D8A JUMPI PUSH3 0x10005 PUSH1 0x0 ADD PUSH1 0x10 SWAP1 SLOAD SWAP1 PUSH2 0x100 EXP SWAP1 DIV PUSH16 0xFFFFFFFFFFFFFFFFFFFFFFFFFFFFFFFF AND PUSH16 0xFFFFFFFFFFFFFFFFFFFFFFFFFFFFFFFF AND DUP2 PUSH16 0xFFFFFFFFFFFFFFFFFFFFFFFFFFFFFFFF AND SUB PUSH2 0x2CE4 JUMPI DUP1 DUP1 PUSH2 0x2CE0 SWAP1 PUSH2 0x9287 JUMP JUMPDEST SWAP2 POP POP JUMPDEST DUP1 PUSH3 0x10005 PUSH1 0x0 ADD PUSH1 0x10 DUP3 DUP3 DUP3 SWAP1 SLOAD SWAP1 PUSH2 0x100 EXP SWAP1 DIV PUSH16 0xFFFFFFFFFFFFFFFFFFFFFFFFFFFFFFFF AND PUSH2 0x2D16 SWAP2 SWAP1 PUSH2 0x9150 JUMP JUMPDEST SWAP3 POP PUSH2 0x100 EXP DUP2 SLOAD DUP2 PUSH16 0xFFFFFFFFFFFFFFFFFFFFFFFFFFFFFFFF MUL NOT AND SWAP1 DUP4 PUSH16 0xFFFFFFFFFFFFFFFFFFFFFFFFFFFFFFFF AND MUL OR SWAP1 SSTORE POP PUSH2 0x2D89 PUSH32 0x0 DUP7 DUP4 PUSH16 0xFFFFFFFFFFFFFFFFFFFFFFFFFFFFFFFF AND PUSH2 0x505B JUMP JUMPDEST JUMPDEST DUP5 PUSH20 0xFFFFFFFFFFFFFFFFFFFFFFFFFFFFFFFFFFFFFFFF AND CALLER PUSH20 0xFFFFFFFFFFFFFFFFFFFFFFFFFFFFFFFFFFFFFFFF AND PUSH32 0x596B573906218D3411850B26A6B437D6C4522FDB43D2D2386263F86D50B8B151 DUP5 DUP5 PUSH1 0x40 MLOAD PUSH2 0x2DE9 SWAP3 SWAP2 SWAP1 PUSH2 0x7D2B JUMP JUMPDEST PUSH1 0x40 MLOAD DUP1 SWAP2 SUB SWAP1 LOG3 PUSH1 0x1 PUSH1 0x0 DUP1 ADD PUSH1 0x1E PUSH2 0x100 EXP DUP2 SLOAD DUP2 PUSH1 0xFF MUL NOT AND SWAP1 DUP4 ISZERO ISZERO MUL OR SWAP1 SSTORE POP SWAP4 POP SWAP4 SWAP2 POP POP JUMP JUMPDEST PUSH1 0x60 DUP1 PUSH2 0x2E21 PUSH2 0x3994 JUMP JUMPDEST PUSH2 0x2EDC PUSH2 0x2E2C PUSH2 0x39EE JUMP JUMPDEST DUP6 DUP6 DUP1 DUP1 PUSH1 0x20 MUL PUSH1 0x20 ADD PUSH1 0x40 MLOAD SWAP1 DUP2 ADD PUSH1 0x40 MSTORE DUP1 SWAP4 SWAP3 SWAP2 SWAP1 DUP2 DUP2 MSTORE PUSH1 0x20 ADD DUP4 DUP4 PUSH1 0x20 MUL DUP1 DUP3 DUP5 CALLDATACOPY PUSH1 0x0 DUP2 DUP5 ADD MSTORE PUSH1 0x1F NOT PUSH1 0x1F DUP3 ADD AND SWAP1 POP DUP1 DUP4 ADD SWAP3 POP POP POP POP POP POP POP PUSH1 0x0 DUP1 ADD PUSH1 0x14 SWAP1 SLOAD SWAP1 PUSH2 0x100 EXP SWAP1 DIV PUSH1 0x2 SIGNEXTEND PUSH1 0x0 DUP1 ADD PUSH1 0x17 SWAP1 SLOAD SWAP1 PUSH2 0x100 EXP SWAP1 DIV PUSH2 0xFFFF AND PUSH3 0x10006 PUSH1 0x0 SWAP1 SLOAD SWAP1 PUSH2 0x100 EXP SWAP1 DIV PUSH16 0xFFFFFFFFFFFFFFFFFFFFFFFFFFFFFFFF AND PUSH1 0x0 DUP1 ADD PUSH1 0x19 SWAP1 SLOAD SWAP1 PUSH2 0x100 EXP SWAP1 DIV PUSH2 0xFFFF AND PUSH1 0x6 PUSH2 0x58E2 SWAP1 SWAP7 SWAP6 SWAP5 SWAP4 SWAP3 SWAP2 SWAP1 PUSH4 0xFFFFFFFF AND JUMP JUMPDEST SWAP2 POP SWAP2 POP SWAP3 POP SWAP3 SWAP1 POP JUMP JUMPDEST PUSH1 0x0 DUP1 PUSH1 0x0 DUP1 ADD PUSH1 0x1E SWAP1 SLOAD SWAP1 PUSH2 0x100 EXP SWAP1 DIV PUSH1 0xFF AND PUSH2 0x2F3B JUMPI PUSH1 0x40 MLOAD PUSH32 0x8C379A000000000000000000000000000000000000000000000000000000000 DUP2 MSTORE PUSH1 0x4 ADD PUSH2 0x2F32 SWAP1 PUSH2 0x8E21 JUMP JUMPDEST PUSH1 0x40 MLOAD DUP1 SWAP2 SUB SWAP1 REVERT JUMPDEST PUSH1 0x0 DUP1 PUSH1 0x0 ADD PUSH1 0x1E PUSH2 0x100 EXP DUP2 SLOAD DUP2 PUSH1 0xFF MUL NOT AND SWAP1 DUP4 ISZERO ISZERO MUL OR SWAP1 SSTORE POP PUSH1 0x0 DUP1 PUSH1 0x0 PUSH2 0x2FC8 PUSH1 0x40 MLOAD DUP1 PUSH1 0x80 ADD PUSH1 0x40 MSTORE DUP1 CALLER PUSH20 0xFFFFFFFFFFFFFFFFFFFFFFFFFFFFFFFFFFFFFFFF AND DUP2 MSTORE PUSH1 0x20 ADD DUP11 PUSH1 0x2 SIGNEXTEND DUP2 MSTORE PUSH1 0x20 ADD DUP10 PUSH1 0x2 SIGNEXTEND DUP2 MSTORE PUSH1 0x20 ADD PUSH2 0x2FB4 DUP10 PUSH16 0xFFFFFFFFFFFFFFFFFFFFFFFFFFFFFFFF AND PUSH2 0x54EE JUMP JUMPDEST PUSH2 0x2FBD SWAP1 PUSH2 0x8B8D JUMP JUMPDEST PUSH1 0xF SIGNEXTEND DUP2 MSTORE POP PUSH2 0x5507 JUMP JUMPDEST SWAP3 POP SWAP3 POP SWAP3 POP DUP2 PUSH2 0x2FD8 SWAP1 PUSH2 0x8C30 JUMP JUMPDEST SWAP5 POP DUP1 PUSH2 0x2FE4 SWAP1 PUSH2 0x8C30 JUMP JUMPDEST SWAP4 POP PUSH1 0x0 DUP6 GT DUP1 PUSH2 0x2FF5 JUMPI POP PUSH1 0x0 DUP5 GT JUMPDEST ISZERO PUSH2 0x30CF JUMPI DUP5 DUP4 PUSH1 0x3 ADD PUSH1 0x0 SWAP1 SLOAD SWAP1 PUSH2 0x100 EXP SWAP1 DIV PUSH16 0xFFFFFFFFFFFFFFFFFFFFFFFFFFFFFFFF AND PUSH2 0x3026 SWAP2 SWAP1 PUSH2 0x8B49 JUMP JUMPDEST DUP5 DUP5 PUSH1 0x3 ADD PUSH1 0x10 SWAP1 SLOAD SWAP1 PUSH2 0x100 EXP SWAP1 DIV PUSH16 0xFFFFFFFFFFFFFFFFFFFFFFFFFFFFFFFF AND PUSH2 0x3052 SWAP2 SWAP1 PUSH2 0x8B49 JUMP JUMPDEST DUP5 PUSH1 0x3 ADD PUSH1 0x0 DUP7 PUSH1 0x3 ADD PUSH1 0x10 DUP5 SWAP2 SWAP1 PUSH2 0x100 EXP DUP2 SLOAD DUP2 PUSH16 0xFFFFFFFFFFFFFFFFFFFFFFFFFFFFFFFF MUL NOT AND SWAP1 DUP4 PUSH16 0xFFFFFFFFFFFFFFFFFFFFFFFFFFFFFFFF AND MUL OR SWAP1 SSTORE POP DUP4 SWAP2 SWAP1 PUSH2 0x100 EXP DUP2 SLOAD DUP2 PUSH16 0xFFFFFFFFFFFFFFFFFFFFFFFFFFFFFFFF MUL NOT AND SWAP1 DUP4 PUSH16 0xFFFFFFFFFFFFFFFFFFFFFFFFFFFFFFFF AND MUL OR SWAP1 SSTORE POP POP POP JUMPDEST DUP7 PUSH1 0x2 SIGNEXTEND DUP9 PUSH1 0x2 SIGNEXTEND CALLER PUSH20 0xFFFFFFFFFFFFFFFFFFFFFFFFFFFFFFFFFFFFFFFF AND PUSH32 0xC396CD989A39F4459B5FA1AED6A9A8DCDBC45908ACFD67E028CD568DA98982C DUP10 DUP10 DUP10 PUSH1 0x40 MLOAD PUSH2 0x3121 SWAP4 SWAP3 SWAP2 SWAP1 PUSH2 0x92B0 JUMP JUMPDEST PUSH1 0x40 MLOAD DUP1 SWAP2 SUB SWAP1 LOG4 POP POP POP PUSH1 0x1 PUSH1 0x0 DUP1 ADD PUSH1 0x1E PUSH2 0x100 EXP DUP2 SLOAD DUP2 PUSH1 0xFF MUL NOT AND SWAP1 DUP4 ISZERO ISZERO MUL OR SWAP1 SSTORE POP SWAP4 POP SWAP4 SWAP2 POP POP JUMP JUMPDEST PUSH1 0x0 DUP1 PUSH1 0x0 PUSH2 0x315E PUSH2 0x3994 JUMP JUMPDEST PUSH2 0x3168 DUP6 DUP6 PUSH2 0x5A89 JUMP JUMPDEST PUSH1 0x0 DUP1 PUSH1 0x0 DUP1 PUSH1 0x0 DUP1 PUSH1 0x0 PUSH1 0x3 PUSH1 0x0 DUP14 PUSH1 0x2 SIGNEXTEND PUSH1 0x2 SIGNEXTEND DUP2 MSTORE PUSH1 0x20 ADD SWAP1 DUP2 MSTORE PUSH1 0x20 ADD PUSH1 0x0 KECCAK256 SWAP1 POP PUSH1 0x0 PUSH1 0x3 PUSH1 0x0 DUP14 PUSH1 0x2 SIGNEXTEND PUSH1 0x2 SIGNEXTEND DUP2 MSTORE PUSH1 0x20 ADD SWAP1 DUP2 MSTORE PUSH1 0x20 ADD PUSH1 0x0 KECCAK256 SWAP1 POP PUSH1 0x0 DUP3 PUSH1 0x3 ADD PUSH1 0x0 SWAP1 SLOAD SWAP1 PUSH2 0x100 EXP SWAP1 DIV PUSH1 0x6 SIGNEXTEND DUP4 PUSH1 0x3 ADD PUSH1 0x7 SWAP1 SLOAD SWAP1 PUSH2 0x100 EXP SWAP1 DIV PUSH20 0xFFFFFFFFFFFFFFFFFFFFFFFFFFFFFFFFFFFFFFFF AND DUP5 PUSH1 0x3 ADD PUSH1 0x1B SWAP1 SLOAD SWAP1 PUSH2 0x100 EXP SWAP1 DIV PUSH4 0xFFFFFFFF AND DUP6 PUSH1 0x3 ADD PUSH1 0x1F SWAP1 SLOAD SWAP1 PUSH2 0x100 EXP SWAP1 DIV PUSH1 0xFF AND DUP1 SWAP5 POP DUP2 SWAP9 POP DUP3 SWAP11 POP DUP4 SWAP13 POP POP POP POP POP DUP1 PUSH2 0x3225 JUMPI PUSH1 0x0 DUP1 REVERT JUMPDEST PUSH1 0x0 DUP3 PUSH1 0x3 ADD PUSH1 0x0 SWAP1 SLOAD SWAP1 PUSH2 0x100 EXP SWAP1 DIV PUSH1 0x6 SIGNEXTEND DUP4 PUSH1 0x3 ADD PUSH1 0x7 SWAP1 SLOAD SWAP1 PUSH2 0x100 EXP SWAP1 DIV PUSH20 0xFFFFFFFFFFFFFFFFFFFFFFFFFFFFFFFFFFFFFFFF AND DUP5 PUSH1 0x3 ADD PUSH1 0x1B SWAP1 SLOAD SWAP1 PUSH2 0x100 EXP SWAP1 DIV PUSH4 0xFFFFFFFF AND DUP6 PUSH1 0x3 ADD PUSH1 0x1F SWAP1 SLOAD SWAP1 PUSH2 0x100 EXP SWAP1 DIV PUSH1 0xFF AND DUP1 SWAP5 POP DUP2 SWAP9 POP DUP3 SWAP11 POP DUP4 SWAP13 POP POP POP POP POP DUP1 PUSH2 0x329F JUMPI PUSH1 0x0 DUP1 REVERT JUMPDEST POP POP POP POP PUSH1 0x0 DUP1 PUSH1 0x40 MLOAD DUP1 PUSH1 0xE0 ADD PUSH1 0x40 MSTORE SWAP1 DUP2 PUSH1 0x0 DUP3 ADD PUSH1 0x0 SWAP1 SLOAD SWAP1 PUSH2 0x100 EXP SWAP1 DIV PUSH20 0xFFFFFFFFFFFFFFFFFFFFFFFFFFFFFFFFFFFFFFFF AND PUSH20 0xFFFFFFFFFFFFFFFFFFFFFFFFFFFFFFFFFFFFFFFF AND PUSH20 0xFFFFFFFFFFFFFFFFFFFFFFFFFFFFFFFFFFFFFFFF AND DUP2 MSTORE PUSH1 0x20 ADD PUSH1 0x0 DUP3 ADD PUSH1 0x14 SWAP1 SLOAD SWAP1 PUSH2 0x100 EXP SWAP1 DIV PUSH1 0x2 SIGNEXTEND PUSH1 0x2 SIGNEXTEND PUSH1 0x2 SIGNEXTEND DUP2 MSTORE PUSH1 0x20 ADD PUSH1 0x0 DUP3 ADD PUSH1 0x17 SWAP1 SLOAD SWAP1 PUSH2 0x100 EXP SWAP1 DIV PUSH2 0xFFFF AND PUSH2 0xFFFF AND PUSH2 0xFFFF AND DUP2 MSTORE PUSH1 0x20 ADD PUSH1 0x0 DUP3 ADD PUSH1 0x19 SWAP1 SLOAD SWAP1 PUSH2 0x100 EXP SWAP1 DIV PUSH2 0xFFFF AND PUSH2 0xFFFF AND PUSH2 0xFFFF AND DUP2 MSTORE PUSH1 0x20 ADD PUSH1 0x0 DUP3 ADD PUSH1 0x1B SWAP1 SLOAD SWAP1 PUSH2 0x100 EXP SWAP1 DIV PUSH2 0xFFFF AND PUSH2 0xFFFF AND PUSH2 0xFFFF AND DUP2 MSTORE PUSH1 0x20 ADD PUSH1 0x0 DUP3 ADD PUSH1 0x1D SWAP1 SLOAD SWAP1 PUSH2 0x100 EXP SWAP1 DIV PUSH1 0xFF AND PUSH1 0xFF AND PUSH1 0xFF AND DUP2 MSTORE PUSH1 0x20 ADD PUSH1 0x0 DUP3 ADD PUSH1 0x1E SWAP1 SLOAD SWAP1 PUSH2 0x100 EXP SWAP1 DIV PUSH1 0xFF AND ISZERO ISZERO ISZERO ISZERO DUP2 MSTORE POP POP SWAP1 POP DUP12 PUSH1 0x2 SIGNEXTEND DUP2 PUSH1 0x20 ADD MLOAD PUSH1 0x2 SIGNEXTEND SLT ISZERO PUSH2 0x3406 JUMPI DUP6 DUP8 PUSH2 0x33DC SWAP2 SWAP1 PUSH2 0x92E7 JUMP JUMPDEST DUP5 DUP7 PUSH2 0x33E8 SWAP2 SWAP1 PUSH2 0x9346 JUMP JUMPDEST DUP4 DUP6 PUSH2 0x33F4 SWAP2 SWAP1 PUSH2 0x938E JUMP JUMPDEST SWAP10 POP SWAP10 POP SWAP10 POP POP POP POP POP POP POP POP PUSH2 0x3502 JUMP JUMPDEST DUP11 PUSH1 0x2 SIGNEXTEND DUP2 PUSH1 0x20 ADD MLOAD PUSH1 0x2 SIGNEXTEND SLT ISZERO PUSH2 0x34D0 JUMPI PUSH1 0x0 PUSH2 0x3422 PUSH2 0x39EE JUMP JUMPDEST SWAP1 POP PUSH1 0x0 DUP1 PUSH2 0x3472 DUP4 PUSH1 0x0 DUP7 PUSH1 0x20 ADD MLOAD DUP8 PUSH1 0x40 ADD MLOAD PUSH3 0x10006 PUSH1 0x0 SWAP1 SLOAD SWAP1 PUSH2 0x100 EXP SWAP1 DIV PUSH16 0xFFFFFFFFFFFFFFFFFFFFFFFFFFFFFFFF AND DUP10 PUSH1 0x60 ADD MLOAD PUSH1 0x6 PUSH2 0x4514 SWAP1 SWAP7 SWAP6 SWAP5 SWAP4 SWAP3 SWAP2 SWAP1 PUSH4 0xFFFFFFFF AND JUMP JUMPDEST SWAP2 POP SWAP2 POP DUP9 DUP11 DUP4 PUSH2 0x3483 SWAP2 SWAP1 PUSH2 0x92E7 JUMP JUMPDEST PUSH2 0x348D SWAP2 SWAP1 PUSH2 0x92E7 JUMP JUMPDEST DUP8 DUP10 DUP4 PUSH2 0x349A SWAP2 SWAP1 PUSH2 0x9346 JUMP JUMPDEST PUSH2 0x34A4 SWAP2 SWAP1 PUSH2 0x9346 JUMP JUMPDEST DUP7 DUP9 DUP7 PUSH2 0x34B1 SWAP2 SWAP1 PUSH2 0x938E JUMP JUMPDEST PUSH2 0x34BB SWAP2 SWAP1 PUSH2 0x938E JUMP JUMPDEST SWAP13 POP SWAP13 POP SWAP13 POP POP POP POP POP POP POP POP POP POP POP PUSH2 0x3502 JUMP JUMPDEST DUP7 DUP7 PUSH2 0x34DC SWAP2 SWAP1 PUSH2 0x92E7 JUMP JUMPDEST DUP6 DUP6 PUSH2 0x34E8 SWAP2 SWAP1 PUSH2 0x9346 JUMP JUMPDEST DUP5 DUP5 PUSH2 0x34F4 SWAP2 SWAP1 PUSH2 0x938E JUMP JUMPDEST SWAP10 POP SWAP10 POP SWAP10 POP POP POP POP POP POP POP POP JUMPDEST SWAP3 POP SWAP3 POP SWAP3 JUMP JUMPDEST PUSH32 0x0 DUP2 JUMP JUMPDEST PUSH32 0x0 DUP2 JUMP JUMPDEST PUSH32 0x0 DUP2 JUMP JUMPDEST PUSH32 0x0 DUP2 JUMP JUMPDEST PUSH1 0x1 SLOAD DUP2 JUMP JUMPDEST PUSH1 0x3 PUSH1 0x20 MSTORE DUP1 PUSH1 0x0 MSTORE PUSH1 0x40 PUSH1 0x0 KECCAK256 PUSH1 0x0 SWAP2 POP SWAP1 POP DUP1 PUSH1 0x0 ADD PUSH1 0x0 SWAP1 SLOAD SWAP1 PUSH2 0x100 EXP SWAP1 DIV PUSH16 0xFFFFFFFFFFFFFFFFFFFFFFFFFFFFFFFF AND SWAP1 DUP1 PUSH1 0x0 ADD PUSH1 0x10 SWAP1 SLOAD SWAP1 PUSH2 0x100 EXP SWAP1 DIV PUSH1 0xF SIGNEXTEND SWAP1 DUP1 PUSH1 0x1 ADD SLOAD SWAP1 DUP1 PUSH1 0x2 ADD SLOAD SWAP1 DUP1 PUSH1 0x3 ADD PUSH1 0x0 SWAP1 SLOAD SWAP1 PUSH2 0x100 EXP SWAP1 DIV PUSH1 0x6 SIGNEXTEND SWAP1 DUP1 PUSH1 0x3 ADD PUSH1 0x7 SWAP1 SLOAD SWAP1 PUSH2 0x100 EXP SWAP1 DIV PUSH20 0xFFFFFFFFFFFFFFFFFFFFFFFFFFFFFFFFFFFFFFFF AND SWAP1 DUP1 PUSH1 0x3 ADD PUSH1 0x1B SWAP1 SLOAD SWAP1 PUSH2 0x100 EXP SWAP1 DIV PUSH4 0xFFFFFFFF AND SWAP1 DUP1 PUSH1 0x3 ADD PUSH1 0x1F SWAP1 SLOAD SWAP1 PUSH2 0x100 EXP SWAP1 DIV PUSH1 0xFF AND SWAP1 POP DUP9 JUMP JUMPDEST PUSH1 0x0 DUP1 PUSH1 0x0 ADD PUSH1 0x0 SWAP1 SLOAD SWAP1 PUSH2 0x100 EXP SWAP1 DIV PUSH20 0xFFFFFFFFFFFFFFFFFFFFFFFFFFFFFFFFFFFFFFFF AND PUSH20 0xFFFFFFFFFFFFFFFFFFFFFFFFFFFFFFFFFFFFFFFF AND EQ PUSH2 0x36D7 JUMPI PUSH1 0x40 MLOAD PUSH32 0x8C379A000000000000000000000000000000000000000000000000000000000 DUP2 MSTORE PUSH1 0x4 ADD PUSH2 0x36CE SWAP1 PUSH2 0x9412 JUMP JUMPDEST PUSH1 0x40 MLOAD DUP1 SWAP2 SUB SWAP1 REVERT JUMPDEST PUSH1 0x0 PUSH2 0x36E2 DUP3 PUSH2 0x4A11 JUMP JUMPDEST SWAP1 POP PUSH1 0x0 DUP1 PUSH2 0x3702 PUSH2 0x36F2 PUSH2 0x39EE JUMP JUMPDEST PUSH1 0x6 PUSH2 0x5BB0 SWAP1 SWAP2 SWAP1 PUSH4 0xFFFFFFFF AND JUMP JUMPDEST SWAP2 POP SWAP2 POP PUSH1 0x40 MLOAD DUP1 PUSH1 0xE0 ADD PUSH1 0x40 MSTORE DUP1 DUP6 PUSH20 0xFFFFFFFFFFFFFFFFFFFFFFFFFFFFFFFFFFFFFFFF AND DUP2 MSTORE PUSH1 0x20 ADD DUP5 PUSH1 0x2 SIGNEXTEND DUP2 MSTORE PUSH1 0x20 ADD PUSH1 0x0 PUSH2 0xFFFF AND DUP2 MSTORE PUSH1 0x20 ADD DUP4 PUSH2 0xFFFF AND DUP2 MSTORE PUSH1 0x20 ADD DUP3 PUSH2 0xFFFF AND DUP2 MSTORE PUSH1 0x20 ADD PUSH1 0x0 PUSH1 0xFF AND DUP2 MSTORE PUSH1 0x20 ADD PUSH1 0x1 ISZERO ISZERO DUP2 MSTORE POP PUSH1 0x0 DUP1 DUP3 ADD MLOAD DUP2 PUSH1 0x0 ADD PUSH1 0x0 PUSH2 0x100 EXP DUP2 SLOAD DUP2 PUSH20 0xFFFFFFFFFFFFFFFFFFFFFFFFFFFFFFFFFFFFFFFF MUL NOT AND SWAP1 DUP4 PUSH20 0xFFFFFFFFFFFFFFFFFFFFFFFFFFFFFFFFFFFFFFFF AND MUL OR SWAP1 SSTORE POP PUSH1 0x20 DUP3 ADD MLOAD DUP2 PUSH1 0x0 ADD PUSH1 0x14 PUSH2 0x100 EXP DUP2 SLOAD DUP2 PUSH3 0xFFFFFF MUL NOT AND SWAP1 DUP4 PUSH1 0x2 SIGNEXTEND PUSH3 0xFFFFFF AND MUL OR SWAP1 SSTORE POP PUSH1 0x40 DUP3 ADD MLOAD DUP2 PUSH1 0x0 ADD PUSH1 0x17 PUSH2 0x100 EXP DUP2 SLOAD DUP2 PUSH2 0xFFFF MUL NOT AND SWAP1 DUP4 PUSH2 0xFFFF AND MUL OR SWAP1 SSTORE POP PUSH1 0x60 DUP3 ADD MLOAD DUP2 PUSH1 0x0 ADD PUSH1 0x19 PUSH2 0x100 EXP DUP2 SLOAD DUP2 PUSH2 0xFFFF MUL NOT AND SWAP1 DUP4 PUSH2 0xFFFF AND MUL OR SWAP1 SSTORE POP PUSH1 0x80 DUP3 ADD MLOAD DUP2 PUSH1 0x0 ADD PUSH1 0x1B PUSH2 0x100 EXP DUP2 SLOAD DUP2 PUSH2 0xFFFF MUL NOT AND SWAP1 DUP4 PUSH2 0xFFFF AND MUL OR SWAP1 SSTORE POP PUSH1 0xA0 DUP3 ADD MLOAD DUP2 PUSH1 0x0 ADD PUSH1 0x1D PUSH2 0x100 EXP DUP2 SLOAD DUP2 PUSH1 0xFF MUL NOT AND SWAP1 DUP4 PUSH1 0xFF AND MUL OR SWAP1 SSTORE POP PUSH1 0xC0 DUP3 ADD MLOAD DUP2 PUSH1 0x0 ADD PUSH1 0x1E PUSH2 0x100 EXP DUP2 SLOAD DUP2 PUSH1 0xFF MUL NOT AND SWAP1 DUP4 ISZERO ISZERO MUL OR SWAP1 SSTORE POP SWAP1 POP POP PUSH32 0x98636036CB66A9C19A37435EFC1E90142190214E8ABEB821BDBA3F2990DD4C95 DUP5 DUP5 PUSH1 0x40 MLOAD PUSH2 0x38B4 SWAP3 SWAP2 SWAP1 PUSH2 0x9432 JUMP JUMPDEST PUSH1 0x40 MLOAD DUP1 SWAP2 SUB SWAP1 LOG1 POP POP POP POP JUMP JUMPDEST PUSH1 0x0 DUP1 DUP3 DUP4 PUSH32 0xFFFFFFFFFFFFFFFFFFFFFFFFFFFFFFFFFFFFFFFFFFFFFFFFFFFFFFFFFFF27618 PUSH2 0x38F2 SWAP2 SWAP1 PUSH2 0x945B JUMP JUMPDEST PUSH2 0x38FC SWAP2 SWAP1 PUSH2 0x94C5 JUMP JUMPDEST SWAP1 POP PUSH1 0x0 DUP4 DUP5 PUSH32 0xFFFFFFFFFFFFFFFFFFFFFFFFFFFFFFFFFFFFFFFFFFFFFFFFFFFFFFFFFFF27618 PUSH2 0x392C SWAP1 PUSH2 0x89E1 JUMP JUMPDEST PUSH2 0x3936 SWAP2 SWAP1 PUSH2 0x945B JUMP JUMPDEST PUSH2 0x3940 SWAP2 SWAP1 PUSH2 0x94C5 JUMP JUMPDEST SWAP1 POP PUSH1 0x0 PUSH1 0x1 DUP6 DUP5 DUP5 PUSH2 0x3953 SWAP2 SWAP1 PUSH2 0x8BD5 JUMP JUMPDEST PUSH2 0x395D SWAP2 SWAP1 PUSH2 0x945B JUMP JUMPDEST PUSH2 0x3967 SWAP2 SWAP1 PUSH2 0x9502 JUMP JUMPDEST SWAP1 POP DUP1 PUSH3 0xFFFFFF AND PUSH16 0xFFFFFFFFFFFFFFFFFFFFFFFFFFFFFFFF PUSH2 0x398A SWAP2 SWAP1 PUSH2 0x9539 JUMP JUMPDEST SWAP4 POP POP POP POP SWAP2 SWAP1 POP JUMP JUMPDEST PUSH32 0x0 PUSH20 0xFFFFFFFFFFFFFFFFFFFFFFFFFFFFFFFFFFFFFFFF AND ADDRESS PUSH20 0xFFFFFFFFFFFFFFFFFFFFFFFFFFFFFFFFFFFFFFFF AND EQ PUSH2 0x39EC JUMPI PUSH1 0x0 DUP1 REVERT JUMPDEST JUMP JUMPDEST PUSH1 0x0 TIMESTAMP SWAP1 POP SWAP1 JUMP JUMPDEST PUSH1 0x0 DUP1 PUSH1 0x0 DUP5 DUP7 PUSH2 0x3A07 SWAP2 SWAP1 PUSH2 0x945B JUMP JUMPDEST SWAP1 POP PUSH1 0x0 DUP7 PUSH1 0x2 SIGNEXTEND SLT DUP1 ISZERO PUSH2 0x3A2B JUMPI POP PUSH1 0x0 DUP6 DUP8 PUSH2 0x3A25 SWAP2 SWAP1 PUSH2 0x956A JUMP JUMPDEST PUSH1 0x2 SIGNEXTEND EQ ISZERO JUMPDEST ISZERO PUSH2 0x3A3F JUMPI DUP1 DUP1 PUSH2 0x3A3B SWAP1 PUSH2 0x959B JUMP JUMPDEST SWAP2 POP POP JUMPDEST DUP4 ISZERO PUSH2 0x3B02 JUMPI PUSH1 0x0 DUP1 PUSH2 0x3A51 DUP4 PUSH2 0x5CDD JUMP JUMPDEST SWAP2 POP SWAP2 POP PUSH1 0x0 DUP2 PUSH1 0xFF AND PUSH1 0x1 SWAP1 SHL PUSH1 0x1 DUP4 PUSH1 0xFF AND PUSH1 0x1 SWAP1 SHL PUSH2 0x3A73 SWAP2 SWAP1 PUSH2 0x8B15 JUMP JUMPDEST PUSH2 0x3A7D SWAP2 SWAP1 PUSH2 0x8A29 JUMP JUMPDEST SWAP1 POP PUSH1 0x0 DUP2 DUP12 PUSH1 0x0 DUP7 PUSH1 0x1 SIGNEXTEND PUSH1 0x1 SIGNEXTEND DUP2 MSTORE PUSH1 0x20 ADD SWAP1 DUP2 MSTORE PUSH1 0x20 ADD PUSH1 0x0 KECCAK256 SLOAD AND SWAP1 POP PUSH1 0x0 DUP2 EQ ISZERO SWAP6 POP DUP6 PUSH2 0x3AC9 JUMPI DUP9 DUP4 PUSH1 0xFF AND DUP7 PUSH2 0x3ABA SWAP2 SWAP1 PUSH2 0x8BD5 JUMP JUMPDEST PUSH2 0x3AC4 SWAP2 SWAP1 PUSH2 0x94C5 JUMP JUMPDEST PUSH2 0x3AF7 JUMP JUMPDEST DUP9 PUSH2 0x3AD3 DUP3 PUSH2 0x5CFF JUMP JUMPDEST DUP5 PUSH2 0x3ADE SWAP2 SWAP1 PUSH2 0x95E3 JUMP JUMPDEST PUSH1 0xFF AND DUP7 PUSH2 0x3AEC SWAP2 SWAP1 PUSH2 0x8BD5 JUMP JUMPDEST PUSH2 0x3AF6 SWAP2 SWAP1 PUSH2 0x94C5 JUMP JUMPDEST JUMPDEST SWAP7 POP POP POP POP POP PUSH2 0x3BDA JUMP JUMPDEST PUSH1 0x0 DUP1 PUSH2 0x3B1A PUSH1 0x1 DUP5 PUSH2 0x3B15 SWAP2 SWAP1 PUSH2 0x9618 JUMP JUMPDEST PUSH2 0x5CDD JUMP JUMPDEST SWAP2 POP SWAP2 POP PUSH1 0x0 PUSH1 0x1 DUP3 PUSH1 0xFF AND PUSH1 0x1 SWAP1 SHL PUSH2 0x3B34 SWAP2 SWAP1 PUSH2 0x8B15 JUMP JUMPDEST NOT SWAP1 POP PUSH1 0x0 DUP2 DUP12 PUSH1 0x0 DUP7 PUSH1 0x1 SIGNEXTEND PUSH1 0x1 SIGNEXTEND DUP2 MSTORE PUSH1 0x20 ADD SWAP1 DUP2 MSTORE PUSH1 0x20 ADD PUSH1 0x0 KECCAK256 SLOAD AND SWAP1 POP PUSH1 0x0 DUP2 EQ ISZERO SWAP6 POP DUP6 PUSH2 0x3B99 JUMPI DUP9 DUP4 PUSH1 0xFF PUSH2 0x3B70 SWAP2 SWAP1 PUSH2 0x95E3 JUMP JUMPDEST PUSH1 0xFF AND PUSH1 0x1 DUP8 PUSH2 0x3B80 SWAP2 SWAP1 PUSH2 0x9618 JUMP JUMPDEST PUSH2 0x3B8A SWAP2 SWAP1 PUSH2 0x9618 JUMP JUMPDEST PUSH2 0x3B94 SWAP2 SWAP1 PUSH2 0x94C5 JUMP JUMPDEST PUSH2 0x3BD3 JUMP JUMPDEST DUP9 DUP4 PUSH2 0x3BA4 DUP4 PUSH2 0x5E22 JUMP JUMPDEST PUSH2 0x3BAE SWAP2 SWAP1 PUSH2 0x95E3 JUMP JUMPDEST PUSH1 0xFF AND PUSH1 0x1 DUP8 PUSH2 0x3BBE SWAP2 SWAP1 PUSH2 0x9618 JUMP JUMPDEST PUSH2 0x3BC8 SWAP2 SWAP1 PUSH2 0x9618 JUMP JUMPDEST PUSH2 0x3BD2 SWAP2 SWAP1 PUSH2 0x94C5 JUMP JUMPDEST JUMPDEST SWAP7 POP POP POP POP POP JUMPDEST POP SWAP5 POP SWAP5 SWAP3 POP POP POP JUMP JUMPDEST PUSH1 0x0 DUP1 PUSH1 0x0 DUP4 PUSH1 0x2 SIGNEXTEND SLT PUSH2 0x3BFB JUMPI DUP3 PUSH1 0x2 SIGNEXTEND PUSH2 0x3C09 JUMP JUMPDEST DUP3 PUSH1 0x2 SIGNEXTEND PUSH2 0x3C08 SWAP1 PUSH2 0x8C30 JUMP JUMPDEST JUMPDEST SWAP1 POP PUSH32 0xFFFFFFFFFFFFFFFFFFFFFFFFFFFFFFFFFFFFFFFFFFFFFFFFFFFFFFFFFFF27618 PUSH2 0x3C35 SWAP1 PUSH2 0x89E1 JUMP JUMPDEST PUSH1 0x2 SIGNEXTEND DUP2 GT ISZERO PUSH2 0x3C7A JUMPI PUSH1 0x40 MLOAD PUSH32 0x8C379A000000000000000000000000000000000000000000000000000000000 DUP2 MSTORE PUSH1 0x4 ADD PUSH2 0x3C71 SWAP1 PUSH2 0x96BF JUMP JUMPDEST PUSH1 0x40 MLOAD DUP1 SWAP2 SUB SWAP1 REVERT JUMPDEST PUSH1 0x0 DUP1 PUSH1 0x1 DUP4 AND SUB PUSH2 0x3C9D JUMPI PUSH17 0x100000000000000000000000000000000 PUSH2 0x3CAF JUMP JUMPDEST PUSH16 0xFFFCB933BD6FAD37AA2D162D1A594001 JUMPDEST PUSH17 0xFFFFFFFFFFFFFFFFFFFFFFFFFFFFFFFFFF AND SWAP1 POP PUSH1 0x0 PUSH1 0x2 DUP4 AND EQ PUSH2 0x3CF2 JUMPI PUSH1 0x80 PUSH16 0xFFF97272373D413259A46990580E213A DUP3 PUSH2 0x3CED SWAP2 SWAP1 PUSH2 0x96DF JUMP JUMPDEST SWAP1 SHR SWAP1 POP JUMPDEST PUSH1 0x0 PUSH1 0x4 DUP4 AND EQ PUSH2 0x3D20 JUMPI PUSH1 0x80 PUSH16 0xFFF2E50F5F656932EF12357CF3C7FDCC DUP3 PUSH2 0x3D1B SWAP2 SWAP1 PUSH2 0x96DF JUMP JUMPDEST SWAP1 SHR SWAP1 POP JUMPDEST PUSH1 0x0 PUSH1 0x8 DUP4 AND EQ PUSH2 0x3D4E JUMPI PUSH1 0x80 PUSH16 0xFFE5CACA7E10E4E61C3624EAA0941CD0 DUP3 PUSH2 0x3D49 SWAP2 SWAP1 PUSH2 0x96DF JUMP JUMPDEST SWAP1 SHR SWAP1 POP JUMPDEST PUSH1 0x0 PUSH1 0x10 DUP4 AND EQ PUSH2 0x3D7C JUMPI PUSH1 0x80 PUSH16 0xFFCB9843D60F6159C9DB58835C926644 DUP3 PUSH2 0x3D77 SWAP2 SWAP1 PUSH2 0x96DF JUMP JUMPDEST SWAP1 SHR SWAP1 POP JUMPDEST PUSH1 0x0 PUSH1 0x20 DUP4 AND EQ PUSH2 0x3DAA JUMPI PUSH1 0x80 PUSH16 0xFF973B41FA98C081472E6896DFB254C0 DUP3 PUSH2 0x3DA5 SWAP2 SWAP1 PUSH2 0x96DF JUMP JUMPDEST SWAP1 SHR SWAP1 POP JUMPDEST PUSH1 0x0 PUSH1 0x40 DUP4 AND EQ PUSH2 0x3DD8 JUMPI PUSH1 0x80 PUSH16 0xFF2EA16466C96A3843EC78B326B52861 DUP3 PUSH2 0x3DD3 SWAP2 SWAP1 PUSH2 0x96DF JUMP JUMPDEST SWAP1 SHR SWAP1 POP JUMPDEST PUSH1 0x0 PUSH1 0x80 DUP4 AND EQ PUSH2 0x3E06 JUMPI PUSH1 0x80 PUSH16 0xFE5DEE046A99A2A811C461F1969C3053 DUP3 PUSH2 0x3E01 SWAP2 SWAP1 PUSH2 0x96DF JUMP JUMPDEST SWAP1 SHR SWAP1 POP JUMPDEST PUSH1 0x0 PUSH2 0x100 DUP4 AND EQ PUSH2 0x3E35 JUMPI PUSH1 0x80 PUSH16 0xFCBE86C7900A88AEDCFFC83B479AA3A4 DUP3 PUSH2 0x3E30 SWAP2 SWAP1 PUSH2 0x96DF JUMP JUMPDEST SWAP1 SHR SWAP1 POP JUMPDEST PUSH1 0x0 PUSH2 0x200 DUP4 AND EQ PUSH2 0x3E64 JUMPI PUSH1 0x80 PUSH16 0xF987A7253AC413176F2B074CF7815E54 DUP3 PUSH2 0x3E5F SWAP2 SWAP1 PUSH2 0x96DF JUMP JUMPDEST SWAP1 SHR SWAP1 POP JUMPDEST PUSH1 0x0 PUSH2 0x400 DUP4 AND EQ PUSH2 0x3E93 JUMPI PUSH1 0x80 PUSH16 0xF3392B0822B70005940C7A398E4B70F3 DUP3 PUSH2 0x3E8E SWAP2 SWAP1 PUSH2 0x96DF JUMP JUMPDEST SWAP1 SHR SWAP1 POP JUMPDEST PUSH1 0x0 PUSH2 0x800 DUP4 AND EQ PUSH2 0x3EC2 JUMPI PUSH1 0x80 PUSH16 0xE7159475A2C29B7443B29C7FA6E889D9 DUP3 PUSH2 0x3EBD SWAP2 SWAP1 PUSH2 0x96DF JUMP JUMPDEST SWAP1 SHR SWAP1 POP JUMPDEST PUSH1 0x0 PUSH2 0x1000 DUP4 AND EQ PUSH2 0x3EF1 JUMPI PUSH1 0x80 PUSH16 0xD097F3BDFD2022B8845AD8F792AA5825 DUP3 PUSH2 0x3EEC SWAP2 SWAP1 PUSH2 0x96DF JUMP JUMPDEST SWAP1 SHR SWAP1 POP JUMPDEST PUSH1 0x0 PUSH2 0x2000 DUP4 AND EQ PUSH2 0x3F20 JUMPI PUSH1 0x80 PUSH16 0xA9F746462D870FDF8A65DC1F90E061E5 DUP3 PUSH2 0x3F1B SWAP2 SWAP1 PUSH2 0x96DF JUMP JUMPDEST SWAP1 SHR SWAP1 POP JUMPDEST PUSH1 0x0 PUSH2 0x4000 DUP4 AND EQ PUSH2 0x3F4F JUMPI PUSH1 0x80 PUSH16 0x70D869A156D2A1B890BB3DF62BAF32F7 DUP3 PUSH2 0x3F4A SWAP2 SWAP1 PUSH2 0x96DF JUMP JUMPDEST SWAP1 SHR SWAP1 POP JUMPDEST PUSH1 0x0 PUSH2 0x8000 DUP4 AND EQ PUSH2 0x3F7E JUMPI PUSH1 0x80 PUSH16 0x31BE135F97D08FD981231505542FCFA6 DUP3 PUSH2 0x3F79 SWAP2 SWAP1 PUSH2 0x96DF JUMP JUMPDEST SWAP1 SHR SWAP1 POP JUMPDEST PUSH1 0x0 PUSH3 0x10000 DUP4 AND EQ PUSH2 0x3FAE JUMPI PUSH1 0x80 PUSH16 0x9AA508B5B7A84E1C677DE54F3E99BC9 DUP3 PUSH2 0x3FA9 SWAP2 SWAP1 PUSH2 0x96DF JUMP JUMPDEST SWAP1 SHR SWAP1 POP JUMPDEST PUSH1 0x0 PUSH3 0x20000 DUP4 AND EQ PUSH2 0x3FDD JUMPI PUSH1 0x80 PUSH15 0x5D6AF8DEDB81196699C329225EE604 DUP3 PUSH2 0x3FD8 SWAP2 SWAP1 PUSH2 0x96DF JUMP JUMPDEST SWAP1 SHR SWAP1 POP JUMPDEST PUSH1 0x0 PUSH3 0x40000 DUP4 AND EQ PUSH2 0x400B JUMPI PUSH1 0x80 PUSH14 0x2216E584F5FA1EA926041BEDFE98 DUP3 PUSH2 0x4006 SWAP2 SWAP1 PUSH2 0x96DF JUMP JUMPDEST SWAP1 SHR SWAP1 POP JUMPDEST PUSH1 0x0 PUSH3 0x80000 DUP4 AND EQ PUSH2 0x4037 JUMPI PUSH1 0x80 PUSH12 0x48A170391F7DC42444E8FA2 DUP3 PUSH2 0x4032 SWAP2 SWAP1 PUSH2 0x96DF JUMP JUMPDEST SWAP1 SHR SWAP1 POP JUMPDEST PUSH1 0x0 DUP5 PUSH1 0x2 SIGNEXTEND SGT ISZERO PUSH2 0x4072 JUMPI DUP1 PUSH32 0xFFFFFFFFFFFFFFFFFFFFFFFFFFFFFFFFFFFFFFFFFFFFFFFFFFFFFFFFFFFFFFFF PUSH2 0x406F SWAP2 SWAP1 PUSH2 0x8AE4 JUMP JUMPDEST SWAP1 POP JUMPDEST PUSH1 0x0 PUSH5 0x100000000 DUP3 PUSH2 0x4085 SWAP2 SWAP1 PUSH2 0x9721 JUMP JUMPDEST EQ PUSH2 0x4091 JUMPI PUSH1 0x1 PUSH2 0x4094 JUMP JUMPDEST PUSH1 0x0 JUMPDEST PUSH1 0xFF AND PUSH1 0x20 DUP3 SWAP1 SHR PUSH2 0x40A6 SWAP2 SWAP1 PUSH2 0x8A29 JUMP JUMPDEST SWAP3 POP POP POP SWAP2 SWAP1 POP JUMP JUMPDEST PUSH1 0x0 DUP1 PUSH1 0x0 DUP1 PUSH1 0x0 DUP9 PUSH20 0xFFFFFFFFFFFFFFFFFFFFFFFFFFFFFFFFFFFFFFFF AND DUP11 PUSH20 0xFFFFFFFFFFFFFFFFFFFFFFFFFFFFFFFFFFFFFFFF AND LT ISZERO SWAP1 POP PUSH1 0x0 DUP1 DUP9 SLT ISZERO SWAP1 POP DUP1 ISZERO PUSH2 0x4167 JUMPI PUSH1 0x0 PUSH2 0x411A DUP10 DUP10 PUSH3 0xF4240 PUSH2 0x410C SWAP2 SWAP1 PUSH2 0x9752 JUMP JUMPDEST PUSH3 0xFFFFFF AND PUSH3 0xF4240 PUSH2 0x4374 JUMP JUMPDEST SWAP1 POP DUP3 PUSH2 0x4133 JUMPI PUSH2 0x412E DUP13 DUP13 DUP13 PUSH1 0x1 PUSH2 0x5F91 JUMP JUMPDEST PUSH2 0x4141 JUMP JUMPDEST PUSH2 0x4140 DUP12 DUP14 DUP13 PUSH1 0x1 PUSH2 0x607D JUMP JUMPDEST JUMPDEST SWAP6 POP DUP6 DUP2 LT PUSH2 0x4152 JUMPI DUP11 SWAP7 POP PUSH2 0x4161 JUMP JUMPDEST PUSH2 0x415E DUP13 DUP12 DUP4 DUP7 PUSH2 0x61BE JUMP JUMPDEST SWAP7 POP JUMPDEST POP PUSH2 0x41BF JUMP JUMPDEST DUP2 PUSH2 0x417E JUMPI PUSH2 0x4179 DUP12 DUP12 DUP12 PUSH1 0x0 PUSH2 0x607D JUMP JUMPDEST PUSH2 0x418C JUMP JUMPDEST PUSH2 0x418B DUP11 DUP13 DUP12 PUSH1 0x0 PUSH2 0x5F91 JUMP JUMPDEST JUMPDEST SWAP4 POP DUP4 DUP9 PUSH2 0x4199 SWAP1 PUSH2 0x8C30 JUMP JUMPDEST LT PUSH2 0x41A6 JUMPI DUP10 SWAP6 POP PUSH2 0x41BE JUMP JUMPDEST PUSH2 0x41BB DUP12 DUP11 DUP11 PUSH2 0x41B5 SWAP1 PUSH2 0x8C30 JUMP JUMPDEST DUP6 PUSH2 0x6230 JUMP JUMPDEST SWAP6 POP JUMPDEST JUMPDEST PUSH1 0x0 DUP7 PUSH20 0xFFFFFFFFFFFFFFFFFFFFFFFFFFFFFFFFFFFFFFFF AND DUP12 PUSH20 0xFFFFFFFFFFFFFFFFFFFFFFFFFFFFFFFFFFFFFFFF AND EQ SWAP1 POP DUP3 ISZERO PUSH2 0x4246 JUMPI DUP1 DUP1 ISZERO PUSH2 0x4202 JUMPI POP DUP2 JUMPDEST PUSH2 0x4218 JUMPI PUSH2 0x4213 DUP8 DUP14 DUP13 PUSH1 0x1 PUSH2 0x607D JUMP JUMPDEST PUSH2 0x421A JUMP JUMPDEST DUP6 JUMPDEST SWAP6 POP DUP1 DUP1 ISZERO PUSH2 0x4227 JUMPI POP DUP2 ISZERO JUMPDEST PUSH2 0x423D JUMPI PUSH2 0x4238 DUP8 DUP14 DUP13 PUSH1 0x0 PUSH2 0x5F91 JUMP JUMPDEST PUSH2 0x423F JUMP JUMPDEST DUP5 JUMPDEST SWAP5 POP PUSH2 0x4290 JUMP JUMPDEST DUP1 DUP1 ISZERO PUSH2 0x4250 JUMPI POP DUP2 JUMPDEST PUSH2 0x4266 JUMPI PUSH2 0x4261 DUP13 DUP9 DUP13 PUSH1 0x1 PUSH2 0x5F91 JUMP JUMPDEST PUSH2 0x4268 JUMP JUMPDEST DUP6 JUMPDEST SWAP6 POP DUP1 DUP1 ISZERO PUSH2 0x4275 JUMPI POP DUP2 ISZERO JUMPDEST PUSH2 0x428B JUMPI PUSH2 0x4286 DUP13 DUP9 DUP13 PUSH1 0x0 PUSH2 0x607D JUMP JUMPDEST PUSH2 0x428D JUMP JUMPDEST DUP5 JUMPDEST SWAP5 POP JUMPDEST DUP2 ISZERO DUP1 ISZERO PUSH2 0x42A6 JUMPI POP DUP9 PUSH2 0x42A3 SWAP1 PUSH2 0x8C30 JUMP JUMPDEST DUP6 GT JUMPDEST ISZERO PUSH2 0x42B8 JUMPI DUP9 PUSH2 0x42B5 SWAP1 PUSH2 0x8C30 JUMP JUMPDEST SWAP5 POP JUMPDEST DUP2 DUP1 ISZERO PUSH2 0x42F1 JUMPI POP DUP11 PUSH20 0xFFFFFFFFFFFFFFFFFFFFFFFFFFFFFFFFFFFFFFFF AND DUP8 PUSH20 0xFFFFFFFFFFFFFFFFFFFFFFFFFFFFFFFFFFFFFFFF AND EQ ISZERO JUMPDEST ISZERO PUSH2 0x4309 JUMPI DUP6 DUP10 PUSH2 0x4302 SWAP2 SWAP1 PUSH2 0x8B15 JUMP JUMPDEST SWAP4 POP PUSH2 0x432F JUMP JUMPDEST PUSH2 0x432C DUP7 DUP10 PUSH3 0xFFFFFF AND DUP11 PUSH3 0xF4240 PUSH2 0x4322 SWAP2 SWAP1 PUSH2 0x9752 JUMP JUMPDEST PUSH3 0xFFFFFF AND PUSH2 0x582F JUMP JUMPDEST SWAP4 POP JUMPDEST POP POP POP SWAP6 POP SWAP6 POP SWAP6 POP SWAP6 SWAP2 POP POP JUMP JUMPDEST PUSH1 0x0 PUSH32 0x8000000000000000000000000000000000000000000000000000000000000000 DUP3 LT PUSH2 0x436C JUMPI PUSH1 0x0 DUP1 REVERT JUMPDEST DUP2 SWAP1 POP SWAP2 SWAP1 POP JUMP JUMPDEST PUSH1 0x0 DUP1 PUSH1 0x0 DUP1 NOT DUP6 DUP8 MULMOD DUP6 DUP8 MUL SWAP3 POP DUP3 DUP2 LT DUP4 DUP3 SUB SUB SWAP2 POP POP PUSH1 0x0 DUP2 SUB PUSH2 0x43AE JUMPI PUSH1 0x0 DUP5 GT PUSH2 0x43A2 JUMPI PUSH1 0x0 DUP1 REVERT JUMPDEST DUP4 DUP3 DIV SWAP3 POP POP POP PUSH2 0x450D JUMP JUMPDEST DUP1 DUP5 GT PUSH2 0x43BA JUMPI PUSH1 0x0 DUP1 REVERT JUMPDEST PUSH1 0x0 DUP5 DUP7 DUP9 MULMOD SWAP1 POP DUP3 DUP2 GT DUP3 SUB SWAP2 POP DUP1 DUP4 SUB SWAP3 POP PUSH1 0x0 DUP6 PUSH1 0x1 DUP8 NOT PUSH2 0x43DF SWAP2 SWAP1 PUSH2 0x8A29 JUMP JUMPDEST AND SWAP1 POP DUP1 DUP7 DIV SWAP6 POP DUP1 DUP5 DIV SWAP4 POP PUSH1 0x1 DUP2 DUP3 PUSH1 0x0 SUB DIV ADD SWAP1 POP DUP1 DUP4 PUSH2 0x4403 SWAP2 SWAP1 PUSH2 0x96DF JUMP JUMPDEST DUP5 OR SWAP4 POP PUSH1 0x0 PUSH1 0x2 DUP8 PUSH1 0x3 PUSH2 0x4418 SWAP2 SWAP1 PUSH2 0x96DF JUMP JUMPDEST XOR SWAP1 POP DUP1 DUP8 PUSH2 0x4427 SWAP2 SWAP1 PUSH2 0x96DF JUMP JUMPDEST PUSH1 0x2 PUSH2 0x4433 SWAP2 SWAP1 PUSH2 0x8B15 JUMP JUMPDEST DUP2 PUSH2 0x443E SWAP2 SWAP1 PUSH2 0x96DF JUMP JUMPDEST SWAP1 POP DUP1 DUP8 PUSH2 0x444C SWAP2 SWAP1 PUSH2 0x96DF JUMP JUMPDEST PUSH1 0x2 PUSH2 0x4458 SWAP2 SWAP1 PUSH2 0x8B15 JUMP JUMPDEST DUP2 PUSH2 0x4463 SWAP2 SWAP1 PUSH2 0x96DF JUMP JUMPDEST SWAP1 POP DUP1 DUP8 PUSH2 0x4471 SWAP2 SWAP1 PUSH2 0x96DF JUMP JUMPDEST PUSH1 0x2 PUSH2 0x447D SWAP2 SWAP1 PUSH2 0x8B15 JUMP JUMPDEST DUP2 PUSH2 0x4488 SWAP2 SWAP1 PUSH2 0x96DF JUMP JUMPDEST SWAP1 POP DUP1 DUP8 PUSH2 0x4496 SWAP2 SWAP1 PUSH2 0x96DF JUMP JUMPDEST PUSH1 0x2 PUSH2 0x44A2 SWAP2 SWAP1 PUSH2 0x8B15 JUMP JUMPDEST DUP2 PUSH2 0x44AD SWAP2 SWAP1 PUSH2 0x96DF JUMP JUMPDEST SWAP1 POP DUP1 DUP8 PUSH2 0x44BB SWAP2 SWAP1 PUSH2 0x96DF JUMP JUMPDEST PUSH1 0x2 PUSH2 0x44C7 SWAP2 SWAP1 PUSH2 0x8B15 JUMP JUMPDEST DUP2 PUSH2 0x44D2 SWAP2 SWAP1 PUSH2 0x96DF JUMP JUMPDEST SWAP1 POP DUP1 DUP8 PUSH2 0x44E0 SWAP2 SWAP1 PUSH2 0x96DF JUMP JUMPDEST PUSH1 0x2 PUSH2 0x44EC SWAP2 SWAP1 PUSH2 0x8B15 JUMP JUMPDEST DUP2 PUSH2 0x44F7 SWAP2 SWAP1 PUSH2 0x96DF JUMP JUMPDEST SWAP1 POP DUP1 DUP6 PUSH2 0x4505 SWAP2 SWAP1 PUSH2 0x96DF JUMP JUMPDEST SWAP6 POP POP POP POP POP POP JUMPDEST SWAP4 SWAP3 POP POP POP JUMP JUMPDEST PUSH1 0x0 DUP1 PUSH1 0x0 DUP8 PUSH4 0xFFFFFFFF AND SUB PUSH2 0x463B JUMPI PUSH1 0x0 DUP10 DUP7 PUSH2 0xFFFF AND PUSH2 0xFFFF DUP2 LT PUSH2 0x453F JUMPI PUSH2 0x453E PUSH2 0x9789 JUMP JUMPDEST JUMPDEST ADD PUSH1 0x40 MLOAD DUP1 PUSH1 0x80 ADD PUSH1 0x40 MSTORE SWAP1 DUP2 PUSH1 0x0 DUP3 ADD PUSH1 0x0 SWAP1 SLOAD SWAP1 PUSH2 0x100 EXP SWAP1 DIV PUSH4 0xFFFFFFFF AND PUSH4 0xFFFFFFFF AND PUSH4 0xFFFFFFFF AND DUP2 MSTORE PUSH1 0x20 ADD PUSH1 0x0 DUP3 ADD PUSH1 0x4 SWAP1 SLOAD SWAP1 PUSH2 0x100 EXP SWAP1 DIV PUSH1 0x6 SIGNEXTEND PUSH1 0x6 SIGNEXTEND PUSH1 0x6 SIGNEXTEND DUP2 MSTORE PUSH1 0x20 ADD PUSH1 0x0 DUP3 ADD PUSH1 0xB SWAP1 SLOAD SWAP1 PUSH2 0x100 EXP SWAP1 DIV PUSH20 0xFFFFFFFFFFFFFFFFFFFFFFFFFFFFFFFFFFFFFFFF AND PUSH20 0xFFFFFFFFFFFFFFFFFFFFFFFFFFFFFFFFFFFFFFFF AND PUSH20 0xFFFFFFFFFFFFFFFFFFFFFFFFFFFFFFFFFFFFFFFF AND DUP2 MSTORE PUSH1 0x20 ADD PUSH1 0x0 DUP3 ADD PUSH1 0x1F SWAP1 SLOAD SWAP1 PUSH2 0x100 EXP SWAP1 DIV PUSH1 0xFF AND ISZERO ISZERO ISZERO ISZERO DUP2 MSTORE POP POP SWAP1 POP DUP9 PUSH4 0xFFFFFFFF AND DUP2 PUSH1 0x0 ADD MLOAD PUSH4 0xFFFFFFFF AND EQ PUSH2 0x4627 JUMPI PUSH2 0x4624 DUP2 DUP11 DUP10 DUP9 PUSH2 0x62A2 JUMP JUMPDEST SWAP1 POP JUMPDEST DUP1 PUSH1 0x20 ADD MLOAD DUP2 PUSH1 0x40 ADD MLOAD SWAP3 POP SWAP3 POP POP PUSH2 0x4791 JUMP JUMPDEST PUSH1 0x0 DUP8 DUP10 PUSH2 0x4649 SWAP2 SWAP1 PUSH2 0x938E JUMP JUMPDEST SWAP1 POP PUSH1 0x0 DUP1 PUSH2 0x465D DUP13 DUP13 DUP6 DUP13 DUP13 DUP13 DUP13 PUSH2 0x639D JUMP JUMPDEST SWAP2 POP SWAP2 POP DUP2 PUSH1 0x0 ADD MLOAD PUSH4 0xFFFFFFFF AND DUP4 PUSH4 0xFFFFFFFF AND SUB PUSH2 0x468E JUMPI DUP2 PUSH1 0x20 ADD MLOAD DUP3 PUSH1 0x40 ADD MLOAD SWAP5 POP SWAP5 POP POP POP POP PUSH2 0x4791 JUMP JUMPDEST DUP1 PUSH1 0x0 ADD MLOAD PUSH4 0xFFFFFFFF AND DUP4 PUSH4 0xFFFFFFFF AND SUB PUSH2 0x46BB JUMPI DUP1 PUSH1 0x20 ADD MLOAD DUP2 PUSH1 0x40 ADD MLOAD SWAP5 POP SWAP5 POP POP POP POP PUSH2 0x4791 JUMP JUMPDEST PUSH1 0x0 DUP3 PUSH1 0x0 ADD MLOAD DUP3 PUSH1 0x0 ADD MLOAD PUSH2 0x46D1 SWAP2 SWAP1 PUSH2 0x938E JUMP JUMPDEST SWAP1 POP PUSH1 0x0 DUP4 PUSH1 0x0 ADD MLOAD DUP6 PUSH2 0x46E5 SWAP2 SWAP1 PUSH2 0x938E JUMP JUMPDEST SWAP1 POP DUP1 PUSH4 0xFFFFFFFF AND DUP3 PUSH4 0xFFFFFFFF AND DUP6 PUSH1 0x20 ADD MLOAD DUP6 PUSH1 0x20 ADD MLOAD PUSH2 0x4709 SWAP2 SWAP1 PUSH2 0x92E7 JUMP JUMPDEST PUSH2 0x4713 SWAP2 SWAP1 PUSH2 0x97B8 JUMP JUMPDEST PUSH2 0x471D SWAP2 SWAP1 PUSH2 0x9822 JUMP JUMPDEST DUP5 PUSH1 0x20 ADD MLOAD PUSH2 0x472C SWAP2 SWAP1 PUSH2 0x985F JUMP JUMPDEST DUP3 PUSH4 0xFFFFFFFF AND DUP3 PUSH4 0xFFFFFFFF AND DUP7 PUSH1 0x40 ADD MLOAD DUP7 PUSH1 0x40 ADD MLOAD PUSH2 0x474E SWAP2 SWAP1 PUSH2 0x9346 JUMP JUMPDEST PUSH20 0xFFFFFFFFFFFFFFFFFFFFFFFFFFFFFFFFFFFFFFFF AND PUSH2 0x476E SWAP2 SWAP1 PUSH2 0x96DF JUMP JUMPDEST PUSH2 0x4778 SWAP2 SWAP1 PUSH2 0x8AE4 JUMP JUMPDEST DUP6 PUSH1 0x40 ADD MLOAD PUSH2 0x4787 SWAP2 SWAP1 PUSH2 0x98BE JUMP JUMPDEST SWAP7 POP SWAP7 POP POP POP POP POP POP JUMPDEST SWAP8 POP SWAP8 SWAP6 POP POP POP POP POP POP JUMP JUMPDEST PUSH1 0x0 DUP1 DUP9 PUSH1 0x0 DUP10 PUSH1 0x2 SIGNEXTEND PUSH1 0x2 SIGNEXTEND DUP2 MSTORE PUSH1 0x20 ADD SWAP1 DUP2 MSTORE PUSH1 0x20 ADD PUSH1 0x0 KECCAK256 SWAP1 POP DUP1 PUSH1 0x1 ADD SLOAD DUP8 PUSH2 0x47CA SWAP2 SWAP1 PUSH2 0x8B15 JUMP JUMPDEST DUP2 PUSH1 0x1 ADD DUP2 SWAP1 SSTORE POP DUP1 PUSH1 0x2 ADD SLOAD DUP7 PUSH2 0x47E2 SWAP2 SWAP1 PUSH2 0x8B15 JUMP JUMPDEST DUP2 PUSH1 0x2 ADD DUP2 SWAP1 SSTORE POP DUP1 PUSH1 0x3 ADD PUSH1 0x7 SWAP1 SLOAD SWAP1 PUSH2 0x100 EXP SWAP1 DIV PUSH20 0xFFFFFFFFFFFFFFFFFFFFFFFFFFFFFFFFFFFFFFFF AND DUP6 PUSH2 0x481A SWAP2 SWAP1 PUSH2 0x9346 JUMP JUMPDEST DUP2 PUSH1 0x3 ADD PUSH1 0x7 PUSH2 0x100 EXP DUP2 SLOAD DUP2 PUSH20 0xFFFFFFFFFFFFFFFFFFFFFFFFFFFFFFFFFFFFFFFF MUL NOT AND SWAP1 DUP4 PUSH20 0xFFFFFFFFFFFFFFFFFFFFFFFFFFFFFFFFFFFFFFFF AND MUL OR SWAP1 SSTORE POP DUP1 PUSH1 0x3 ADD PUSH1 0x0 SWAP1 SLOAD SWAP1 PUSH2 0x100 EXP SWAP1 DIV PUSH1 0x6 SIGNEXTEND DUP5 PUSH2 0x4879 SWAP2 SWAP1 PUSH2 0x92E7 JUMP JUMPDEST DUP2 PUSH1 0x3 ADD PUSH1 0x0 PUSH2 0x100 EXP DUP2 SLOAD DUP2 PUSH7 0xFFFFFFFFFFFFFF MUL NOT AND SWAP1 DUP4 PUSH1 0x6 SIGNEXTEND PUSH7 0xFFFFFFFFFFFFFF AND MUL OR SWAP1 SSTORE POP DUP1 PUSH1 0x3 ADD PUSH1 0x1B SWAP1 SLOAD SWAP1 PUSH2 0x100 EXP SWAP1 DIV PUSH4 0xFFFFFFFF AND DUP4 PUSH2 0x48C4 SWAP2 SWAP1 PUSH2 0x938E JUMP JUMPDEST DUP2 PUSH1 0x3 ADD PUSH1 0x1B PUSH2 0x100 EXP DUP2 SLOAD DUP2 PUSH4 0xFFFFFFFF MUL NOT AND SWAP1 DUP4 PUSH4 0xFFFFFFFF AND MUL OR SWAP1 SSTORE POP DUP1 PUSH1 0x0 ADD PUSH1 0x10 SWAP1 SLOAD SWAP1 PUSH2 0x100 EXP SWAP1 DIV PUSH1 0xF SIGNEXTEND SWAP2 POP POP SWAP8 SWAP7 POP POP POP POP POP POP POP JUMP JUMPDEST PUSH1 0x0 DUP1 DUP3 PUSH1 0xF SIGNEXTEND SLT ISZERO PUSH2 0x4995 JUMPI DUP3 PUSH16 0xFFFFFFFFFFFFFFFFFFFFFFFFFFFFFFFF AND DUP3 PUSH2 0x4930 SWAP1 PUSH2 0x8B8D JUMP JUMPDEST DUP5 PUSH2 0x493B SWAP2 SWAP1 PUSH2 0x9150 JUMP JUMPDEST SWAP2 POP DUP2 PUSH16 0xFFFFFFFFFFFFFFFFFFFFFFFFFFFFFFFF AND LT PUSH2 0x4990 JUMPI PUSH1 0x40 MLOAD PUSH32 0x8C379A000000000000000000000000000000000000000000000000000000000 DUP2 MSTORE PUSH1 0x4 ADD PUSH2 0x4987 SWAP1 PUSH2 0x9952 JUMP JUMPDEST PUSH1 0x40 MLOAD DUP1 SWAP2 SUB SWAP1 REVERT JUMPDEST PUSH2 0x4A0B JUMP JUMPDEST DUP3 PUSH16 0xFFFFFFFFFFFFFFFFFFFFFFFFFFFFFFFF AND DUP3 DUP5 PUSH2 0x49B4 SWAP2 SWAP1 PUSH2 0x8B49 JUMP JUMPDEST SWAP2 POP DUP2 PUSH16 0xFFFFFFFFFFFFFFFFFFFFFFFFFFFFFFFF AND LT ISZERO PUSH2 0x4A0A JUMPI PUSH1 0x40 MLOAD PUSH32 0x8C379A000000000000000000000000000000000000000000000000000000000 DUP2 MSTORE PUSH1 0x4 ADD PUSH2 0x4A01 SWAP1 PUSH2 0x99BE JUMP JUMPDEST PUSH1 0x40 MLOAD DUP1 SWAP2 SUB SWAP1 REVERT JUMPDEST JUMPDEST SWAP3 SWAP2 POP POP JUMP JUMPDEST PUSH1 0x0 PUSH5 0x1000276A3 PUSH20 0xFFFFFFFFFFFFFFFFFFFFFFFFFFFFFFFFFFFFFFFF AND DUP3 PUSH20 0xFFFFFFFFFFFFFFFFFFFFFFFFFFFFFFFFFFFFFFFF AND LT ISZERO DUP1 ISZERO PUSH2 0x4A93 JUMPI POP PUSH20 0xFFFD8963EFD1FC6A506488495D951D5263988D26 PUSH20 0xFFFFFFFFFFFFFFFFFFFFFFFFFFFFFFFFFFFFFFFF AND DUP3 PUSH20 0xFFFFFFFFFFFFFFFFFFFFFFFFFFFFFFFFFFFFFFFF AND LT JUMPDEST PUSH2 0x4AD2 JUMPI PUSH1 0x40 MLOAD PUSH32 0x8C379A000000000000000000000000000000000000000000000000000000000 DUP2 MSTORE PUSH1 0x4 ADD PUSH2 0x4AC9 SWAP1 PUSH2 0x9A2A JUMP JUMPDEST PUSH1 0x40 MLOAD DUP1 SWAP2 SUB SWAP1 REVERT JUMPDEST PUSH1 0x0 PUSH1 0x20 DUP4 PUSH20 0xFFFFFFFFFFFFFFFFFFFFFFFFFFFFFFFFFFFFFFFF AND SWAP1 SHL SWAP1 POP PUSH1 0x0 DUP2 SWAP1 POP PUSH1 0x0 PUSH16 0xFFFFFFFFFFFFFFFFFFFFFFFFFFFFFFFF DUP3 GT PUSH1 0x7 SHL DUP1 DUP3 OR SWAP2 POP DUP3 DUP2 SHR SWAP3 POP POP PUSH8 0xFFFFFFFFFFFFFFFF DUP3 GT PUSH1 0x6 SHL DUP1 DUP3 OR SWAP2 POP DUP3 DUP2 SHR SWAP3 POP POP PUSH4 0xFFFFFFFF DUP3 GT PUSH1 0x5 SHL DUP1 DUP3 OR SWAP2 POP DUP3 DUP2 SHR SWAP3 POP POP PUSH2 0xFFFF DUP3 GT PUSH1 0x4 SHL DUP1 DUP3 OR SWAP2 POP DUP3 DUP2 SHR SWAP3 POP POP PUSH1 0xFF DUP3 GT PUSH1 0x3 SHL DUP1 DUP3 OR SWAP2 POP DUP3 DUP2 SHR SWAP3 POP POP PUSH1 0xF DUP3 GT PUSH1 0x2 SHL DUP1 DUP3 OR SWAP2 POP DUP3 DUP2 SHR SWAP3 POP POP PUSH1 0x3 DUP3 GT PUSH1 0x1 SHL DUP1 DUP3 OR SWAP2 POP DUP3 DUP2 SHR SWAP3 POP POP PUSH1 0x1 DUP3 GT DUP1 DUP3 OR SWAP2 POP POP PUSH1 0x80 DUP2 LT PUSH2 0x4BB9 JUMPI PUSH1 0x7F DUP2 PUSH2 0x4BAF SWAP2 SWAP1 PUSH2 0x8B15 JUMP JUMPDEST DUP4 SWAP1 SHR SWAP2 POP PUSH2 0x4BCC JUMP JUMPDEST DUP1 PUSH1 0x7F PUSH2 0x4BC6 SWAP2 SWAP1 PUSH2 0x8B15 JUMP JUMPDEST DUP4 SWAP1 SHL SWAP2 POP JUMPDEST PUSH1 0x0 PUSH1 0x40 PUSH1 0x80 DUP4 PUSH2 0x4BDD SWAP2 SWAP1 PUSH2 0x8A5D JUMP JUMPDEST SWAP1 SHL SWAP1 POP DUP3 DUP4 MUL PUSH1 0x7F SHR SWAP3 POP DUP3 PUSH1 0x80 SHR DUP1 PUSH1 0x3F SHL DUP3 OR SWAP2 POP DUP4 DUP2 SHR SWAP4 POP POP DUP3 DUP4 MUL PUSH1 0x7F SHR SWAP3 POP DUP3 PUSH1 0x80 SHR DUP1 PUSH1 0x3E SHL DUP3 OR SWAP2 POP DUP4 DUP2 SHR SWAP4 POP POP DUP3 DUP4 MUL PUSH1 0x7F SHR SWAP3 POP DUP3 PUSH1 0x80 SHR DUP1 PUSH1 0x3D SHL DUP3 OR SWAP2 POP DUP4 DUP2 SHR SWAP4 POP POP DUP3 DUP4 MUL PUSH1 0x7F SHR SWAP3 POP DUP3 PUSH1 0x80 SHR DUP1 PUSH1 0x3C SHL DUP3 OR SWAP2 POP DUP4 DUP2 SHR SWAP4 POP POP DUP3 DUP4 MUL PUSH1 0x7F SHR SWAP3 POP DUP3 PUSH1 0x80 SHR DUP1 PUSH1 0x3B SHL DUP3 OR SWAP2 POP DUP4 DUP2 SHR SWAP4 POP POP DUP3 DUP4 MUL PUSH1 0x7F SHR SWAP3 POP DUP3 PUSH1 0x80 SHR DUP1 PUSH1 0x3A SHL DUP3 OR SWAP2 POP DUP4 DUP2 SHR SWAP4 POP POP DUP3 DUP4 MUL PUSH1 0x7F SHR SWAP3 POP DUP3 PUSH1 0x80 SHR DUP1 PUSH1 0x39 SHL DUP3 OR SWAP2 POP DUP4 DUP2 SHR SWAP4 POP POP DUP3 DUP4 MUL PUSH1 0x7F SHR SWAP3 POP DUP3 PUSH1 0x80 SHR DUP1 PUSH1 0x38 SHL DUP3 OR SWAP2 POP DUP4 DUP2 SHR SWAP4 POP POP DUP3 DUP4 MUL PUSH1 0x7F SHR SWAP3 POP DUP3 PUSH1 0x80 SHR DUP1 PUSH1 0x37 SHL DUP3 OR SWAP2 POP DUP4 DUP2 SHR SWAP4 POP POP DUP3 DUP4 MUL PUSH1 0x7F SHR SWAP3 POP DUP3 PUSH1 0x80 SHR DUP1 PUSH1 0x36 SHL DUP3 OR SWAP2 POP DUP4 DUP2 SHR SWAP4 POP POP DUP3 DUP4 MUL PUSH1 0x7F SHR SWAP3 POP DUP3 PUSH1 0x80 SHR DUP1 PUSH1 0x35 SHL DUP3 OR SWAP2 POP DUP4 DUP2 SHR SWAP4 POP POP DUP3 DUP4 MUL PUSH1 0x7F SHR SWAP3 POP DUP3 PUSH1 0x80 SHR DUP1 PUSH1 0x34 SHL DUP3 OR SWAP2 POP DUP4 DUP2 SHR SWAP4 POP POP DUP3 DUP4 MUL PUSH1 0x7F SHR SWAP3 POP DUP3 PUSH1 0x80 SHR DUP1 PUSH1 0x33 SHL DUP3 OR SWAP2 POP DUP4 DUP2 SHR SWAP4 POP POP DUP3 DUP4 MUL PUSH1 0x7F SHR SWAP3 POP DUP3 PUSH1 0x80 SHR DUP1 PUSH1 0x32 SHL DUP3 OR SWAP2 POP POP PUSH1 0x0 PUSH10 0x3627A301D71055774C85 DUP3 PUSH2 0x4D60 SWAP2 SWAP1 PUSH2 0x9A4A JUMP JUMPDEST SWAP1 POP PUSH1 0x0 PUSH1 0x80 PUSH16 0x28F6481AB7F045A5AF012A19D003AAA DUP4 PUSH2 0x4D82 SWAP2 SWAP1 PUSH2 0x8A5D JUMP JUMPDEST SWAP1 SAR SWAP1 POP PUSH1 0x0 PUSH1 0x80 PUSH16 0xDB2DF09E81959A81455E260799A0632F DUP5 PUSH2 0x4DA6 SWAP2 SWAP1 PUSH2 0x8AA0 JUMP JUMPDEST SWAP1 SAR SWAP1 POP DUP1 PUSH1 0x2 SIGNEXTEND DUP3 PUSH1 0x2 SIGNEXTEND EQ PUSH2 0x4E00 JUMPI DUP9 PUSH20 0xFFFFFFFFFFFFFFFFFFFFFFFFFFFFFFFFFFFFFFFF AND PUSH2 0x4DD7 DUP3 PUSH2 0x3BE4 JUMP JUMPDEST PUSH20 0xFFFFFFFFFFFFFFFFFFFFFFFFFFFFFFFFFFFFFFFF AND GT ISZERO PUSH2 0x4DF9 JUMPI DUP2 PUSH2 0x4DFB JUMP JUMPDEST DUP1 JUMPDEST PUSH2 0x4E02 JUMP JUMPDEST DUP2 JUMPDEST SWAP8 POP POP POP POP POP POP POP POP SWAP2 SWAP1 POP JUMP JUMPDEST PUSH1 0x0 DUP1 PUSH1 0x0 DUP10 DUP10 PUSH2 0xFFFF AND PUSH2 0xFFFF DUP2 LT PUSH2 0x4E2D JUMPI PUSH2 0x4E2C PUSH2 0x9789 JUMP JUMPDEST JUMPDEST ADD PUSH1 0x40 MLOAD DUP1 PUSH1 0x80 ADD PUSH1 0x40 MSTORE SWAP1 DUP2 PUSH1 0x0 DUP3 ADD PUSH1 0x0 SWAP1 SLOAD SWAP1 PUSH2 0x100 EXP SWAP1 DIV PUSH4 0xFFFFFFFF AND PUSH4 0xFFFFFFFF AND PUSH4 0xFFFFFFFF AND DUP2 MSTORE PUSH1 0x20 ADD PUSH1 0x0 DUP3 ADD PUSH1 0x4 SWAP1 SLOAD SWAP1 PUSH2 0x100 EXP SWAP1 DIV PUSH1 0x6 SIGNEXTEND PUSH1 0x6 SIGNEXTEND PUSH1 0x6 SIGNEXTEND DUP2 MSTORE PUSH1 0x20 ADD PUSH1 0x0 DUP3 ADD PUSH1 0xB SWAP1 SLOAD SWAP1 PUSH2 0x100 EXP SWAP1 DIV PUSH20 0xFFFFFFFFFFFFFFFFFFFFFFFFFFFFFFFFFFFFFFFF AND PUSH20 0xFFFFFFFFFFFFFFFFFFFFFFFFFFFFFFFFFFFFFFFF AND PUSH20 0xFFFFFFFFFFFFFFFFFFFFFFFFFFFFFFFFFFFFFFFF AND DUP2 MSTORE PUSH1 0x20 ADD PUSH1 0x0 DUP3 ADD PUSH1 0x1F SWAP1 SLOAD SWAP1 PUSH2 0x100 EXP SWAP1 DIV PUSH1 0xFF AND ISZERO ISZERO ISZERO ISZERO DUP2 MSTORE POP POP SWAP1 POP DUP8 PUSH4 0xFFFFFFFF AND DUP2 PUSH1 0x0 ADD MLOAD PUSH4 0xFFFFFFFF AND SUB PUSH2 0x4F12 JUMPI DUP9 DUP6 SWAP3 POP SWAP3 POP POP PUSH2 0x504F JUMP JUMPDEST DUP5 PUSH2 0xFFFF AND DUP5 PUSH2 0xFFFF AND GT DUP1 ISZERO PUSH2 0x4F3C JUMPI POP PUSH1 0x1 DUP6 PUSH2 0x4F31 SWAP2 SWAP1 PUSH2 0x9AC2 JUMP JUMPDEST PUSH2 0xFFFF AND DUP10 PUSH2 0xFFFF AND EQ JUMPDEST ISZERO PUSH2 0x4F49 JUMPI DUP4 SWAP2 POP PUSH2 0x4F4D JUMP JUMPDEST DUP5 SWAP2 POP JUMPDEST DUP2 PUSH1 0x1 DUP11 PUSH2 0x4F5B SWAP2 SWAP1 PUSH2 0x9AF8 JUMP JUMPDEST PUSH2 0x4F65 SWAP2 SWAP1 PUSH2 0x9B2E JUMP JUMPDEST SWAP3 POP PUSH2 0x4F73 DUP2 DUP10 DUP10 DUP10 PUSH2 0x62A2 JUMP JUMPDEST DUP11 DUP5 PUSH2 0xFFFF AND PUSH2 0xFFFF DUP2 LT PUSH2 0x4F8B JUMPI PUSH2 0x4F8A PUSH2 0x9789 JUMP JUMPDEST JUMPDEST ADD PUSH1 0x0 DUP3 ADD MLOAD DUP2 PUSH1 0x0 ADD PUSH1 0x0 PUSH2 0x100 EXP DUP2 SLOAD DUP2 PUSH4 0xFFFFFFFF MUL NOT AND SWAP1 DUP4 PUSH4 0xFFFFFFFF AND MUL OR SWAP1 SSTORE POP PUSH1 0x20 DUP3 ADD MLOAD DUP2 PUSH1 0x0 ADD PUSH1 0x4 PUSH2 0x100 EXP DUP2 SLOAD DUP2 PUSH7 0xFFFFFFFFFFFFFF MUL NOT AND SWAP1 DUP4 PUSH1 0x6 SIGNEXTEND PUSH7 0xFFFFFFFFFFFFFF AND MUL OR SWAP1 SSTORE POP PUSH1 0x40 DUP3 ADD MLOAD DUP2 PUSH1 0x0 ADD PUSH1 0xB PUSH2 0x100 EXP DUP2 SLOAD DUP2 PUSH20 0xFFFFFFFFFFFFFFFFFFFFFFFFFFFFFFFFFFFFFFFF MUL NOT AND SWAP1 DUP4 PUSH20 0xFFFFFFFFFFFFFFFFFFFFFFFFFFFFFFFFFFFFFFFF AND MUL OR SWAP1 SSTORE POP PUSH1 0x60 DUP3 ADD MLOAD DUP2 PUSH1 0x0 ADD PUSH1 0x1F PUSH2 0x100 EXP DUP2 SLOAD DUP2 PUSH1 0xFF MUL NOT AND SWAP1 DUP4 ISZERO ISZERO MUL OR SWAP1 SSTORE POP SWAP1 POP POP POP JUMPDEST SWAP8 POP SWAP8 SWAP6 POP POP POP POP POP POP JUMP JUMPDEST PUSH1 0x0 DUP1 DUP5 PUSH20 0xFFFFFFFFFFFFFFFFFFFFFFFFFFFFFFFFFFFFFFFF AND PUSH4 0xA9059CBB PUSH1 0xE0 SHL DUP6 DUP6 PUSH1 0x40 MLOAD PUSH1 0x24 ADD PUSH2 0x5090 SWAP3 SWAP2 SWAP1 PUSH2 0x9B5F JUMP JUMPDEST PUSH1 0x40 MLOAD PUSH1 0x20 DUP2 DUP4 SUB SUB DUP2 MSTORE SWAP1 PUSH1 0x40 MSTORE SWAP1 PUSH28 0xFFFFFFFFFFFFFFFFFFFFFFFFFFFFFFFFFFFFFFFFFFFFFFFFFFFFFFFF NOT AND PUSH1 0x20 DUP3 ADD DUP1 MLOAD PUSH28 0xFFFFFFFFFFFFFFFFFFFFFFFFFFFFFFFFFFFFFFFFFFFFFFFFFFFFFFFF DUP4 DUP2 DUP4 AND OR DUP4 MSTORE POP POP POP POP PUSH1 0x40 MLOAD PUSH2 0x50FA SWAP2 SWAP1 PUSH2 0x9BF9 JUMP JUMPDEST PUSH1 0x0 PUSH1 0x40 MLOAD DUP1 DUP4 SUB DUP2 PUSH1 0x0 DUP7 GAS CALL SWAP2 POP POP RETURNDATASIZE DUP1 PUSH1 0x0 DUP2 EQ PUSH2 0x5137 JUMPI PUSH1 0x40 MLOAD SWAP2 POP PUSH1 0x1F NOT PUSH1 0x3F RETURNDATASIZE ADD AND DUP3 ADD PUSH1 0x40 MSTORE RETURNDATASIZE DUP3 MSTORE RETURNDATASIZE PUSH1 0x0 PUSH1 0x20 DUP5 ADD RETURNDATACOPY PUSH2 0x513C JUMP JUMPDEST PUSH1 0x60 SWAP2 POP JUMPDEST POP SWAP2 POP SWAP2 POP DUP2 DUP1 ISZERO PUSH2 0x516A JUMPI POP PUSH1 0x0 DUP2 MLOAD EQ DUP1 PUSH2 0x5169 JUMPI POP DUP1 DUP1 PUSH1 0x20 ADD SWAP1 MLOAD DUP2 ADD SWAP1 PUSH2 0x5168 SWAP2 SWAP1 PUSH2 0x9C25 JUMP JUMPDEST JUMPDEST JUMPDEST PUSH2 0x51A9 JUMPI PUSH1 0x40 MLOAD PUSH32 0x8C379A000000000000000000000000000000000000000000000000000000000 DUP2 MSTORE PUSH1 0x4 ADD PUSH2 0x51A0 SWAP1 PUSH2 0x9C9E JUMP JUMPDEST PUSH1 0x40 MLOAD DUP1 SWAP2 SUB SWAP1 REVERT JUMPDEST POP POP POP POP POP JUMP JUMPDEST PUSH1 0x0 DUP1 PUSH1 0x0 PUSH32 0x0 PUSH20 0xFFFFFFFFFFFFFFFFFFFFFFFFFFFFFFFFFFFFFFFF AND PUSH4 0x70A08231 PUSH1 0xE0 SHL ADDRESS PUSH1 0x40 MLOAD PUSH1 0x24 ADD PUSH2 0x5205 SWAP2 SWAP1 PUSH2 0x7AC3 JUMP JUMPDEST PUSH1 0x40 MLOAD PUSH1 0x20 DUP2 DUP4 SUB SUB DUP2 MSTORE SWAP1 PUSH1 0x40 MSTORE SWAP1 PUSH28 0xFFFFFFFFFFFFFFFFFFFFFFFFFFFFFFFFFFFFFFFFFFFFFFFFFFFFFFFF NOT AND PUSH1 0x20 DUP3 ADD DUP1 MLOAD PUSH28 0xFFFFFFFFFFFFFFFFFFFFFFFFFFFFFFFFFFFFFFFFFFFFFFFFFFFFFFFF DUP4 DUP2 DUP4 AND OR DUP4 MSTORE POP POP POP POP PUSH1 0x40 MLOAD PUSH2 0x526F SWAP2 SWAP1 PUSH2 0x9BF9 JUMP JUMPDEST PUSH1 0x0 PUSH1 0x40 MLOAD DUP1 DUP4 SUB DUP2 DUP6 GAS STATICCALL SWAP2 POP POP RETURNDATASIZE DUP1 PUSH1 0x0 DUP2 EQ PUSH2 0x52AA JUMPI PUSH1 0x40 MLOAD SWAP2 POP PUSH1 0x1F NOT PUSH1 0x3F RETURNDATASIZE ADD AND DUP3 ADD PUSH1 0x40 MSTORE RETURNDATASIZE DUP3 MSTORE RETURNDATASIZE PUSH1 0x0 PUSH1 0x20 DUP5 ADD RETURNDATACOPY PUSH2 0x52AF JUMP JUMPDEST PUSH1 0x60 SWAP2 POP JUMPDEST POP SWAP2 POP SWAP2 POP DUP2 DUP1 ISZERO PUSH2 0x52C3 JUMPI POP PUSH1 0x20 DUP2 MLOAD LT ISZERO JUMPDEST PUSH2 0x52CC JUMPI PUSH1 0x0 DUP1 REVERT JUMPDEST DUP1 DUP1 PUSH1 0x20 ADD SWAP1 MLOAD DUP2 ADD SWAP1 PUSH2 0x52E0 SWAP2 SWAP1 PUSH2 0x9CD3 JUMP JUMPDEST SWAP3 POP POP POP SWAP1 JUMP JUMPDEST PUSH1 0x0 DUP1 PUSH1 0x0 PUSH32 0x0 PUSH20 0xFFFFFFFFFFFFFFFFFFFFFFFFFFFFFFFFFFFFFFFF AND PUSH4 0x70A08231 PUSH1 0xE0 SHL ADDRESS PUSH1 0x40 MLOAD PUSH1 0x24 ADD PUSH2 0x533C SWAP2 SWAP1 PUSH2 0x7AC3 JUMP JUMPDEST PUSH1 0x40 MLOAD PUSH1 0x20 DUP2 DUP4 SUB SUB DUP2 MSTORE SWAP1 PUSH1 0x40 MSTORE SWAP1 PUSH28 0xFFFFFFFFFFFFFFFFFFFFFFFFFFFFFFFFFFFFFFFFFFFFFFFFFFFFFFFF NOT AND PUSH1 0x20 DUP3 ADD DUP1 MLOAD PUSH28 0xFFFFFFFFFFFFFFFFFFFFFFFFFFFFFFFFFFFFFFFFFFFFFFFFFFFFFFFF DUP4 DUP2 DUP4 AND OR DUP4 MSTORE POP POP POP POP PUSH1 0x40 MLOAD PUSH2 0x53A6 SWAP2 SWAP1 PUSH2 0x9BF9 JUMP JUMPDEST PUSH1 0x0 PUSH1 0x40 MLOAD DUP1 DUP4 SUB DUP2 DUP6 GAS STATICCALL SWAP2 POP POP RETURNDATASIZE DUP1 PUSH1 0x0 DUP2 EQ PUSH2 0x53E1 JUMPI PUSH1 0x40 MLOAD SWAP2 POP PUSH1 0x1F NOT PUSH1 0x3F RETURNDATASIZE ADD AND DUP3 ADD PUSH1 0x40 MSTORE RETURNDATASIZE DUP3 MSTORE RETURNDATASIZE PUSH1 0x0 PUSH1 0x20 DUP5 ADD RETURNDATACOPY PUSH2 0x53E6 JUMP JUMPDEST PUSH1 0x60 SWAP2 POP JUMPDEST POP SWAP2 POP SWAP2 POP DUP2 DUP1 ISZERO PUSH2 0x53FA JUMPI POP PUSH1 0x20 DUP2 MLOAD LT ISZERO JUMPDEST PUSH2 0x5403 JUMPI PUSH1 0x0 DUP1 REVERT JUMPDEST DUP1 DUP1 PUSH1 0x20 ADD SWAP1 MLOAD DUP2 ADD SWAP1 PUSH2 0x5417 SWAP2 SWAP1 PUSH2 0x9CD3 JUMP JUMPDEST SWAP3 POP POP POP SWAP1 JUMP JUMPDEST PUSH1 0x0 DUP1 DUP4 PUSH2 0xFFFF AND GT PUSH2 0x5466 JUMPI PUSH1 0x40 MLOAD PUSH32 0x8C379A000000000000000000000000000000000000000000000000000000000 DUP2 MSTORE PUSH1 0x4 ADD PUSH2 0x545D SWAP1 PUSH2 0x9D4C JUMP JUMPDEST PUSH1 0x40 MLOAD DUP1 SWAP2 SUB SWAP1 REVERT JUMPDEST DUP3 PUSH2 0xFFFF AND DUP3 PUSH2 0xFFFF AND GT PUSH2 0x547D JUMPI DUP3 SWAP1 POP PUSH2 0x54E7 JUMP JUMPDEST PUSH1 0x0 DUP4 SWAP1 POP JUMPDEST DUP3 PUSH2 0xFFFF AND DUP2 PUSH2 0xFFFF AND LT ISZERO PUSH2 0x54E2 JUMPI PUSH1 0x1 DUP6 DUP3 PUSH2 0xFFFF AND PUSH2 0xFFFF DUP2 LT PUSH2 0x54AD JUMPI PUSH2 0x54AC PUSH2 0x9789 JUMP JUMPDEST JUMPDEST ADD PUSH1 0x0 ADD PUSH1 0x0 PUSH2 0x100 EXP DUP2 SLOAD DUP2 PUSH4 0xFFFFFFFF MUL NOT AND SWAP1 DUP4 PUSH4 0xFFFFFFFF AND MUL OR SWAP1 SSTORE POP DUP1 DUP1 PUSH2 0x54DA SWAP1 PUSH2 0x9D6C JUMP JUMPDEST SWAP2 POP POP PUSH2 0x5483 JUMP JUMPDEST POP DUP2 SWAP1 POP JUMPDEST SWAP4 SWAP3 POP POP POP JUMP JUMPDEST PUSH1 0x0 DUP2 DUP3 SWAP2 POP DUP2 PUSH1 0xF SIGNEXTEND EQ PUSH2 0x5502 JUMPI PUSH1 0x0 DUP1 REVERT JUMPDEST SWAP2 SWAP1 POP JUMP JUMPDEST PUSH1 0x0 DUP1 PUSH1 0x0 PUSH2 0x5514 PUSH2 0x3994 JUMP JUMPDEST PUSH2 0x5526 DUP5 PUSH1 0x20 ADD MLOAD DUP6 PUSH1 0x40 ADD MLOAD PUSH2 0x5A89 JUMP JUMPDEST PUSH1 0x0 DUP1 PUSH1 0x40 MLOAD DUP1 PUSH1 0xE0 ADD PUSH1 0x40 MSTORE SWAP1 DUP2 PUSH1 0x0 DUP3 ADD PUSH1 0x0 SWAP1 SLOAD SWAP1 PUSH2 0x100 EXP SWAP1 DIV PUSH20 0xFFFFFFFFFFFFFFFFFFFFFFFFFFFFFFFFFFFFFFFF AND PUSH20 0xFFFFFFFFFFFFFFFFFFFFFFFFFFFFFFFFFFFFFFFF AND PUSH20 0xFFFFFFFFFFFFFFFFFFFFFFFFFFFFFFFFFFFFFFFF AND DUP2 MSTORE PUSH1 0x20 ADD PUSH1 0x0 DUP3 ADD PUSH1 0x14 SWAP1 SLOAD SWAP1 PUSH2 0x100 EXP SWAP1 DIV PUSH1 0x2 SIGNEXTEND PUSH1 0x2 SIGNEXTEND PUSH1 0x2 SIGNEXTEND DUP2 MSTORE PUSH1 0x20 ADD PUSH1 0x0 DUP3 ADD PUSH1 0x17 SWAP1 SLOAD SWAP1 PUSH2 0x100 EXP SWAP1 DIV PUSH2 0xFFFF AND PUSH2 0xFFFF AND PUSH2 0xFFFF AND DUP2 MSTORE PUSH1 0x20 ADD PUSH1 0x0 DUP3 ADD PUSH1 0x19 SWAP1 SLOAD SWAP1 PUSH2 0x100 EXP SWAP1 DIV PUSH2 0xFFFF AND PUSH2 0xFFFF AND PUSH2 0xFFFF AND DUP2 MSTORE PUSH1 0x20 ADD PUSH1 0x0 DUP3 ADD PUSH1 0x1B SWAP1 SLOAD SWAP1 PUSH2 0x100 EXP SWAP1 DIV PUSH2 0xFFFF AND PUSH2 0xFFFF AND PUSH2 0xFFFF AND DUP2 MSTORE PUSH1 0x20 ADD PUSH1 0x0 DUP3 ADD PUSH1 0x1D SWAP1 SLOAD SWAP1 PUSH2 0x100 EXP SWAP1 DIV PUSH1 0xFF AND PUSH1 0xFF AND PUSH1 0xFF AND DUP2 MSTORE PUSH1 0x20 ADD PUSH1 0x0 DUP3 ADD PUSH1 0x1E SWAP1 SLOAD SWAP1 PUSH2 0x100 EXP SWAP1 DIV PUSH1 0xFF AND ISZERO ISZERO ISZERO ISZERO DUP2 MSTORE POP POP SWAP1 POP PUSH2 0x5662 DUP6 PUSH1 0x0 ADD MLOAD DUP7 PUSH1 0x20 ADD MLOAD DUP8 PUSH1 0x40 ADD MLOAD DUP9 PUSH1 0x60 ADD MLOAD DUP6 PUSH1 0x20 ADD MLOAD PUSH2 0x6707 JUMP JUMPDEST SWAP4 POP PUSH1 0x0 DUP6 PUSH1 0x60 ADD MLOAD PUSH1 0xF SIGNEXTEND EQ PUSH2 0x5827 JUMPI DUP5 PUSH1 0x20 ADD MLOAD PUSH1 0x2 SIGNEXTEND DUP2 PUSH1 0x20 ADD MLOAD PUSH1 0x2 SIGNEXTEND SLT ISZERO PUSH2 0x56B7 JUMPI PUSH2 0x56B0 PUSH2 0x5699 DUP7 PUSH1 0x20 ADD MLOAD PUSH2 0x3BE4 JUMP JUMPDEST PUSH2 0x56A6 DUP8 PUSH1 0x40 ADD MLOAD PUSH2 0x3BE4 JUMP JUMPDEST DUP8 PUSH1 0x60 ADD MLOAD PUSH2 0x6962 JUMP JUMPDEST SWAP3 POP PUSH2 0x5826 JUMP JUMPDEST DUP5 PUSH1 0x40 ADD MLOAD PUSH1 0x2 SIGNEXTEND DUP2 PUSH1 0x20 ADD MLOAD PUSH1 0x2 SIGNEXTEND SLT ISZERO PUSH2 0x57FB JUMPI PUSH1 0x0 PUSH3 0x10006 PUSH1 0x0 SWAP1 SLOAD SWAP1 PUSH2 0x100 EXP SWAP1 DIV PUSH16 0xFFFFFFFFFFFFFFFFFFFFFFFFFFFFFFFF AND SWAP1 POP PUSH2 0x5727 DUP3 PUSH1 0x40 ADD MLOAD PUSH2 0x5702 PUSH2 0x39EE JUMP JUMPDEST DUP5 PUSH1 0x20 ADD MLOAD DUP5 DUP7 PUSH1 0x60 ADD MLOAD DUP8 PUSH1 0x80 ADD MLOAD PUSH1 0x6 PUSH2 0x4E10 SWAP1 SWAP7 SWAP6 SWAP5 SWAP4 SWAP3 SWAP2 SWAP1 PUSH4 0xFFFFFFFF AND JUMP JUMPDEST PUSH1 0x0 DUP1 ADD PUSH1 0x17 PUSH1 0x0 DUP1 ADD PUSH1 0x19 DUP5 SWAP2 SWAP1 PUSH2 0x100 EXP DUP2 SLOAD DUP2 PUSH2 0xFFFF MUL NOT AND SWAP1 DUP4 PUSH2 0xFFFF AND MUL OR SWAP1 SSTORE POP DUP4 SWAP2 SWAP1 PUSH2 0x100 EXP DUP2 SLOAD DUP2 PUSH2 0xFFFF MUL NOT AND SWAP1 DUP4 PUSH2 0xFFFF AND MUL OR SWAP1 SSTORE POP POP POP PUSH2 0x578A DUP3 PUSH1 0x0 ADD MLOAD PUSH2 0x5780 DUP9 PUSH1 0x40 ADD MLOAD PUSH2 0x3BE4 JUMP JUMPDEST DUP9 PUSH1 0x60 ADD MLOAD PUSH2 0x6962 JUMP JUMPDEST SWAP4 POP PUSH2 0x57AB PUSH2 0x579C DUP8 PUSH1 0x20 ADD MLOAD PUSH2 0x3BE4 JUMP JUMPDEST DUP4 PUSH1 0x0 ADD MLOAD DUP9 PUSH1 0x60 ADD MLOAD PUSH2 0x69B9 JUMP JUMPDEST SWAP3 POP PUSH2 0x57BB DUP2 DUP8 PUSH1 0x60 ADD MLOAD PUSH2 0x4906 JUMP JUMPDEST PUSH3 0x10006 PUSH1 0x0 PUSH2 0x100 EXP DUP2 SLOAD DUP2 PUSH16 0xFFFFFFFFFFFFFFFFFFFFFFFFFFFFFFFF MUL NOT AND SWAP1 DUP4 PUSH16 0xFFFFFFFFFFFFFFFFFFFFFFFFFFFFFFFF AND MUL OR SWAP1 SSTORE POP POP PUSH2 0x5825 JUMP JUMPDEST PUSH2 0x5822 PUSH2 0x580B DUP7 PUSH1 0x20 ADD MLOAD PUSH2 0x3BE4 JUMP JUMPDEST PUSH2 0x5818 DUP8 PUSH1 0x40 ADD MLOAD PUSH2 0x3BE4 JUMP JUMPDEST DUP8 PUSH1 0x60 ADD MLOAD PUSH2 0x69B9 JUMP JUMPDEST SWAP2 POP JUMPDEST JUMPDEST JUMPDEST POP SWAP2 SWAP4 SWAP1 SWAP3 POP JUMP JUMPDEST PUSH1 0x0 PUSH2 0x583C DUP5 DUP5 DUP5 PUSH2 0x4374 JUMP JUMPDEST SWAP1 POP PUSH1 0x0 DUP3 DUP1 PUSH2 0x584F JUMPI PUSH2 0x584E PUSH2 0x8952 JUMP JUMPDEST JUMPDEST DUP5 DUP7 MULMOD GT ISZERO PUSH2 0x5893 JUMPI PUSH32 0xFFFFFFFFFFFFFFFFFFFFFFFFFFFFFFFFFFFFFFFFFFFFFFFFFFFFFFFFFFFFFFFF DUP2 LT PUSH2 0x5884 JUMPI PUSH1 0x0 DUP1 REVERT JUMPDEST DUP1 DUP1 PUSH2 0x588F SWAP1 PUSH2 0x9D96 JUMP JUMPDEST SWAP2 POP POP JUMPDEST SWAP4 SWAP3 POP POP POP JUMP JUMPDEST PUSH1 0x0 DUP5 PUSH1 0x0 DUP6 DUP6 DUP6 PUSH1 0x40 MLOAD PUSH1 0x20 ADD PUSH2 0x58B4 SWAP4 SWAP3 SWAP2 SWAP1 PUSH2 0x9E5C JUMP JUMPDEST PUSH1 0x40 MLOAD PUSH1 0x20 DUP2 DUP4 SUB SUB DUP2 MSTORE SWAP1 PUSH1 0x40 MSTORE DUP1 MLOAD SWAP1 PUSH1 0x20 ADD KECCAK256 DUP2 MSTORE PUSH1 0x20 ADD SWAP1 DUP2 MSTORE PUSH1 0x20 ADD PUSH1 0x0 KECCAK256 SWAP1 POP SWAP5 SWAP4 POP POP POP POP JUMP JUMPDEST PUSH1 0x60 DUP1 PUSH1 0x0 DUP4 PUSH2 0xFFFF AND GT PUSH2 0x592C JUMPI PUSH1 0x40 MLOAD PUSH32 0x8C379A000000000000000000000000000000000000000000000000000000000 DUP2 MSTORE PUSH1 0x4 ADD PUSH2 0x5923 SWAP1 PUSH2 0x9D4C JUMP JUMPDEST PUSH1 0x40 MLOAD DUP1 SWAP2 SUB SWAP1 REVERT JUMPDEST DUP7 MLOAD PUSH8 0xFFFFFFFFFFFFFFFF DUP2 GT ISZERO PUSH2 0x5947 JUMPI PUSH2 0x5946 PUSH2 0x9E99 JUMP JUMPDEST JUMPDEST PUSH1 0x40 MLOAD SWAP1 DUP1 DUP3 MSTORE DUP1 PUSH1 0x20 MUL PUSH1 0x20 ADD DUP3 ADD PUSH1 0x40 MSTORE DUP1 ISZERO PUSH2 0x5975 JUMPI DUP2 PUSH1 0x20 ADD PUSH1 0x20 DUP3 MUL DUP1 CALLDATASIZE DUP4 CALLDATACOPY DUP1 DUP3 ADD SWAP2 POP POP SWAP1 POP JUMPDEST POP SWAP2 POP DUP7 MLOAD PUSH8 0xFFFFFFFFFFFFFFFF DUP2 GT ISZERO PUSH2 0x5993 JUMPI PUSH2 0x5992 PUSH2 0x9E99 JUMP JUMPDEST JUMPDEST PUSH1 0x40 MLOAD SWAP1 DUP1 DUP3 MSTORE DUP1 PUSH1 0x20 MUL PUSH1 0x20 ADD DUP3 ADD PUSH1 0x40 MSTORE DUP1 ISZERO PUSH2 0x59C1 JUMPI DUP2 PUSH1 0x20 ADD PUSH1 0x20 DUP3 MUL DUP1 CALLDATASIZE DUP4 CALLDATACOPY DUP1 DUP3 ADD SWAP2 POP POP SWAP1 POP JUMPDEST POP SWAP1 POP PUSH1 0x0 JUMPDEST DUP8 MLOAD DUP2 LT ISZERO PUSH2 0x5A7C JUMPI PUSH2 0x59F9 DUP11 DUP11 DUP11 DUP5 DUP2 MLOAD DUP2 LT PUSH2 0x59E8 JUMPI PUSH2 0x59E7 PUSH2 0x9789 JUMP JUMPDEST JUMPDEST PUSH1 0x20 MUL PUSH1 0x20 ADD ADD MLOAD DUP11 DUP11 DUP11 DUP11 PUSH2 0x4514 JUMP JUMPDEST DUP5 DUP4 DUP2 MLOAD DUP2 LT PUSH2 0x5A0C JUMPI PUSH2 0x5A0B PUSH2 0x9789 JUMP JUMPDEST JUMPDEST PUSH1 0x20 MUL PUSH1 0x20 ADD ADD DUP5 DUP5 DUP2 MLOAD DUP2 LT PUSH2 0x5A26 JUMPI PUSH2 0x5A25 PUSH2 0x9789 JUMP JUMPDEST JUMPDEST PUSH1 0x20 MUL PUSH1 0x20 ADD ADD DUP3 PUSH20 0xFFFFFFFFFFFFFFFFFFFFFFFFFFFFFFFFFFFFFFFF AND PUSH20 0xFFFFFFFFFFFFFFFFFFFFFFFFFFFFFFFFFFFFFFFF AND DUP2 MSTORE POP DUP3 PUSH1 0x6 SIGNEXTEND PUSH1 0x6 SIGNEXTEND DUP2 MSTORE POP POP POP DUP1 DUP1 PUSH2 0x5A74 SWAP1 PUSH2 0x9D96 JUMP JUMPDEST SWAP2 POP POP PUSH2 0x59C7 JUMP JUMPDEST POP SWAP8 POP SWAP8 SWAP6 POP POP POP POP POP POP JUMP JUMPDEST DUP1 PUSH1 0x2 SIGNEXTEND DUP3 PUSH1 0x2 SIGNEXTEND SLT PUSH2 0x5AD1 JUMPI PUSH1 0x40 MLOAD PUSH32 0x8C379A000000000000000000000000000000000000000000000000000000000 DUP2 MSTORE PUSH1 0x4 ADD PUSH2 0x5AC8 SWAP1 PUSH2 0x9F14 JUMP JUMPDEST PUSH1 0x40 MLOAD DUP1 SWAP2 SUB SWAP1 REVERT JUMPDEST PUSH32 0xFFFFFFFFFFFFFFFFFFFFFFFFFFFFFFFFFFFFFFFFFFFFFFFFFFFFFFFFFFF27618 PUSH1 0x2 SIGNEXTEND DUP3 PUSH1 0x2 SIGNEXTEND SLT ISZERO PUSH2 0x5B3A JUMPI PUSH1 0x40 MLOAD PUSH32 0x8C379A000000000000000000000000000000000000000000000000000000000 DUP2 MSTORE PUSH1 0x4 ADD PUSH2 0x5B31 SWAP1 PUSH2 0x9F80 JUMP JUMPDEST PUSH1 0x40 MLOAD DUP1 SWAP2 SUB SWAP1 REVERT JUMPDEST PUSH32 0xFFFFFFFFFFFFFFFFFFFFFFFFFFFFFFFFFFFFFFFFFFFFFFFFFFFFFFFFFFF27618 PUSH2 0x5B64 SWAP1 PUSH2 0x89E1 JUMP JUMPDEST PUSH1 0x2 SIGNEXTEND DUP2 PUSH1 0x2 SIGNEXTEND SGT ISZERO PUSH2 0x5BAC JUMPI PUSH1 0x40 MLOAD PUSH32 0x8C379A000000000000000000000000000000000000000000000000000000000 DUP2 MSTORE PUSH1 0x4 ADD PUSH2 0x5BA3 SWAP1 PUSH2 0x9FEC JUMP JUMPDEST PUSH1 0x40 MLOAD DUP1 SWAP2 SUB SWAP1 REVERT JUMPDEST POP POP JUMP JUMPDEST PUSH1 0x0 DUP1 PUSH1 0x40 MLOAD DUP1 PUSH1 0x80 ADD PUSH1 0x40 MSTORE DUP1 DUP5 PUSH4 0xFFFFFFFF AND DUP2 MSTORE PUSH1 0x20 ADD PUSH1 0x0 PUSH1 0x6 SIGNEXTEND DUP2 MSTORE PUSH1 0x20 ADD PUSH1 0x0 PUSH20 0xFFFFFFFFFFFFFFFFFFFFFFFFFFFFFFFFFFFFFFFF AND DUP2 MSTORE PUSH1 0x20 ADD PUSH1 0x1 ISZERO ISZERO DUP2 MSTORE POP DUP5 PUSH1 0x0 PUSH2 0xFFFF DUP2 LT PUSH2 0x5C0D JUMPI PUSH2 0x5C0C PUSH2 0x9789 JUMP JUMPDEST JUMPDEST ADD PUSH1 0x0 DUP3 ADD MLOAD DUP2 PUSH1 0x0 ADD PUSH1 0x0 PUSH2 0x100 EXP DUP2 SLOAD DUP2 PUSH4 0xFFFFFFFF MUL NOT AND SWAP1 DUP4 PUSH4 0xFFFFFFFF AND MUL OR SWAP1 SSTORE POP PUSH1 0x20 DUP3 ADD MLOAD DUP2 PUSH1 0x0 ADD PUSH1 0x4 PUSH2 0x100 EXP DUP2 SLOAD DUP2 PUSH7 0xFFFFFFFFFFFFFF MUL NOT AND SWAP1 DUP4 PUSH1 0x6 SIGNEXTEND PUSH7 0xFFFFFFFFFFFFFF AND MUL OR SWAP1 SSTORE POP PUSH1 0x40 DUP3 ADD MLOAD DUP2 PUSH1 0x0 ADD PUSH1 0xB PUSH2 0x100 EXP DUP2 SLOAD DUP2 PUSH20 0xFFFFFFFFFFFFFFFFFFFFFFFFFFFFFFFFFFFFFFFF MUL NOT AND SWAP1 DUP4 PUSH20 0xFFFFFFFFFFFFFFFFFFFFFFFFFFFFFFFFFFFFFFFF AND MUL OR SWAP1 SSTORE POP PUSH1 0x60 DUP3 ADD MLOAD DUP2 PUSH1 0x0 ADD PUSH1 0x1F PUSH2 0x100 EXP DUP2 SLOAD DUP2 PUSH1 0xFF MUL NOT AND SWAP1 DUP4 ISZERO ISZERO MUL OR SWAP1 SSTORE POP SWAP1 POP POP PUSH1 0x1 DUP1 SWAP2 POP SWAP2 POP SWAP3 POP SWAP3 SWAP1 POP JUMP JUMPDEST PUSH1 0x0 DUP1 PUSH1 0x8 DUP4 PUSH1 0x2 SIGNEXTEND SWAP1 SAR SWAP2 POP PUSH2 0x100 DUP4 PUSH2 0x5CF8 SWAP2 SWAP1 PUSH2 0x956A JUMP JUMPDEST SWAP1 POP SWAP2 POP SWAP2 JUMP JUMPDEST PUSH1 0x0 DUP1 DUP3 GT PUSH2 0x5D0D JUMPI PUSH1 0x0 DUP1 REVERT JUMPDEST PUSH17 0x100000000000000000000000000000000 DUP3 LT PUSH2 0x5D3C JUMPI PUSH1 0x80 DUP3 SWAP1 SHR SWAP2 POP PUSH1 0x80 DUP2 PUSH2 0x5D39 SWAP2 SWAP1 PUSH2 0x920D JUMP JUMPDEST SWAP1 POP JUMPDEST PUSH9 0x10000000000000000 DUP3 LT PUSH2 0x5D63 JUMPI PUSH1 0x40 DUP3 SWAP1 SHR SWAP2 POP PUSH1 0x40 DUP2 PUSH2 0x5D60 SWAP2 SWAP1 PUSH2 0x920D JUMP JUMPDEST SWAP1 POP JUMPDEST PUSH5 0x100000000 DUP3 LT PUSH2 0x5D86 JUMPI PUSH1 0x20 DUP3 SWAP1 SHR SWAP2 POP PUSH1 0x20 DUP2 PUSH2 0x5D83 SWAP2 SWAP1 PUSH2 0x920D JUMP JUMPDEST SWAP1 POP JUMPDEST PUSH3 0x10000 DUP3 LT PUSH2 0x5DA7 JUMPI PUSH1 0x10 DUP3 SWAP1 SHR SWAP2 POP PUSH1 0x10 DUP2 PUSH2 0x5DA4 SWAP2 SWAP1 PUSH2 0x920D JUMP JUMPDEST SWAP1 POP JUMPDEST PUSH2 0x100 DUP3 LT PUSH2 0x5DC7 JUMPI PUSH1 0x8 DUP3 SWAP1 SHR SWAP2 POP PUSH1 0x8 DUP2 PUSH2 0x5DC4 SWAP2 SWAP1 PUSH2 0x920D JUMP JUMPDEST SWAP1 POP JUMPDEST PUSH1 0x10 DUP3 LT PUSH2 0x5DE6 JUMPI PUSH1 0x4 DUP3 SWAP1 SHR SWAP2 POP PUSH1 0x4 DUP2 PUSH2 0x5DE3 SWAP2 SWAP1 PUSH2 0x920D JUMP JUMPDEST SWAP1 POP JUMPDEST PUSH1 0x4 DUP3 LT PUSH2 0x5E05 JUMPI PUSH1 0x2 DUP3 SWAP1 SHR SWAP2 POP PUSH1 0x2 DUP2 PUSH2 0x5E02 SWAP2 SWAP1 PUSH2 0x920D JUMP JUMPDEST SWAP1 POP JUMPDEST PUSH1 0x2 DUP3 LT PUSH2 0x5E1D JUMPI PUSH1 0x1 DUP2 PUSH2 0x5E1A SWAP2 SWAP1 PUSH2 0x920D JUMP JUMPDEST SWAP1 POP JUMPDEST SWAP2 SWAP1 POP JUMP JUMPDEST PUSH1 0x0 DUP1 DUP3 GT PUSH2 0x5E30 JUMPI PUSH1 0x0 DUP1 REVERT JUMPDEST PUSH1 0xFF SWAP1 POP PUSH1 0x0 PUSH16 0xFFFFFFFFFFFFFFFFFFFFFFFFFFFFFFFF DUP1 AND DUP4 AND GT ISZERO PUSH2 0x5E65 JUMPI PUSH1 0x80 DUP2 PUSH2 0x5E5E SWAP2 SWAP1 PUSH2 0x95E3 JUMP JUMPDEST SWAP1 POP PUSH2 0x5E6D JUMP JUMPDEST PUSH1 0x80 DUP3 SWAP1 SHR SWAP2 POP JUMPDEST PUSH1 0x0 PUSH8 0xFFFFFFFFFFFFFFFF DUP1 AND DUP4 AND GT ISZERO PUSH2 0x5E96 JUMPI PUSH1 0x40 DUP2 PUSH2 0x5E8F SWAP2 SWAP1 PUSH2 0x95E3 JUMP JUMPDEST SWAP1 POP PUSH2 0x5E9E JUMP JUMPDEST PUSH1 0x40 DUP3 SWAP1 SHR SWAP2 POP JUMPDEST PUSH1 0x0 PUSH4 0xFFFFFFFF DUP1 AND DUP4 AND GT ISZERO PUSH2 0x5EC3 JUMPI PUSH1 0x20 DUP2 PUSH2 0x5EBC SWAP2 SWAP1 PUSH2 0x95E3 JUMP JUMPDEST SWAP1 POP PUSH2 0x5ECB JUMP JUMPDEST PUSH1 0x20 DUP3 SWAP1 SHR SWAP2 POP JUMPDEST PUSH1 0x0 PUSH2 0xFFFF DUP1 AND DUP4 AND GT ISZERO PUSH2 0x5EEE JUMPI PUSH1 0x10 DUP2 PUSH2 0x5EE7 SWAP2 SWAP1 PUSH2 0x95E3 JUMP JUMPDEST SWAP1 POP PUSH2 0x5EF6 JUMP JUMPDEST PUSH1 0x10 DUP3 SWAP1 SHR SWAP2 POP JUMPDEST PUSH1 0x0 PUSH1 0xFF DUP1 AND DUP4 AND GT ISZERO PUSH2 0x5F18 JUMPI PUSH1 0x8 DUP2 PUSH2 0x5F11 SWAP2 SWAP1 PUSH2 0x95E3 JUMP JUMPDEST SWAP1 POP PUSH2 0x5F20 JUMP JUMPDEST PUSH1 0x8 DUP3 SWAP1 SHR SWAP2 POP JUMPDEST PUSH1 0x0 PUSH1 0xF DUP4 AND GT ISZERO PUSH2 0x5F40 JUMPI PUSH1 0x4 DUP2 PUSH2 0x5F39 SWAP2 SWAP1 PUSH2 0x95E3 JUMP JUMPDEST SWAP1 POP PUSH2 0x5F48 JUMP JUMPDEST PUSH1 0x4 DUP3 SWAP1 SHR SWAP2 POP JUMPDEST PUSH1 0x0 PUSH1 0x3 DUP4 AND GT ISZERO PUSH2 0x5F68 JUMPI PUSH1 0x2 DUP2 PUSH2 0x5F61 SWAP2 SWAP1 PUSH2 0x95E3 JUMP JUMPDEST SWAP1 POP PUSH2 0x5F70 JUMP JUMPDEST PUSH1 0x2 DUP3 SWAP1 SHR SWAP2 POP JUMPDEST PUSH1 0x0 PUSH1 0x1 DUP4 AND GT ISZERO PUSH2 0x5F8C JUMPI PUSH1 0x1 DUP2 PUSH2 0x5F89 SWAP2 SWAP1 PUSH2 0x95E3 JUMP JUMPDEST SWAP1 POP JUMPDEST SWAP2 SWAP1 POP JUMP JUMPDEST PUSH1 0x0 DUP4 PUSH20 0xFFFFFFFFFFFFFFFFFFFFFFFFFFFFFFFFFFFFFFFF AND DUP6 PUSH20 0xFFFFFFFFFFFFFFFFFFFFFFFFFFFFFFFFFFFFFFFF AND GT ISZERO PUSH2 0x5FD2 JUMPI DUP4 DUP6 DUP1 SWAP6 POP DUP2 SWAP7 POP POP POP JUMPDEST DUP2 PUSH2 0x6027 JUMPI PUSH2 0x6022 DUP4 PUSH16 0xFFFFFFFFFFFFFFFFFFFFFFFFFFFFFFFF AND DUP7 DUP7 PUSH2 0x5FF9 SWAP2 SWAP1 PUSH2 0x9346 JUMP JUMPDEST PUSH20 0xFFFFFFFFFFFFFFFFFFFFFFFFFFFFFFFFFFFFFFFF AND PUSH13 0x1000000000000000000000000 PUSH2 0x4374 JUMP JUMPDEST PUSH2 0x6073 JUMP JUMPDEST PUSH2 0x6072 DUP4 PUSH16 0xFFFFFFFFFFFFFFFFFFFFFFFFFFFFFFFF AND DUP7 DUP7 PUSH2 0x6049 SWAP2 SWAP1 PUSH2 0x9346 JUMP JUMPDEST PUSH20 0xFFFFFFFFFFFFFFFFFFFFFFFFFFFFFFFFFFFFFFFF AND PUSH13 0x1000000000000000000000000 PUSH2 0x582F JUMP JUMPDEST JUMPDEST SWAP1 POP SWAP5 SWAP4 POP POP POP POP JUMP JUMPDEST PUSH1 0x0 DUP4 PUSH20 0xFFFFFFFFFFFFFFFFFFFFFFFFFFFFFFFFFFFFFFFF AND DUP6 PUSH20 0xFFFFFFFFFFFFFFFFFFFFFFFFFFFFFFFFFFFFFFFF AND GT ISZERO PUSH2 0x60BE JUMPI DUP4 DUP6 DUP1 SWAP6 POP DUP2 SWAP7 POP POP POP JUMPDEST PUSH1 0x0 PUSH1 0x60 PUSH1 0xFF AND DUP5 PUSH16 0xFFFFFFFFFFFFFFFFFFFFFFFFFFFFFFFF AND SWAP1 SHL SWAP1 POP PUSH1 0x0 DUP7 DUP7 PUSH2 0x60EA SWAP2 SWAP1 PUSH2 0x9346 JUMP JUMPDEST PUSH20 0xFFFFFFFFFFFFFFFFFFFFFFFFFFFFFFFFFFFFFFFF AND SWAP1 POP PUSH1 0x0 DUP8 PUSH20 0xFFFFFFFFFFFFFFFFFFFFFFFFFFFFFFFFFFFFFFFF AND GT PUSH2 0x6125 JUMPI PUSH1 0x0 DUP1 REVERT JUMPDEST DUP4 PUSH2 0x6171 JUMPI DUP7 PUSH20 0xFFFFFFFFFFFFFFFFFFFFFFFFFFFFFFFFFFFFFFFF AND PUSH2 0x6162 DUP4 DUP4 DUP10 PUSH20 0xFFFFFFFFFFFFFFFFFFFFFFFFFFFFFFFFFFFFFFFF AND PUSH2 0x4374 JUMP JUMPDEST PUSH2 0x616C SWAP2 SWAP1 PUSH2 0x8AE4 JUMP JUMPDEST PUSH2 0x61B2 JUMP JUMPDEST PUSH2 0x61B1 PUSH2 0x6195 DUP4 DUP4 DUP10 PUSH20 0xFFFFFFFFFFFFFFFFFFFFFFFFFFFFFFFFFFFFFFFF AND PUSH2 0x582F JUMP JUMPDEST DUP9 PUSH20 0xFFFFFFFFFFFFFFFFFFFFFFFFFFFFFFFFFFFFFFFF AND PUSH2 0x6A10 JUMP JUMPDEST JUMPDEST SWAP3 POP POP POP SWAP5 SWAP4 POP POP POP POP JUMP JUMPDEST PUSH1 0x0 DUP1 DUP6 PUSH20 0xFFFFFFFFFFFFFFFFFFFFFFFFFFFFFFFFFFFFFFFF AND GT PUSH2 0x61E2 JUMPI PUSH1 0x0 DUP1 REVERT JUMPDEST PUSH1 0x0 DUP5 PUSH16 0xFFFFFFFFFFFFFFFFFFFFFFFFFFFFFFFF AND GT PUSH2 0x6201 JUMPI PUSH1 0x0 DUP1 REVERT JUMPDEST DUP2 PUSH2 0x6218 JUMPI PUSH2 0x6213 DUP6 DUP6 DUP6 PUSH1 0x1 PUSH2 0x6A23 JUMP JUMPDEST PUSH2 0x6226 JUMP JUMPDEST PUSH2 0x6225 DUP6 DUP6 DUP6 PUSH1 0x1 PUSH2 0x6BA0 JUMP JUMPDEST JUMPDEST SWAP1 POP SWAP5 SWAP4 POP POP POP POP JUMP JUMPDEST PUSH1 0x0 DUP1 DUP6 PUSH20 0xFFFFFFFFFFFFFFFFFFFFFFFFFFFFFFFFFFFFFFFF AND GT PUSH2 0x6254 JUMPI PUSH1 0x0 DUP1 REVERT JUMPDEST PUSH1 0x0 DUP5 PUSH16 0xFFFFFFFFFFFFFFFFFFFFFFFFFFFFFFFF AND GT PUSH2 0x6273 JUMPI PUSH1 0x0 DUP1 REVERT JUMPDEST DUP2 PUSH2 0x628A JUMPI PUSH2 0x6285 DUP6 DUP6 DUP6 PUSH1 0x0 PUSH2 0x6BA0 JUMP JUMPDEST PUSH2 0x6298 JUMP JUMPDEST PUSH2 0x6297 DUP6 DUP6 DUP6 PUSH1 0x0 PUSH2 0x6A23 JUMP JUMPDEST JUMPDEST SWAP1 POP SWAP5 SWAP4 POP POP POP POP JUMP JUMPDEST PUSH2 0x62AA PUSH2 0x7A39 JUMP JUMPDEST PUSH1 0x0 DUP6 PUSH1 0x0 ADD MLOAD DUP6 PUSH2 0x62BC SWAP2 SWAP1 PUSH2 0x938E JUMP JUMPDEST SWAP1 POP PUSH1 0x40 MLOAD DUP1 PUSH1 0x80 ADD PUSH1 0x40 MSTORE DUP1 DUP7 PUSH4 0xFFFFFFFF AND DUP2 MSTORE PUSH1 0x20 ADD DUP3 PUSH4 0xFFFFFFFF AND DUP7 PUSH1 0x2 SIGNEXTEND PUSH2 0x62EA SWAP2 SWAP1 PUSH2 0x9822 JUMP JUMPDEST DUP9 PUSH1 0x20 ADD MLOAD PUSH2 0x62F9 SWAP2 SWAP1 PUSH2 0x985F JUMP JUMPDEST PUSH1 0x6 SIGNEXTEND DUP2 MSTORE PUSH1 0x20 ADD PUSH1 0x0 DUP6 PUSH16 0xFFFFFFFFFFFFFFFFFFFFFFFFFFFFFFFF AND GT PUSH2 0x6322 JUMPI PUSH1 0x1 PUSH2 0x6324 JUMP JUMPDEST DUP5 JUMPDEST PUSH16 0xFFFFFFFFFFFFFFFFFFFFFFFFFFFFFFFF AND PUSH1 0x80 DUP5 PUSH4 0xFFFFFFFF AND PUSH20 0xFFFFFFFFFFFFFFFFFFFFFFFFFFFFFFFFFFFFFFFF AND SWAP1 SHL PUSH2 0x6361 SWAP2 SWAP1 PUSH2 0xA00C JUMP JUMPDEST DUP9 PUSH1 0x40 ADD MLOAD PUSH2 0x6370 SWAP2 SWAP1 PUSH2 0x98BE JUMP JUMPDEST PUSH20 0xFFFFFFFFFFFFFFFFFFFFFFFFFFFFFFFFFFFFFFFF AND DUP2 MSTORE PUSH1 0x20 ADD PUSH1 0x1 ISZERO ISZERO DUP2 MSTORE POP SWAP2 POP POP SWAP5 SWAP4 POP POP POP POP JUMP JUMPDEST PUSH2 0x63A5 PUSH2 0x7A39 JUMP JUMPDEST PUSH2 0x63AD PUSH2 0x7A39 JUMP JUMPDEST DUP9 DUP6 PUSH2 0xFFFF AND PUSH2 0xFFFF DUP2 LT PUSH2 0x63C5 JUMPI PUSH2 0x63C4 PUSH2 0x9789 JUMP JUMPDEST JUMPDEST ADD PUSH1 0x40 MLOAD DUP1 PUSH1 0x80 ADD PUSH1 0x40 MSTORE SWAP1 DUP2 PUSH1 0x0 DUP3 ADD PUSH1 0x0 SWAP1 SLOAD SWAP1 PUSH2 0x100 EXP SWAP1 DIV PUSH4 0xFFFFFFFF AND PUSH4 0xFFFFFFFF AND PUSH4 0xFFFFFFFF AND DUP2 MSTORE PUSH1 0x20 ADD PUSH1 0x0 DUP3 ADD PUSH1 0x4 SWAP1 SLOAD SWAP1 PUSH2 0x100 EXP SWAP1 DIV PUSH1 0x6 SIGNEXTEND PUSH1 0x6 SIGNEXTEND PUSH1 0x6 SIGNEXTEND DUP2 MSTORE PUSH1 0x20 ADD PUSH1 0x0 DUP3 ADD PUSH1 0xB SWAP1 SLOAD SWAP1 PUSH2 0x100 EXP SWAP1 DIV PUSH20 0xFFFFFFFFFFFFFFFFFFFFFFFFFFFFFFFFFFFFFFFF AND PUSH20 0xFFFFFFFFFFFFFFFFFFFFFFFFFFFFFFFFFFFFFFFF AND PUSH20 0xFFFFFFFFFFFFFFFFFFFFFFFFFFFFFFFFFFFFFFFF AND DUP2 MSTORE PUSH1 0x20 ADD PUSH1 0x0 DUP3 ADD PUSH1 0x1F SWAP1 SLOAD SWAP1 PUSH2 0x100 EXP SWAP1 DIV PUSH1 0xFF AND ISZERO ISZERO ISZERO ISZERO DUP2 MSTORE POP POP SWAP2 POP PUSH2 0x6496 DUP9 DUP4 PUSH1 0x0 ADD MLOAD DUP10 PUSH2 0x6D52 JUMP JUMPDEST ISZERO PUSH2 0x64C9 JUMPI DUP7 PUSH4 0xFFFFFFFF AND DUP3 PUSH1 0x0 ADD MLOAD PUSH4 0xFFFFFFFF AND SUB ISZERO PUSH2 0x66FB JUMPI DUP2 PUSH2 0x64C0 DUP4 DUP10 DUP10 DUP9 PUSH2 0x62A2 JUMP JUMPDEST SWAP2 POP SWAP2 POP PUSH2 0x66FB JUMP JUMPDEST DUP9 DUP4 PUSH1 0x1 DUP8 PUSH2 0x64D8 SWAP2 SWAP1 PUSH2 0x9AF8 JUMP JUMPDEST PUSH2 0x64E2 SWAP2 SWAP1 PUSH2 0x9B2E JUMP JUMPDEST PUSH2 0xFFFF AND PUSH2 0xFFFF DUP2 LT PUSH2 0x64F8 JUMPI PUSH2 0x64F7 PUSH2 0x9789 JUMP JUMPDEST JUMPDEST ADD PUSH1 0x40 MLOAD DUP1 PUSH1 0x80 ADD PUSH1 0x40 MSTORE SWAP1 DUP2 PUSH1 0x0 DUP3 ADD PUSH1 0x0 SWAP1 SLOAD SWAP1 PUSH2 0x100 EXP SWAP1 DIV PUSH4 0xFFFFFFFF AND PUSH4 0xFFFFFFFF AND PUSH4 0xFFFFFFFF AND DUP2 MSTORE PUSH1 0x20 ADD PUSH1 0x0 DUP3 ADD PUSH1 0x4 SWAP1 SLOAD SWAP1 PUSH2 0x100 EXP SWAP1 DIV PUSH1 0x6 SIGNEXTEND PUSH1 0x6 SIGNEXTEND PUSH1 0x6 SIGNEXTEND DUP2 MSTORE PUSH1 0x20 ADD PUSH1 0x0 DUP3 ADD PUSH1 0xB SWAP1 SLOAD SWAP1 PUSH2 0x100 EXP SWAP1 DIV PUSH20 0xFFFFFFFFFFFFFFFFFFFFFFFFFFFFFFFFFFFFFFFF AND PUSH20 0xFFFFFFFFFFFFFFFFFFFFFFFFFFFFFFFFFFFFFFFF AND PUSH20 0xFFFFFFFFFFFFFFFFFFFFFFFFFFFFFFFFFFFFFFFF AND DUP2 MSTORE PUSH1 0x20 ADD PUSH1 0x0 DUP3 ADD PUSH1 0x1F SWAP1 SLOAD SWAP1 PUSH2 0x100 EXP SWAP1 DIV PUSH1 0xFF AND ISZERO ISZERO ISZERO ISZERO DUP2 MSTORE POP POP SWAP2 POP DUP2 PUSH1 0x60 ADD MLOAD PUSH2 0x669B JUMPI DUP9 PUSH1 0x0 PUSH2 0xFFFF DUP2 LT PUSH2 0x65D8 JUMPI PUSH2 0x65D7 PUSH2 0x9789 JUMP JUMPDEST JUMPDEST ADD PUSH1 0x40 MLOAD DUP1 PUSH1 0x80 ADD PUSH1 0x40 MSTORE SWAP1 DUP2 PUSH1 0x0 DUP3 ADD PUSH1 0x0 SWAP1 SLOAD SWAP1 PUSH2 0x100 EXP SWAP1 DIV PUSH4 0xFFFFFFFF AND PUSH4 0xFFFFFFFF AND PUSH4 0xFFFFFFFF AND DUP2 MSTORE PUSH1 0x20 ADD PUSH1 0x0 DUP3 ADD PUSH1 0x4 SWAP1 SLOAD SWAP1 PUSH2 0x100 EXP SWAP1 DIV PUSH1 0x6 SIGNEXTEND PUSH1 0x6 SIGNEXTEND PUSH1 0x6 SIGNEXTEND DUP2 MSTORE PUSH1 0x20 ADD PUSH1 0x0 DUP3 ADD PUSH1 0xB SWAP1 SLOAD SWAP1 PUSH2 0x100 EXP SWAP1 DIV PUSH20 0xFFFFFFFFFFFFFFFFFFFFFFFFFFFFFFFFFFFFFFFF AND PUSH20 0xFFFFFFFFFFFFFFFFFFFFFFFFFFFFFFFFFFFFFFFF AND PUSH20 0xFFFFFFFFFFFFFFFFFFFFFFFFFFFFFFFFFFFFFFFF AND DUP2 MSTORE PUSH1 0x20 ADD PUSH1 0x0 DUP3 ADD PUSH1 0x1F SWAP1 SLOAD SWAP1 PUSH2 0x100 EXP SWAP1 DIV PUSH1 0xFF AND ISZERO ISZERO ISZERO ISZERO DUP2 MSTORE POP POP SWAP2 POP JUMPDEST PUSH2 0x66AA DUP9 DUP4 PUSH1 0x0 ADD MLOAD DUP10 PUSH2 0x6D52 JUMP JUMPDEST PUSH2 0x66E9 JUMPI PUSH1 0x40 MLOAD PUSH32 0x8C379A000000000000000000000000000000000000000000000000000000000 DUP2 MSTORE PUSH1 0x4 ADD PUSH2 0x66E0 SWAP1 PUSH2 0xA089 JUMP JUMPDEST PUSH1 0x40 MLOAD DUP1 SWAP2 SUB SWAP1 REVERT JUMPDEST PUSH2 0x66F6 DUP10 DUP10 DUP10 DUP9 DUP8 PUSH2 0x6E2C JUMP JUMPDEST SWAP2 POP SWAP2 POP JUMPDEST SWAP8 POP SWAP8 SWAP6 POP POP POP POP POP POP JUMP JUMPDEST PUSH1 0x0 PUSH2 0x6721 DUP7 DUP7 DUP7 PUSH1 0x5 PUSH2 0x589A SWAP1 SWAP4 SWAP3 SWAP2 SWAP1 PUSH4 0xFFFFFFFF AND JUMP JUMPDEST SWAP1 POP PUSH1 0x0 PUSH1 0x1 SLOAD SWAP1 POP PUSH1 0x0 PUSH1 0x2 SLOAD SWAP1 POP PUSH1 0x0 DUP1 PUSH1 0x0 DUP8 PUSH1 0xF SIGNEXTEND EQ PUSH2 0x68D6 JUMPI PUSH1 0x0 PUSH2 0x6749 PUSH2 0x39EE JUMP JUMPDEST SWAP1 POP PUSH1 0x0 DUP1 PUSH2 0x67C2 DUP4 PUSH1 0x0 DUP1 PUSH1 0x0 ADD PUSH1 0x14 SWAP1 SLOAD SWAP1 PUSH2 0x100 EXP SWAP1 DIV PUSH1 0x2 SIGNEXTEND PUSH1 0x0 DUP1 ADD PUSH1 0x17 SWAP1 SLOAD SWAP1 PUSH2 0x100 EXP SWAP1 DIV PUSH2 0xFFFF AND PUSH3 0x10006 PUSH1 0x0 SWAP1 SLOAD SWAP1 PUSH2 0x100 EXP SWAP1 DIV PUSH16 0xFFFFFFFFFFFFFFFFFFFFFFFFFFFFFFFF AND PUSH1 0x0 DUP1 ADD PUSH1 0x19 SWAP1 SLOAD SWAP1 PUSH2 0x100 EXP SWAP1 DIV PUSH2 0xFFFF AND PUSH1 0x6 PUSH2 0x4514 SWAP1 SWAP7 SWAP6 SWAP5 SWAP4 SWAP3 SWAP2 SWAP1 PUSH4 0xFFFFFFFF AND JUMP JUMPDEST SWAP2 POP SWAP2 POP PUSH2 0x680D DUP13 DUP11 DUP13 DUP11 DUP11 DUP7 DUP9 DUP11 PUSH1 0x0 PUSH32 0x0 PUSH1 0x3 PUSH2 0x7105 SWAP1 SWAP11 SWAP10 SWAP9 SWAP8 SWAP7 SWAP6 SWAP5 SWAP4 SWAP3 SWAP2 SWAP1 PUSH4 0xFFFFFFFF AND JUMP JUMPDEST SWAP5 POP PUSH2 0x6856 DUP12 DUP11 DUP13 DUP11 DUP11 DUP7 DUP9 DUP11 PUSH1 0x1 PUSH32 0x0 PUSH1 0x3 PUSH2 0x7105 SWAP1 SWAP11 SWAP10 SWAP9 SWAP8 SWAP7 SWAP6 SWAP5 SWAP4 SWAP3 SWAP2 SWAP1 PUSH4 0xFFFFFFFF AND JUMP JUMPDEST SWAP4 POP DUP5 ISZERO PUSH2 0x6895 JUMPI PUSH2 0x6894 DUP13 PUSH32 0x0 PUSH1 0x4 PUSH2 0x73A9 SWAP1 SWAP3 SWAP2 SWAP1 PUSH4 0xFFFFFFFF AND JUMP JUMPDEST JUMPDEST DUP4 ISZERO PUSH2 0x68D2 JUMPI PUSH2 0x68D1 DUP12 PUSH32 0x0 PUSH1 0x4 PUSH2 0x73A9 SWAP1 SWAP3 SWAP2 SWAP1 PUSH4 0xFFFFFFFF AND JUMP JUMPDEST JUMPDEST POP POP POP JUMPDEST PUSH1 0x0 DUP1 PUSH2 0x68F5 DUP12 DUP12 DUP11 DUP10 DUP10 PUSH1 0x3 PUSH2 0x7419 SWAP1 SWAP6 SWAP5 SWAP4 SWAP3 SWAP2 SWAP1 PUSH4 0xFFFFFFFF AND JUMP JUMPDEST SWAP2 POP SWAP2 POP PUSH2 0x6910 DUP10 DUP4 DUP4 DUP11 PUSH2 0x7527 SWAP1 SWAP4 SWAP3 SWAP2 SWAP1 PUSH4 0xFFFFFFFF AND JUMP JUMPDEST PUSH1 0x0 DUP10 PUSH1 0xF SIGNEXTEND SLT ISZERO PUSH2 0x6953 JUMPI DUP4 ISZERO PUSH2 0x6937 JUMPI PUSH2 0x6936 DUP12 PUSH1 0x3 PUSH2 0x789B SWAP1 SWAP2 SWAP1 PUSH4 0xFFFFFFFF AND JUMP JUMPDEST JUMPDEST DUP3 ISZERO PUSH2 0x6952 JUMPI PUSH2 0x6951 DUP11 PUSH1 0x3 PUSH2 0x789B SWAP1 SWAP2 SWAP1 PUSH4 0xFFFFFFFF AND JUMP JUMPDEST JUMPDEST JUMPDEST POP POP POP POP POP POP SWAP6 SWAP5 POP POP POP POP POP JUMP JUMPDEST PUSH1 0x0 DUP1 DUP3 PUSH1 0xF SIGNEXTEND SLT PUSH2 0x6988 JUMPI PUSH2 0x6983 PUSH2 0x697E DUP6 DUP6 DUP6 PUSH1 0x1 PUSH2 0x607D JUMP JUMPDEST PUSH2 0x433E JUMP JUMPDEST PUSH2 0x69B0 JUMP JUMPDEST PUSH2 0x69A6 PUSH2 0x69A1 DUP6 DUP6 DUP6 PUSH2 0x699A SWAP1 PUSH2 0x8B8D JUMP JUMPDEST PUSH1 0x0 PUSH2 0x607D JUMP JUMPDEST PUSH2 0x433E JUMP JUMPDEST PUSH2 0x69AF SWAP1 PUSH2 0x8C30 JUMP JUMPDEST JUMPDEST SWAP1 POP SWAP4 SWAP3 POP POP POP JUMP JUMPDEST PUSH1 0x0 DUP1 DUP3 PUSH1 0xF SIGNEXTEND SLT PUSH2 0x69DF JUMPI PUSH2 0x69DA PUSH2 0x69D5 DUP6 DUP6 DUP6 PUSH1 0x1 PUSH2 0x5F91 JUMP JUMPDEST PUSH2 0x433E JUMP JUMPDEST PUSH2 0x6A07 JUMP JUMPDEST PUSH2 0x69FD PUSH2 0x69F8 DUP6 DUP6 DUP6 PUSH2 0x69F1 SWAP1 PUSH2 0x8B8D JUMP JUMPDEST PUSH1 0x0 PUSH2 0x5F91 JUMP JUMPDEST PUSH2 0x433E JUMP JUMPDEST PUSH2 0x6A06 SWAP1 PUSH2 0x8C30 JUMP JUMPDEST JUMPDEST SWAP1 POP SWAP4 SWAP3 POP POP POP JUMP JUMPDEST PUSH1 0x0 DUP1 DUP3 DUP5 MOD GT DUP3 DUP5 DIV ADD SWAP1 POP SWAP3 SWAP2 POP POP JUMP JUMPDEST PUSH1 0x0 DUP2 ISZERO PUSH2 0x6ADB JUMPI PUSH1 0x0 PUSH20 0xFFFFFFFFFFFFFFFFFFFFFFFFFFFFFFFFFFFFFFFF DUP1 AND DUP5 GT ISZERO PUSH2 0x6A7A JUMPI PUSH2 0x6A75 DUP5 PUSH13 0x1000000000000000000000000 DUP8 PUSH16 0xFFFFFFFFFFFFFFFFFFFFFFFFFFFFFFFF AND PUSH2 0x4374 JUMP JUMPDEST PUSH2 0x6AA0 JUMP JUMPDEST DUP5 PUSH16 0xFFFFFFFFFFFFFFFFFFFFFFFFFFFFFFFF AND PUSH1 0x60 PUSH1 0xFF AND DUP6 SWAP1 SHL PUSH2 0x6A9F SWAP2 SWAP1 PUSH2 0x8AE4 JUMP JUMPDEST JUMPDEST SWAP1 POP PUSH2 0x6AD3 PUSH2 0x6ACE DUP3 DUP9 PUSH20 0xFFFFFFFFFFFFFFFFFFFFFFFFFFFFFFFFFFFFFFFF AND PUSH2 0x797C SWAP1 SWAP2 SWAP1 PUSH4 0xFFFFFFFF AND JUMP JUMPDEST PUSH2 0x799F JUMP JUMPDEST SWAP2 POP POP PUSH2 0x6B98 JUMP JUMPDEST PUSH1 0x0 PUSH20 0xFFFFFFFFFFFFFFFFFFFFFFFFFFFFFFFFFFFFFFFF DUP1 AND DUP5 GT ISZERO PUSH2 0x6B2A JUMPI PUSH2 0x6B25 DUP5 PUSH13 0x1000000000000000000000000 DUP8 PUSH16 0xFFFFFFFFFFFFFFFFFFFFFFFFFFFFFFFF AND PUSH2 0x582F JUMP JUMPDEST PUSH2 0x6B4E JUMP JUMPDEST PUSH2 0x6B4D PUSH1 0x60 PUSH1 0xFF AND DUP6 SWAP1 SHL DUP7 PUSH16 0xFFFFFFFFFFFFFFFFFFFFFFFFFFFFFFFF AND PUSH2 0x6A10 JUMP JUMPDEST JUMPDEST SWAP1 POP DUP1 DUP7 PUSH20 0xFFFFFFFFFFFFFFFFFFFFFFFFFFFFFFFFFFFFFFFF AND GT PUSH2 0x6B72 JUMPI PUSH1 0x0 DUP1 REVERT JUMPDEST DUP1 DUP7 PUSH20 0xFFFFFFFFFFFFFFFFFFFFFFFFFFFFFFFFFFFFFFFF AND PUSH2 0x6B94 SWAP2 SWAP1 PUSH2 0x8B15 JUMP JUMPDEST SWAP2 POP POP JUMPDEST SWAP5 SWAP4 POP POP POP POP JUMP JUMPDEST PUSH1 0x0 DUP1 DUP4 SUB PUSH2 0x6BB1 JUMPI DUP5 SWAP1 POP PUSH2 0x6D4A JUMP JUMPDEST PUSH1 0x0 PUSH1 0x60 PUSH1 0xFF AND DUP6 PUSH16 0xFFFFFFFFFFFFFFFFFFFFFFFFFFFFFFFF AND SWAP1 SHL SWAP1 POP DUP3 ISZERO PUSH2 0x6CAD JUMPI PUSH1 0x0 DUP7 PUSH20 0xFFFFFFFFFFFFFFFFFFFFFFFFFFFFFFFFFFFFFFFF AND DUP6 DUP9 PUSH20 0xFFFFFFFFFFFFFFFFFFFFFFFFFFFFFFFFFFFFFFFF AND DUP8 PUSH2 0x6C11 SWAP2 SWAP1 PUSH2 0x96DF JUMP JUMPDEST SWAP3 POP DUP3 PUSH2 0x6C1E SWAP2 SWAP1 PUSH2 0x8AE4 JUMP JUMPDEST SUB PUSH2 0x6C67 JUMPI PUSH1 0x0 DUP2 DUP4 PUSH2 0x6C31 SWAP2 SWAP1 PUSH2 0x8A29 JUMP JUMPDEST SWAP1 POP DUP3 DUP2 LT PUSH2 0x6C65 JUMPI PUSH2 0x6C5B DUP4 DUP10 PUSH20 0xFFFFFFFFFFFFFFFFFFFFFFFFFFFFFFFFFFFFFFFF AND DUP4 PUSH2 0x582F JUMP JUMPDEST SWAP4 POP POP POP POP PUSH2 0x6D4A JUMP JUMPDEST POP JUMPDEST PUSH2 0x6CA4 DUP3 PUSH2 0x6C9F DUP8 DUP11 PUSH20 0xFFFFFFFFFFFFFFFFFFFFFFFFFFFFFFFFFFFFFFFF AND DUP7 PUSH2 0x6C91 SWAP2 SWAP1 PUSH2 0x8AE4 JUMP JUMPDEST PUSH2 0x797C SWAP1 SWAP2 SWAP1 PUSH4 0xFFFFFFFF AND JUMP JUMPDEST PUSH2 0x6A10 JUMP JUMPDEST SWAP3 POP POP POP PUSH2 0x6D4A JUMP JUMPDEST PUSH1 0x0 DUP7 PUSH20 0xFFFFFFFFFFFFFFFFFFFFFFFFFFFFFFFFFFFFFFFF AND DUP6 DUP9 PUSH20 0xFFFFFFFFFFFFFFFFFFFFFFFFFFFFFFFFFFFFFFFF AND DUP8 PUSH2 0x6CE9 SWAP2 SWAP1 PUSH2 0x96DF JUMP JUMPDEST SWAP3 POP DUP3 PUSH2 0x6CF6 SWAP2 SWAP1 PUSH2 0x8AE4 JUMP JUMPDEST EQ DUP1 ISZERO PUSH2 0x6D02 JUMPI POP DUP1 DUP3 GT JUMPDEST PUSH2 0x6D0B JUMPI PUSH1 0x0 DUP1 REVERT JUMPDEST PUSH1 0x0 DUP2 DUP4 PUSH2 0x6D19 SWAP2 SWAP1 PUSH2 0x8B15 JUMP JUMPDEST SWAP1 POP PUSH2 0x6D44 PUSH2 0x6D3F DUP5 DUP11 PUSH20 0xFFFFFFFFFFFFFFFFFFFFFFFFFFFFFFFFFFFFFFFF AND DUP5 PUSH2 0x582F JUMP JUMPDEST PUSH2 0x799F JUMP JUMPDEST SWAP4 POP POP POP POP JUMPDEST SWAP5 SWAP4 POP POP POP POP JUMP JUMPDEST PUSH1 0x0 DUP4 PUSH4 0xFFFFFFFF AND DUP4 PUSH4 0xFFFFFFFF AND GT ISZERO DUP1 ISZERO PUSH2 0x6D7C JUMPI POP DUP4 PUSH4 0xFFFFFFFF AND DUP3 PUSH4 0xFFFFFFFF AND GT ISZERO JUMPDEST ISZERO PUSH2 0x6D98 JUMPI DUP2 PUSH4 0xFFFFFFFF AND DUP4 PUSH4 0xFFFFFFFF AND GT ISZERO SWAP1 POP PUSH2 0x6E25 JUMP JUMPDEST PUSH1 0x0 DUP5 PUSH4 0xFFFFFFFF AND DUP5 PUSH4 0xFFFFFFFF AND GT PUSH2 0x6DC9 JUMPI PUSH5 0x100000000 DUP5 PUSH4 0xFFFFFFFF AND PUSH2 0x6DC4 SWAP2 SWAP1 PUSH2 0xA0BA JUMP JUMPDEST PUSH2 0x6DD1 JUMP JUMPDEST DUP4 PUSH4 0xFFFFFFFF AND JUMPDEST PUSH5 0xFFFFFFFFFF AND SWAP1 POP PUSH1 0x0 DUP6 PUSH4 0xFFFFFFFF AND DUP5 PUSH4 0xFFFFFFFF AND GT PUSH2 0x6E0B JUMPI PUSH5 0x100000000 DUP5 PUSH4 0xFFFFFFFF AND PUSH2 0x6E06 SWAP2 SWAP1 PUSH2 0xA0BA JUMP JUMPDEST PUSH2 0x6E13 JUMP JUMPDEST DUP4 PUSH4 0xFFFFFFFF AND JUMPDEST PUSH5 0xFFFFFFFFFF AND SWAP1 POP DUP1 DUP3 GT ISZERO SWAP3 POP POP POP JUMPDEST SWAP4 SWAP3 POP POP POP JUMP JUMPDEST PUSH2 0x6E34 PUSH2 0x7A39 JUMP JUMPDEST PUSH2 0x6E3C PUSH2 0x7A39 JUMP JUMPDEST PUSH1 0x0 DUP4 PUSH1 0x1 DUP7 PUSH2 0x6E4C SWAP2 SWAP1 PUSH2 0x9AF8 JUMP JUMPDEST PUSH2 0x6E56 SWAP2 SWAP1 PUSH2 0x9B2E JUMP JUMPDEST PUSH2 0xFFFF AND SWAP1 POP PUSH1 0x0 PUSH1 0x1 DUP6 PUSH2 0xFFFF AND DUP4 PUSH2 0x6E70 SWAP2 SWAP1 PUSH2 0x8A29 JUMP JUMPDEST PUSH2 0x6E7A SWAP2 SWAP1 PUSH2 0x8B15 JUMP JUMPDEST SWAP1 POP PUSH1 0x0 JUMPDEST PUSH1 0x1 ISZERO PUSH2 0x70F8 JUMPI PUSH1 0x2 DUP3 DUP5 PUSH2 0x6E94 SWAP2 SWAP1 PUSH2 0x8A29 JUMP JUMPDEST PUSH2 0x6E9E SWAP2 SWAP1 PUSH2 0x8AE4 JUMP JUMPDEST SWAP1 POP DUP10 DUP7 PUSH2 0xFFFF AND DUP3 PUSH2 0x6EB1 SWAP2 SWAP1 PUSH2 0x9721 JUMP JUMPDEST PUSH2 0xFFFF DUP2 LT PUSH2 0x6EC3 JUMPI PUSH2 0x6EC2 PUSH2 0x9789 JUMP JUMPDEST JUMPDEST ADD PUSH1 0x40 MLOAD DUP1 PUSH1 0x80 ADD PUSH1 0x40 MSTORE SWAP1 DUP2 PUSH1 0x0 DUP3 ADD PUSH1 0x0 SWAP1 SLOAD SWAP1 PUSH2 0x100 EXP SWAP1 DIV PUSH4 0xFFFFFFFF AND PUSH4 0xFFFFFFFF AND PUSH4 0xFFFFFFFF AND DUP2 MSTORE PUSH1 0x20 ADD PUSH1 0x0 DUP3 ADD PUSH1 0x4 SWAP1 SLOAD SWAP1 PUSH2 0x100 EXP SWAP1 DIV PUSH1 0x6 SIGNEXTEND PUSH1 0x6 SIGNEXTEND PUSH1 0x6 SIGNEXTEND DUP2 MSTORE PUSH1 0x20 ADD PUSH1 0x0 DUP3 ADD PUSH1 0xB SWAP1 SLOAD SWAP1 PUSH2 0x100 EXP SWAP1 DIV PUSH20 0xFFFFFFFFFFFFFFFFFFFFFFFFFFFFFFFFFFFFFFFF AND PUSH20 0xFFFFFFFFFFFFFFFFFFFFFFFFFFFFFFFFFFFFFFFF AND PUSH20 0xFFFFFFFFFFFFFFFFFFFFFFFFFFFFFFFFFFFFFFFF AND DUP2 MSTORE PUSH1 0x20 ADD PUSH1 0x0 DUP3 ADD PUSH1 0x1F SWAP1 SLOAD SWAP1 PUSH2 0x100 EXP SWAP1 DIV PUSH1 0xFF AND ISZERO ISZERO ISZERO ISZERO DUP2 MSTORE POP POP SWAP5 POP DUP5 PUSH1 0x60 ADD MLOAD PUSH2 0x6FA2 JUMPI PUSH1 0x1 DUP2 PUSH2 0x6F9B SWAP2 SWAP1 PUSH2 0x8A29 JUMP JUMPDEST SWAP3 POP PUSH2 0x6E7F JUMP JUMPDEST DUP10 DUP7 PUSH2 0xFFFF AND PUSH1 0x1 DUP4 PUSH2 0x6FB5 SWAP2 SWAP1 PUSH2 0x8A29 JUMP JUMPDEST PUSH2 0x6FBF SWAP2 SWAP1 PUSH2 0x9721 JUMP JUMPDEST PUSH2 0xFFFF DUP2 LT PUSH2 0x6FD1 JUMPI PUSH2 0x6FD0 PUSH2 0x9789 JUMP JUMPDEST JUMPDEST ADD PUSH1 0x40 MLOAD DUP1 PUSH1 0x80 ADD PUSH1 0x40 MSTORE SWAP1 DUP2 PUSH1 0x0 DUP3 ADD PUSH1 0x0 SWAP1 SLOAD SWAP1 PUSH2 0x100 EXP SWAP1 DIV PUSH4 0xFFFFFFFF AND PUSH4 0xFFFFFFFF AND PUSH4 0xFFFFFFFF AND DUP2 MSTORE PUSH1 0x20 ADD PUSH1 0x0 DUP3 ADD PUSH1 0x4 SWAP1 SLOAD SWAP1 PUSH2 0x100 EXP SWAP1 DIV PUSH1 0x6 SIGNEXTEND PUSH1 0x6 SIGNEXTEND PUSH1 0x6 SIGNEXTEND DUP2 MSTORE PUSH1 0x20 ADD PUSH1 0x0 DUP3 ADD PUSH1 0xB SWAP1 SLOAD SWAP1 PUSH2 0x100 EXP SWAP1 DIV PUSH20 0xFFFFFFFFFFFFFFFFFFFFFFFFFFFFFFFFFFFFFFFF AND PUSH20 0xFFFFFFFFFFFFFFFFFFFFFFFFFFFFFFFFFFFFFFFF AND PUSH20 0xFFFFFFFFFFFFFFFFFFFFFFFFFFFFFFFFFFFFFFFF AND DUP2 MSTORE PUSH1 0x20 ADD PUSH1 0x0 DUP3 ADD PUSH1 0x1F SWAP1 SLOAD SWAP1 PUSH2 0x100 EXP SWAP1 DIV PUSH1 0xFF AND ISZERO ISZERO ISZERO ISZERO DUP2 MSTORE POP POP SWAP4 POP PUSH1 0x0 PUSH2 0x70A4 DUP11 DUP8 PUSH1 0x0 ADD MLOAD DUP12 PUSH2 0x6D52 JUMP JUMPDEST SWAP1 POP DUP1 DUP1 ISZERO PUSH2 0x70BE JUMPI POP PUSH2 0x70BD DUP11 DUP11 DUP8 PUSH1 0x0 ADD MLOAD PUSH2 0x6D52 JUMP JUMPDEST JUMPDEST ISZERO PUSH2 0x70C9 JUMPI POP PUSH2 0x70F8 JUMP JUMPDEST DUP1 PUSH2 0x70E2 JUMPI PUSH1 0x1 DUP3 PUSH2 0x70DB SWAP2 SWAP1 PUSH2 0x8B15 JUMP JUMPDEST SWAP3 POP PUSH2 0x70F2 JUMP JUMPDEST PUSH1 0x1 DUP3 PUSH2 0x70EF SWAP2 SWAP1 PUSH2 0x8A29 JUMP JUMPDEST SWAP4 POP JUMPDEST POP PUSH2 0x6E7F JUMP JUMPDEST POP POP POP SWAP6 POP SWAP6 SWAP4 POP POP POP POP JUMP JUMPDEST PUSH1 0x0 DUP1 DUP13 PUSH1 0x0 DUP14 PUSH1 0x2 SIGNEXTEND PUSH1 0x2 SIGNEXTEND DUP2 MSTORE PUSH1 0x20 ADD SWAP1 DUP2 MSTORE PUSH1 0x20 ADD PUSH1 0x0 KECCAK256 SWAP1 POP PUSH1 0x0 DUP2 PUSH1 0x0 ADD PUSH1 0x0 SWAP1 SLOAD SWAP1 PUSH2 0x100 EXP SWAP1 DIV PUSH16 0xFFFFFFFFFFFFFFFFFFFFFFFFFFFFFFFF AND SWAP1 POP PUSH1 0x0 PUSH2 0x7153 DUP3 DUP14 PUSH2 0x4906 JUMP JUMPDEST SWAP1 POP DUP5 PUSH16 0xFFFFFFFFFFFFFFFFFFFFFFFFFFFFFFFF AND DUP2 PUSH16 0xFFFFFFFFFFFFFFFFFFFFFFFFFFFFFFFF AND GT ISZERO PUSH2 0x71BC JUMPI PUSH1 0x40 MLOAD PUSH32 0x8C379A000000000000000000000000000000000000000000000000000000000 DUP2 MSTORE PUSH1 0x4 ADD PUSH2 0x71B3 SWAP1 PUSH2 0xA13F JUMP JUMPDEST PUSH1 0x40 MLOAD DUP1 SWAP2 SUB SWAP1 REVERT JUMPDEST PUSH1 0x0 DUP2 PUSH16 0xFFFFFFFFFFFFFFFFFFFFFFFFFFFFFFFF AND EQ ISZERO ISZERO PUSH1 0x0 DUP4 PUSH16 0xFFFFFFFFFFFFFFFFFFFFFFFFFFFFFFFF AND EQ ISZERO ISZERO EQ ISZERO SWAP4 POP PUSH1 0x0 DUP3 PUSH16 0xFFFFFFFFFFFFFFFFFFFFFFFFFFFFFFFF AND SUB PUSH2 0x72DA JUMPI DUP13 PUSH1 0x2 SIGNEXTEND DUP15 PUSH1 0x2 SIGNEXTEND SGT PUSH2 0x72BC JUMPI DUP11 DUP4 PUSH1 0x1 ADD DUP2 SWAP1 SSTORE POP DUP10 DUP4 PUSH1 0x2 ADD DUP2 SWAP1 SSTORE POP DUP9 DUP4 PUSH1 0x3 ADD PUSH1 0x7 PUSH2 0x100 EXP DUP2 SLOAD DUP2 PUSH20 0xFFFFFFFFFFFFFFFFFFFFFFFFFFFFFFFFFFFFFFFF MUL NOT AND SWAP1 DUP4 PUSH20 0xFFFFFFFFFFFFFFFFFFFFFFFFFFFFFFFFFFFFFFFF AND MUL OR SWAP1 SSTORE POP DUP8 DUP4 PUSH1 0x3 ADD PUSH1 0x0 PUSH2 0x100 EXP DUP2 SLOAD DUP2 PUSH7 0xFFFFFFFFFFFFFF MUL NOT AND SWAP1 DUP4 PUSH1 0x6 SIGNEXTEND PUSH7 0xFFFFFFFFFFFFFF AND MUL OR SWAP1 SSTORE POP DUP7 DUP4 PUSH1 0x3 ADD PUSH1 0x1B PUSH2 0x100 EXP DUP2 SLOAD DUP2 PUSH4 0xFFFFFFFF MUL NOT AND SWAP1 DUP4 PUSH4 0xFFFFFFFF AND MUL OR SWAP1 SSTORE POP JUMPDEST PUSH1 0x1 DUP4 PUSH1 0x3 ADD PUSH1 0x1F PUSH2 0x100 EXP DUP2 SLOAD DUP2 PUSH1 0xFF MUL NOT AND SWAP1 DUP4 ISZERO ISZERO MUL OR SWAP1 SSTORE POP JUMPDEST DUP1 DUP4 PUSH1 0x0 ADD PUSH1 0x0 PUSH2 0x100 EXP DUP2 SLOAD DUP2 PUSH16 0xFFFFFFFFFFFFFFFFFFFFFFFFFFFFFFFF MUL NOT AND SWAP1 DUP4 PUSH16 0xFFFFFFFFFFFFFFFFFFFFFFFFFFFFFFFF AND MUL OR SWAP1 SSTORE POP DUP6 PUSH2 0x733C JUMPI DUP12 DUP4 PUSH1 0x0 ADD PUSH1 0x10 SWAP1 SLOAD SWAP1 PUSH2 0x100 EXP SWAP1 DIV PUSH1 0xF SIGNEXTEND PUSH2 0x7337 SWAP2 SWAP1 PUSH2 0xA15F JUMP JUMPDEST PUSH2 0x735A JUMP JUMPDEST DUP12 DUP4 PUSH1 0x0 ADD PUSH1 0x10 SWAP1 SLOAD SWAP1 PUSH2 0x100 EXP SWAP1 DIV PUSH1 0xF SIGNEXTEND PUSH2 0x7359 SWAP2 SWAP1 PUSH2 0xA1C7 JUMP JUMPDEST JUMPDEST DUP4 PUSH1 0x0 ADD PUSH1 0x10 PUSH2 0x100 EXP DUP2 SLOAD DUP2 PUSH16 0xFFFFFFFFFFFFFFFFFFFFFFFFFFFFFFFF MUL NOT AND SWAP1 DUP4 PUSH1 0xF SIGNEXTEND PUSH16 0xFFFFFFFFFFFFFFFFFFFFFFFFFFFFFFFF AND MUL OR SWAP1 SSTORE POP POP POP POP SWAP12 SWAP11 POP POP POP POP POP POP POP POP POP POP POP JUMP JUMPDEST PUSH1 0x0 DUP2 DUP4 PUSH2 0x73B7 SWAP2 SWAP1 PUSH2 0x956A JUMP JUMPDEST PUSH1 0x2 SIGNEXTEND EQ PUSH2 0x73C4 JUMPI PUSH1 0x0 DUP1 REVERT JUMPDEST PUSH1 0x0 DUP1 PUSH2 0x73DB DUP4 DUP6 PUSH2 0x73D6 SWAP2 SWAP1 PUSH2 0x945B JUMP JUMPDEST PUSH2 0x5CDD JUMP JUMPDEST SWAP2 POP SWAP2 POP PUSH1 0x0 DUP2 PUSH1 0xFF AND PUSH1 0x1 SWAP1 SHL SWAP1 POP DUP1 DUP7 PUSH1 0x0 DUP6 PUSH1 0x1 SIGNEXTEND PUSH1 0x1 SIGNEXTEND DUP2 MSTORE PUSH1 0x20 ADD SWAP1 DUP2 MSTORE PUSH1 0x20 ADD PUSH1 0x0 KECCAK256 PUSH1 0x0 DUP3 DUP3 SLOAD XOR SWAP3 POP POP DUP2 SWAP1 SSTORE POP POP POP POP POP POP POP JUMP JUMPDEST PUSH1 0x0 DUP1 PUSH1 0x0 DUP9 PUSH1 0x0 DUP10 PUSH1 0x2 SIGNEXTEND PUSH1 0x2 SIGNEXTEND DUP2 MSTORE PUSH1 0x20 ADD SWAP1 DUP2 MSTORE PUSH1 0x20 ADD PUSH1 0x0 KECCAK256 SWAP1 POP PUSH1 0x0 DUP10 PUSH1 0x0 DUP10 PUSH1 0x2 SIGNEXTEND PUSH1 0x2 SIGNEXTEND DUP2 MSTORE PUSH1 0x20 ADD SWAP1 DUP2 MSTORE PUSH1 0x20 ADD PUSH1 0x0 KECCAK256 SWAP1 POP PUSH1 0x0 DUP1 DUP11 PUSH1 0x2 SIGNEXTEND DUP10 PUSH1 0x2 SIGNEXTEND SLT PUSH2 0x7477 JUMPI DUP4 PUSH1 0x1 ADD SLOAD SWAP2 POP DUP4 PUSH1 0x2 ADD SLOAD SWAP1 POP PUSH2 0x749C JUMP JUMPDEST DUP4 PUSH1 0x1 ADD SLOAD DUP9 PUSH2 0x7487 SWAP2 SWAP1 PUSH2 0x8B15 JUMP JUMPDEST SWAP2 POP DUP4 PUSH1 0x2 ADD SLOAD DUP8 PUSH2 0x7499 SWAP2 SWAP1 PUSH2 0x8B15 JUMP JUMPDEST SWAP1 POP JUMPDEST PUSH1 0x0 DUP1 DUP12 PUSH1 0x2 SIGNEXTEND DUP12 PUSH1 0x2 SIGNEXTEND SGT PUSH2 0x74BF JUMPI DUP5 PUSH1 0x1 ADD SLOAD SWAP2 POP DUP5 PUSH1 0x2 ADD SLOAD SWAP1 POP PUSH2 0x74E4 JUMP JUMPDEST DUP5 PUSH1 0x1 ADD SLOAD DUP11 PUSH2 0x74CF SWAP2 SWAP1 PUSH2 0x8B15 JUMP JUMPDEST SWAP2 POP DUP5 PUSH1 0x2 ADD SLOAD DUP10 PUSH2 0x74E1 SWAP2 SWAP1 PUSH2 0x8B15 JUMP JUMPDEST SWAP1 POP JUMPDEST DUP4 DUP3 PUSH2 0x74F0 SWAP2 SWAP1 PUSH2 0x8A29 JUMP JUMPDEST DUP11 PUSH2 0x74FB SWAP2 SWAP1 PUSH2 0x8B15 JUMP JUMPDEST SWAP8 POP DUP3 DUP2 PUSH2 0x7509 SWAP2 SWAP1 PUSH2 0x8A29 JUMP JUMPDEST DUP10 PUSH2 0x7514 SWAP2 SWAP1 PUSH2 0x8B15 JUMP JUMPDEST SWAP7 POP POP POP POP POP POP POP SWAP7 POP SWAP7 SWAP5 POP POP POP POP POP JUMP JUMPDEST PUSH1 0x0 DUP5 PUSH1 0x40 MLOAD DUP1 PUSH1 0xA0 ADD PUSH1 0x40 MSTORE SWAP1 DUP2 PUSH1 0x0 DUP3 ADD PUSH1 0x0 SWAP1 SLOAD SWAP1 PUSH2 0x100 EXP SWAP1 DIV PUSH16 0xFFFFFFFFFFFFFFFFFFFFFFFFFFFFFFFF AND PUSH16 0xFFFFFFFFFFFFFFFFFFFFFFFFFFFFFFFF AND PUSH16 0xFFFFFFFFFFFFFFFFFFFFFFFFFFFFFFFF AND DUP2 MSTORE PUSH1 0x20 ADD PUSH1 0x1 DUP3 ADD SLOAD DUP2 MSTORE PUSH1 0x20 ADD PUSH1 0x2 DUP3 ADD SLOAD DUP2 MSTORE PUSH1 0x20 ADD PUSH1 0x3 DUP3 ADD PUSH1 0x0 SWAP1 SLOAD SWAP1 PUSH2 0x100 EXP SWAP1 DIV PUSH16 0xFFFFFFFFFFFFFFFFFFFFFFFFFFFFFFFF AND PUSH16 0xFFFFFFFFFFFFFFFFFFFFFFFFFFFFFFFF AND PUSH16 0xFFFFFFFFFFFFFFFFFFFFFFFFFFFFFFFF AND DUP2 MSTORE PUSH1 0x20 ADD PUSH1 0x3 DUP3 ADD PUSH1 0x10 SWAP1 SLOAD SWAP1 PUSH2 0x100 EXP SWAP1 DIV PUSH16 0xFFFFFFFFFFFFFFFFFFFFFFFFFFFFFFFF AND PUSH16 0xFFFFFFFFFFFFFFFFFFFFFFFFFFFFFFFF AND PUSH16 0xFFFFFFFFFFFFFFFFFFFFFFFFFFFFFFFF AND DUP2 MSTORE POP POP SWAP1 POP PUSH1 0x0 DUP1 DUP6 PUSH1 0xF SIGNEXTEND SUB PUSH2 0x769A JUMPI PUSH1 0x0 DUP3 PUSH1 0x0 ADD MLOAD PUSH16 0xFFFFFFFFFFFFFFFFFFFFFFFFFFFFFFFF AND SUB PUSH2 0x768E JUMPI PUSH1 0x40 MLOAD PUSH32 0x8C379A000000000000000000000000000000000000000000000000000000000 DUP2 MSTORE PUSH1 0x4 ADD PUSH2 0x7685 SWAP1 PUSH2 0xA27B JUMP JUMPDEST PUSH1 0x40 MLOAD DUP1 SWAP2 SUB SWAP1 REVERT JUMPDEST DUP2 PUSH1 0x0 ADD MLOAD SWAP1 POP PUSH2 0x76AB JUMP JUMPDEST PUSH2 0x76A8 DUP3 PUSH1 0x0 ADD MLOAD DUP7 PUSH2 0x4906 JUMP JUMPDEST SWAP1 POP JUMPDEST PUSH1 0x0 PUSH2 0x76EE DUP4 PUSH1 0x20 ADD MLOAD DUP7 PUSH2 0x76C0 SWAP2 SWAP1 PUSH2 0x8B15 JUMP JUMPDEST DUP5 PUSH1 0x0 ADD MLOAD PUSH16 0xFFFFFFFFFFFFFFFFFFFFFFFFFFFFFFFF AND PUSH17 0x100000000000000000000000000000000 PUSH2 0x4374 JUMP JUMPDEST SWAP1 POP PUSH1 0x0 PUSH2 0x7733 DUP5 PUSH1 0x40 ADD MLOAD DUP7 PUSH2 0x7705 SWAP2 SWAP1 PUSH2 0x8B15 JUMP JUMPDEST DUP6 PUSH1 0x0 ADD MLOAD PUSH16 0xFFFFFFFFFFFFFFFFFFFFFFFFFFFFFFFF AND PUSH17 0x100000000000000000000000000000000 PUSH2 0x4374 JUMP JUMPDEST SWAP1 POP PUSH1 0x0 DUP8 PUSH1 0xF SIGNEXTEND EQ PUSH2 0x777C JUMPI DUP3 DUP9 PUSH1 0x0 ADD PUSH1 0x0 PUSH2 0x100 EXP DUP2 SLOAD DUP2 PUSH16 0xFFFFFFFFFFFFFFFFFFFFFFFFFFFFFFFF MUL NOT AND SWAP1 DUP4 PUSH16 0xFFFFFFFFFFFFFFFFFFFFFFFFFFFFFFFF AND MUL OR SWAP1 SSTORE POP JUMPDEST DUP6 DUP9 PUSH1 0x1 ADD DUP2 SWAP1 SSTORE POP DUP5 DUP9 PUSH1 0x2 ADD DUP2 SWAP1 SSTORE POP PUSH1 0x0 DUP3 PUSH16 0xFFFFFFFFFFFFFFFFFFFFFFFFFFFFFFFF AND GT DUP1 PUSH2 0x77C1 JUMPI POP PUSH1 0x0 DUP2 PUSH16 0xFFFFFFFFFFFFFFFFFFFFFFFFFFFFFFFF AND GT JUMPDEST ISZERO PUSH2 0x7891 JUMPI DUP2 DUP9 PUSH1 0x3 ADD PUSH1 0x0 DUP3 DUP3 DUP3 SWAP1 SLOAD SWAP1 PUSH2 0x100 EXP SWAP1 DIV PUSH16 0xFFFFFFFFFFFFFFFFFFFFFFFFFFFFFFFF AND PUSH2 0x77F5 SWAP2 SWAP1 PUSH2 0x8B49 JUMP JUMPDEST SWAP3 POP PUSH2 0x100 EXP DUP2 SLOAD DUP2 PUSH16 0xFFFFFFFFFFFFFFFFFFFFFFFFFFFFFFFF MUL NOT AND SWAP1 DUP4 PUSH16 0xFFFFFFFFFFFFFFFFFFFFFFFFFFFFFFFF AND MUL OR SWAP1 SSTORE POP DUP1 DUP9 PUSH1 0x3 ADD PUSH1 0x10 DUP3 DUP3 DUP3 SWAP1 SLOAD SWAP1 PUSH2 0x100 EXP SWAP1 DIV PUSH16 0xFFFFFFFFFFFFFFFFFFFFFFFFFFFFFFFF AND PUSH2 0x785A SWAP2 SWAP1 PUSH2 0x8B49 JUMP JUMPDEST SWAP3 POP PUSH2 0x100 EXP DUP2 SLOAD DUP2 PUSH16 0xFFFFFFFFFFFFFFFFFFFFFFFFFFFFFFFF MUL NOT AND SWAP1 DUP4 PUSH16 0xFFFFFFFFFFFFFFFFFFFFFFFFFFFFFFFF AND MUL OR SWAP1 SSTORE POP JUMPDEST POP POP POP POP POP POP POP POP JUMP JUMPDEST DUP2 PUSH1 0x0 DUP3 PUSH1 0x2 SIGNEXTEND PUSH1 0x2 SIGNEXTEND DUP2 MSTORE PUSH1 0x20 ADD SWAP1 DUP2 MSTORE PUSH1 0x20 ADD PUSH1 0x0 KECCAK256 PUSH1 0x0 DUP1 DUP3 ADD PUSH1 0x0 PUSH2 0x100 EXP DUP2 SLOAD SWAP1 PUSH16 0xFFFFFFFFFFFFFFFFFFFFFFFFFFFFFFFF MUL NOT AND SWAP1 SSTORE PUSH1 0x0 DUP3 ADD PUSH1 0x10 PUSH2 0x100 EXP DUP2 SLOAD SWAP1 PUSH16 0xFFFFFFFFFFFFFFFFFFFFFFFFFFFFFFFF MUL NOT AND SWAP1 SSTORE PUSH1 0x1 DUP3 ADD PUSH1 0x0 SWAP1 SSTORE PUSH1 0x2 DUP3 ADD PUSH1 0x0 SWAP1 SSTORE PUSH1 0x3 DUP3 ADD PUSH1 0x0 PUSH2 0x100 EXP DUP2 SLOAD SWAP1 PUSH7 0xFFFFFFFFFFFFFF MUL NOT AND SWAP1 SSTORE PUSH1 0x3 DUP3 ADD PUSH1 0x7 PUSH2 0x100 EXP DUP2 SLOAD SWAP1 PUSH20 0xFFFFFFFFFFFFFFFFFFFFFFFFFFFFFFFFFFFFFFFF MUL NOT AND SWAP1 SSTORE PUSH1 0x3 DUP3 ADD PUSH1 0x1B PUSH2 0x100 EXP DUP2 SLOAD SWAP1 PUSH4 0xFFFFFFFF MUL NOT AND SWAP1 SSTORE PUSH1 0x3 DUP3 ADD PUSH1 0x1F PUSH2 0x100 EXP DUP2 SLOAD SWAP1 PUSH1 0xFF MUL NOT AND SWAP1 SSTORE POP POP POP POP JUMP JUMPDEST PUSH1 0x0 DUP3 DUP3 DUP5 PUSH2 0x798B SWAP2 SWAP1 PUSH2 0x8A29 JUMP JUMPDEST SWAP2 POP DUP2 LT ISZERO PUSH2 0x7999 JUMPI PUSH1 0x0 DUP1 REVERT JUMPDEST SWAP3 SWAP2 POP POP JUMP JUMPDEST PUSH1 0x0 DUP2 DUP3 SWAP2 POP DUP2 PUSH20 0xFFFFFFFFFFFFFFFFFFFFFFFFFFFFFFFFFFFFFFFF AND EQ PUSH2 0x79C6 JUMPI PUSH1 0x0 DUP1 REVERT JUMPDEST SWAP2 SWAP1 POP JUMP JUMPDEST PUSH1 0x40 MLOAD DUP1 PUSH1 0xE0 ADD PUSH1 0x40 MSTORE DUP1 PUSH1 0x0 PUSH20 0xFFFFFFFFFFFFFFFFFFFFFFFFFFFFFFFFFFFFFFFF AND DUP2 MSTORE PUSH1 0x20 ADD PUSH1 0x0 PUSH1 0x2 SIGNEXTEND DUP2 MSTORE PUSH1 0x20 ADD PUSH1 0x0 ISZERO ISZERO DUP2 MSTORE PUSH1 0x20 ADD PUSH1 0x0 PUSH20 0xFFFFFFFFFFFFFFFFFFFFFFFFFFFFFFFFFFFFFFFF AND DUP2 MSTORE PUSH1 0x20 ADD PUSH1 0x0 DUP2 MSTORE PUSH1 0x20 ADD PUSH1 0x0 DUP2 MSTORE PUSH1 0x20 ADD PUSH1 0x0 DUP2 MSTORE POP SWAP1 JUMP JUMPDEST PUSH1 0x40 MLOAD DUP1 PUSH1 0x80 ADD PUSH1 0x40 MSTORE DUP1 PUSH1 0x0 PUSH4 0xFFFFFFFF AND DUP2 MSTORE PUSH1 0x20 ADD PUSH1 0x0 PUSH1 0x6 SIGNEXTEND DUP2 MSTORE PUSH1 0x20 ADD PUSH1 0x0 PUSH20 0xFFFFFFFFFFFFFFFFFFFFFFFFFFFFFFFFFFFFFFFF AND DUP2 MSTORE PUSH1 0x20 ADD PUSH1 0x0 ISZERO ISZERO DUP2 MSTORE POP SWAP1 JUMP JUMPDEST PUSH1 0x0 PUSH20 0xFFFFFFFFFFFFFFFFFFFFFFFFFFFFFFFFFFFFFFFF DUP3 AND SWAP1 POP SWAP2 SWAP1 POP JUMP JUMPDEST PUSH1 0x0 PUSH2 0x7AAD DUP3 PUSH2 0x7A82 JUMP JUMPDEST SWAP1 POP SWAP2 SWAP1 POP JUMP JUMPDEST PUSH2 0x7ABD DUP2 PUSH2 0x7AA2 JUMP JUMPDEST DUP3 MSTORE POP POP JUMP JUMPDEST PUSH1 0x0 PUSH1 0x20 DUP3 ADD SWAP1 POP PUSH2 0x7AD8 PUSH1 0x0 DUP4 ADD DUP5 PUSH2 0x7AB4 JUMP JUMPDEST SWAP3 SWAP2 POP POP JUMP JUMPDEST PUSH1 0x0 DUP1 REVERT JUMPDEST PUSH1 0x0 DUP1 REVERT JUMPDEST PUSH2 0x7AF1 DUP2 PUSH2 0x7AA2 JUMP JUMPDEST DUP2 EQ PUSH2 0x7AFC JUMPI PUSH1 0x0 DUP1 REVERT JUMPDEST POP JUMP JUMPDEST PUSH1 0x0 DUP2 CALLDATALOAD SWAP1 POP PUSH2 0x7B0E DUP2 PUSH2 0x7AE8 JUMP JUMPDEST SWAP3 SWAP2 POP POP JUMP JUMPDEST PUSH1 0x0 DUP2 ISZERO ISZERO SWAP1 POP SWAP2 SWAP1 POP JUMP JUMPDEST PUSH2 0x7B29 DUP2 PUSH2 0x7B14 JUMP JUMPDEST DUP2 EQ PUSH2 0x7B34 JUMPI PUSH1 0x0 DUP1 REVERT JUMPDEST POP JUMP JUMPDEST PUSH1 0x0 DUP2 CALLDATALOAD SWAP1 POP PUSH2 0x7B46 DUP2 PUSH2 0x7B20 JUMP JUMPDEST SWAP3 SWAP2 POP POP JUMP JUMPDEST PUSH1 0x0 DUP2 SWAP1 POP SWAP2 SWAP1 POP JUMP JUMPDEST PUSH2 0x7B5F DUP2 PUSH2 0x7B4C JUMP JUMPDEST DUP2 EQ PUSH2 0x7B6A JUMPI PUSH1 0x0 DUP1 REVERT JUMPDEST POP JUMP JUMPDEST PUSH1 0x0 DUP2 CALLDATALOAD SWAP1 POP PUSH2 0x7B7C DUP2 PUSH2 0x7B56 JUMP JUMPDEST SWAP3 SWAP2 POP POP JUMP JUMPDEST PUSH2 0x7B8B DUP2 PUSH2 0x7A82 JUMP JUMPDEST DUP2 EQ PUSH2 0x7B96 JUMPI PUSH1 0x0 DUP1 REVERT JUMPDEST POP JUMP JUMPDEST PUSH1 0x0 DUP2 CALLDATALOAD SWAP1 POP PUSH2 0x7BA8 DUP2 PUSH2 0x7B82 JUMP JUMPDEST SWAP3 SWAP2 POP POP JUMP JUMPDEST PUSH1 0x0 DUP1 REVERT JUMPDEST PUSH1 0x0 DUP1 REVERT JUMPDEST PUSH1 0x0 DUP1 REVERT JUMPDEST PUSH1 0x0 DUP1 DUP4 PUSH1 0x1F DUP5 ADD SLT PUSH2 0x7BD3 JUMPI PUSH2 0x7BD2 PUSH2 0x7BAE JUMP JUMPDEST JUMPDEST DUP3 CALLDATALOAD SWAP1 POP PUSH8 0xFFFFFFFFFFFFFFFF DUP2 GT ISZERO PUSH2 0x7BF0 JUMPI PUSH2 0x7BEF PUSH2 0x7BB3 JUMP JUMPDEST JUMPDEST PUSH1 0x20 DUP4 ADD SWAP2 POP DUP4 PUSH1 0x1 DUP3 MUL DUP4 ADD GT ISZERO PUSH2 0x7C0C JUMPI PUSH2 0x7C0B PUSH2 0x7BB8 JUMP JUMPDEST JUMPDEST SWAP3 POP SWAP3 SWAP1 POP JUMP JUMPDEST PUSH1 0x0 DUP1 PUSH1 0x0 DUP1 PUSH1 0x0 DUP1 PUSH1 0xA0 DUP8 DUP10 SUB SLT ISZERO PUSH2 0x7C30 JUMPI PUSH2 0x7C2F PUSH2 0x7ADE JUMP JUMPDEST JUMPDEST PUSH1 0x0 PUSH2 0x7C3E DUP10 DUP3 DUP11 ADD PUSH2 0x7AFF JUMP JUMPDEST SWAP7 POP POP PUSH1 0x20 PUSH2 0x7C4F DUP10 DUP3 DUP11 ADD PUSH2 0x7B37 JUMP JUMPDEST SWAP6 POP POP PUSH1 0x40 PUSH2 0x7C60 DUP10 DUP3 DUP11 ADD PUSH2 0x7B6D JUMP JUMPDEST SWAP5 POP POP PUSH1 0x60 PUSH2 0x7C71 DUP10 DUP3 DUP11 ADD PUSH2 0x7B99 JUMP JUMPDEST SWAP4 POP POP PUSH1 0x80 DUP8 ADD CALLDATALOAD PUSH8 0xFFFFFFFFFFFFFFFF DUP2 GT ISZERO PUSH2 0x7C92 JUMPI PUSH2 0x7C91 PUSH2 0x7AE3 JUMP JUMPDEST JUMPDEST PUSH2 0x7C9E DUP10 DUP3 DUP11 ADD PUSH2 0x7BBD JUMP JUMPDEST SWAP3 POP SWAP3 POP POP SWAP3 SWAP6 POP SWAP3 SWAP6 POP SWAP3 SWAP6 JUMP JUMPDEST PUSH2 0x7CB6 DUP2 PUSH2 0x7B4C JUMP JUMPDEST DUP3 MSTORE POP POP JUMP JUMPDEST PUSH1 0x0 PUSH1 0x40 DUP3 ADD SWAP1 POP PUSH2 0x7CD1 PUSH1 0x0 DUP4 ADD DUP6 PUSH2 0x7CAD JUMP JUMPDEST PUSH2 0x7CDE PUSH1 0x20 DUP4 ADD DUP5 PUSH2 0x7CAD JUMP JUMPDEST SWAP4 SWAP3 POP POP POP JUMP JUMPDEST PUSH1 0x0 PUSH16 0xFFFFFFFFFFFFFFFFFFFFFFFFFFFFFFFF DUP3 AND SWAP1 POP SWAP2 SWAP1 POP JUMP JUMPDEST PUSH2 0x7D0A DUP2 PUSH2 0x7CE5 JUMP JUMPDEST DUP3 MSTORE POP POP JUMP JUMPDEST PUSH1 0x0 PUSH1 0x20 DUP3 ADD SWAP1 POP PUSH2 0x7D25 PUSH1 0x0 DUP4 ADD DUP5 PUSH2 0x7D01 JUMP JUMPDEST SWAP3 SWAP2 POP POP JUMP JUMPDEST PUSH1 0x0 PUSH1 0x40 DUP3 ADD SWAP1 POP PUSH2 0x7D40 PUSH1 0x0 DUP4 ADD DUP6 PUSH2 0x7D01 JUMP JUMPDEST PUSH2 0x7D4D PUSH1 0x20 DUP4 ADD DUP5 PUSH2 0x7D01 JUMP JUMPDEST SWAP4 SWAP3 POP POP POP JUMP JUMPDEST PUSH1 0x0 DUP2 SWAP1 POP SWAP2 SWAP1 POP JUMP JUMPDEST PUSH2 0x7D67 DUP2 PUSH2 0x7D54 JUMP JUMPDEST DUP2 EQ PUSH2 0x7D72 JUMPI PUSH1 0x0 DUP1 REVERT JUMPDEST POP JUMP JUMPDEST PUSH1 0x0 DUP2 CALLDATALOAD SWAP1 POP PUSH2 0x7D84 DUP2 PUSH2 0x7D5E JUMP JUMPDEST SWAP3 SWAP2 POP POP JUMP JUMPDEST PUSH1 0x0 PUSH1 0x20 DUP3 DUP5 SUB SLT ISZERO PUSH2 0x7DA0 JUMPI PUSH2 0x7D9F PUSH2 0x7ADE JUMP JUMPDEST JUMPDEST PUSH1 0x0 PUSH2 0x7DAE DUP5 DUP3 DUP6 ADD PUSH2 0x7D75 JUMP JUMPDEST SWAP2 POP POP SWAP3 SWAP2 POP POP JUMP JUMPDEST PUSH1 0x0 PUSH4 0xFFFFFFFF DUP3 AND SWAP1 POP SWAP2 SWAP1 POP JUMP JUMPDEST PUSH2 0x7DD0 DUP2 PUSH2 0x7DB7 JUMP JUMPDEST DUP3 MSTORE POP POP JUMP JUMPDEST PUSH1 0x0 DUP2 PUSH1 0x6 SIGNEXTEND SWAP1 POP SWAP2 SWAP1 POP JUMP JUMPDEST PUSH2 0x7DEC DUP2 PUSH2 0x7DD6 JUMP JUMPDEST DUP3 MSTORE POP POP JUMP JUMPDEST PUSH2 0x7DFB DUP2 PUSH2 0x7A82 JUMP JUMPDEST DUP3 MSTORE POP POP JUMP JUMPDEST PUSH2 0x7E0A DUP2 PUSH2 0x7B14 JUMP JUMPDEST DUP3 MSTORE POP POP JUMP JUMPDEST PUSH1 0x0 PUSH1 0x80 DUP3 ADD SWAP1 POP PUSH2 0x7E25 PUSH1 0x0 DUP4 ADD DUP8 PUSH2 0x7DC7 JUMP JUMPDEST PUSH2 0x7E32 PUSH1 0x20 DUP4 ADD DUP7 PUSH2 0x7DE3 JUMP JUMPDEST PUSH2 0x7E3F PUSH1 0x40 DUP4 ADD DUP6 PUSH2 0x7DF2 JUMP JUMPDEST PUSH2 0x7E4C PUSH1 0x60 DUP4 ADD DUP5 PUSH2 0x7E01 JUMP JUMPDEST SWAP6 SWAP5 POP POP POP POP POP JUMP JUMPDEST PUSH1 0x0 PUSH2 0xFFFF DUP3 AND SWAP1 POP SWAP2 SWAP1 POP JUMP JUMPDEST PUSH2 0x7E6C DUP2 PUSH2 0x7E55 JUMP JUMPDEST DUP2 EQ PUSH2 0x7E77 JUMPI PUSH1 0x0 DUP1 REVERT JUMPDEST POP JUMP JUMPDEST PUSH1 0x0 DUP2 CALLDATALOAD SWAP1 POP PUSH2 0x7E89 DUP2 PUSH2 0x7E63 JUMP JUMPDEST SWAP3 SWAP2 POP POP JUMP JUMPDEST PUSH1 0x0 PUSH1 0x20 DUP3 DUP5 SUB SLT ISZERO PUSH2 0x7EA5 JUMPI PUSH2 0x7EA4 PUSH2 0x7ADE JUMP JUMPDEST JUMPDEST PUSH1 0x0 PUSH2 0x7EB3 DUP5 DUP3 DUP6 ADD PUSH2 0x7E7A JUMP JUMPDEST SWAP2 POP POP SWAP3 SWAP2 POP POP JUMP JUMPDEST PUSH1 0x0 DUP2 PUSH1 0x2 SIGNEXTEND SWAP1 POP SWAP2 SWAP1 POP JUMP JUMPDEST PUSH2 0x7ED2 DUP2 PUSH2 0x7EBC JUMP JUMPDEST DUP3 MSTORE POP POP JUMP JUMPDEST PUSH2 0x7EE1 DUP2 PUSH2 0x7E55 JUMP JUMPDEST DUP3 MSTORE POP POP JUMP JUMPDEST PUSH1 0x0 PUSH1 0xFF DUP3 AND SWAP1 POP SWAP2 SWAP1 POP JUMP JUMPDEST PUSH2 0x7EFD DUP2 PUSH2 0x7EE7 JUMP JUMPDEST DUP3 MSTORE POP POP JUMP JUMPDEST PUSH1 0x0 PUSH1 0xE0 DUP3 ADD SWAP1 POP PUSH2 0x7F18 PUSH1 0x0 DUP4 ADD DUP11 PUSH2 0x7DF2 JUMP JUMPDEST PUSH2 0x7F25 PUSH1 0x20 DUP4 ADD DUP10 PUSH2 0x7EC9 JUMP JUMPDEST PUSH2 0x7F32 PUSH1 0x40 DUP4 ADD DUP9 PUSH2 0x7ED8 JUMP JUMPDEST PUSH2 0x7F3F PUSH1 0x60 DUP4 ADD DUP8 PUSH2 0x7ED8 JUMP JUMPDEST PUSH2 0x7F4C PUSH1 0x80 DUP4 ADD DUP7 PUSH2 0x7ED8 JUMP JUMPDEST PUSH2 0x7F59 PUSH1 0xA0 DUP4 ADD DUP6 PUSH2 0x7EF4 JUMP JUMPDEST PUSH2 0x7F66 PUSH1 0xC0 DUP4 ADD DUP5 PUSH2 0x7E01 JUMP JUMPDEST SWAP9 SWAP8 POP POP POP POP POP POP POP POP JUMP JUMPDEST PUSH2 0x7F7B DUP2 PUSH2 0x7EBC JUMP JUMPDEST DUP2 EQ PUSH2 0x7F86 JUMPI PUSH1 0x0 DUP1 REVERT JUMPDEST POP JUMP JUMPDEST PUSH1 0x0 DUP2 CALLDATALOAD SWAP1 POP PUSH2 0x7F98 DUP2 PUSH2 0x7F72 JUMP JUMPDEST SWAP3 SWAP2 POP POP JUMP JUMPDEST PUSH2 0x7FA7 DUP2 PUSH2 0x7CE5 JUMP JUMPDEST DUP2 EQ PUSH2 0x7FB2 JUMPI PUSH1 0x0 DUP1 REVERT JUMPDEST POP JUMP JUMPDEST PUSH1 0x0 DUP2 CALLDATALOAD SWAP1 POP PUSH2 0x7FC4 DUP2 PUSH2 0x7F9E JUMP JUMPDEST SWAP3 SWAP2 POP POP JUMP JUMPDEST PUSH1 0x0 DUP1 PUSH1 0x0 DUP1 PUSH1 0x0 DUP1 PUSH1 0xA0 DUP8 DUP10 SUB SLT ISZERO PUSH2 0x7FE7 JUMPI PUSH2 0x7FE6 PUSH2 0x7ADE JUMP JUMPDEST JUMPDEST PUSH1 0x0 PUSH2 0x7FF5 DUP10 DUP3 DUP11 ADD PUSH2 0x7AFF JUMP JUMPDEST SWAP7 POP POP PUSH1 0x20 PUSH2 0x8006 DUP10 DUP3 DUP11 ADD PUSH2 0x7F89 JUMP JUMPDEST SWAP6 POP POP PUSH1 0x40 PUSH2 0x8017 DUP10 DUP3 DUP11 ADD PUSH2 0x7F89 JUMP JUMPDEST SWAP5 POP POP PUSH1 0x60 PUSH2 0x8028 DUP10 DUP3 DUP11 ADD PUSH2 0x7FB5 JUMP JUMPDEST SWAP4 POP POP PUSH1 0x80 DUP8 ADD CALLDATALOAD PUSH8 0xFFFFFFFFFFFFFFFF DUP2 GT ISZERO PUSH2 0x8049 JUMPI PUSH2 0x8048 PUSH2 0x7AE3 JUMP JUMPDEST JUMPDEST PUSH2 0x8055 DUP10 DUP3 DUP11 ADD PUSH2 0x7BBD JUMP JUMPDEST SWAP3 POP SWAP3 POP POP SWAP3 SWAP6 POP SWAP3 SWAP6 POP SWAP3 SWAP6 JUMP JUMPDEST PUSH2 0x806D DUP2 PUSH2 0x7D54 JUMP JUMPDEST DUP3 MSTORE POP POP JUMP JUMPDEST PUSH1 0x0 PUSH1 0x40 DUP3 ADD SWAP1 POP PUSH2 0x8088 PUSH1 0x0 DUP4 ADD DUP6 PUSH2 0x8064 JUMP JUMPDEST PUSH2 0x8095 PUSH1 0x20 DUP4 ADD DUP5 PUSH2 0x8064 JUMP JUMPDEST SWAP4 SWAP3 POP POP POP JUMP JUMPDEST PUSH1 0x0 PUSH1 0x20 DUP3 ADD SWAP1 POP PUSH2 0x80B1 PUSH1 0x0 DUP4 ADD DUP5 PUSH2 0x8064 JUMP JUMPDEST SWAP3 SWAP2 POP POP JUMP JUMPDEST PUSH1 0x0 DUP1 PUSH1 0x0 DUP1 PUSH1 0x0 PUSH1 0x80 DUP7 DUP9 SUB SLT ISZERO PUSH2 0x80D3 JUMPI PUSH2 0x80D2 PUSH2 0x7ADE JUMP JUMPDEST JUMPDEST PUSH1 0x0 PUSH2 0x80E1 DUP9 DUP3 DUP10 ADD PUSH2 0x7AFF JUMP JUMPDEST SWAP6 POP POP PUSH1 0x20 PUSH2 0x80F2 DUP9 DUP3 DUP10 ADD PUSH2 0x7D75 JUMP JUMPDEST SWAP5 POP POP PUSH1 0x40 PUSH2 0x8103 DUP9 DUP3 DUP10 ADD PUSH2 0x7D75 JUMP JUMPDEST SWAP4 POP POP PUSH1 0x60 DUP7 ADD CALLDATALOAD PUSH8 0xFFFFFFFFFFFFFFFF DUP2 GT ISZERO PUSH2 0x8124 JUMPI PUSH2 0x8123 PUSH2 0x7AE3 JUMP JUMPDEST JUMPDEST PUSH2 0x8130 DUP9 DUP3 DUP10 ADD PUSH2 0x7BBD JUMP JUMPDEST SWAP3 POP SWAP3 POP POP SWAP3 SWAP6 POP SWAP3 SWAP6 SWAP1 SWAP4 POP JUMP JUMPDEST PUSH1 0x0 DUP1 PUSH1 0x0 DUP1 PUSH1 0x0 PUSH1 0xA0 DUP7 DUP9 SUB SLT ISZERO PUSH2 0x815B JUMPI PUSH2 0x815A PUSH2 0x7ADE JUMP JUMPDEST JUMPDEST PUSH1 0x0 PUSH2 0x8169 DUP9 DUP3 DUP10 ADD PUSH2 0x7AFF JUMP JUMPDEST SWAP6 POP POP PUSH1 0x20 PUSH2 0x817A DUP9 DUP3 DUP10 ADD PUSH2 0x7F89 JUMP JUMPDEST SWAP5 POP POP PUSH1 0x40 PUSH2 0x818B DUP9 DUP3 DUP10 ADD PUSH2 0x7F89 JUMP JUMPDEST SWAP4 POP POP PUSH1 0x60 PUSH2 0x819C DUP9 DUP3 DUP10 ADD PUSH2 0x7FB5 JUMP JUMPDEST SWAP3 POP POP PUSH1 0x80 PUSH2 0x81AD DUP9 DUP3 DUP10 ADD PUSH2 0x7FB5 JUMP JUMPDEST SWAP2 POP POP SWAP3 SWAP6 POP SWAP3 SWAP6 SWAP1 SWAP4 POP JUMP JUMPDEST PUSH1 0x0 DUP2 SWAP1 POP SWAP2 SWAP1 POP JUMP JUMPDEST PUSH2 0x81CD DUP2 PUSH2 0x81BA JUMP JUMPDEST DUP2 EQ PUSH2 0x81D8 JUMPI PUSH1 0x0 DUP1 REVERT JUMPDEST POP JUMP JUMPDEST PUSH1 0x0 DUP2 CALLDATALOAD SWAP1 POP PUSH2 0x81EA DUP2 PUSH2 0x81C4 JUMP JUMPDEST SWAP3 SWAP2 POP POP JUMP JUMPDEST PUSH1 0x0 PUSH1 0x20 DUP3 DUP5 SUB SLT ISZERO PUSH2 0x8206 JUMPI PUSH2 0x8205 PUSH2 0x7ADE JUMP JUMPDEST JUMPDEST PUSH1 0x0 PUSH2 0x8214 DUP5 DUP3 DUP6 ADD PUSH2 0x81DB JUMP JUMPDEST SWAP2 POP POP SWAP3 SWAP2 POP POP JUMP JUMPDEST PUSH1 0x0 PUSH1 0xA0 DUP3 ADD SWAP1 POP PUSH2 0x8232 PUSH1 0x0 DUP4 ADD DUP9 PUSH2 0x7D01 JUMP JUMPDEST PUSH2 0x823F PUSH1 0x20 DUP4 ADD DUP8 PUSH2 0x8064 JUMP JUMPDEST PUSH2 0x824C PUSH1 0x40 DUP4 ADD DUP7 PUSH2 0x8064 JUMP JUMPDEST PUSH2 0x8259 PUSH1 0x60 DUP4 ADD DUP6 PUSH2 0x7D01 JUMP JUMPDEST PUSH2 0x8266 PUSH1 0x80 DUP4 ADD DUP5 PUSH2 0x7D01 JUMP JUMPDEST SWAP7 SWAP6 POP POP POP POP POP POP JUMP JUMPDEST PUSH1 0x0 DUP2 PUSH1 0x1 SIGNEXTEND SWAP1 POP SWAP2 SWAP1 POP JUMP JUMPDEST PUSH2 0x8286 DUP2 PUSH2 0x8270 JUMP JUMPDEST DUP2 EQ PUSH2 0x8291 JUMPI PUSH1 0x0 DUP1 REVERT JUMPDEST POP JUMP JUMPDEST PUSH1 0x0 DUP2 CALLDATALOAD SWAP1 POP PUSH2 0x82A3 DUP2 PUSH2 0x827D JUMP JUMPDEST SWAP3 SWAP2 POP POP JUMP JUMPDEST PUSH1 0x0 PUSH1 0x20 DUP3 DUP5 SUB SLT ISZERO PUSH2 0x82BF JUMPI PUSH2 0x82BE PUSH2 0x7ADE JUMP JUMPDEST JUMPDEST PUSH1 0x0 PUSH2 0x82CD DUP5 DUP3 DUP6 ADD PUSH2 0x8294 JUMP JUMPDEST SWAP2 POP POP SWAP3 SWAP2 POP POP JUMP JUMPDEST PUSH2 0x82DF DUP2 PUSH2 0x7EE7 JUMP JUMPDEST DUP2 EQ PUSH2 0x82EA JUMPI PUSH1 0x0 DUP1 REVERT JUMPDEST POP JUMP JUMPDEST PUSH1 0x0 DUP2 CALLDATALOAD SWAP1 POP PUSH2 0x82FC DUP2 PUSH2 0x82D6 JUMP JUMPDEST SWAP3 SWAP2 POP POP JUMP JUMPDEST PUSH1 0x0 DUP1 PUSH1 0x40 DUP4 DUP6 SUB SLT ISZERO PUSH2 0x8319 JUMPI PUSH2 0x8318 PUSH2 0x7ADE JUMP JUMPDEST JUMPDEST PUSH1 0x0 PUSH2 0x8327 DUP6 DUP3 DUP7 ADD PUSH2 0x82ED JUMP JUMPDEST SWAP3 POP POP PUSH1 0x20 PUSH2 0x8338 DUP6 DUP3 DUP7 ADD PUSH2 0x82ED JUMP JUMPDEST SWAP2 POP POP SWAP3 POP SWAP3 SWAP1 POP JUMP JUMPDEST PUSH1 0x0 DUP1 PUSH1 0x0 PUSH1 0x60 DUP5 DUP7 SUB SLT ISZERO PUSH2 0x835B JUMPI PUSH2 0x835A PUSH2 0x7ADE JUMP JUMPDEST JUMPDEST PUSH1 0x0 PUSH2 0x8369 DUP7 DUP3 DUP8 ADD PUSH2 0x7AFF JUMP JUMPDEST SWAP4 POP POP PUSH1 0x20 PUSH2 0x837A DUP7 DUP3 DUP8 ADD PUSH2 0x7FB5 JUMP JUMPDEST SWAP3 POP POP PUSH1 0x40 PUSH2 0x838B DUP7 DUP3 DUP8 ADD PUSH2 0x7FB5 JUMP JUMPDEST SWAP2 POP POP SWAP3 POP SWAP3 POP SWAP3 JUMP JUMPDEST PUSH1 0x0 DUP1 DUP4 PUSH1 0x1F DUP5 ADD SLT PUSH2 0x83AB JUMPI PUSH2 0x83AA PUSH2 0x7BAE JUMP JUMPDEST JUMPDEST DUP3 CALLDATALOAD SWAP1 POP PUSH8 0xFFFFFFFFFFFFFFFF DUP2 GT ISZERO PUSH2 0x83C8 JUMPI PUSH2 0x83C7 PUSH2 0x7BB3 JUMP JUMPDEST JUMPDEST PUSH1 0x20 DUP4 ADD SWAP2 POP DUP4 PUSH1 0x20 DUP3 MUL DUP4 ADD GT ISZERO PUSH2 0x83E4 JUMPI PUSH2 0x83E3 PUSH2 0x7BB8 JUMP JUMPDEST JUMPDEST SWAP3 POP SWAP3 SWAP1 POP JUMP JUMPDEST PUSH1 0x0 DUP1 PUSH1 0x20 DUP4 DUP6 SUB SLT ISZERO PUSH2 0x8402 JUMPI PUSH2 0x8401 PUSH2 0x7ADE JUMP JUMPDEST JUMPDEST PUSH1 0x0 DUP4 ADD CALLDATALOAD PUSH8 0xFFFFFFFFFFFFFFFF DUP2 GT ISZERO PUSH2 0x8420 JUMPI PUSH2 0x841F PUSH2 0x7AE3 JUMP JUMPDEST JUMPDEST PUSH2 0x842C DUP6 DUP3 DUP7 ADD PUSH2 0x8395 JUMP JUMPDEST SWAP3 POP SWAP3 POP POP SWAP3 POP SWAP3 SWAP1 POP JUMP JUMPDEST PUSH1 0x0 DUP2 MLOAD SWAP1 POP SWAP2 SWAP1 POP JUMP JUMPDEST PUSH1 0x0 DUP3 DUP3 MSTORE PUSH1 0x20 DUP3 ADD SWAP1 POP SWAP3 SWAP2 POP POP JUMP JUMPDEST PUSH1 0x0 DUP2 SWAP1 POP PUSH1 0x20 DUP3 ADD SWAP1 POP SWAP2 SWAP1 POP JUMP JUMPDEST PUSH2 0x846D DUP2 PUSH2 0x7DD6 JUMP JUMPDEST DUP3 MSTORE POP POP JUMP JUMPDEST PUSH1 0x0 PUSH2 0x847F DUP4 DUP4 PUSH2 0x8464 JUMP JUMPDEST PUSH1 0x20 DUP4 ADD SWAP1 POP SWAP3 SWAP2 POP POP JUMP JUMPDEST PUSH1 0x0 PUSH1 0x20 DUP3 ADD SWAP1 POP SWAP2 SWAP1 POP JUMP JUMPDEST PUSH1 0x0 PUSH2 0x84A3 DUP3 PUSH2 0x8438 JUMP JUMPDEST PUSH2 0x84AD DUP2 DUP6 PUSH2 0x8443 JUMP JUMPDEST SWAP4 POP PUSH2 0x84B8 DUP4 PUSH2 0x8454 JUMP JUMPDEST DUP1 PUSH1 0x0 JUMPDEST DUP4 DUP2 LT ISZERO PUSH2 0x84E9 JUMPI DUP2 MLOAD PUSH2 0x84D0 DUP9 DUP3 PUSH2 0x8473 JUMP JUMPDEST SWAP8 POP PUSH2 0x84DB DUP4 PUSH2 0x848B JUMP JUMPDEST SWAP3 POP POP PUSH1 0x1 DUP2 ADD SWAP1 POP PUSH2 0x84BC JUMP JUMPDEST POP DUP6 SWAP4 POP POP POP POP SWAP3 SWAP2 POP POP JUMP JUMPDEST PUSH1 0x0 DUP2 MLOAD SWAP1 POP SWAP2 SWAP1 POP JUMP JUMPDEST PUSH1 0x0 DUP3 DUP3 MSTORE PUSH1 0x20 DUP3 ADD SWAP1 POP SWAP3 SWAP2 POP POP JUMP JUMPDEST PUSH1 0x0 DUP2 SWAP1 POP PUSH1 0x20 DUP3 ADD SWAP1 POP SWAP2 SWAP1 POP JUMP JUMPDEST PUSH2 0x852B DUP2 PUSH2 0x7A82 JUMP JUMPDEST DUP3 MSTORE POP POP JUMP JUMPDEST PUSH1 0x0 PUSH2 0x853D DUP4 DUP4 PUSH2 0x8522 JUMP JUMPDEST PUSH1 0x20 DUP4 ADD SWAP1 POP SWAP3 SWAP2 POP POP JUMP JUMPDEST PUSH1 0x0 PUSH1 0x20 DUP3 ADD SWAP1 POP SWAP2 SWAP1 POP JUMP JUMPDEST PUSH1 0x0 PUSH2 0x8561 DUP3 PUSH2 0x84F6 JUMP JUMPDEST PUSH2 0x856B DUP2 DUP6 PUSH2 0x8501 JUMP JUMPDEST SWAP4 POP PUSH2 0x8576 DUP4 PUSH2 0x8512 JUMP JUMPDEST DUP1 PUSH1 0x0 JUMPDEST DUP4 DUP2 LT ISZERO PUSH2 0x85A7 JUMPI DUP2 MLOAD PUSH2 0x858E DUP9 DUP3 PUSH2 0x8531 JUMP JUMPDEST SWAP8 POP PUSH2 0x8599 DUP4 PUSH2 0x8549 JUMP JUMPDEST SWAP3 POP POP PUSH1 0x1 DUP2 ADD SWAP1 POP PUSH2 0x857A JUMP JUMPDEST POP DUP6 SWAP4 POP POP POP POP SWAP3 SWAP2 POP POP JUMP JUMPDEST PUSH1 0x0 PUSH1 0x40 DUP3 ADD SWAP1 POP DUP2 DUP2 SUB PUSH1 0x0 DUP4 ADD MSTORE PUSH2 0x85CE DUP2 DUP6 PUSH2 0x8498 JUMP JUMPDEST SWAP1 POP DUP2 DUP2 SUB PUSH1 0x20 DUP4 ADD MSTORE PUSH2 0x85E2 DUP2 DUP5 PUSH2 0x8556 JUMP JUMPDEST SWAP1 POP SWAP4 SWAP3 POP POP POP JUMP JUMPDEST PUSH1 0x0 DUP1 PUSH1 0x0 PUSH1 0x60 DUP5 DUP7 SUB SLT ISZERO PUSH2 0x8604 JUMPI PUSH2 0x8603 PUSH2 0x7ADE JUMP JUMPDEST JUMPDEST PUSH1 0x0 PUSH2 0x8612 DUP7 DUP3 DUP8 ADD PUSH2 0x7F89 JUMP JUMPDEST SWAP4 POP POP PUSH1 0x20 PUSH2 0x8623 DUP7 DUP3 DUP8 ADD PUSH2 0x7F89 JUMP JUMPDEST SWAP3 POP POP PUSH1 0x40 PUSH2 0x8634 DUP7 DUP3 DUP8 ADD PUSH2 0x7FB5 JUMP JUMPDEST SWAP2 POP POP SWAP3 POP SWAP3 POP SWAP3 JUMP JUMPDEST PUSH1 0x0 DUP1 PUSH1 0x40 DUP4 DUP6 SUB SLT ISZERO PUSH2 0x8655 JUMPI PUSH2 0x8654 PUSH2 0x7ADE JUMP JUMPDEST JUMPDEST PUSH1 0x0 PUSH2 0x8663 DUP6 DUP3 DUP7 ADD PUSH2 0x7F89 JUMP JUMPDEST SWAP3 POP POP PUSH1 0x20 PUSH2 0x8674 DUP6 DUP3 DUP7 ADD PUSH2 0x7F89 JUMP JUMPDEST SWAP2 POP POP SWAP3 POP SWAP3 SWAP1 POP JUMP JUMPDEST PUSH1 0x0 PUSH1 0x60 DUP3 ADD SWAP1 POP PUSH2 0x8693 PUSH1 0x0 DUP4 ADD DUP7 PUSH2 0x7DE3 JUMP JUMPDEST PUSH2 0x86A0 PUSH1 0x20 DUP4 ADD DUP6 PUSH2 0x7DF2 JUMP JUMPDEST PUSH2 0x86AD PUSH1 0x40 DUP4 ADD DUP5 PUSH2 0x7DC7 JUMP JUMPDEST SWAP5 SWAP4 POP POP POP POP JUMP JUMPDEST PUSH1 0x0 PUSH1 0x20 DUP3 ADD SWAP1 POP PUSH2 0x86CA PUSH1 0x0 DUP4 ADD DUP5 PUSH2 0x7EC9 JUMP JUMPDEST SWAP3 SWAP2 POP POP JUMP JUMPDEST PUSH1 0x0 PUSH3 0xFFFFFF DUP3 AND SWAP1 POP SWAP2 SWAP1 POP JUMP JUMPDEST PUSH2 0x86E8 DUP2 PUSH2 0x86D0 JUMP JUMPDEST DUP3 MSTORE POP POP JUMP JUMPDEST PUSH1 0x0 PUSH1 0x20 DUP3 ADD SWAP1 POP PUSH2 0x8703 PUSH1 0x0 DUP4 ADD DUP5 PUSH2 0x86DF JUMP JUMPDEST SWAP3 SWAP2 POP POP JUMP JUMPDEST PUSH1 0x0 PUSH1 0x20 DUP3 DUP5 SUB SLT ISZERO PUSH2 0x871F JUMPI PUSH2 0x871E PUSH2 0x7ADE JUMP JUMPDEST JUMPDEST PUSH1 0x0 PUSH2 0x872D DUP5 DUP3 DUP6 ADD PUSH2 0x7F89 JUMP JUMPDEST SWAP2 POP POP SWAP3 SWAP2 POP POP JUMP JUMPDEST PUSH1 0x0 DUP2 PUSH1 0xF SIGNEXTEND SWAP1 POP SWAP2 SWAP1 POP JUMP JUMPDEST PUSH2 0x874C DUP2 PUSH2 0x8736 JUMP JUMPDEST DUP3 MSTORE POP POP JUMP JUMPDEST PUSH1 0x0 PUSH2 0x100 DUP3 ADD SWAP1 POP PUSH2 0x8768 PUSH1 0x0 DUP4 ADD DUP12 PUSH2 0x7D01 JUMP JUMPDEST PUSH2 0x8775 PUSH1 0x20 DUP4 ADD DUP11 PUSH2 0x8743 JUMP JUMPDEST PUSH2 0x8782 PUSH1 0x40 DUP4 ADD DUP10 PUSH2 0x8064 JUMP JUMPDEST PUSH2 0x878F PUSH1 0x60 DUP4 ADD DUP9 PUSH2 0x8064 JUMP JUMPDEST PUSH2 0x879C PUSH1 0x80 DUP4 ADD DUP8 PUSH2 0x7DE3 JUMP JUMPDEST PUSH2 0x87A9 PUSH1 0xA0 DUP4 ADD DUP7 PUSH2 0x7DF2 JUMP JUMPDEST PUSH2 0x87B6 PUSH1 0xC0 DUP4 ADD DUP6 PUSH2 0x7DC7 JUMP JUMPDEST PUSH2 0x87C3 PUSH1 0xE0 DUP4 ADD DUP5 PUSH2 0x7E01 JUMP JUMPDEST SWAP10 SWAP9 POP POP POP POP POP POP POP POP POP JUMP JUMPDEST PUSH1 0x0 PUSH1 0x20 DUP3 DUP5 SUB SLT ISZERO PUSH2 0x87E6 JUMPI PUSH2 0x87E5 PUSH2 0x7ADE JUMP JUMPDEST JUMPDEST PUSH1 0x0 PUSH2 0x87F4 DUP5 DUP3 DUP6 ADD PUSH2 0x7B99 JUMP JUMPDEST SWAP2 POP POP SWAP3 SWAP2 POP POP JUMP JUMPDEST PUSH1 0x0 DUP3 DUP3 MSTORE PUSH1 0x20 DUP3 ADD SWAP1 POP SWAP3 SWAP2 POP POP JUMP JUMPDEST PUSH32 0x4153000000000000000000000000000000000000000000000000000000000000 PUSH1 0x0 DUP3 ADD MSTORE POP JUMP JUMPDEST PUSH1 0x0 PUSH2 0x8844 PUSH1 0x2 DUP4 PUSH2 0x87FD JUMP JUMPDEST SWAP2 POP PUSH2 0x884F DUP3 PUSH2 0x880E JUMP JUMPDEST PUSH1 0x20 DUP3 ADD SWAP1 POP SWAP2 SWAP1 POP JUMP JUMPDEST PUSH1 0x0 PUSH1 0x20 DUP3 ADD SWAP1 POP DUP2 DUP2 SUB PUSH1 0x0 DUP4 ADD MSTORE PUSH2 0x8873 DUP2 PUSH2 0x8837 JUMP JUMPDEST SWAP1 POP SWAP2 SWAP1 POP JUMP JUMPDEST PUSH32 0x4C4F4B0000000000000000000000000000000000000000000000000000000000 PUSH1 0x0 DUP3 ADD MSTORE POP JUMP JUMPDEST PUSH1 0x0 PUSH2 0x88B0 PUSH1 0x3 DUP4 PUSH2 0x87FD JUMP JUMPDEST SWAP2 POP PUSH2 0x88BB DUP3 PUSH2 0x887A JUMP JUMPDEST PUSH1 0x20 DUP3 ADD SWAP1 POP SWAP2 SWAP1 POP JUMP JUMPDEST PUSH1 0x0 PUSH1 0x20 DUP3 ADD SWAP1 POP DUP2 DUP2 SUB PUSH1 0x0 DUP4 ADD MSTORE PUSH2 0x88DF DUP2 PUSH2 0x88A3 JUMP JUMPDEST SWAP1 POP SWAP2 SWAP1 POP JUMP JUMPDEST PUSH32 0x53504C0000000000000000000000000000000000000000000000000000000000 PUSH1 0x0 DUP3 ADD MSTORE POP JUMP JUMPDEST PUSH1 0x0 PUSH2 0x891C PUSH1 0x3 DUP4 PUSH2 0x87FD JUMP JUMPDEST SWAP2 POP PUSH2 0x8927 DUP3 PUSH2 0x88E6 JUMP JUMPDEST PUSH1 0x20 DUP3 ADD SWAP1 POP SWAP2 SWAP1 POP JUMP JUMPDEST PUSH1 0x0 PUSH1 0x20 DUP3 ADD SWAP1 POP DUP2 DUP2 SUB PUSH1 0x0 DUP4 ADD MSTORE PUSH2 0x894B DUP2 PUSH2 0x890F JUMP JUMPDEST SWAP1 POP SWAP2 SWAP1 POP JUMP JUMPDEST PUSH32 0x4E487B7100000000000000000000000000000000000000000000000000000000 PUSH1 0x0 MSTORE PUSH1 0x12 PUSH1 0x4 MSTORE PUSH1 0x24 PUSH1 0x0 REVERT JUMPDEST PUSH1 0x0 PUSH2 0x898C DUP3 PUSH2 0x7EE7 JUMP JUMPDEST SWAP2 POP PUSH2 0x8997 DUP4 PUSH2 0x7EE7 JUMP JUMPDEST SWAP3 POP DUP3 PUSH2 0x89A7 JUMPI PUSH2 0x89A6 PUSH2 0x8952 JUMP JUMPDEST JUMPDEST DUP3 DUP3 MOD SWAP1 POP SWAP3 SWAP2 POP POP JUMP JUMPDEST PUSH32 0x4E487B7100000000000000000000000000000000000000000000000000000000 PUSH1 0x0 MSTORE PUSH1 0x11 PUSH1 0x4 MSTORE PUSH1 0x24 PUSH1 0x0 REVERT JUMPDEST PUSH1 0x0 PUSH2 0x89EC DUP3 PUSH2 0x7EBC JUMP JUMPDEST SWAP2 POP PUSH32 0xFFFFFFFFFFFFFFFFFFFFFFFFFFFFFFFFFFFFFFFFFFFFFFFFFFFFFFFFFF800000 DUP3 SUB PUSH2 0x8A1E JUMPI PUSH2 0x8A1D PUSH2 0x89B2 JUMP JUMPDEST JUMPDEST DUP2 PUSH1 0x0 SUB SWAP1 POP SWAP2 SWAP1 POP JUMP JUMPDEST PUSH1 0x0 PUSH2 0x8A34 DUP3 PUSH2 0x7D54 JUMP JUMPDEST SWAP2 POP PUSH2 0x8A3F DUP4 PUSH2 0x7D54 JUMP JUMPDEST SWAP3 POP DUP3 DUP3 ADD SWAP1 POP DUP1 DUP3 GT ISZERO PUSH2 0x8A57 JUMPI PUSH2 0x8A56 PUSH2 0x89B2 JUMP JUMPDEST JUMPDEST SWAP3 SWAP2 POP POP JUMP JUMPDEST PUSH1 0x0 PUSH2 0x8A68 DUP3 PUSH2 0x7B4C JUMP JUMPDEST SWAP2 POP PUSH2 0x8A73 DUP4 PUSH2 0x7B4C JUMP JUMPDEST SWAP3 POP DUP3 DUP3 SUB SWAP1 POP DUP2 DUP2 SLT PUSH1 0x0 DUP5 SLT AND DUP3 DUP3 SGT PUSH1 0x0 DUP6 SLT ISZERO AND OR ISZERO PUSH2 0x8A9A JUMPI PUSH2 0x8A99 PUSH2 0x89B2 JUMP JUMPDEST JUMPDEST SWAP3 SWAP2 POP POP JUMP JUMPDEST PUSH1 0x0 PUSH2 0x8AAB DUP3 PUSH2 0x7B4C JUMP JUMPDEST SWAP2 POP PUSH2 0x8AB6 DUP4 PUSH2 0x7B4C JUMP JUMPDEST SWAP3 POP DUP3 DUP3 ADD SWAP1 POP DUP3 DUP2 SLT ISZERO PUSH1 0x0 DUP4 SLT AND DUP4 DUP3 SLT PUSH1 0x0 DUP5 SLT ISZERO AND OR ISZERO PUSH2 0x8ADE JUMPI PUSH2 0x8ADD PUSH2 0x89B2 JUMP JUMPDEST JUMPDEST SWAP3 SWAP2 POP POP JUMP JUMPDEST PUSH1 0x0 PUSH2 0x8AEF DUP3 PUSH2 0x7D54 JUMP JUMPDEST SWAP2 POP PUSH2 0x8AFA DUP4 PUSH2 0x7D54 JUMP JUMPDEST SWAP3 POP DUP3 PUSH2 0x8B0A JUMPI PUSH2 0x8B09 PUSH2 0x8952 JUMP JUMPDEST JUMPDEST DUP3 DUP3 DIV SWAP1 POP SWAP3 SWAP2 POP POP JUMP JUMPDEST PUSH1 0x0 PUSH2 0x8B20 DUP3 PUSH2 0x7D54 JUMP JUMPDEST SWAP2 POP PUSH2 0x8B2B DUP4 PUSH2 0x7D54 JUMP JUMPDEST SWAP3 POP DUP3 DUP3 SUB SWAP1 POP DUP2 DUP2 GT ISZERO PUSH2 0x8B43 JUMPI PUSH2 0x8B42 PUSH2 0x89B2 JUMP JUMPDEST JUMPDEST SWAP3 SWAP2 POP POP JUMP JUMPDEST PUSH1 0x0 PUSH2 0x8B54 DUP3 PUSH2 0x7CE5 JUMP JUMPDEST SWAP2 POP PUSH2 0x8B5F DUP4 PUSH2 0x7CE5 JUMP JUMPDEST SWAP3 POP DUP3 DUP3 ADD SWAP1 POP PUSH16 0xFFFFFFFFFFFFFFFFFFFFFFFFFFFFFFFF DUP2 GT ISZERO PUSH2 0x8B87 JUMPI PUSH2 0x8B86 PUSH2 0x89B2 JUMP JUMPDEST JUMPDEST SWAP3 SWAP2 POP POP JUMP JUMPDEST PUSH1 0x0 PUSH2 0x8B98 DUP3 PUSH2 0x8736 JUMP JUMPDEST SWAP2 POP PUSH32 0xFFFFFFFFFFFFFFFFFFFFFFFFFFFFFFFF80000000000000000000000000000000 DUP3 SUB PUSH2 0x8BCA JUMPI PUSH2 0x8BC9 PUSH2 0x89B2 JUMP JUMPDEST JUMPDEST DUP2 PUSH1 0x0 SUB SWAP1 POP SWAP2 SWAP1 POP JUMP JUMPDEST PUSH1 0x0 PUSH2 0x8BE0 DUP3 PUSH2 0x7EBC JUMP JUMPDEST SWAP2 POP PUSH2 0x8BEB DUP4 PUSH2 0x7EBC JUMP JUMPDEST SWAP3 POP DUP3 DUP3 SUB SWAP1 POP PUSH3 0x7FFFFF DUP2 SGT PUSH32 0xFFFFFFFFFFFFFFFFFFFFFFFFFFFFFFFFFFFFFFFFFFFFFFFFFFFFFFFFFF800000 DUP3 SLT OR ISZERO PUSH2 0x8C2A JUMPI PUSH2 0x8C29 PUSH2 0x89B2 JUMP JUMPDEST JUMPDEST SWAP3 SWAP2 POP POP JUMP JUMPDEST PUSH1 0x0 PUSH2 0x8C3B DUP3 PUSH2 0x7B4C JUMP JUMPDEST SWAP2 POP PUSH32 0x8000000000000000000000000000000000000000000000000000000000000000 DUP3 SUB PUSH2 0x8C6D JUMPI PUSH2 0x8C6C PUSH2 0x89B2 JUMP JUMPDEST JUMPDEST DUP2 PUSH1 0x0 SUB SWAP1 POP SWAP2 SWAP1 POP JUMP JUMPDEST PUSH1 0x0 DUP3 DUP3 MSTORE PUSH1 0x20 DUP3 ADD SWAP1 POP SWAP3 SWAP2 POP POP JUMP JUMPDEST DUP3 DUP2 DUP4 CALLDATACOPY PUSH1 0x0 DUP4 DUP4 ADD MSTORE POP POP POP JUMP JUMPDEST PUSH1 0x0 PUSH1 0x1F NOT PUSH1 0x1F DUP4 ADD AND SWAP1 POP SWAP2 SWAP1 POP JUMP JUMPDEST PUSH1 0x0 PUSH2 0x8CB5 DUP4 DUP6 PUSH2 0x8C78 JUMP JUMPDEST SWAP4 POP PUSH2 0x8CC2 DUP4 DUP6 DUP5 PUSH2 0x8C89 JUMP JUMPDEST PUSH2 0x8CCB DUP4 PUSH2 0x8C98 JUMP JUMPDEST DUP5 ADD SWAP1 POP SWAP4 SWAP3 POP POP POP JUMP JUMPDEST PUSH1 0x0 PUSH1 0x60 DUP3 ADD SWAP1 POP PUSH2 0x8CEB PUSH1 0x0 DUP4 ADD DUP8 PUSH2 0x7CAD JUMP JUMPDEST PUSH2 0x8CF8 PUSH1 0x20 DUP4 ADD DUP7 PUSH2 0x7CAD JUMP JUMPDEST DUP2 DUP2 SUB PUSH1 0x40 DUP4 ADD MSTORE PUSH2 0x8D0B DUP2 DUP5 DUP7 PUSH2 0x8CA9 JUMP JUMPDEST SWAP1 POP SWAP6 SWAP5 POP POP POP POP POP JUMP JUMPDEST PUSH32 0x4949410000000000000000000000000000000000000000000000000000000000 PUSH1 0x0 DUP3 ADD MSTORE POP JUMP JUMPDEST PUSH1 0x0 PUSH2 0x8D4C PUSH1 0x3 DUP4 PUSH2 0x87FD JUMP JUMPDEST SWAP2 POP PUSH2 0x8D57 DUP3 PUSH2 0x8D16 JUMP JUMPDEST PUSH1 0x20 DUP3 ADD SWAP1 POP SWAP2 SWAP1 POP JUMP JUMPDEST PUSH1 0x0 PUSH1 0x20 DUP3 ADD SWAP1 POP DUP2 DUP2 SUB PUSH1 0x0 DUP4 ADD MSTORE PUSH2 0x8D7B DUP2 PUSH2 0x8D3F JUMP JUMPDEST SWAP1 POP SWAP2 SWAP1 POP JUMP JUMPDEST PUSH1 0x0 PUSH1 0xA0 DUP3 ADD SWAP1 POP PUSH2 0x8D97 PUSH1 0x0 DUP4 ADD DUP9 PUSH2 0x7CAD JUMP JUMPDEST PUSH2 0x8DA4 PUSH1 0x20 DUP4 ADD DUP8 PUSH2 0x7CAD JUMP JUMPDEST PUSH2 0x8DB1 PUSH1 0x40 DUP4 ADD DUP7 PUSH2 0x7DF2 JUMP JUMPDEST PUSH2 0x8DBE PUSH1 0x60 DUP4 ADD DUP6 PUSH2 0x7D01 JUMP JUMPDEST PUSH2 0x8DCB PUSH1 0x80 DUP4 ADD DUP5 PUSH2 0x7EC9 JUMP JUMPDEST SWAP7 SWAP6 POP POP POP POP POP POP JUMP JUMPDEST PUSH32 0x4C6F636B65640000000000000000000000000000000000000000000000000000 PUSH1 0x0 DUP3 ADD MSTORE POP JUMP JUMPDEST PUSH1 0x0 PUSH2 0x8E0B PUSH1 0x6 DUP4 PUSH2 0x87FD JUMP JUMPDEST SWAP2 POP PUSH2 0x8E16 DUP3 PUSH2 0x8DD5 JUMP JUMPDEST PUSH1 0x20 DUP3 ADD SWAP1 POP SWAP2 SWAP1 POP JUMP JUMPDEST PUSH1 0x0 PUSH1 0x20 DUP3 ADD SWAP1 POP DUP2 DUP2 SUB PUSH1 0x0 DUP4 ADD MSTORE PUSH2 0x8E3A DUP2 PUSH2 0x8DFE JUMP JUMPDEST SWAP1 POP SWAP2 SWAP1 POP JUMP JUMPDEST PUSH1 0x0 PUSH1 0x40 DUP3 ADD SWAP1 POP PUSH2 0x8E56 PUSH1 0x0 DUP4 ADD DUP6 PUSH2 0x7ED8 JUMP JUMPDEST PUSH2 0x8E63 PUSH1 0x20 DUP4 ADD DUP5 PUSH2 0x7ED8 JUMP JUMPDEST SWAP4 SWAP3 POP POP POP JUMP JUMPDEST PUSH1 0x0 PUSH1 0x60 DUP3 ADD SWAP1 POP PUSH2 0x8E7F PUSH1 0x0 DUP4 ADD DUP8 PUSH2 0x8064 JUMP JUMPDEST PUSH2 0x8E8C PUSH1 0x20 DUP4 ADD DUP7 PUSH2 0x8064 JUMP JUMPDEST DUP2 DUP2 SUB PUSH1 0x40 DUP4 ADD MSTORE PUSH2 0x8E9F DUP2 DUP5 DUP7 PUSH2 0x8CA9 JUMP JUMPDEST SWAP1 POP SWAP6 SWAP5 POP POP POP POP POP JUMP JUMPDEST PUSH32 0x4D30000000000000000000000000000000000000000000000000000000000000 PUSH1 0x0 DUP3 ADD MSTORE POP JUMP JUMPDEST PUSH1 0x0 PUSH2 0x8EE0 PUSH1 0x2 DUP4 PUSH2 0x87FD JUMP JUMPDEST SWAP2 POP PUSH2 0x8EEB DUP3 PUSH2 0x8EAA JUMP JUMPDEST PUSH1 0x20 DUP3 ADD SWAP1 POP SWAP2 SWAP1 POP JUMP JUMPDEST PUSH1 0x0 PUSH1 0x20 DUP3 ADD SWAP1 POP DUP2 DUP2 SUB PUSH1 0x0 DUP4 ADD MSTORE PUSH2 0x8F0F DUP2 PUSH2 0x8ED3 JUMP JUMPDEST SWAP1 POP SWAP2 SWAP1 POP JUMP JUMPDEST PUSH32 0x4D31000000000000000000000000000000000000000000000000000000000000 PUSH1 0x0 DUP3 ADD MSTORE POP JUMP JUMPDEST PUSH1 0x0 PUSH2 0x8F4C PUSH1 0x2 DUP4 PUSH2 0x87FD JUMP JUMPDEST SWAP2 POP PUSH2 0x8F57 DUP3 PUSH2 0x8F16 JUMP JUMPDEST PUSH1 0x20 DUP3 ADD SWAP1 POP SWAP2 SWAP1 POP JUMP JUMPDEST PUSH1 0x0 PUSH1 0x20 DUP3 ADD SWAP1 POP DUP2 DUP2 SUB PUSH1 0x0 DUP4 ADD MSTORE PUSH2 0x8F7B DUP2 PUSH2 0x8F3F JUMP JUMPDEST SWAP1 POP SWAP2 SWAP1 POP JUMP JUMPDEST PUSH1 0x0 PUSH1 0x80 DUP3 ADD SWAP1 POP PUSH2 0x8F97 PUSH1 0x0 DUP4 ADD DUP8 PUSH2 0x7AB4 JUMP JUMPDEST PUSH2 0x8FA4 PUSH1 0x20 DUP4 ADD DUP7 PUSH2 0x7D01 JUMP JUMPDEST PUSH2 0x8FB1 PUSH1 0x40 DUP4 ADD DUP6 PUSH2 0x8064 JUMP JUMPDEST PUSH2 0x8FBE PUSH1 0x60 DUP4 ADD DUP5 PUSH2 0x8064 JUMP JUMPDEST SWAP6 SWAP5 POP POP POP POP POP JUMP JUMPDEST PUSH32 0x4C00000000000000000000000000000000000000000000000000000000000000 PUSH1 0x0 DUP3 ADD MSTORE POP JUMP JUMPDEST PUSH1 0x0 PUSH2 0x8FFD PUSH1 0x1 DUP4 PUSH2 0x87FD JUMP JUMPDEST SWAP2 POP PUSH2 0x9008 DUP3 PUSH2 0x8FC7 JUMP JUMPDEST PUSH1 0x20 DUP3 ADD SWAP1 POP SWAP2 SWAP1 POP JUMP JUMPDEST PUSH1 0x0 PUSH1 0x20 DUP3 ADD SWAP1 POP DUP2 DUP2 SUB PUSH1 0x0 DUP4 ADD MSTORE PUSH2 0x902C DUP2 PUSH2 0x8FF0 JUMP JUMPDEST SWAP1 POP SWAP2 SWAP1 POP JUMP JUMPDEST PUSH32 0x4630000000000000000000000000000000000000000000000000000000000000 PUSH1 0x0 DUP3 ADD MSTORE POP JUMP JUMPDEST PUSH1 0x0 PUSH2 0x9069 PUSH1 0x2 DUP4 PUSH2 0x87FD JUMP JUMPDEST SWAP2 POP PUSH2 0x9074 DUP3 PUSH2 0x9033 JUMP JUMPDEST PUSH1 0x20 DUP3 ADD SWAP1 POP SWAP2 SWAP1 POP JUMP JUMPDEST PUSH1 0x0 PUSH1 0x20 DUP3 ADD SWAP1 POP DUP2 DUP2 SUB PUSH1 0x0 DUP4 ADD MSTORE PUSH2 0x9098 DUP2 PUSH2 0x905C JUMP JUMPDEST SWAP1 POP SWAP2 SWAP1 POP JUMP JUMPDEST PUSH32 0x4631000000000000000000000000000000000000000000000000000000000000 PUSH1 0x0 DUP3 ADD MSTORE POP JUMP JUMPDEST PUSH1 0x0 PUSH2 0x90D5 PUSH1 0x2 DUP4 PUSH2 0x87FD JUMP JUMPDEST SWAP2 POP PUSH2 0x90E0 DUP3 PUSH2 0x909F JUMP JUMPDEST PUSH1 0x20 DUP3 ADD SWAP1 POP SWAP2 SWAP1 POP JUMP JUMPDEST PUSH1 0x0 PUSH1 0x20 DUP3 ADD SWAP1 POP DUP2 DUP2 SUB PUSH1 0x0 DUP4 ADD MSTORE PUSH2 0x9104 DUP2 PUSH2 0x90C8 JUMP JUMPDEST SWAP1 POP SWAP2 SWAP1 POP JUMP JUMPDEST PUSH1 0x0 PUSH1 0x80 DUP3 ADD SWAP1 POP PUSH2 0x9120 PUSH1 0x0 DUP4 ADD DUP8 PUSH2 0x8064 JUMP JUMPDEST PUSH2 0x912D PUSH1 0x20 DUP4 ADD DUP7 PUSH2 0x8064 JUMP JUMPDEST PUSH2 0x913A PUSH1 0x40 DUP4 ADD DUP6 PUSH2 0x8064 JUMP JUMPDEST PUSH2 0x9147 PUSH1 0x60 DUP4 ADD DUP5 PUSH2 0x8064 JUMP JUMPDEST SWAP6 SWAP5 POP POP POP POP POP JUMP JUMPDEST PUSH1 0x0 PUSH2 0x915B DUP3 PUSH2 0x7CE5 JUMP JUMPDEST SWAP2 POP PUSH2 0x9166 DUP4 PUSH2 0x7CE5 JUMP JUMPDEST SWAP3 POP DUP3 DUP3 SUB SWAP1 POP PUSH16 0xFFFFFFFFFFFFFFFFFFFFFFFFFFFFFFFF DUP2 GT ISZERO PUSH2 0x918E JUMPI PUSH2 0x918D PUSH2 0x89B2 JUMP JUMPDEST JUMPDEST SWAP3 SWAP2 POP POP JUMP JUMPDEST PUSH1 0x0 PUSH1 0x60 DUP3 ADD SWAP1 POP PUSH2 0x91A9 PUSH1 0x0 DUP4 ADD DUP7 PUSH2 0x7AB4 JUMP JUMPDEST PUSH2 0x91B6 PUSH1 0x20 DUP4 ADD DUP6 PUSH2 0x7D01 JUMP JUMPDEST PUSH2 0x91C3 PUSH1 0x40 DUP4 ADD DUP5 PUSH2 0x7D01 JUMP JUMPDEST SWAP5 SWAP4 POP POP POP POP JUMP JUMPDEST PUSH1 0x0 DUP2 MLOAD SWAP1 POP PUSH2 0x91DA DUP2 PUSH2 0x7AE8 JUMP JUMPDEST SWAP3 SWAP2 POP POP JUMP JUMPDEST PUSH1 0x0 PUSH1 0x20 DUP3 DUP5 SUB SLT ISZERO PUSH2 0x91F6 JUMPI PUSH2 0x91F5 PUSH2 0x7ADE JUMP JUMPDEST JUMPDEST PUSH1 0x0 PUSH2 0x9204 DUP5 DUP3 DUP6 ADD PUSH2 0x91CB JUMP JUMPDEST SWAP2 POP POP SWAP3 SWAP2 POP POP JUMP JUMPDEST PUSH1 0x0 PUSH2 0x9218 DUP3 PUSH2 0x7EE7 JUMP JUMPDEST SWAP2 POP PUSH2 0x9223 DUP4 PUSH2 0x7EE7 JUMP JUMPDEST SWAP3 POP DUP3 DUP3 ADD SWAP1 POP PUSH1 0xFF DUP2 GT ISZERO PUSH2 0x923C JUMPI PUSH2 0x923B PUSH2 0x89B2 JUMP JUMPDEST JUMPDEST SWAP3 SWAP2 POP POP JUMP JUMPDEST PUSH1 0x0 PUSH1 0x80 DUP3 ADD SWAP1 POP PUSH2 0x9257 PUSH1 0x0 DUP4 ADD DUP8 PUSH2 0x7EF4 JUMP JUMPDEST PUSH2 0x9264 PUSH1 0x20 DUP4 ADD DUP7 PUSH2 0x7EF4 JUMP JUMPDEST PUSH2 0x9271 PUSH1 0x40 DUP4 ADD DUP6 PUSH2 0x7EF4 JUMP JUMPDEST PUSH2 0x927E PUSH1 0x60 DUP4 ADD DUP5 PUSH2 0x7EF4 JUMP JUMPDEST SWAP6 SWAP5 POP POP POP POP POP JUMP JUMPDEST PUSH1 0x0 PUSH2 0x9292 DUP3 PUSH2 0x7CE5 JUMP JUMPDEST SWAP2 POP PUSH1 0x0 DUP3 SUB PUSH2 0x92A5 JUMPI PUSH2 0x92A4 PUSH2 0x89B2 JUMP JUMPDEST JUMPDEST PUSH1 0x1 DUP3 SUB SWAP1 POP SWAP2 SWAP1 POP JUMP JUMPDEST PUSH1 0x0 PUSH1 0x60 DUP3 ADD SWAP1 POP PUSH2 0x92C5 PUSH1 0x0 DUP4 ADD DUP7 PUSH2 0x7D01 JUMP JUMPDEST PUSH2 0x92D2 PUSH1 0x20 DUP4 ADD DUP6 PUSH2 0x8064 JUMP JUMPDEST PUSH2 0x92DF PUSH1 0x40 DUP4 ADD DUP5 PUSH2 0x8064 JUMP JUMPDEST SWAP5 SWAP4 POP POP POP POP JUMP JUMPDEST PUSH1 0x0 PUSH2 0x92F2 DUP3 PUSH2 0x7DD6 JUMP JUMPDEST SWAP2 POP PUSH2 0x92FD DUP4 PUSH2 0x7DD6 JUMP JUMPDEST SWAP3 POP DUP3 DUP3 SUB SWAP1 POP PUSH7 0x7FFFFFFFFFFFFF DUP2 SGT PUSH32 0xFFFFFFFFFFFFFFFFFFFFFFFFFFFFFFFFFFFFFFFFFFFFFFFFFF80000000000000 DUP3 SLT OR ISZERO PUSH2 0x9340 JUMPI PUSH2 0x933F PUSH2 0x89B2 JUMP JUMPDEST JUMPDEST SWAP3 SWAP2 POP POP JUMP JUMPDEST PUSH1 0x0 PUSH2 0x9351 DUP3 PUSH2 0x7A82 JUMP JUMPDEST SWAP2 POP PUSH2 0x935C DUP4 PUSH2 0x7A82 JUMP JUMPDEST SWAP3 POP DUP3 DUP3 SUB SWAP1 POP PUSH20 0xFFFFFFFFFFFFFFFFFFFFFFFFFFFFFFFFFFFFFFFF DUP2 GT ISZERO PUSH2 0x9388 JUMPI PUSH2 0x9387 PUSH2 0x89B2 JUMP JUMPDEST JUMPDEST SWAP3 SWAP2 POP POP JUMP JUMPDEST PUSH1 0x0 PUSH2 0x9399 DUP3 PUSH2 0x7DB7 JUMP JUMPDEST SWAP2 POP PUSH2 0x93A4 DUP4 PUSH2 0x7DB7 JUMP JUMPDEST SWAP3 POP DUP3 DUP3 SUB SWAP1 POP PUSH4 0xFFFFFFFF DUP2 GT ISZERO PUSH2 0x93C0 JUMPI PUSH2 0x93BF PUSH2 0x89B2 JUMP JUMPDEST JUMPDEST SWAP3 SWAP2 POP POP JUMP JUMPDEST PUSH32 0x416C726561647920496E697469616C697A656400000000000000000000000000 PUSH1 0x0 DUP3 ADD MSTORE POP JUMP JUMPDEST PUSH1 0x0 PUSH2 0x93FC PUSH1 0x13 DUP4 PUSH2 0x87FD JUMP JUMPDEST SWAP2 POP PUSH2 0x9407 DUP3 PUSH2 0x93C6 JUMP JUMPDEST PUSH1 0x20 DUP3 ADD SWAP1 POP SWAP2 SWAP1 POP JUMP JUMPDEST PUSH1 0x0 PUSH1 0x20 DUP3 ADD SWAP1 POP DUP2 DUP2 SUB PUSH1 0x0 DUP4 ADD MSTORE PUSH2 0x942B DUP2 PUSH2 0x93EF JUMP JUMPDEST SWAP1 POP SWAP2 SWAP1 POP JUMP JUMPDEST PUSH1 0x0 PUSH1 0x40 DUP3 ADD SWAP1 POP PUSH2 0x9447 PUSH1 0x0 DUP4 ADD DUP6 PUSH2 0x7DF2 JUMP JUMPDEST PUSH2 0x9454 PUSH1 0x20 DUP4 ADD DUP5 PUSH2 0x7EC9 JUMP JUMPDEST SWAP4 SWAP3 POP POP POP JUMP JUMPDEST PUSH1 0x0 PUSH2 0x9466 DUP3 PUSH2 0x7EBC JUMP JUMPDEST SWAP2 POP PUSH2 0x9471 DUP4 PUSH2 0x7EBC JUMP JUMPDEST SWAP3 POP DUP3 PUSH2 0x9481 JUMPI PUSH2 0x9480 PUSH2 0x8952 JUMP JUMPDEST JUMPDEST PUSH1 0x1 PUSH1 0x0 SUB DUP4 EQ PUSH32 0xFFFFFFFFFFFFFFFFFFFFFFFFFFFFFFFFFFFFFFFFFFFFFFFFFFFFFFFFFF800000 DUP4 EQ AND ISZERO PUSH2 0x94BA JUMPI PUSH2 0x94B9 PUSH2 0x89B2 JUMP JUMPDEST JUMPDEST DUP3 DUP3 SDIV SWAP1 POP SWAP3 SWAP2 POP POP JUMP JUMPDEST PUSH1 0x0 PUSH2 0x94D0 DUP3 PUSH2 0x7EBC JUMP JUMPDEST SWAP2 POP PUSH2 0x94DB DUP4 PUSH2 0x7EBC JUMP JUMPDEST SWAP3 POP DUP3 DUP3 MUL PUSH2 0x94E9 DUP2 PUSH2 0x7EBC JUMP JUMPDEST SWAP2 POP DUP1 DUP3 EQ PUSH2 0x94FB JUMPI PUSH2 0x94FA PUSH2 0x89B2 JUMP JUMPDEST JUMPDEST POP SWAP3 SWAP2 POP POP JUMP JUMPDEST PUSH1 0x0 PUSH2 0x950D DUP3 PUSH2 0x86D0 JUMP JUMPDEST SWAP2 POP PUSH2 0x9518 DUP4 PUSH2 0x86D0 JUMP JUMPDEST SWAP3 POP DUP3 DUP3 ADD SWAP1 POP PUSH3 0xFFFFFF DUP2 GT ISZERO PUSH2 0x9533 JUMPI PUSH2 0x9532 PUSH2 0x89B2 JUMP JUMPDEST JUMPDEST SWAP3 SWAP2 POP POP JUMP JUMPDEST PUSH1 0x0 PUSH2 0x9544 DUP3 PUSH2 0x7CE5 JUMP JUMPDEST SWAP2 POP PUSH2 0x954F DUP4 PUSH2 0x7CE5 JUMP JUMPDEST SWAP3 POP DUP3 PUSH2 0x955F JUMPI PUSH2 0x955E PUSH2 0x8952 JUMP JUMPDEST JUMPDEST DUP3 DUP3 DIV SWAP1 POP SWAP3 SWAP2 POP POP JUMP JUMPDEST PUSH1 0x0 PUSH2 0x9575 DUP3 PUSH2 0x7EBC JUMP JUMPDEST SWAP2 POP PUSH2 0x9580 DUP4 PUSH2 0x7EBC JUMP JUMPDEST SWAP3 POP DUP3 PUSH2 0x9590 JUMPI PUSH2 0x958F PUSH2 0x8952 JUMP JUMPDEST JUMPDEST DUP3 DUP3 SMOD SWAP1 POP SWAP3 SWAP2 POP POP JUMP JUMPDEST PUSH1 0x0 PUSH2 0x95A6 DUP3 PUSH2 0x7EBC JUMP JUMPDEST SWAP2 POP PUSH32 0xFFFFFFFFFFFFFFFFFFFFFFFFFFFFFFFFFFFFFFFFFFFFFFFFFFFFFFFFFF800000 DUP3 SUB PUSH2 0x95D8 JUMPI PUSH2 0x95D7 PUSH2 0x89B2 JUMP JUMPDEST JUMPDEST PUSH1 0x1 DUP3 SUB SWAP1 POP SWAP2 SWAP1 POP JUMP JUMPDEST PUSH1 0x0 PUSH2 0x95EE DUP3 PUSH2 0x7EE7 JUMP JUMPDEST SWAP2 POP PUSH2 0x95F9 DUP4 PUSH2 0x7EE7 JUMP JUMPDEST SWAP3 POP DUP3 DUP3 SUB SWAP1 POP PUSH1 0xFF DUP2 GT ISZERO PUSH2 0x9612 JUMPI PUSH2 0x9611 PUSH2 0x89B2 JUMP JUMPDEST JUMPDEST SWAP3 SWAP2 POP POP JUMP JUMPDEST PUSH1 0x0 PUSH2 0x9623 DUP3 PUSH2 0x7EBC JUMP JUMPDEST SWAP2 POP PUSH2 0x962E DUP4 PUSH2 0x7EBC JUMP JUMPDEST SWAP3 POP DUP3 DUP3 ADD SWAP1 POP PUSH32 0xFFFFFFFFFFFFFFFFFFFFFFFFFFFFFFFFFFFFFFFFFFFFFFFFFFFFFFFFFF800000 DUP2 SLT PUSH3 0x7FFFFF DUP3 SGT OR ISZERO PUSH2 0x966D JUMPI PUSH2 0x966C PUSH2 0x89B2 JUMP JUMPDEST JUMPDEST SWAP3 SWAP2 POP POP JUMP JUMPDEST PUSH32 0x5400000000000000000000000000000000000000000000000000000000000000 PUSH1 0x0 DUP3 ADD MSTORE POP JUMP JUMPDEST PUSH1 0x0 PUSH2 0x96A9 PUSH1 0x1 DUP4 PUSH2 0x87FD JUMP JUMPDEST SWAP2 POP PUSH2 0x96B4 DUP3 PUSH2 0x9673 JUMP JUMPDEST PUSH1 0x20 DUP3 ADD SWAP1 POP SWAP2 SWAP1 POP JUMP JUMPDEST PUSH1 0x0 PUSH1 0x20 DUP3 ADD SWAP1 POP DUP2 DUP2 SUB PUSH1 0x0 DUP4 ADD MSTORE PUSH2 0x96D8 DUP2 PUSH2 0x969C JUMP JUMPDEST SWAP1 POP SWAP2 SWAP1 POP JUMP JUMPDEST PUSH1 0x0 PUSH2 0x96EA DUP3 PUSH2 0x7D54 JUMP JUMPDEST SWAP2 POP PUSH2 0x96F5 DUP4 PUSH2 0x7D54 JUMP JUMPDEST SWAP3 POP DUP3 DUP3 MUL PUSH2 0x9703 DUP2 PUSH2 0x7D54 JUMP JUMPDEST SWAP2 POP DUP3 DUP3 DIV DUP5 EQ DUP4 ISZERO OR PUSH2 0x971A JUMPI PUSH2 0x9719 PUSH2 0x89B2 JUMP JUMPDEST JUMPDEST POP SWAP3 SWAP2 POP POP JUMP JUMPDEST PUSH1 0x0 PUSH2 0x972C DUP3 PUSH2 0x7D54 JUMP JUMPDEST SWAP2 POP PUSH2 0x9737 DUP4 PUSH2 0x7D54 JUMP JUMPDEST SWAP3 POP DUP3 PUSH2 0x9747 JUMPI PUSH2 0x9746 PUSH2 0x8952 JUMP JUMPDEST JUMPDEST DUP3 DUP3 MOD SWAP1 POP SWAP3 SWAP2 POP POP JUMP JUMPDEST PUSH1 0x0 PUSH2 0x975D DUP3 PUSH2 0x86D0 JUMP JUMPDEST SWAP2 POP PUSH2 0x9768 DUP4 PUSH2 0x86D0 JUMP JUMPDEST SWAP3 POP DUP3 DUP3 SUB SWAP1 POP PUSH3 0xFFFFFF DUP2 GT ISZERO PUSH2 0x9783 JUMPI PUSH2 0x9782 PUSH2 0x89B2 JUMP JUMPDEST JUMPDEST SWAP3 SWAP2 POP POP JUMP JUMPDEST PUSH32 0x4E487B7100000000000000000000000000000000000000000000000000000000 PUSH1 0x0 MSTORE PUSH1 0x32 PUSH1 0x4 MSTORE PUSH1 0x24 PUSH1 0x0 REVERT JUMPDEST PUSH1 0x0 PUSH2 0x97C3 DUP3 PUSH2 0x7DD6 JUMP JUMPDEST SWAP2 POP PUSH2 0x97CE DUP4 PUSH2 0x7DD6 JUMP JUMPDEST SWAP3 POP DUP3 PUSH2 0x97DE JUMPI PUSH2 0x97DD PUSH2 0x8952 JUMP JUMPDEST JUMPDEST PUSH1 0x1 PUSH1 0x0 SUB DUP4 EQ PUSH32 0xFFFFFFFFFFFFFFFFFFFFFFFFFFFFFFFFFFFFFFFFFFFFFFFFFF80000000000000 DUP4 EQ AND ISZERO PUSH2 0x9817 JUMPI PUSH2 0x9816 PUSH2 0x89B2 JUMP JUMPDEST JUMPDEST DUP3 DUP3 SDIV SWAP1 POP SWAP3 SWAP2 POP POP JUMP JUMPDEST PUSH1 0x0 PUSH2 0x982D DUP3 PUSH2 0x7DD6 JUMP JUMPDEST SWAP2 POP PUSH2 0x9838 DUP4 PUSH2 0x7DD6 JUMP JUMPDEST SWAP3 POP DUP3 DUP3 MUL PUSH2 0x9846 DUP2 PUSH2 0x7DD6 JUMP JUMPDEST SWAP2 POP DUP1 DUP3 EQ PUSH2 0x9858 JUMPI PUSH2 0x9857 PUSH2 0x89B2 JUMP JUMPDEST JUMPDEST POP SWAP3 SWAP2 POP POP JUMP JUMPDEST PUSH1 0x0 PUSH2 0x986A DUP3 PUSH2 0x7DD6 JUMP JUMPDEST SWAP2 POP PUSH2 0x9875 DUP4 PUSH2 0x7DD6 JUMP JUMPDEST SWAP3 POP DUP3 DUP3 ADD SWAP1 POP PUSH32 0xFFFFFFFFFFFFFFFFFFFFFFFFFFFFFFFFFFFFFFFFFFFFFFFFFF80000000000000 DUP2 SLT PUSH7 0x7FFFFFFFFFFFFF DUP3 SGT OR ISZERO PUSH2 0x98B8 JUMPI PUSH2 0x98B7 PUSH2 0x89B2 JUMP JUMPDEST JUMPDEST SWAP3 SWAP2 POP POP JUMP JUMPDEST PUSH1 0x0 PUSH2 0x98C9 DUP3 PUSH2 0x7A82 JUMP JUMPDEST SWAP2 POP PUSH2 0x98D4 DUP4 PUSH2 0x7A82 JUMP JUMPDEST SWAP3 POP DUP3 DUP3 ADD SWAP1 POP PUSH20 0xFFFFFFFFFFFFFFFFFFFFFFFFFFFFFFFFFFFFFFFF DUP2 GT ISZERO PUSH2 0x9900 JUMPI PUSH2 0x98FF PUSH2 0x89B2 JUMP JUMPDEST JUMPDEST SWAP3 SWAP2 POP POP JUMP JUMPDEST PUSH32 0x4C53000000000000000000000000000000000000000000000000000000000000 PUSH1 0x0 DUP3 ADD MSTORE POP JUMP JUMPDEST PUSH1 0x0 PUSH2 0x993C PUSH1 0x2 DUP4 PUSH2 0x87FD JUMP JUMPDEST SWAP2 POP PUSH2 0x9947 DUP3 PUSH2 0x9906 JUMP JUMPDEST PUSH1 0x20 DUP3 ADD SWAP1 POP SWAP2 SWAP1 POP JUMP JUMPDEST PUSH1 0x0 PUSH1 0x20 DUP3 ADD SWAP1 POP DUP2 DUP2 SUB PUSH1 0x0 DUP4 ADD MSTORE PUSH2 0x996B DUP2 PUSH2 0x992F JUMP JUMPDEST SWAP1 POP SWAP2 SWAP1 POP JUMP JUMPDEST PUSH32 0x4C41000000000000000000000000000000000000000000000000000000000000 PUSH1 0x0 DUP3 ADD MSTORE POP JUMP JUMPDEST PUSH1 0x0 PUSH2 0x99A8 PUSH1 0x2 DUP4 PUSH2 0x87FD JUMP JUMPDEST SWAP2 POP PUSH2 0x99B3 DUP3 PUSH2 0x9972 JUMP JUMPDEST PUSH1 0x20 DUP3 ADD SWAP1 POP SWAP2 SWAP1 POP JUMP JUMPDEST PUSH1 0x0 PUSH1 0x20 DUP3 ADD SWAP1 POP DUP2 DUP2 SUB PUSH1 0x0 DUP4 ADD MSTORE PUSH2 0x99D7 DUP2 PUSH2 0x999B JUMP JUMPDEST SWAP1 POP SWAP2 SWAP1 POP JUMP JUMPDEST PUSH32 0x5200000000000000000000000000000000000000000000000000000000000000 PUSH1 0x0 DUP3 ADD MSTORE POP JUMP JUMPDEST PUSH1 0x0 PUSH2 0x9A14 PUSH1 0x1 DUP4 PUSH2 0x87FD JUMP JUMPDEST SWAP2 POP PUSH2 0x9A1F DUP3 PUSH2 0x99DE JUMP JUMPDEST PUSH1 0x20 DUP3 ADD SWAP1 POP SWAP2 SWAP1 POP JUMP JUMPDEST PUSH1 0x0 PUSH1 0x20 DUP3 ADD SWAP1 POP DUP2 DUP2 SUB PUSH1 0x0 DUP4 ADD MSTORE PUSH2 0x9A43 DUP2 PUSH2 0x9A07 JUMP JUMPDEST SWAP1 POP SWAP2 SWAP1 POP JUMP JUMPDEST PUSH1 0x0 PUSH2 0x9A55 DUP3 PUSH2 0x7B4C JUMP JUMPDEST SWAP2 POP PUSH2 0x9A60 DUP4 PUSH2 0x7B4C JUMP JUMPDEST SWAP3 POP DUP3 DUP3 MUL PUSH2 0x9A6E DUP2 PUSH2 0x7B4C JUMP JUMPDEST SWAP2 POP PUSH32 0x8000000000000000000000000000000000000000000000000000000000000000 DUP5 EQ PUSH1 0x0 DUP5 SLT AND ISZERO PUSH2 0x9AA6 JUMPI PUSH2 0x9AA5 PUSH2 0x89B2 JUMP JUMPDEST JUMPDEST DUP3 DUP3 SDIV DUP5 EQ DUP4 ISZERO OR PUSH2 0x9ABB JUMPI PUSH2 0x9ABA PUSH2 0x89B2 JUMP JUMPDEST JUMPDEST POP SWAP3 SWAP2 POP POP JUMP JUMPDEST PUSH1 0x0 PUSH2 0x9ACD DUP3 PUSH2 0x7E55 JUMP JUMPDEST SWAP2 POP PUSH2 0x9AD8 DUP4 PUSH2 0x7E55 JUMP JUMPDEST SWAP3 POP DUP3 DUP3 SUB SWAP1 POP PUSH2 0xFFFF DUP2 GT ISZERO PUSH2 0x9AF2 JUMPI PUSH2 0x9AF1 PUSH2 0x89B2 JUMP JUMPDEST JUMPDEST SWAP3 SWAP2 POP POP JUMP JUMPDEST PUSH1 0x0 PUSH2 0x9B03 DUP3 PUSH2 0x7E55 JUMP JUMPDEST SWAP2 POP PUSH2 0x9B0E DUP4 PUSH2 0x7E55 JUMP JUMPDEST SWAP3 POP DUP3 DUP3 ADD SWAP1 POP PUSH2 0xFFFF DUP2 GT ISZERO PUSH2 0x9B28 JUMPI PUSH2 0x9B27 PUSH2 0x89B2 JUMP JUMPDEST JUMPDEST SWAP3 SWAP2 POP POP JUMP JUMPDEST PUSH1 0x0 PUSH2 0x9B39 DUP3 PUSH2 0x7E55 JUMP JUMPDEST SWAP2 POP PUSH2 0x9B44 DUP4 PUSH2 0x7E55 JUMP JUMPDEST SWAP3 POP DUP3 PUSH2 0x9B54 JUMPI PUSH2 0x9B53 PUSH2 0x8952 JUMP JUMPDEST JUMPDEST DUP3 DUP3 MOD SWAP1 POP SWAP3 SWAP2 POP POP JUMP JUMPDEST PUSH1 0x0 PUSH1 0x40 DUP3 ADD SWAP1 POP PUSH2 0x9B74 PUSH1 0x0 DUP4 ADD DUP6 PUSH2 0x7AB4 JUMP JUMPDEST PUSH2 0x9B81 PUSH1 0x20 DUP4 ADD DUP5 PUSH2 0x8064 JUMP JUMPDEST SWAP4 SWAP3 POP POP POP JUMP JUMPDEST PUSH1 0x0 DUP2 MLOAD SWAP1 POP SWAP2 SWAP1 POP JUMP JUMPDEST PUSH1 0x0 DUP2 SWAP1 POP SWAP3 SWAP2 POP POP JUMP JUMPDEST PUSH1 0x0 JUMPDEST DUP4 DUP2 LT ISZERO PUSH2 0x9BBC JUMPI DUP1 DUP3 ADD MLOAD DUP2 DUP5 ADD MSTORE PUSH1 0x20 DUP2 ADD SWAP1 POP PUSH2 0x9BA1 JUMP JUMPDEST PUSH1 0x0 DUP5 DUP5 ADD MSTORE POP POP POP POP JUMP JUMPDEST PUSH1 0x0 PUSH2 0x9BD3 DUP3 PUSH2 0x9B88 JUMP JUMPDEST PUSH2 0x9BDD DUP2 DUP6 PUSH2 0x9B93 JUMP JUMPDEST SWAP4 POP PUSH2 0x9BED DUP2 DUP6 PUSH1 0x20 DUP7 ADD PUSH2 0x9B9E JUMP JUMPDEST DUP1 DUP5 ADD SWAP2 POP POP SWAP3 SWAP2 POP POP JUMP JUMPDEST PUSH1 0x0 PUSH2 0x9C05 DUP3 DUP5 PUSH2 0x9BC8 JUMP JUMPDEST SWAP2 POP DUP2 SWAP1 POP SWAP3 SWAP2 POP POP JUMP JUMPDEST PUSH1 0x0 DUP2 MLOAD SWAP1 POP PUSH2 0x9C1F DUP2 PUSH2 0x7B20 JUMP JUMPDEST SWAP3 SWAP2 POP POP JUMP JUMPDEST PUSH1 0x0 PUSH1 0x20 DUP3 DUP5 SUB SLT ISZERO PUSH2 0x9C3B JUMPI PUSH2 0x9C3A PUSH2 0x7ADE JUMP JUMPDEST JUMPDEST PUSH1 0x0 PUSH2 0x9C49 DUP5 DUP3 DUP6 ADD PUSH2 0x9C10 JUMP JUMPDEST SWAP2 POP POP SWAP3 SWAP2 POP POP JUMP JUMPDEST PUSH32 0x5446000000000000000000000000000000000000000000000000000000000000 PUSH1 0x0 DUP3 ADD MSTORE POP JUMP JUMPDEST PUSH1 0x0 PUSH2 0x9C88 PUSH1 0x2 DUP4 PUSH2 0x87FD JUMP JUMPDEST SWAP2 POP PUSH2 0x9C93 DUP3 PUSH2 0x9C52 JUMP JUMPDEST PUSH1 0x20 DUP3 ADD SWAP1 POP SWAP2 SWAP1 POP JUMP JUMPDEST PUSH1 0x0 PUSH1 0x20 DUP3 ADD SWAP1 POP DUP2 DUP2 SUB PUSH1 0x0 DUP4 ADD MSTORE PUSH2 0x9CB7 DUP2 PUSH2 0x9C7B JUMP JUMPDEST SWAP1 POP SWAP2 SWAP1 POP JUMP JUMPDEST PUSH1 0x0 DUP2 MLOAD SWAP1 POP PUSH2 0x9CCD DUP2 PUSH2 0x7D5E JUMP JUMPDEST SWAP3 SWAP2 POP POP JUMP JUMPDEST PUSH1 0x0 PUSH1 0x20 DUP3 DUP5 SUB SLT ISZERO PUSH2 0x9CE9 JUMPI PUSH2 0x9CE8 PUSH2 0x7ADE JUMP JUMPDEST JUMPDEST PUSH1 0x0 PUSH2 0x9CF7 DUP5 DUP3 DUP6 ADD PUSH2 0x9CBE JUMP JUMPDEST SWAP2 POP POP SWAP3 SWAP2 POP POP JUMP JUMPDEST PUSH32 0x4900000000000000000000000000000000000000000000000000000000000000 PUSH1 0x0 DUP3 ADD MSTORE POP JUMP JUMPDEST PUSH1 0x0 PUSH2 0x9D36 PUSH1 0x1 DUP4 PUSH2 0x87FD JUMP JUMPDEST SWAP2 POP PUSH2 0x9D41 DUP3 PUSH2 0x9D00 JUMP JUMPDEST PUSH1 0x20 DUP3 ADD SWAP1 POP SWAP2 SWAP1 POP JUMP JUMPDEST PUSH1 0x0 PUSH1 0x20 DUP3 ADD SWAP1 POP DUP2 DUP2 SUB PUSH1 0x0 DUP4 ADD MSTORE PUSH2 0x9D65 DUP2 PUSH2 0x9D29 JUMP JUMPDEST SWAP1 POP SWAP2 SWAP1 POP JUMP JUMPDEST PUSH1 0x0 PUSH2 0x9D77 DUP3 PUSH2 0x7E55 JUMP JUMPDEST SWAP2 POP PUSH2 0xFFFF DUP3 SUB PUSH2 0x9D8B JUMPI PUSH2 0x9D8A PUSH2 0x89B2 JUMP JUMPDEST JUMPDEST PUSH1 0x1 DUP3 ADD SWAP1 POP SWAP2 SWAP1 POP JUMP JUMPDEST PUSH1 0x0 PUSH2 0x9DA1 DUP3 PUSH2 0x7D54 JUMP JUMPDEST SWAP2 POP PUSH32 0xFFFFFFFFFFFFFFFFFFFFFFFFFFFFFFFFFFFFFFFFFFFFFFFFFFFFFFFFFFFFFFFF DUP3 SUB PUSH2 0x9DD3 JUMPI PUSH2 0x9DD2 PUSH2 0x89B2 JUMP JUMPDEST JUMPDEST PUSH1 0x1 DUP3 ADD SWAP1 POP SWAP2 SWAP1 POP JUMP JUMPDEST PUSH1 0x0 DUP2 PUSH1 0x60 SHL SWAP1 POP SWAP2 SWAP1 POP JUMP JUMPDEST PUSH1 0x0 PUSH2 0x9DF6 DUP3 PUSH2 0x9DDE JUMP JUMPDEST SWAP1 POP SWAP2 SWAP1 POP JUMP JUMPDEST PUSH1 0x0 PUSH2 0x9E08 DUP3 PUSH2 0x9DEB JUMP JUMPDEST SWAP1 POP SWAP2 SWAP1 POP JUMP JUMPDEST PUSH2 0x9E20 PUSH2 0x9E1B DUP3 PUSH2 0x7AA2 JUMP JUMPDEST PUSH2 0x9DFD JUMP JUMPDEST DUP3 MSTORE POP POP JUMP JUMPDEST PUSH1 0x0 DUP2 PUSH1 0xE8 SHL SWAP1 POP SWAP2 SWAP1 POP JUMP JUMPDEST PUSH1 0x0 PUSH2 0x9E3E DUP3 PUSH2 0x9E26 JUMP JUMPDEST SWAP1 POP SWAP2 SWAP1 POP JUMP JUMPDEST PUSH2 0x9E56 PUSH2 0x9E51 DUP3 PUSH2 0x7EBC JUMP JUMPDEST PUSH2 0x9E33 JUMP JUMPDEST DUP3 MSTORE POP POP JUMP JUMPDEST PUSH1 0x0 PUSH2 0x9E68 DUP3 DUP7 PUSH2 0x9E0F JUMP JUMPDEST PUSH1 0x14 DUP3 ADD SWAP2 POP PUSH2 0x9E78 DUP3 DUP6 PUSH2 0x9E45 JUMP JUMPDEST PUSH1 0x3 DUP3 ADD SWAP2 POP PUSH2 0x9E88 DUP3 DUP5 PUSH2 0x9E45 JUMP JUMPDEST PUSH1 0x3 DUP3 ADD SWAP2 POP DUP2 SWAP1 POP SWAP5 SWAP4 POP POP POP POP JUMP JUMPDEST PUSH32 0x4E487B7100000000000000000000000000000000000000000000000000000000 PUSH1 0x0 MSTORE PUSH1 0x41 PUSH1 0x4 MSTORE PUSH1 0x24 PUSH1 0x0 REVERT JUMPDEST PUSH32 0x544C550000000000000000000000000000000000000000000000000000000000 PUSH1 0x0 DUP3 ADD MSTORE POP JUMP JUMPDEST PUSH1 0x0 PUSH2 0x9EFE PUSH1 0x3 DUP4 PUSH2 0x87FD JUMP JUMPDEST SWAP2 POP PUSH2 0x9F09 DUP3 PUSH2 0x9EC8 JUMP JUMPDEST PUSH1 0x20 DUP3 ADD SWAP1 POP SWAP2 SWAP1 POP JUMP JUMPDEST PUSH1 0x0 PUSH1 0x20 DUP3 ADD SWAP1 POP DUP2 DUP2 SUB PUSH1 0x0 DUP4 ADD MSTORE PUSH2 0x9F2D DUP2 PUSH2 0x9EF1 JUMP JUMPDEST SWAP1 POP SWAP2 SWAP1 POP JUMP JUMPDEST PUSH32 0x544C4D0000000000000000000000000000000000000000000000000000000000 PUSH1 0x0 DUP3 ADD MSTORE POP JUMP JUMPDEST PUSH1 0x0 PUSH2 0x9F6A PUSH1 0x3 DUP4 PUSH2 0x87FD JUMP JUMPDEST SWAP2 POP PUSH2 0x9F75 DUP3 PUSH2 0x9F34 JUMP JUMPDEST PUSH1 0x20 DUP3 ADD SWAP1 POP SWAP2 SWAP1 POP JUMP JUMPDEST PUSH1 0x0 PUSH1 0x20 DUP3 ADD SWAP1 POP DUP2 DUP2 SUB PUSH1 0x0 DUP4 ADD MSTORE PUSH2 0x9F99 DUP2 PUSH2 0x9F5D JUMP JUMPDEST SWAP1 POP SWAP2 SWAP1 POP JUMP JUMPDEST PUSH32 0x54554D0000000000000000000000000000000000000000000000000000000000 PUSH1 0x0 DUP3 ADD MSTORE POP JUMP JUMPDEST PUSH1 0x0 PUSH2 0x9FD6 PUSH1 0x3 DUP4 PUSH2 0x87FD JUMP JUMPDEST SWAP2 POP PUSH2 0x9FE1 DUP3 PUSH2 0x9FA0 JUMP JUMPDEST PUSH1 0x20 DUP3 ADD SWAP1 POP SWAP2 SWAP1 POP JUMP JUMPDEST PUSH1 0x0 PUSH1 0x20 DUP3 ADD SWAP1 POP DUP2 DUP2 SUB PUSH1 0x0 DUP4 ADD MSTORE PUSH2 0xA005 DUP2 PUSH2 0x9FC9 JUMP JUMPDEST SWAP1 POP SWAP2 SWAP1 POP JUMP JUMPDEST PUSH1 0x0 PUSH2 0xA017 DUP3 PUSH2 0x7A82 JUMP JUMPDEST SWAP2 POP PUSH2 0xA022 DUP4 PUSH2 0x7A82 JUMP JUMPDEST SWAP3 POP DUP3 PUSH2 0xA032 JUMPI PUSH2 0xA031 PUSH2 0x8952 JUMP JUMPDEST JUMPDEST DUP3 DUP3 DIV SWAP1 POP SWAP3 SWAP2 POP POP JUMP JUMPDEST PUSH32 0x4F4C440000000000000000000000000000000000000000000000000000000000 PUSH1 0x0 DUP3 ADD MSTORE POP JUMP JUMPDEST PUSH1 0x0 PUSH2 0xA073 PUSH1 0x3 DUP4 PUSH2 0x87FD JUMP JUMPDEST SWAP2 POP PUSH2 0xA07E DUP3 PUSH2 0xA03D JUMP JUMPDEST PUSH1 0x20 DUP3 ADD SWAP1 POP SWAP2 SWAP1 POP JUMP JUMPDEST PUSH1 0x0 PUSH1 0x20 DUP3 ADD SWAP1 POP DUP2 DUP2 SUB PUSH1 0x0 DUP4 ADD MSTORE PUSH2 0xA0A2 DUP2 PUSH2 0xA066 JUMP JUMPDEST SWAP1 POP SWAP2 SWAP1 POP JUMP JUMPDEST PUSH1 0x0 PUSH5 0xFFFFFFFFFF DUP3 AND SWAP1 POP SWAP2 SWAP1 POP JUMP JUMPDEST PUSH1 0x0 PUSH2 0xA0C5 DUP3 PUSH2 0xA0A9 JUMP JUMPDEST SWAP2 POP PUSH2 0xA0D0 DUP4 PUSH2 0xA0A9 JUMP JUMPDEST SWAP3 POP DUP3 DUP3 ADD SWAP1 POP PUSH5 0xFFFFFFFFFF DUP2 GT ISZERO PUSH2 0xA0ED JUMPI PUSH2 0xA0EC PUSH2 0x89B2 JUMP JUMPDEST JUMPDEST SWAP3 SWAP2 POP POP JUMP JUMPDEST PUSH32 0x6C6971756964697479206F766572666C6F770000000000000000000000000000 PUSH1 0x0 DUP3 ADD MSTORE POP JUMP JUMPDEST PUSH1 0x0 PUSH2 0xA129 PUSH1 0x12 DUP4 PUSH2 0x87FD JUMP JUMPDEST SWAP2 POP PUSH2 0xA134 DUP3 PUSH2 0xA0F3 JUMP JUMPDEST PUSH1 0x20 DUP3 ADD SWAP1 POP SWAP2 SWAP1 POP JUMP JUMPDEST PUSH1 0x0 PUSH1 0x20 DUP3 ADD SWAP1 POP DUP2 DUP2 SUB PUSH1 0x0 DUP4 ADD MSTORE PUSH2 0xA158 DUP2 PUSH2 0xA11C JUMP JUMPDEST SWAP1 POP SWAP2 SWAP1 POP JUMP JUMPDEST PUSH1 0x0 PUSH2 0xA16A DUP3 PUSH2 0x8736 JUMP JUMPDEST SWAP2 POP PUSH2 0xA175 DUP4 PUSH2 0x8736 JUMP JUMPDEST SWAP3 POP DUP3 DUP3 ADD SWAP1 POP PUSH32 0xFFFFFFFFFFFFFFFFFFFFFFFFFFFFFFFF80000000000000000000000000000000 DUP2 SLT PUSH16 0x7FFFFFFFFFFFFFFFFFFFFFFFFFFFFFFF DUP3 SGT OR ISZERO PUSH2 0xA1C1 JUMPI PUSH2 0xA1C0 PUSH2 0x89B2 JUMP JUMPDEST JUMPDEST SWAP3 SWAP2 POP POP JUMP JUMPDEST PUSH1 0x0 PUSH2 0xA1D2 DUP3 PUSH2 0x8736 JUMP JUMPDEST SWAP2 POP PUSH2 0xA1DD DUP4 PUSH2 0x8736 JUMP JUMPDEST SWAP3 POP DUP3 DUP3 SUB SWAP1 POP PUSH16 0x7FFFFFFFFFFFFFFFFFFFFFFFFFFFFFFF DUP2 SGT PUSH32 0xFFFFFFFFFFFFFFFFFFFFFFFFFFFFFFFF80000000000000000000000000000000 DUP3 SLT OR ISZERO PUSH2 0xA229 JUMPI PUSH2 0xA228 PUSH2 0x89B2 JUMP JUMPDEST JUMPDEST SWAP3 SWAP2 POP POP JUMP JUMPDEST PUSH32 0x6E6F20706F6B6500000000000000000000000000000000000000000000000000 PUSH1 0x0 DUP3 ADD MSTORE POP JUMP JUMPDEST PUSH1 0x0 PUSH2 0xA265 PUSH1 0x7 DUP4 PUSH2 0x87FD JUMP JUMPDEST SWAP2 POP PUSH2 0xA270 DUP3 PUSH2 0xA22F JUMP JUMPDEST PUSH1 0x20 DUP3 ADD SWAP1 POP SWAP2 SWAP1 POP JUMP JUMPDEST PUSH1 0x0 PUSH1 0x20 DUP3 ADD SWAP1 POP DUP2 DUP2 SUB PUSH1 0x0 DUP4 ADD MSTORE PUSH2 0xA294 DUP2 PUSH2 0xA258 JUMP JUMPDEST SWAP1 POP SWAP2 SWAP1 POP JUMP INVALID LOG2 PUSH5 0x6970667358 0x22 SLT KECCAK256 0xA7 KECCAK256 0xCF 0xD7 EXTCODECOPY GAS KECCAK256 EXP SWAP7 JUMP SGT 0x24 0xF8 PUSH6 0xAF03DFB4BC57 POP 0xDA DUP14 0x49 RETURNDATASIZE SWAP8 0xB3 0xF6 DIV SSTORE 0xB2 0xDF PUSH5 0x736F6C6343 STOP ADDMOD SLT STOP CALLER "},"methodIdentifiers":{"burn(int24,int24,uint128)":"a34123a7","collect(address,int24,int24,uint128,uint128)":"4f1eb3d8","collectProtocol(address,uint128,uint128)":"85b66729","factory()":"c45a0155","fee()":"ddca3f43","feeGrowthGlobal0X128()":"f3058399","feeGrowthGlobal1X128()":"46141319","flash(address,uint256,uint256,bytes)":"490e6cbc","increaseObservationCardinalityNext(uint16)":"32148f67","initialize(uint160)":"f637731d","liquidity()":"1a686502","maxLiquidityPerTick()":"70cf754a","mint(address,int24,int24,uint128,bytes)":"3c8a7d8d","observations(uint256)":"252c09d7","observe(uint32[])":"883bdbfd","positions(bytes32)":"514ea4bf","protocolFees()":"1ad8b03b","setFeeProtocol(uint8,uint8)":"8206a4d1","slot0()":"3850c7bd","snapshotCumulativesInside(int24,int24)":"a38807f2","swap(address,bool,int256,uint160,bytes)":"128acb08","tickBitmap(int16)":"5339c296","tickSpacing()":"d0c93a7c","ticks(int24)":"f30dba93","token0()":"0dfe1681","token1()":"d21220a7"}}}}}