{
  "_format": "hh-sol-artifact-1",
  "contractName": "UniswapV3Factory",
  "sourceName": "contracts/UniswapV3Factory.sol",
  "abi": [
    {
      "inputs": [],
      "stateMutability": "nonpayable",
      "type": "constructor"
    },
    {
      "anonymous": false,
      "inputs": [
        {
          "indexed": true,
          "internalType": "uint24",
          "name": "fee",
          "type": "uint24"
        },
        {
          "indexed": true,
          "internalType": "int24",
          "name": "tickSpacing",
          "type": "int24"
        }
      ],
      "name": "FeeAmountEnabled",
      "type": "event"
    },
    {
      "anonymous": false,
      "inputs": [
        {
          "indexed": true,
          "internalType": "address",
          "name": "oldOwner",
          "type": "address"
        },
        {
          "indexed": true,
          "internalType": "address",
          "name": "newOwner",
          "type": "address"
        }
      ],
      "name": "OwnerChanged",
      "type": "event"
    },
    {
      "anonymous": false,
      "inputs": [
        {
          "indexed": true,
          "internalType": "address",
          "name": "token0",
          "type": "address"
        },
        {
          "indexed": true,
          "internalType": "address",
          "name": "token1",
          "type": "address"
        },
        {
          "indexed": true,
          "internalType": "uint24",
          "name": "fee",
          "type": "uint24"
        },
        {
          "indexed": false,
          "internalType": "int24",
          "name": "tickSpacing",
          "type": "int24"
        },
        {
          "indexed": false,
          "internalType": "address",
          "name": "pool",
          "type": "address"
        }
      ],
      "name": "PoolCreated",
      "type": "event"
    },
    {
      "inputs": [
        {
          "internalType": "address",
          "name": "tokenA",
          "type": "address"
        },
        {
          "internalType": "address",
          "name": "tokenB",
          "type": "address"
        },
        {
          "internalType": "uint24",
          "name": "fee",
          "type": "uint24"
        }
      ],
      "name": "createPool",
      "outputs": [
        {
          "internalType": "address",
          "name": "pool",
          "type": "address"
        }
      ],
      "stateMutability": "nonpayable",
      "type": "function"
    },
    {
      "inputs": [
        {
          "internalType": "uint24",
          "name": "fee",
          "type": "uint24"
        },
        {
          "internalType": "int24",
          "name": "tickSpacing",
          "type": "int24"
        }
      ],
      "name": "enableFeeAmount",
      "outputs": [],
      "stateMutability": "nonpayable",
      "type": "function"
    },
    {
      "inputs": [
        {
          "internalType": "uint24",
          "name": "",
          "type": "uint24"
        }
      ],
      "name": "feeAmountTickSpacing",
      "outputs": [
        {
          "internalType": "int24",
          "name": "",
          "type": "int24"
        }
      ],
      "stateMutability": "view",
      "type": "function"
    },
    {
      "inputs": [
        {
          "internalType": "address",
          "name": "",
          "type": "address"
        },
        {
          "internalType": "address",
          "name": "",
          "type": "address"
        },
        {
          "internalType": "uint24",
          "name": "",
          "type": "uint24"
        }
      ],
      "name": "getPool",
      "outputs": [
        {
          "internalType": "address",
          "name": "",
          "type": "address"
        }
      ],
      "stateMutability": "view",
      "type": "function"
    },
    {
      "inputs": [],
      "name": "owner",
      "outputs": [
        {
          "internalType": "address",
          "name": "",
          "type": "address"
        }
      ],
      "stateMutability": "view",
      "type": "function"
    },
    {
      "inputs": [],
      "name": "parameters",
      "outputs": [
        {
          "internalType": "address",
          "name": "factory",
          "type": "address"
        },
        {
          "internalType": "address",
          "name": "token0",
          "type": "address"
        },
        {
          "internalType": "address",
          "name": "token1",
          "type": "address"
        },
        {
          "internalType": "uint24",
          "name": "fee",
          "type": "uint24"
        },
        {
          "internalType": "int24",
          "name": "tickSpacing",
          "type": "int24"
        }
      ],
      "stateMutability": "view",
      "type": "function"
    },
    {
      "inputs": [
        {
          "internalType": "address",
          "name": "_owner",
          "type": "address"
        }
      ],
      "name": "setOwner",
      "outputs": [],
      "stateMutability": "nonpayable",
      "type": "function"
    }
  ],
  "bytecode": "0x60a060405234801561001057600080fd5b503073ffffffffffffffffffffffffffffffffffffffff1660808173ffffffffffffffffffffffffffffffffffffffff168152505033600360006101000a81548173ffffffffffffffffffffffffffffffffffffffff021916908373ffffffffffffffffffffffffffffffffffffffff1602179055503373ffffffffffffffffffffffffffffffffffffffff16600073ffffffffffffffffffffffffffffffffffffffff167fb532073b38c83145e3e5135377a08bf9aab55bc0fd7c1179cd4fb995d2a5159c60405160405180910390a3600a600460006101f462ffffff16815260200190815260200160002060006101000a81548162ffffff021916908360020b62ffffff160217905550600a6101f47fc66a3fdf07232cdd185febcc6579d408c241b47ae2f9907d84be655141eeaecc60405160405180910390a3603c60046000610bb862ffffff16815260200190815260200160002060006101000a81548162ffffff021916908360020b62ffffff160217905550603c610bb87fc66a3fdf07232cdd185febcc6579d408c241b47ae2f9907d84be655141eeaecc60405160405180910390a360c86004600061271062ffffff16815260200190815260200160002060006101000a81548162ffffff021916908360020b62ffffff16021790555060c86127107fc66a3fdf07232cdd185febcc6579d408c241b47ae2f9907d84be655141eeaecc60405160405180910390a360805161bee46102406000396000610b1d015261bee46000f3fe60806040523480156200001157600080fd5b5060043610620000885760003560e01c80638903573011620000635780638903573014620001195780638a7c195f146200013f5780638da5cb5b146200015f578063a167129514620001815762000088565b806313af4035146200008d5780631698ee8214620000ad57806322afcccb14620000e3575b600080fd5b620000ab6004803603810190620000a5919062000e9b565b620001b7565b005b620000cb6004803603810190620000c5919062000f0d565b620002ee565b604051620000da919062000f7a565b60405180910390f35b620001016004803603810190620000fb919062000f97565b6200033d565b60405162000110919062000fe7565b60405180910390f35b620001236200035d565b6040516200013695949392919062001015565b60405180910390f35b6200015d6004803603810190620001579190620010a3565b620003fd565b005b62000169620005e9565b60405162000178919062000f7a565b60405180910390f35b6200019f600480360381019062000199919062000f0d565b6200060f565b604051620001ae919062000f7a565b60405180910390f35b600360009054906101000a900473ffffffffffffffffffffffffffffffffffffffff1673ffffffffffffffffffffffffffffffffffffffff163373ffffffffffffffffffffffffffffffffffffffff16146200024a576040517f08c379a000000000000000000000000000000000000000000000000000000000815260040162000241906200114b565b60405180910390fd5b8073ffffffffffffffffffffffffffffffffffffffff16600360009054906101000a900473ffffffffffffffffffffffffffffffffffffffff1673ffffffffffffffffffffffffffffffffffffffff167fb532073b38c83145e3e5135377a08bf9aab55bc0fd7c1179cd4fb995d2a5159c60405160405180910390a3600360009054906101000a900473ffffffffffffffffffffffffffffffffffffffff16905050565b6005602052826000526040600020602052816000526040600020602052806000526040600020600092509250509054906101000a900473ffffffffffffffffffffffffffffffffffffffff1681565b60046020528060005260406000206000915054906101000a900460020b81565b60008060000160009054906101000a900473ffffffffffffffffffffffffffffffffffffffff16908060010160009054906101000a900473ffffffffffffffffffffffffffffffffffffffff16908060020160009054906101000a900473ffffffffffffffffffffffffffffffffffffffff16908060020160149054906101000a900462ffffff16908060020160179054906101000a900460020b905085565b600360009054906101000a900473ffffffffffffffffffffffffffffffffffffffff1673ffffffffffffffffffffffffffffffffffffffff163373ffffffffffffffffffffffffffffffffffffffff161462000490576040517f08c379a000000000000000000000000000000000000000000000000000000000815260040162000487906200114b565b60405180910390fd5b620f42408262ffffff1610620004dd576040517f08c379a0000000000000000000000000000000000000000000000000000000008152600401620004d490620011bd565b60405180910390fd5b60008160020b138015620004f557506140008160020b125b620004ff57600080fd5b6000600460008462ffffff1662ffffff16815260200190815260200160002060009054906101000a900460020b60020b1462000572576040517f08c379a000000000000000000000000000000000000000000000000000000000815260040162000569906200122f565b60405180910390fd5b80600460008462ffffff1662ffffff16815260200190815260200160002060006101000a81548162ffffff021916908360020b62ffffff1602179055508060020b8262ffffff167fc66a3fdf07232cdd185febcc6579d408c241b47ae2f9907d84be655141eeaecc60405160405180910390a35050565b600360009054906101000a900473ffffffffffffffffffffffffffffffffffffffff1681565b60006200061b62000b1b565b8273ffffffffffffffffffffffffffffffffffffffff168473ffffffffffffffffffffffffffffffffffffffff16036200068c576040517f08c379a00000000000000000000000000000000000000000000000000000000081526004016200068390620012a1565b60405180910390fd5b6000808473ffffffffffffffffffffffffffffffffffffffff168673ffffffffffffffffffffffffffffffffffffffff1610620006cb578486620006ce565b85855b91509150600073ffffffffffffffffffffffffffffffffffffffff168273ffffffffffffffffffffffffffffffffffffffff160362000744576040517f08c379a00000000000000000000000000000000000000000000000000000000081526004016200073b9062001313565b60405180910390fd5b6000600460008662ffffff1662ffffff16815260200190815260200160002060009054906101000a900460020b905060008160020b03620007bc576040517f08c379a0000000000000000000000000000000000000000000000000000000008152600401620007b39062001385565b60405180910390fd5b600073ffffffffffffffffffffffffffffffffffffffff16600560008573ffffffffffffffffffffffffffffffffffffffff1673ffffffffffffffffffffffffffffffffffffffff16815260200190815260200160002060008473ffffffffffffffffffffffffffffffffffffffff1673ffffffffffffffffffffffffffffffffffffffff16815260200190815260200160002060008762ffffff1662ffffff16815260200190815260200160002060009054906101000a900473ffffffffffffffffffffffffffffffffffffffff1673ffffffffffffffffffffffffffffffffffffffff1614620008e5576040517f08c379a0000000000000000000000000000000000000000000000000000000008152600401620008dc90620013f7565b60405180910390fd5b620008f4308484888562000b76565b935083600560008573ffffffffffffffffffffffffffffffffffffffff1673ffffffffffffffffffffffffffffffffffffffff16815260200190815260200160002060008473ffffffffffffffffffffffffffffffffffffffff1673ffffffffffffffffffffffffffffffffffffffff16815260200190815260200160002060008762ffffff1662ffffff16815260200190815260200160002060006101000a81548173ffffffffffffffffffffffffffffffffffffffff021916908373ffffffffffffffffffffffffffffffffffffffff16021790555083600560008473ffffffffffffffffffffffffffffffffffffffff1673ffffffffffffffffffffffffffffffffffffffff16815260200190815260200160002060008573ffffffffffffffffffffffffffffffffffffffff1673ffffffffffffffffffffffffffffffffffffffff16815260200190815260200160002060008762ffffff1662ffffff16815260200190815260200160002060006101000a81548173ffffffffffffffffffffffffffffffffffffffff021916908373ffffffffffffffffffffffffffffffffffffffff1602179055508462ffffff168273ffffffffffffffffffffffffffffffffffffffff168473ffffffffffffffffffffffffffffffffffffffff167f783cca1c0412dd0d695e784568c96da2e9c22ff989357a2e8b1d9b2b4e6b7118848860405162000b0992919062001419565b60405180910390a45050509392505050565b7f000000000000000000000000000000000000000000000000000000000000000073ffffffffffffffffffffffffffffffffffffffff163073ffffffffffffffffffffffffffffffffffffffff161462000b7457600080fd5b565b60006040518060a001604052808773ffffffffffffffffffffffffffffffffffffffff1681526020018673ffffffffffffffffffffffffffffffffffffffff1681526020018573ffffffffffffffffffffffffffffffffffffffff1681526020018462ffffff1681526020018360020b8152506000808201518160000160006101000a81548173ffffffffffffffffffffffffffffffffffffffff021916908373ffffffffffffffffffffffffffffffffffffffff16021790555060208201518160010160006101000a81548173ffffffffffffffffffffffffffffffffffffffff021916908373ffffffffffffffffffffffffffffffffffffffff16021790555060408201518160020160006101000a81548173ffffffffffffffffffffffffffffffffffffffff021916908373ffffffffffffffffffffffffffffffffffffffff16021790555060608201518160020160146101000a81548162ffffff021916908362ffffff16021790555060808201518160020160176101000a81548162ffffff021916908360020b62ffffff160217905550905050600085858560405160200162000d289392919062001446565b6040516020818303038152906040528051906020012090508060405162000d4f9062000e23565b8190604051809103906000f590508015801562000d70573d6000803e3d6000fd5b5091506000806000820160006101000a81549073ffffffffffffffffffffffffffffffffffffffff02191690556001820160006101000a81549073ffffffffffffffffffffffffffffffffffffffff02191690556002820160006101000a81549073ffffffffffffffffffffffffffffffffffffffff02191690556002820160146101000a81549062ffffff02191690556002820160176101000a81549062ffffff021916905550505095945050505050565b61aa2b806200148483390190565b600080fd5b600073ffffffffffffffffffffffffffffffffffffffff82169050919050565b600062000e638262000e36565b9050919050565b62000e758162000e56565b811462000e8157600080fd5b50565b60008135905062000e958162000e6a565b92915050565b60006020828403121562000eb45762000eb362000e31565b5b600062000ec48482850162000e84565b91505092915050565b600062ffffff82169050919050565b62000ee78162000ecd565b811462000ef357600080fd5b50565b60008135905062000f078162000edc565b92915050565b60008060006060848603121562000f295762000f2862000e31565b5b600062000f398682870162000e84565b935050602062000f4c8682870162000e84565b925050604062000f5f8682870162000ef6565b9150509250925092565b62000f748162000e56565b82525050565b600060208201905062000f91600083018462000f69565b92915050565b60006020828403121562000fb05762000faf62000e31565b5b600062000fc08482850162000ef6565b91505092915050565b60008160020b9050919050565b62000fe18162000fc9565b82525050565b600060208201905062000ffe600083018462000fd6565b92915050565b6200100f8162000ecd565b82525050565b600060a0820190506200102c600083018862000f69565b6200103b602083018762000f69565b6200104a604083018662000f69565b62001059606083018562001004565b62001068608083018462000fd6565b9695505050505050565b6200107d8162000fc9565b81146200108957600080fd5b50565b6000813590506200109d8162001072565b92915050565b60008060408385031215620010bd57620010bc62000e31565b5b6000620010cd8582860162000ef6565b9250506020620010e0858286016200108c565b9150509250929050565b600082825260208201905092915050565b7f4e6f7420617574686f72697a6564000000000000000000000000000000000000600082015250565b600062001133600e83620010ea565b91506200114082620010fb565b602082019050919050565b60006020820190508181036000830152620011668162001124565b9050919050565b7f53686f756c64206265206c657373207468616e20313030250000000000000000600082015250565b6000620011a5601883620010ea565b9150620011b2826200116d565b602082019050919050565b60006020820190508181036000830152620011d88162001196565b9050919050565b7f46656520616c726561647920656e61626c656400000000000000000000000000600082015250565b600062001217601383620010ea565b91506200122482620011df565b602082019050919050565b600060208201905081810360008301526200124a8162001208565b9050919050565b7f53616d6520746f6b656e00000000000000000000000000000000000000000000600082015250565b600062001289600a83620010ea565b9150620012968262001251565b602082019050919050565b60006020820190508181036000830152620012bc816200127a565b9050919050565b7f5a65726f20616464726573730000000000000000000000000000000000000000600082015250565b6000620012fb600c83620010ea565b91506200130882620012c3565b602082019050919050565b600060208201905081810360008301526200132e81620012ec565b9050919050565b7f466565204e6f7420456e61626c65640000000000000000000000000000000000600082015250565b60006200136d600f83620010ea565b91506200137a8262001335565b602082019050919050565b60006020820190508181036000830152620013a0816200135e565b9050919050565b7f506f6f6c20416c72656164792050726573656e74000000000000000000000000600082015250565b6000620013df601483620010ea565b9150620013ec82620013a7565b602082019050919050565b600060208201905081810360008301526200141281620013d0565b9050919050565b600060408201905062001430600083018562000fd6565b6200143f602083018462000f69565b9392505050565b60006060820190506200145d600083018662000f69565b6200146c602083018562000f69565b6200147b604083018462001004565b94935050505056fe6101606040523480156200001257600080fd5b503073ffffffffffffffffffffffffffffffffffffffff1660808173ffffffffffffffffffffffffffffffffffffffff168152505060003373ffffffffffffffffffffffffffffffffffffffff1663890357306040518163ffffffff1660e01b815260040160a060405180830381865afa15801562000095573d6000803e3d6000fd5b505050506040513d601f19601f82011682018060405250810190620000bb919062000392565b8095508162ffffff166101009062ffffff168152508273ffffffffffffffffffffffffffffffffffffffff1660e09073ffffffffffffffffffffffffffffffffffffffff168152508373ffffffffffffffffffffffffffffffffffffffff1660c09073ffffffffffffffffffffffffffffffffffffffff168152508473ffffffffffffffffffffffffffffffffffffffff1660a09073ffffffffffffffffffffffffffffffffffffffff1681525050505050508060020b6101208160020b815250506200019381620001c660201b620038c21760201c565b6fffffffffffffffffffffffffffffffff16610140816fffffffffffffffffffffffffffffffff16815250505062000673565b60008082837ffffffffffffffffffffffffffffffffffffffffffffffffffffffffffff27618620001f8919062000478565b620002049190620004ec565b9050600083847ffffffffffffffffffffffffffffffffffffffffffffffffffffffffffff27618620002369062000532565b62000242919062000478565b6200024e9190620004ec565b9050600060018584846200026391906200057f565b6200026f919062000478565b6200027b9190620005e1565b90508062ffffff166fffffffffffffffffffffffffffffffff620002a091906200063b565b9350505050919050565b600080fd5b600073ffffffffffffffffffffffffffffffffffffffff82169050919050565b6000620002dc82620002af565b9050919050565b620002ee81620002cf565b8114620002fa57600080fd5b50565b6000815190506200030e81620002e3565b92915050565b600062ffffff82169050919050565b6200032e8162000314565b81146200033a57600080fd5b50565b6000815190506200034e8162000323565b92915050565b60008160020b9050919050565b6200036c8162000354565b81146200037857600080fd5b50565b6000815190506200038c8162000361565b92915050565b600080600080600060a08688031215620003b157620003b0620002aa565b5b6000620003c188828901620002fd565b9550506020620003d488828901620002fd565b9450506040620003e788828901620002fd565b9350506060620003fa888289016200033d565b92505060806200040d888289016200037b565b9150509295509295909350565b7f4e487b7100000000000000000000000000000000000000000000000000000000600052601260045260246000fd5b7f4e487b7100000000000000000000000000000000000000000000000000000000600052601160045260246000fd5b6000620004858262000354565b9150620004928362000354565b925082620004a557620004a46200041a565b5b600160000383147fffffffffffffffffffffffffffffffffffffffffffffffffffffffffff80000083141615620004e157620004e062000449565b5b828205905092915050565b6000620004f98262000354565b9150620005068362000354565b9250828202620005168162000354565b91508082146200052b576200052a62000449565b5b5092915050565b60006200053f8262000354565b91507fffffffffffffffffffffffffffffffffffffffffffffffffffffffffff800000820362000574576200057362000449565b5b816000039050919050565b60006200058c8262000354565b9150620005998362000354565b92508282039050627fffff81137fffffffffffffffffffffffffffffffffffffffffffffffffffffffffff80000082121715620005db57620005da62000449565b5b92915050565b6000620005ee8262000314565b9150620005fb8362000314565b9250828201905062ffffff81111562000619576200061862000449565b5b92915050565b60006fffffffffffffffffffffffffffffffff82169050919050565b600062000648826200061f565b915062000655836200061f565b9250826200066857620006676200041a565b5b828204905092915050565b60805160a05160c05160e05161010051610120516101405161a2d16200075a600039600081816126b7015281816167d5015261681e015260008181610a890152818161352f0152818161686401526168a1015260008181610c9101528181611d8e01528181611dc5015261357701526000818161142f01528181611e4f0152818161255801528181612d510152818161355301526152ee01526000818161057c0152818161154501528181611e1a0152818161249a01528181612c3301526151b701526000818161274901528181612994015261350b01526000613996015261a2d16000f3fe608060405234801561001057600080fd5b506004361061018e5760003560e01c806370cf754a116100de578063c45a015511610097578063ddca3f4311610071578063ddca3f43146104eb578063f305839914610509578063f30dba9314610527578063f637731d1461055e5761018e565b8063c45a015514610491578063d0c93a7c146104af578063d21220a7146104cd5761018e565b806370cf754a146103925780638206a4d1146103b057806385b66729146103cc578063883bdbfd146103fd578063a34123a71461042e578063a38807f21461045f5761018e565b80633850c7bd1161014b578063490e6cbc11610125578063490e6cbc146102e15780634f1eb3d8146102fd578063514ea4bf1461032e5780635339c296146103625761018e565b80633850c7bd1461026e5780633c8a7d8d1461029257806346141319146102c35761018e565b80630dfe168114610193578063128acb08146101b15780631a686502146101e25780631ad8b03b14610200578063252c09d71461021f57806332148f6714610252575b600080fd5b61019b61057a565b6040516101a89190617ac3565b60405180910390f35b6101cb60048036038101906101c69190617c13565b61059e565b6040516101d9929190617cbc565b60405180910390f35b6101ea6116ee565b6040516101f79190617d10565b60405180910390f35b610208611712565b604051610216929190617d2b565b60405180910390f35b61023960048036038101906102349190617d8a565b61175e565b6040516102499493929190617e10565b60405180910390f35b61026c60048036038101906102679190617e8f565b6117dc565b005b61027661190d565b6040516102899796959493929190617f03565b60405180910390f35b6102ac60048036038101906102a79190617fca565b6119ae565b6040516102ba929190618073565b60405180910390f35b6102cb611c90565b6040516102d8919061809c565b60405180910390f35b6102fb60048036038101906102f691906180b7565b611c96565b005b6103176004803603810190610312919061813f565b61229e565b604051610325929190617d2b565b60405180910390f35b610348600480360381019061034391906181f0565b612613565b60405161035995949392919061821d565b60405180910390f35b61037c600480360381019061037791906182a9565b61269d565b604051610389919061809c565b60405180910390f35b61039a6126b5565b6040516103a79190617d10565b60405180910390f35b6103ca60048036038101906103c59190618302565b6126d9565b005b6103e660048036038101906103e19190618342565b612921565b6040516103f4929190617d2b565b60405180910390f35b610417600480360381019061041291906183eb565b612e16565b6040516104259291906185b4565b60405180910390f35b610448600480360381019061044391906185eb565b612ee7565b604051610456929190618073565b60405180910390f35b6104796004803603810190610474919061863e565b613151565b6040516104889392919061867e565b60405180910390f35b610499613509565b6040516104a69190617ac3565b60405180910390f35b6104b761352d565b6040516104c491906186b5565b60405180910390f35b6104d5613551565b6040516104e29190617ac3565b60405180910390f35b6104f3613575565b60405161050091906186ee565b60405180910390f35b610511613599565b60405161051e919061809c565b60405180910390f35b610541600480360381019061053c9190618709565b61359f565b604051610555989796959493929190618752565b60405180910390f35b610578600480360381019061057391906187d0565b61365a565b005b7f000000000000000000000000000000000000000000000000000000000000000081565b6000806105a9613994565b600086036105ec576040517f08c379a00000000000000000000000000000000000000000000000000000000081526004016105e39061885a565b60405180910390fd5b6000806040518060e00160405290816000820160009054906101000a900473ffffffffffffffffffffffffffffffffffffffff1673ffffffffffffffffffffffffffffffffffffffff1673ffffffffffffffffffffffffffffffffffffffff1681526020016000820160149054906101000a900460020b60020b60020b81526020016000820160179054906101000a900461ffff1661ffff1661ffff1681526020016000820160199054906101000a900461ffff1661ffff1661ffff16815260200160008201601b9054906101000a900461ffff1661ffff1661ffff16815260200160008201601d9054906101000a900460ff1660ff1660ff16815260200160008201601e9054906101000a900460ff16151515158152505090508060c0015161074b576040517f08c379a0000000000000000000000000000000000000000000000000000000008152600401610742906188c6565b60405180910390fd5b876107d357806000015173ffffffffffffffffffffffffffffffffffffffff168673ffffffffffffffffffffffffffffffffffffffff161180156107ce575073fffd8963efd1fc6a506488495d951d5263988d2673ffffffffffffffffffffffffffffffffffffffff168673ffffffffffffffffffffffffffffffffffffffff16105b610843565b806000015173ffffffffffffffffffffffffffffffffffffffff168673ffffffffffffffffffffffffffffffffffffffff1610801561084257506401000276a373ffffffffffffffffffffffffffffffffffffffff168673ffffffffffffffffffffffffffffffffffffffff16115b5b610882576040517f08c379a000000000000000000000000000000000000000000000000000000000815260040161087990618932565b60405180910390fd5b600080600001601e6101000a81548160ff02191690831515021790555060006040518060c001604052808a6108c25760048460a0015160ff16901c6108d4565b60108460a001516108d39190618981565b5b60ff1681526020016201000660009054906101000a90046fffffffffffffffffffffffffffffffff166fffffffffffffffffffffffffffffffff16815260200161091c6139ee565b63ffffffff168152602001600060060b8152602001600073ffffffffffffffffffffffffffffffffffffffff1681526020016000151581525090506000808913905060006040518060e001604052808b815260200160008152602001856000015173ffffffffffffffffffffffffffffffffffffffff168152602001856020015160020b81526020018c6109b2576002546109b6565b6001545b815260200160006fffffffffffffffffffffffffffffffff16815260200184602001516fffffffffffffffffffffffffffffffff1681525090505b6000816000015114158015610a3657508873ffffffffffffffffffffffffffffffffffffffff16816040015173ffffffffffffffffffffffffffffffffffffffff1614155b156110cd57610a436179cb565b8160400151816000019073ffffffffffffffffffffffffffffffffffffffff16908173ffffffffffffffffffffffffffffffffffffffff1681525050610abb82606001517f00000000000000000000000000000000000000000000000000000000000000008e60046139f6909392919063ffffffff16565b826020018360400182151515158152508260020b60020b81525050507ffffffffffffffffffffffffffffffffffffffffffffffffffffffffffff2761860020b816020015160020b1215610b40577ffffffffffffffffffffffffffffffffffffffffffffffffffffffffffff27618816020019060020b908160020b81525050610bb8565b7ffffffffffffffffffffffffffffffffffffffffffffffffffffffffffff27618610b6a906189e1565b60020b816020015160020b1315610bb7577ffffffffffffffffffffffffffffffffffffffffffffffffffffffffffff27618610ba5906189e1565b816020019060020b908160020b815250505b5b610bc58160200151613be4565b816060019073ffffffffffffffffffffffffffffffffffffffff16908173ffffffffffffffffffffffffffffffffffffffff1681525050610cb582604001518d610c41578b73ffffffffffffffffffffffffffffffffffffffff16836060015173ffffffffffffffffffffffffffffffffffffffff1611610c75565b8b73ffffffffffffffffffffffffffffffffffffffff16836060015173ffffffffffffffffffffffffffffffffffffffff16105b610c83578260600151610c85565b8b5b8460c0015185600001517f00000000000000000000000000000000000000000000000000000000000000006140af565b85604001856080018660a0018760c0018481525084815250848152508473ffffffffffffffffffffffffffffffffffffffff1673ffffffffffffffffffffffffffffffffffffffff16815250505050508215610d6957610d278160c001518260800151610d229190618a29565b61433e565b82600001818151610d389190618a5d565b91508181525050610d4c8160a0015161433e565b8260200151610d5b9190618a5d565b826020018181525050610dc3565b610d768160a0015161433e565b82600001818151610d879190618aa0565b91508181525050610daa8160c001518260800151610da59190618a29565b61433e565b8260200151610db99190618aa0565b8260200181815250505b6000846000015160ff161115610e48576000846000015160ff168260c00151610dec9190618ae4565b9050808260c001818151610e009190618b15565b91508181525050808360a001818151610e199190618b49565b9150906fffffffffffffffffffffffffffffffff1690816fffffffffffffffffffffffffffffffff1681525050505b60008260c001516fffffffffffffffffffffffffffffffff161115610eb657610e9d8160c001517001000000000000000000000000000000008460c001516fffffffffffffffffffffffffffffffff16614374565b82608001818151610eae9190618a29565b915081815250505b806060015173ffffffffffffffffffffffffffffffffffffffff16826040015173ffffffffffffffffffffffffffffffffffffffff160361106c57806040015115611035578360a00151610f8d57610f37846040015160008760200151886040015188602001518a606001516006614514909695949392919063ffffffff16565b85606001866080018273ffffffffffffffffffffffffffffffffffffffff1673ffffffffffffffffffffffffffffffffffffffff168152508260060b60060b815250505060018460a00190151590811515815250505b6000610fe182602001518e610fa457600154610faa565b84608001515b8f610fb9578560800151610fbd565b6002545b886080015189606001518a60400151600361479d909695949392919063ffffffff16565b90508c15610ff65780610ff390618b8d565b90505b6110048360c0015182614906565b8360c001906fffffffffffffffffffffffffffffffff1690816fffffffffffffffffffffffffffffffff1681525050505b8b611044578060200151611056565b600181602001516110559190618bd5565b5b826060019060020b908160020b815250506110c7565b806000015173ffffffffffffffffffffffffffffffffffffffff16826040015173ffffffffffffffffffffffffffffffffffffffff16146110c6576110b48260400151614a11565b826060019060020b908160020b815250505b5b506109f1565b836020015160020b816060015160020b146111e35760008061111b86604001518660400151886020015188602001518a606001518b608001516006614e10909695949392919063ffffffff16565b915091508260400151836060015183836000800160008060000160146000800160176000800160198891906101000a81548161ffff021916908361ffff1602179055508791906101000a81548161ffff021916908361ffff1602179055508691906101000a81548162ffffff021916908360020b62ffffff1602179055508591906101000a81548173ffffffffffffffffffffffffffffffffffffffff021916908373ffffffffffffffffffffffffffffffffffffffff16021790555050505050505061122b565b80604001516000800160006101000a81548173ffffffffffffffffffffffffffffffffffffffff021916908373ffffffffffffffffffffffffffffffffffffffff1602179055505b8060c001516fffffffffffffffffffffffffffffffff1683602001516fffffffffffffffffffffffffffffffff161461129e578060c001516201000660006101000a8154816fffffffffffffffffffffffffffffffff02191690836fffffffffffffffffffffffffffffffff1602179055505b8a1561134057806080015160018190555060008160a001516fffffffffffffffffffffffffffffffff16111561133b578060a001516201000560000160008282829054906101000a90046fffffffffffffffffffffffffffffffff166113049190618b49565b92506101000a8154816fffffffffffffffffffffffffffffffff02191690836fffffffffffffffffffffffffffffffff1602179055505b6113d8565b806080015160028190555060008160a001516fffffffffffffffffffffffffffffffff1611156113d7578060a001516201000560000160108282829054906101000a90046fffffffffffffffffffffffffffffffff166113a09190618b49565b92506101000a8154816fffffffffffffffffffffffffffffffff02191690836fffffffffffffffffffffffffffffffff1602179055505b5b8115158b1515146113fd57806020015181600001518b6113f89190618a5d565b611413565b80600001518a61140d9190618a5d565b81602001515b80965081975050508a1561153757600085121561145f5761145e7f00000000000000000000000000000000000000000000000000000000000000008d8761145990618c30565b61505b565b5b60006114696151b0565b90503373ffffffffffffffffffffffffffffffffffffffff1663fa461e3388888c8c6040518563ffffffff1660e01b81526004016114aa9493929190618cd6565b600060405180830381600087803b1580156114c457600080fd5b505af11580156114d8573d6000803e3d6000fd5b505050506114e46151b0565b87826114f09190618a29565b1115611531576040517f08c379a000000000000000000000000000000000000000000000000000000000815260040161152890618d62565b60405180910390fd5b50611649565b6000861215611575576115747f00000000000000000000000000000000000000000000000000000000000000008d8861156f90618c30565b61505b565b5b600061157f6152e7565b90503373ffffffffffffffffffffffffffffffffffffffff1663fa461e3388888c8c6040518563ffffffff1660e01b81526004016115c09493929190618cd6565b600060405180830381600087803b1580156115da57600080fd5b505af11580156115ee573d6000803e3d6000fd5b505050506115fa6152e7565b86826116069190618a29565b1115611647576040517f08c379a000000000000000000000000000000000000000000000000000000000815260040161163e90618d62565b60405180910390fd5b505b8b73ffffffffffffffffffffffffffffffffffffffff163373ffffffffffffffffffffffffffffffffffffffff167fc42079f94a6350d7e6235f29174924f928cc2ac818eb64fed8004e115fbcca67888885604001518660c0015187606001516040516116ba959493929190618d82565b60405180910390a3600160008001601e6101000a81548160ff02191690831515021790555050505050965096945050505050565b6201000660009054906101000a90046fffffffffffffffffffffffffffffffff1681565b620100058060000160009054906101000a90046fffffffffffffffffffffffffffffffff16908060000160109054906101000a90046fffffffffffffffffffffffffffffffff16905082565b60068161ffff811061176f57600080fd5b016000915090508060000160009054906101000a900463ffffffff16908060000160049054906101000a900460060b9080600001600b9054906101000a900473ffffffffffffffffffffffffffffffffffffffff169080600001601f9054906101000a900460ff16905084565b60008001601e9054906101000a900460ff1661182d576040517f08c379a000000000000000000000000000000000000000000000000000000000815260040161182490618e21565b60405180910390fd5b600080600001601e6101000a81548160ff021916908315150217905550611852613994565b600080600001601b9054906101000a900461ffff16905060006118818284600661541e9092919063ffffffff16565b90508060008001601b6101000a81548161ffff021916908361ffff1602179055508061ffff168261ffff16146118eb577fac49e518f90a358f652e4400164f05a5d8f7e35e7747279bc3a93dbf584e125a82826040516118e2929190618e41565b60405180910390a15b5050600160008001601e6101000a81548160ff02191690831515021790555050565b60008060000160009054906101000a900473ffffffffffffffffffffffffffffffffffffffff16908060000160149054906101000a900460020b908060000160179054906101000a900461ffff16908060000160199054906101000a900461ffff169080600001601b9054906101000a900461ffff169080600001601d9054906101000a900460ff169080600001601e9054906101000a900460ff16905087565b60008060008001601e9054906101000a900460ff16611a02576040517f08c379a00000000000000000000000000000000000000000000000000000000081526004016119f990618e21565b60405180910390fd5b600080600001601e6101000a81548160ff0219169083151502179055506000856fffffffffffffffffffffffffffffffff1611611a3e57600080fd5b600080611aa360405180608001604052808c73ffffffffffffffffffffffffffffffffffffffff1681526020018b60020b81526020018a60020b8152602001611a988a6fffffffffffffffffffffffffffffffff166154ee565b600f0b815250615507565b92509250508193508092506000806000861115611ac557611ac26151b0565b91505b6000851115611ad957611ad66152e7565b90505b3373ffffffffffffffffffffffffffffffffffffffff1663d348799787878b8b6040518563ffffffff1660e01b8152600401611b189493929190618e6a565b600060405180830381600087803b158015611b3257600080fd5b505af1158015611b46573d6000803e3d6000fd5b505050506000861115611ba957611b5b6151b0565b8683611b679190618a29565b1115611ba8576040517f08c379a0000000000000000000000000000000000000000000000000000000008152600401611b9f90618ef6565b60405180910390fd5b5b6000851115611c0857611bba6152e7565b8582611bc69190618a29565b1115611c07576040517f08c379a0000000000000000000000000000000000000000000000000000000008152600401611bfe90618f62565b60405180910390fd5b5b8960020b8b60020b8d73ffffffffffffffffffffffffffffffffffffffff167f7a53080ba414158be7ec69b987b5fb7d07dee101fe85488f0853ae16239d0bde338d8b8b604051611c5c9493929190618f82565b60405180910390a450505050600160008001601e6101000a81548160ff021916908315150217905550965096945050505050565b60025481565b60008001601e9054906101000a900460ff16611ce7576040517f08c379a0000000000000000000000000000000000000000000000000000000008152600401611cde90618e21565b60405180910390fd5b600080600001601e6101000a81548160ff021916908315150217905550611d0c613994565b60006201000660009054906101000a90046fffffffffffffffffffffffffffffffff1690506000816fffffffffffffffffffffffffffffffff1611611d86576040517f08c379a0000000000000000000000000000000000000000000000000000000008152600401611d7d90619013565b60405180910390fd5b6000611dbb867f000000000000000000000000000000000000000000000000000000000000000062ffffff16620f424061582f565b90506000611df2867f000000000000000000000000000000000000000000000000000000000000000062ffffff16620f424061582f565b90506000611dfe6151b0565b90506000611e0a6152e7565b90506000891115611e4157611e407f00000000000000000000000000000000000000000000000000000000000000008b8b61505b565b5b6000881115611e7657611e757f00000000000000000000000000000000000000000000000000000000000000008b8a61505b565b5b3373ffffffffffffffffffffffffffffffffffffffff1663e9cbafb085858a8a6040518563ffffffff1660e01b8152600401611eb59493929190618e6a565b600060405180830381600087803b158015611ecf57600080fd5b505af1158015611ee3573d6000803e3d6000fd5b505050506000611ef16151b0565b90506000611efd6152e7565b9050818685611f0c9190618a29565b1115611f4d576040517f08c379a0000000000000000000000000000000000000000000000000000000008152600401611f449061907f565b60405180910390fd5b808584611f5a9190618a29565b1115611f9b576040517f08c379a0000000000000000000000000000000000000000000000000000000008152600401611f92906190eb565b60405180910390fd5b60008483611fa99190618b15565b905060008483611fb99190618b15565b905060008211156120e3576000601060008001601d9054906101000a900460ff16611fe49190618981565b90506000808260ff1614612006578160ff16846120019190618ae4565b612009565b60005b90506000816fffffffffffffffffffffffffffffffff16111561208f57806201000560000160008282829054906101000a90046fffffffffffffffffffffffffffffffff166120589190618b49565b92506101000a8154816fffffffffffffffffffffffffffffffff02191690836fffffffffffffffffffffffffffffffff1602179055505b6120c8818561209e9190618b15565b7001000000000000000000000000000000008d6fffffffffffffffffffffffffffffffff16614374565b600160008282546120d99190618a29565b9250508190555050505b6000811115612206576000600460008001601d9054906101000a900460ff1660ff16901c90506000808260ff1614612129578160ff16836121249190618ae4565b61212c565b60005b90506000816fffffffffffffffffffffffffffffffff1611156121b257806201000560000160108282829054906101000a90046fffffffffffffffffffffffffffffffff1661217b9190618b49565b92506101000a8154816fffffffffffffffffffffffffffffffff02191690836fffffffffffffffffffffffffffffffff1602179055505b6121eb81846121c19190618b15565b7001000000000000000000000000000000008d6fffffffffffffffffffffffffffffffff16614374565b600260008282546121fc9190618a29565b9250508190555050505b8d73ffffffffffffffffffffffffffffffffffffffff163373ffffffffffffffffffffffffffffffffffffffff167fbdbdb71d7860376ba52b25a5028beea23581364a40522f6bcfb86bb1f2dca6338f8f8686604051612269949392919061910b565b60405180910390a3505050505050505050600160008001601e6101000a81548160ff0219169083151502179055505050505050565b60008060008001601e9054906101000a900460ff166122f2576040517f08c379a00000000000000000000000000000000000000000000000000000000081526004016122e990618e21565b60405180910390fd5b600080600001601e6101000a81548160ff0219169083151502179055506000612329338888600561589a909392919063ffffffff16565b90508060030160009054906101000a90046fffffffffffffffffffffffffffffffff166fffffffffffffffffffffffffffffffff16856fffffffffffffffffffffffffffffffff161161237c578461239e565b8060030160009054906101000a90046fffffffffffffffffffffffffffffffff165b92508060030160109054906101000a90046fffffffffffffffffffffffffffffffff166fffffffffffffffffffffffffffffffff16846fffffffffffffffffffffffffffffffff16116123f15783612413565b8060030160109054906101000a90046fffffffffffffffffffffffffffffffff165b91506000836fffffffffffffffffffffffffffffffff1611156124d357828160030160008282829054906101000a90046fffffffffffffffffffffffffffffffff1661245f9190619150565b92506101000a8154816fffffffffffffffffffffffffffffffff02191690836fffffffffffffffffffffffffffffffff1602179055506124d27f000000000000000000000000000000000000000000000000000000000000000089856fffffffffffffffffffffffffffffffff1661505b565b5b6000826fffffffffffffffffffffffffffffffff16111561259157818160030160108282829054906101000a90046fffffffffffffffffffffffffffffffff1661251d9190619150565b92506101000a8154816fffffffffffffffffffffffffffffffff02191690836fffffffffffffffffffffffffffffffff1602179055506125907f000000000000000000000000000000000000000000000000000000000000000089846fffffffffffffffffffffffffffffffff1661505b565b5b8560020b8760020b3373ffffffffffffffffffffffffffffffffffffffff167f70935338e69775456a85ddef226c395fb668b63fa0115f5f20610b388e6ca9c08b87876040516125e393929190619194565b60405180910390a450600160008001601e6101000a81548160ff0219169083151502179055509550959350505050565b60056020528060005260406000206000915090508060000160009054906101000a90046fffffffffffffffffffffffffffffffff16908060010154908060020154908060030160009054906101000a90046fffffffffffffffffffffffffffffffff16908060030160109054906101000a90046fffffffffffffffffffffffffffffffff16905085565b60046020528060005260406000206000915090505481565b7f000000000000000000000000000000000000000000000000000000000000000081565b60008001601e9054906101000a900460ff1661272a576040517f08c379a000000000000000000000000000000000000000000000000000000000815260040161272190618e21565b60405180910390fd5b600080600001601e6101000a81548160ff0219169083151502179055507f000000000000000000000000000000000000000000000000000000000000000073ffffffffffffffffffffffffffffffffffffffff16638da5cb5b6040518163ffffffff1660e01b8152600401602060405180830381865afa1580156127b2573d6000803e3d6000fd5b505050506040513d601f19601f820116820180604052508101906127d691906191e0565b73ffffffffffffffffffffffffffffffffffffffff163373ffffffffffffffffffffffffffffffffffffffff161461280d57600080fd5b60008260ff161480612833575060048260ff16101580156128325750600a8260ff1611155b5b8015612861575060008160ff161480612860575060048160ff161015801561285f5750600a8160ff1611155b5b5b61286a57600080fd5b600080600001601d9054906101000a900460ff16905060048260ff16901b83612893919061920d565b60008001601d6101000a81548160ff021916908360ff1602179055507f973d8d92bb299f4af6ce49b52a8adb85ae46b9f214c4c4fc06ac77401237b1336010826128dd9190618981565b60048360ff16901c85856040516128f79493929190619242565b60405180910390a150600160008001601e6101000a81548160ff0219169083151502179055505050565b60008060008001601e9054906101000a900460ff16612975576040517f08c379a000000000000000000000000000000000000000000000000000000000815260040161296c90618e21565b60405180910390fd5b600080600001601e6101000a81548160ff0219169083151502179055507f000000000000000000000000000000000000000000000000000000000000000073ffffffffffffffffffffffffffffffffffffffff16638da5cb5b6040518163ffffffff1660e01b8152600401602060405180830381865afa1580156129fd573d6000803e3d6000fd5b505050506040513d601f19601f82011682018060405250810190612a2191906191e0565b73ffffffffffffffffffffffffffffffffffffffff163373ffffffffffffffffffffffffffffffffffffffff1614612a5857600080fd5b6201000560000160009054906101000a90046fffffffffffffffffffffffffffffffff166fffffffffffffffffffffffffffffffff16846fffffffffffffffffffffffffffffffff1611612aac5783612ad1565b6201000560000160009054906101000a90046fffffffffffffffffffffffffffffffff165b91506201000560000160109054906101000a90046fffffffffffffffffffffffffffffffff166fffffffffffffffffffffffffffffffff16836fffffffffffffffffffffffffffffffff1611612b275782612b4c565b6201000560000160109054906101000a90046fffffffffffffffffffffffffffffffff165b90506000826fffffffffffffffffffffffffffffffff161115612c6c576201000560000160009054906101000a90046fffffffffffffffffffffffffffffffff166fffffffffffffffffffffffffffffffff16826fffffffffffffffffffffffffffffffff1603612bc6578180612bc290619287565b9250505b816201000560000160008282829054906101000a90046fffffffffffffffffffffffffffffffff16612bf89190619150565b92506101000a8154816fffffffffffffffffffffffffffffffff02191690836fffffffffffffffffffffffffffffffff160217905550612c6b7f000000000000000000000000000000000000000000000000000000000000000086846fffffffffffffffffffffffffffffffff1661505b565b5b6000816fffffffffffffffffffffffffffffffff161115612d8a576201000560000160109054906101000a90046fffffffffffffffffffffffffffffffff166fffffffffffffffffffffffffffffffff16816fffffffffffffffffffffffffffffffff1603612ce4578080612ce090619287565b9150505b806201000560000160108282829054906101000a90046fffffffffffffffffffffffffffffffff16612d169190619150565b92506101000a8154816fffffffffffffffffffffffffffffffff02191690836fffffffffffffffffffffffffffffffff160217905550612d897f000000000000000000000000000000000000000000000000000000000000000086836fffffffffffffffffffffffffffffffff1661505b565b5b8473ffffffffffffffffffffffffffffffffffffffff163373ffffffffffffffffffffffffffffffffffffffff167f596b573906218d3411850b26a6b437d6c4522fdb43d2d2386263f86d50b8b1518484604051612de9929190617d2b565b60405180910390a3600160008001601e6101000a81548160ff021916908315150217905550935093915050565b606080612e21613994565b612edc612e2c6139ee565b858580806020026020016040519081016040528093929190818152602001838360200280828437600081840152601f19601f820116905080830192505050505050506000800160149054906101000a900460020b6000800160179054906101000a900461ffff166201000660009054906101000a90046fffffffffffffffffffffffffffffffff166000800160199054906101000a900461ffff1660066158e2909695949392919063ffffffff16565b915091509250929050565b60008060008001601e9054906101000a900460ff16612f3b576040517f08c379a0000000000000000000000000000000000000000000000000000000008152600401612f3290618e21565b60405180910390fd5b600080600001601e6101000a81548160ff0219169083151502179055506000806000612fc860405180608001604052803373ffffffffffffffffffffffffffffffffffffffff1681526020018a60020b81526020018960020b8152602001612fb4896fffffffffffffffffffffffffffffffff166154ee565b612fbd90618b8d565b600f0b815250615507565b92509250925081612fd890618c30565b945080612fe490618c30565b93506000851180612ff55750600084115b156130cf57848360030160009054906101000a90046fffffffffffffffffffffffffffffffff166130269190618b49565b848460030160109054906101000a90046fffffffffffffffffffffffffffffffff166130529190618b49565b8460030160008660030160108491906101000a8154816fffffffffffffffffffffffffffffffff02191690836fffffffffffffffffffffffffffffffff1602179055508391906101000a8154816fffffffffffffffffffffffffffffffff02191690836fffffffffffffffffffffffffffffffff16021790555050505b8660020b8860020b3373ffffffffffffffffffffffffffffffffffffffff167f0c396cd989a39f4459b5fa1aed6a9a8dcdbc45908acfd67e028cd568da98982c898989604051613121939291906192b0565b60405180910390a4505050600160008001601e6101000a81548160ff021916908315150217905550935093915050565b600080600061315e613994565b6131688585615a89565b6000806000806000806000600360008d60020b60020b815260200190815260200160002090506000600360008d60020b60020b8152602001908152602001600020905060008260030160009054906101000a900460060b8360030160079054906101000a900473ffffffffffffffffffffffffffffffffffffffff1684600301601b9054906101000a900463ffffffff1685600301601f9054906101000a900460ff16809450819850829a50839c50505050508061322557600080fd5b60008260030160009054906101000a900460060b8360030160079054906101000a900473ffffffffffffffffffffffffffffffffffffffff1684600301601b9054906101000a900463ffffffff1685600301601f9054906101000a900460ff16809450819850829a50839c50505050508061329f57600080fd5b505050506000806040518060e00160405290816000820160009054906101000a900473ffffffffffffffffffffffffffffffffffffffff1673ffffffffffffffffffffffffffffffffffffffff1673ffffffffffffffffffffffffffffffffffffffff1681526020016000820160149054906101000a900460020b60020b60020b81526020016000820160179054906101000a900461ffff1661ffff1661ffff1681526020016000820160199054906101000a900461ffff1661ffff1661ffff16815260200160008201601b9054906101000a900461ffff1661ffff1661ffff16815260200160008201601d9054906101000a900460ff1660ff1660ff16815260200160008201601e9054906101000a900460ff16151515158152505090508b60020b816020015160020b12156134065785876133dc91906192e7565b84866133e89190619346565b83856133f4919061938e565b99509950995050505050505050613502565b8a60020b816020015160020b12156134d05760006134226139ee565b9050600080613472836000866020015187604001516201000660009054906101000a90046fffffffffffffffffffffffffffffffff1689606001516006614514909695949392919063ffffffff16565b91509150888a8361348391906192e7565b61348d91906192e7565b87898361349a9190619346565b6134a49190619346565b8688866134b1919061938e565b6134bb919061938e565b9c509c509c5050505050505050505050613502565b86866134dc91906192e7565b85856134e89190619346565b84846134f4919061938e565b995099509950505050505050505b9250925092565b7f000000000000000000000000000000000000000000000000000000000000000081565b7f000000000000000000000000000000000000000000000000000000000000000081565b7f000000000000000000000000000000000000000000000000000000000000000081565b7f000000000000000000000000000000000000000000000000000000000000000081565b60015481565b60036020528060005260406000206000915090508060000160009054906101000a90046fffffffffffffffffffffffffffffffff16908060000160109054906101000a9004600f0b908060010154908060020154908060030160009054906101000a900460060b908060030160079054906101000a900473ffffffffffffffffffffffffffffffffffffffff169080600301601b9054906101000a900463ffffffff169080600301601f9054906101000a900460ff16905088565b60008060000160009054906101000a900473ffffffffffffffffffffffffffffffffffffffff1673ffffffffffffffffffffffffffffffffffffffff16146136d7576040517f08c379a00000000000000000000000000000000000000000000000000000000081526004016136ce90619412565b60405180910390fd5b60006136e282614a11565b90506000806137026136f26139ee565b6006615bb090919063ffffffff16565b915091506040518060e001604052808573ffffffffffffffffffffffffffffffffffffffff1681526020018460020b8152602001600061ffff1681526020018361ffff1681526020018261ffff168152602001600060ff168152602001600115158152506000808201518160000160006101000a81548173ffffffffffffffffffffffffffffffffffffffff021916908373ffffffffffffffffffffffffffffffffffffffff16021790555060208201518160000160146101000a81548162ffffff021916908360020b62ffffff16021790555060408201518160000160176101000a81548161ffff021916908361ffff16021790555060608201518160000160196101000a81548161ffff021916908361ffff160217905550608082015181600001601b6101000a81548161ffff021916908361ffff16021790555060a082015181600001601d6101000a81548160ff021916908360ff16021790555060c082015181600001601e6101000a81548160ff0219169083151502179055509050507f98636036cb66a9c19a37435efc1e90142190214e8abeb821bdba3f2990dd4c9584846040516138b4929190619432565b60405180910390a150505050565b60008082837ffffffffffffffffffffffffffffffffffffffffffffffffffffffffffff276186138f2919061945b565b6138fc91906194c5565b9050600083847ffffffffffffffffffffffffffffffffffffffffffffffffffffffffffff2761861392c906189e1565b613936919061945b565b61394091906194c5565b9050600060018584846139539190618bd5565b61395d919061945b565b6139679190619502565b90508062ffffff166fffffffffffffffffffffffffffffffff61398a9190619539565b9350505050919050565b7f000000000000000000000000000000000000000000000000000000000000000073ffffffffffffffffffffffffffffffffffffffff163073ffffffffffffffffffffffffffffffffffffffff16146139ec57600080fd5b565b600042905090565b60008060008486613a07919061945b565b905060008660020b128015613a2b575060008587613a25919061956a565b60020b14155b15613a3f578080613a3b9061959b565b9150505b8315613b0257600080613a5183615cdd565b9150915060008160ff166001901b60018360ff166001901b613a739190618b15565b613a7d9190618a29565b90506000818b60008660010b60010b8152602001908152602001600020541690506000811415955085613ac957888360ff1686613aba9190618bd5565b613ac491906194c5565b613af7565b88613ad382615cff565b84613ade91906195e3565b60ff1686613aec9190618bd5565b613af691906194c5565b5b965050505050613bda565b600080613b1a600184613b159190619618565b615cdd565b91509150600060018260ff166001901b613b349190618b15565b1990506000818b60008660010b60010b8152602001908152602001600020541690506000811415955085613b9957888360ff613b7091906195e3565b60ff16600187613b809190619618565b613b8a9190619618565b613b9491906194c5565b613bd3565b8883613ba483615e22565b613bae91906195e3565b60ff16600187613bbe9190619618565b613bc89190619618565b613bd291906194c5565b5b9650505050505b5094509492505050565b60008060008360020b12613bfb578260020b613c09565b8260020b613c0890618c30565b5b90507ffffffffffffffffffffffffffffffffffffffffffffffffffffffffffff27618613c35906189e1565b60020b811115613c7a576040517f08c379a0000000000000000000000000000000000000000000000000000000008152600401613c71906196bf565b60405180910390fd5b6000806001831603613c9d57700100000000000000000000000000000000613caf565b6ffffcb933bd6fad37aa2d162d1a5940015b70ffffffffffffffffffffffffffffffffff16905060006002831614613cf25760806ffff97272373d413259a46990580e213a82613ced91906196df565b901c90505b60006004831614613d205760806ffff2e50f5f656932ef12357cf3c7fdcc82613d1b91906196df565b901c90505b60006008831614613d4e5760806fffe5caca7e10e4e61c3624eaa0941cd082613d4991906196df565b901c90505b60006010831614613d7c5760806fffcb9843d60f6159c9db58835c92664482613d7791906196df565b901c90505b60006020831614613daa5760806fff973b41fa98c081472e6896dfb254c082613da591906196df565b901c90505b60006040831614613dd85760806fff2ea16466c96a3843ec78b326b5286182613dd391906196df565b901c90505b60006080831614613e065760806ffe5dee046a99a2a811c461f1969c305382613e0191906196df565b901c90505b6000610100831614613e355760806ffcbe86c7900a88aedcffc83b479aa3a482613e3091906196df565b901c90505b6000610200831614613e645760806ff987a7253ac413176f2b074cf7815e5482613e5f91906196df565b901c90505b6000610400831614613e935760806ff3392b0822b70005940c7a398e4b70f382613e8e91906196df565b901c90505b6000610800831614613ec25760806fe7159475a2c29b7443b29c7fa6e889d982613ebd91906196df565b901c90505b6000611000831614613ef15760806fd097f3bdfd2022b8845ad8f792aa582582613eec91906196df565b901c90505b6000612000831614613f205760806fa9f746462d870fdf8a65dc1f90e061e582613f1b91906196df565b901c90505b6000614000831614613f4f5760806f70d869a156d2a1b890bb3df62baf32f782613f4a91906196df565b901c90505b6000618000831614613f7e5760806f31be135f97d08fd981231505542fcfa682613f7991906196df565b901c90505b600062010000831614613fae5760806f09aa508b5b7a84e1c677de54f3e99bc982613fa991906196df565b901c90505b600062020000831614613fdd5760806e5d6af8dedb81196699c329225ee60482613fd891906196df565b901c90505b60006204000083161461400b5760806d2216e584f5fa1ea926041bedfe988261400691906196df565b901c90505b6000620800008316146140375760806b048a170391f7dc42444e8fa28261403291906196df565b901c90505b60008460020b131561407257807fffffffffffffffffffffffffffffffffffffffffffffffffffffffffffffffff61406f9190618ae4565b90505b6000640100000000826140859190619721565b14614091576001614094565b60005b60ff16602082901c6140a69190618a29565b92505050919050565b60008060008060008873ffffffffffffffffffffffffffffffffffffffff168a73ffffffffffffffffffffffffffffffffffffffff16101590506000808812159050801561416757600061411a8989620f424061410c9190619752565b62ffffff16620f4240614374565b9050826141335761412e8c8c8c6001615f91565b614141565b6141408b8d8c600161607d565b5b9550858110614152578a9650614161565b61415e8c8b83866161be565b96505b506141bf565b8161417e576141798b8b8b600061607d565b61418c565b61418b8a8c8b6000615f91565b5b9350838861419990618c30565b106141a6578995506141be565b6141bb8b8a8a6141b590618c30565b85616230565b95505b5b60008673ffffffffffffffffffffffffffffffffffffffff168b73ffffffffffffffffffffffffffffffffffffffff161490508215614246578080156142025750815b61421857614213878d8c600161607d565b61421a565b855b9550808015614227575081155b61423d57614238878d8c6000615f91565b61423f565b845b9450614290565b8080156142505750815b614266576142618c888c6001615f91565b614268565b855b9550808015614275575081155b61428b576142868c888c600061607d565b61428d565b845b94505b811580156142a65750886142a390618c30565b85115b156142b857886142b590618c30565b94505b8180156142f157508a73ffffffffffffffffffffffffffffffffffffffff168773ffffffffffffffffffffffffffffffffffffffff1614155b156143095785896143029190618b15565b935061432f565b61432c868962ffffff168a620f42406143229190619752565b62ffffff1661582f565b93505b50505095509550955095915050565b60007f8000000000000000000000000000000000000000000000000000000000000000821061436c57600080fd5b819050919050565b60008060008019858709858702925082811083820303915050600081036143ae57600084116143a257600080fd5b8382049250505061450d565b8084116143ba57600080fd5b6000848688099050828111820391508083039250600085600187196143df9190618a29565b169050808604955080840493506001818260000304019050808361440391906196df565b841793506000600287600361441891906196df565b189050808761442791906196df565b60026144339190618b15565b8161443e91906196df565b9050808761444c91906196df565b60026144589190618b15565b8161446391906196df565b9050808761447191906196df565b600261447d9190618b15565b8161448891906196df565b9050808761449691906196df565b60026144a29190618b15565b816144ad91906196df565b905080876144bb91906196df565b60026144c79190618b15565b816144d291906196df565b905080876144e091906196df565b60026144ec9190618b15565b816144f791906196df565b9050808561450591906196df565b955050505050505b9392505050565b60008060008763ffffffff160361463b576000898661ffff1661ffff811061453f5761453e619789565b5b016040518060800160405290816000820160009054906101000a900463ffffffff1663ffffffff1663ffffffff1681526020016000820160049054906101000a900460060b60060b60060b815260200160008201600b9054906101000a900473ffffffffffffffffffffffffffffffffffffffff1673ffffffffffffffffffffffffffffffffffffffff1673ffffffffffffffffffffffffffffffffffffffff16815260200160008201601f9054906101000a900460ff16151515158152505090508863ffffffff16816000015163ffffffff161461462757614624818a89886162a2565b90505b806020015181604001519250925050614791565b60008789614649919061938e565b905060008061465d8c8c858c8c8c8c61639d565b91509150816000015163ffffffff168363ffffffff160361468e578160200151826040015194509450505050614791565b806000015163ffffffff168363ffffffff16036146bb578060200151816040015194509450505050614791565b6000826000015182600001516146d1919061938e565b905060008360000151856146e5919061938e565b90508063ffffffff168263ffffffff168560200151856020015161470991906192e7565b61471391906197b8565b61471d9190619822565b846020015161472c919061985f565b8263ffffffff168263ffffffff168660400151866040015161474e9190619346565b73ffffffffffffffffffffffffffffffffffffffff1661476e91906196df565b6147789190618ae4565b856040015161478791906198be565b9650965050505050505b97509795505050505050565b6000808860008960020b60020b815260200190815260200160002090508060010154876147ca9190618b15565b81600101819055508060020154866147e29190618b15565b81600201819055508060030160079054906101000a900473ffffffffffffffffffffffffffffffffffffffff168561481a9190619346565b8160030160076101000a81548173ffffffffffffffffffffffffffffffffffffffff021916908373ffffffffffffffffffffffffffffffffffffffff1602179055508060030160009054906101000a900460060b8461487991906192e7565b8160030160006101000a81548166ffffffffffffff021916908360060b66ffffffffffffff16021790555080600301601b9054906101000a900463ffffffff16836148c4919061938e565b81600301601b6101000a81548163ffffffff021916908363ffffffff1602179055508060000160109054906101000a9004600f0b915050979650505050505050565b60008082600f0b121561499557826fffffffffffffffffffffffffffffffff168261493090618b8d565b8461493b9190619150565b9150816fffffffffffffffffffffffffffffffff1610614990576040517f08c379a000000000000000000000000000000000000000000000000000000000815260040161498790619952565b60405180910390fd5b614a0b565b826fffffffffffffffffffffffffffffffff1682846149b49190618b49565b9150816fffffffffffffffffffffffffffffffff161015614a0a576040517f08c379a0000000000000000000000000000000000000000000000000000000008152600401614a01906199be565b60405180910390fd5b5b92915050565b60006401000276a373ffffffffffffffffffffffffffffffffffffffff168273ffffffffffffffffffffffffffffffffffffffff1610158015614a93575073fffd8963efd1fc6a506488495d951d5263988d2673ffffffffffffffffffffffffffffffffffffffff168273ffffffffffffffffffffffffffffffffffffffff16105b614ad2576040517f08c379a0000000000000000000000000000000000000000000000000000000008152600401614ac990619a2a565b60405180910390fd5b600060208373ffffffffffffffffffffffffffffffffffffffff16901b9050600081905060006fffffffffffffffffffffffffffffffff821160071b808217915082811c92505067ffffffffffffffff821160061b808217915082811c92505063ffffffff821160051b808217915082811c92505061ffff821160041b808217915082811c92505060ff821160031b808217915082811c925050600f821160021b808217915082811c9250506003821160011b808217915082811c9250506001821180821791505060808110614bb957607f81614baf9190618b15565b83901c9150614bcc565b80607f614bc69190618b15565b83901b91505b60006040608083614bdd9190618a5d565b901b9050828302607f1c92508260801c80603f1b8217915083811c935050828302607f1c92508260801c80603e1b8217915083811c935050828302607f1c92508260801c80603d1b8217915083811c935050828302607f1c92508260801c80603c1b8217915083811c935050828302607f1c92508260801c80603b1b8217915083811c935050828302607f1c92508260801c80603a1b8217915083811c935050828302607f1c92508260801c8060391b8217915083811c935050828302607f1c92508260801c8060381b8217915083811c935050828302607f1c92508260801c8060371b8217915083811c935050828302607f1c92508260801c8060361b8217915083811c935050828302607f1c92508260801c8060351b8217915083811c935050828302607f1c92508260801c8060341b8217915083811c935050828302607f1c92508260801c8060331b8217915083811c935050828302607f1c92508260801c8060321b82179150506000693627a301d71055774c8582614d609190619a4a565b9050600060806f028f6481ab7f045a5af012a19d003aaa83614d829190618a5d565b901d9050600060806fdb2df09e81959a81455e260799a0632f84614da69190618aa0565b901d90508060020b8260020b14614e00578873ffffffffffffffffffffffffffffffffffffffff16614dd782613be4565b73ffffffffffffffffffffffffffffffffffffffff161115614df95781614dfb565b805b614e02565b815b975050505050505050919050565b6000806000898961ffff1661ffff8110614e2d57614e2c619789565b5b016040518060800160405290816000820160009054906101000a900463ffffffff1663ffffffff1663ffffffff1681526020016000820160049054906101000a900460060b60060b60060b815260200160008201600b9054906101000a900473ffffffffffffffffffffffffffffffffffffffff1673ffffffffffffffffffffffffffffffffffffffff1673ffffffffffffffffffffffffffffffffffffffff16815260200160008201601f9054906101000a900460ff16151515158152505090508763ffffffff16816000015163ffffffff1603614f12578885925092505061504f565b8461ffff168461ffff16118015614f3c5750600185614f319190619ac2565b61ffff168961ffff16145b15614f4957839150614f4d565b8491505b8160018a614f5b9190619af8565b614f659190619b2e565b9250614f73818989896162a2565b8a8461ffff1661ffff8110614f8b57614f8a619789565b5b0160008201518160000160006101000a81548163ffffffff021916908363ffffffff16021790555060208201518160000160046101000a81548166ffffffffffffff021916908360060b66ffffffffffffff160217905550604082015181600001600b6101000a81548173ffffffffffffffffffffffffffffffffffffffff021916908373ffffffffffffffffffffffffffffffffffffffff160217905550606082015181600001601f6101000a81548160ff021916908315150217905550905050505b97509795505050505050565b6000808473ffffffffffffffffffffffffffffffffffffffff1663a9059cbb60e01b8585604051602401615090929190619b5f565b604051602081830303815290604052907bffffffffffffffffffffffffffffffffffffffffffffffffffffffff19166020820180517bffffffffffffffffffffffffffffffffffffffffffffffffffffffff83818316178352505050506040516150fa9190619bf9565b6000604051808303816000865af19150503d8060008114615137576040519150601f19603f3d011682016040523d82523d6000602084013e61513c565b606091505b509150915081801561516a57506000815114806151695750808060200190518101906151689190619c25565b5b5b6151a9576040517f08c379a00000000000000000000000000000000000000000000000000000000081526004016151a090619c9e565b60405180910390fd5b5050505050565b60008060007f000000000000000000000000000000000000000000000000000000000000000073ffffffffffffffffffffffffffffffffffffffff166370a0823160e01b306040516024016152059190617ac3565b604051602081830303815290604052907bffffffffffffffffffffffffffffffffffffffffffffffffffffffff19166020820180517bffffffffffffffffffffffffffffffffffffffffffffffffffffffff838183161783525050505060405161526f9190619bf9565b600060405180830381855afa9150503d80600081146152aa576040519150601f19603f3d011682016040523d82523d6000602084013e6152af565b606091505b50915091508180156152c357506020815110155b6152cc57600080fd5b808060200190518101906152e09190619cd3565b9250505090565b60008060007f000000000000000000000000000000000000000000000000000000000000000073ffffffffffffffffffffffffffffffffffffffff166370a0823160e01b3060405160240161533c9190617ac3565b604051602081830303815290604052907bffffffffffffffffffffffffffffffffffffffffffffffffffffffff19166020820180517bffffffffffffffffffffffffffffffffffffffffffffffffffffffff83818316178352505050506040516153a69190619bf9565b600060405180830381855afa9150503d80600081146153e1576040519150601f19603f3d011682016040523d82523d6000602084013e6153e6565b606091505b50915091508180156153fa57506020815110155b61540357600080fd5b808060200190518101906154179190619cd3565b9250505090565b6000808361ffff1611615466576040517f08c379a000000000000000000000000000000000000000000000000000000000815260040161545d90619d4c565b60405180910390fd5b8261ffff168261ffff161161547d578290506154e7565b60008390505b8261ffff168161ffff1610156154e2576001858261ffff1661ffff81106154ad576154ac619789565b5b0160000160006101000a81548163ffffffff021916908363ffffffff16021790555080806154da90619d6c565b915050615483565b508190505b9392505050565b60008182915081600f0b1461550257600080fd5b919050565b6000806000615514613994565b61552684602001518560400151615a89565b6000806040518060e00160405290816000820160009054906101000a900473ffffffffffffffffffffffffffffffffffffffff1673ffffffffffffffffffffffffffffffffffffffff1673ffffffffffffffffffffffffffffffffffffffff1681526020016000820160149054906101000a900460020b60020b60020b81526020016000820160179054906101000a900461ffff1661ffff1661ffff1681526020016000820160199054906101000a900461ffff1661ffff1661ffff16815260200160008201601b9054906101000a900461ffff1661ffff1661ffff16815260200160008201601d9054906101000a900460ff1660ff1660ff16815260200160008201601e9054906101000a900460ff161515151581525050905061566285600001518660200151876040015188606001518560200151616707565b935060008560600151600f0b1461582757846020015160020b816020015160020b12156156b7576156b06156998660200151613be4565b6156a68760400151613be4565b8760600151616962565b9250615826565b846040015160020b816020015160020b12156157fb5760006201000660009054906101000a90046fffffffffffffffffffffffffffffffff16905061572782604001516157026139ee565b846020015184866060015187608001516006614e10909695949392919063ffffffff16565b6000800160176000800160198491906101000a81548161ffff021916908361ffff1602179055508391906101000a81548161ffff021916908361ffff160217905550505061578a82600001516157808860400151613be4565b8860600151616962565b93506157ab61579c8760200151613be4565b836000015188606001516169b9565b92506157bb818760600151614906565b6201000660006101000a8154816fffffffffffffffffffffffffffffffff02191690836fffffffffffffffffffffffffffffffff16021790555050615825565b61582261580b8660200151613be4565b6158188760400151613be4565b87606001516169b9565b91505b5b5b509193909250565b600061583c848484614374565b90506000828061584f5761584e618952565b5b8486091115615893577fffffffffffffffffffffffffffffffffffffffffffffffffffffffffffffffff811061588457600080fd5b808061588f90619d96565b9150505b9392505050565b60008460008585856040516020016158b493929190619e5c565b6040516020818303038152906040528051906020012081526020019081526020016000209050949350505050565b60608060008361ffff161161592c576040517f08c379a000000000000000000000000000000000000000000000000000000000815260040161592390619d4c565b60405180910390fd5b865167ffffffffffffffff81111561594757615946619e99565b5b6040519080825280602002602001820160405280156159755781602001602082028036833780820191505090505b509150865167ffffffffffffffff81111561599357615992619e99565b5b6040519080825280602002602001820160405280156159c15781602001602082028036833780820191505090505b50905060005b8751811015615a7c576159f98a8a8a84815181106159e8576159e7619789565b5b60200260200101518a8a8a8a614514565b848381518110615a0c57615a0b619789565b5b60200260200101848481518110615a2657615a25619789565b5b602002602001018273ffffffffffffffffffffffffffffffffffffffff1673ffffffffffffffffffffffffffffffffffffffff168152508260060b60060b81525050508080615a7490619d96565b9150506159c7565b5097509795505050505050565b8060020b8260020b12615ad1576040517f08c379a0000000000000000000000000000000000000000000000000000000008152600401615ac890619f14565b60405180910390fd5b7ffffffffffffffffffffffffffffffffffffffffffffffffffffffffffff2761860020b8260020b1215615b3a576040517f08c379a0000000000000000000000000000000000000000000000000000000008152600401615b3190619f80565b60405180910390fd5b7ffffffffffffffffffffffffffffffffffffffffffffffffffffffffffff27618615b64906189e1565b60020b8160020b1315615bac576040517f08c379a0000000000000000000000000000000000000000000000000000000008152600401615ba390619fec565b60405180910390fd5b5050565b60008060405180608001604052808463ffffffff168152602001600060060b8152602001600073ffffffffffffffffffffffffffffffffffffffff1681526020016001151581525084600061ffff8110615c0d57615c0c619789565b5b0160008201518160000160006101000a81548163ffffffff021916908363ffffffff16021790555060208201518160000160046101000a81548166ffffffffffffff021916908360060b66ffffffffffffff160217905550604082015181600001600b6101000a81548173ffffffffffffffffffffffffffffffffffffffff021916908373ffffffffffffffffffffffffffffffffffffffff160217905550606082015181600001601f6101000a81548160ff021916908315150217905550905050600180915091509250929050565b60008060088360020b901d915061010083615cf8919061956a565b9050915091565b6000808211615d0d57600080fd5b7001000000000000000000000000000000008210615d3c57608082901c9150608081615d39919061920d565b90505b680100000000000000008210615d6357604082901c9150604081615d60919061920d565b90505b6401000000008210615d8657602082901c9150602081615d83919061920d565b90505b620100008210615da757601082901c9150601081615da4919061920d565b90505b6101008210615dc757600882901c9150600881615dc4919061920d565b90505b60108210615de657600482901c9150600481615de3919061920d565b90505b60048210615e0557600282901c9150600281615e02919061920d565b90505b60028210615e1d57600181615e1a919061920d565b90505b919050565b6000808211615e3057600080fd5b60ff905060006fffffffffffffffffffffffffffffffff801683161115615e6557608081615e5e91906195e3565b9050615e6d565b608082901c91505b600067ffffffffffffffff801683161115615e9657604081615e8f91906195e3565b9050615e9e565b604082901c91505b600063ffffffff801683161115615ec357602081615ebc91906195e3565b9050615ecb565b602082901c91505b600061ffff801683161115615eee57601081615ee791906195e3565b9050615ef6565b601082901c91505b600060ff801683161115615f1857600881615f1191906195e3565b9050615f20565b600882901c91505b6000600f83161115615f4057600481615f3991906195e3565b9050615f48565b600482901c91505b6000600383161115615f6857600281615f6191906195e3565b9050615f70565b600282901c91505b6000600183161115615f8c57600181615f8991906195e3565b90505b919050565b60008373ffffffffffffffffffffffffffffffffffffffff168573ffffffffffffffffffffffffffffffffffffffff161115615fd257838580955081965050505b8161602757616022836fffffffffffffffffffffffffffffffff168686615ff99190619346565b73ffffffffffffffffffffffffffffffffffffffff166c01000000000000000000000000614374565b616073565b616072836fffffffffffffffffffffffffffffffff1686866160499190619346565b73ffffffffffffffffffffffffffffffffffffffff166c0100000000000000000000000061582f565b5b9050949350505050565b60008373ffffffffffffffffffffffffffffffffffffffff168573ffffffffffffffffffffffffffffffffffffffff1611156160be57838580955081965050505b6000606060ff16846fffffffffffffffffffffffffffffffff16901b9050600086866160ea9190619346565b73ffffffffffffffffffffffffffffffffffffffff16905060008773ffffffffffffffffffffffffffffffffffffffff161161612557600080fd5b83616171578673ffffffffffffffffffffffffffffffffffffffff1661616283838973ffffffffffffffffffffffffffffffffffffffff16614374565b61616c9190618ae4565b6161b2565b6161b161619583838973ffffffffffffffffffffffffffffffffffffffff1661582f565b8873ffffffffffffffffffffffffffffffffffffffff16616a10565b5b92505050949350505050565b6000808573ffffffffffffffffffffffffffffffffffffffff16116161e257600080fd5b6000846fffffffffffffffffffffffffffffffff161161620157600080fd5b81616218576162138585856001616a23565b616226565b6162258585856001616ba0565b5b9050949350505050565b6000808573ffffffffffffffffffffffffffffffffffffffff161161625457600080fd5b6000846fffffffffffffffffffffffffffffffff161161627357600080fd5b8161628a576162858585856000616ba0565b616298565b6162978585856000616a23565b5b9050949350505050565b6162aa617a39565b60008560000151856162bc919061938e565b905060405180608001604052808663ffffffff1681526020018263ffffffff168660020b6162ea9190619822565b88602001516162f9919061985f565b60060b81526020016000856fffffffffffffffffffffffffffffffff1611616322576001616324565b845b6fffffffffffffffffffffffffffffffff1660808463ffffffff1673ffffffffffffffffffffffffffffffffffffffff16901b616361919061a00c565b886040015161637091906198be565b73ffffffffffffffffffffffffffffffffffffffff16815260200160011515815250915050949350505050565b6163a5617a39565b6163ad617a39565b888561ffff1661ffff81106163c5576163c4619789565b5b016040518060800160405290816000820160009054906101000a900463ffffffff1663ffffffff1663ffffffff1681526020016000820160049054906101000a900460060b60060b60060b815260200160008201600b9054906101000a900473ffffffffffffffffffffffffffffffffffffffff1673ffffffffffffffffffffffffffffffffffffffff1673ffffffffffffffffffffffffffffffffffffffff16815260200160008201601f9054906101000a900460ff161515151581525050915061649688836000015189616d52565b156164c9578663ffffffff16826000015163ffffffff1603156166fb57816164c0838989886162a2565b915091506166fb565b88836001876164d89190619af8565b6164e29190619b2e565b61ffff1661ffff81106164f8576164f7619789565b5b016040518060800160405290816000820160009054906101000a900463ffffffff1663ffffffff1663ffffffff1681526020016000820160049054906101000a900460060b60060b60060b815260200160008201600b9054906101000a900473ffffffffffffffffffffffffffffffffffffffff1673ffffffffffffffffffffffffffffffffffffffff1673ffffffffffffffffffffffffffffffffffffffff16815260200160008201601f9054906101000a900460ff1615151515815250509150816060015161669b5788600061ffff81106165d8576165d7619789565b5b016040518060800160405290816000820160009054906101000a900463ffffffff1663ffffffff1663ffffffff1681526020016000820160049054906101000a900460060b60060b60060b815260200160008201600b9054906101000a900473ffffffffffffffffffffffffffffffffffffffff1673ffffffffffffffffffffffffffffffffffffffff1673ffffffffffffffffffffffffffffffffffffffff16815260200160008201601f9054906101000a900460ff16151515158152505091505b6166aa88836000015189616d52565b6166e9576040517f08c379a00000000000000000000000000000000000000000000000000000000081526004016166e09061a089565b60405180910390fd5b6166f68989898887616e2c565b915091505b97509795505050505050565b6000616721868686600561589a909392919063ffffffff16565b90506000600154905060006002549050600080600087600f0b146168d65760006167496139ee565b90506000806167c28360008060000160149054906101000a900460020b6000800160179054906101000a900461ffff166201000660009054906101000a90046fffffffffffffffffffffffffffffffff166000800160199054906101000a900461ffff166006614514909695949392919063ffffffff16565b9150915061680d8c8a8c8a8a86888a60007f00000000000000000000000000000000000000000000000000000000000000006003617105909a9998979695949392919063ffffffff16565b94506168568b8a8c8a8a86888a60017f00000000000000000000000000000000000000000000000000000000000000006003617105909a9998979695949392919063ffffffff16565b93508415616895576168948c7f000000000000000000000000000000000000000000000000000000000000000060046173a99092919063ffffffff16565b5b83156168d2576168d18b7f000000000000000000000000000000000000000000000000000000000000000060046173a99092919063ffffffff16565b5b5050505b6000806168f58b8b8a898960036174199095949392919063ffffffff16565b915091506169108983838a617527909392919063ffffffff16565b600089600f0b1215616953578315616937576169368b600361789b90919063ffffffff16565b5b8215616952576169518a600361789b90919063ffffffff16565b5b5b50505050505095945050505050565b60008082600f0b126169885761698361697e858585600161607d565b61433e565b6169b0565b6169a66169a185858561699a90618b8d565b600061607d565b61433e565b6169af90618c30565b5b90509392505050565b60008082600f0b126169df576169da6169d58585856001615f91565b61433e565b616a07565b6169fd6169f88585856169f190618b8d565b6000615f91565b61433e565b616a0690618c30565b5b90509392505050565b6000808284061182840401905092915050565b60008115616adb57600073ffffffffffffffffffffffffffffffffffffffff8016841115616a7a57616a75846c01000000000000000000000000876fffffffffffffffffffffffffffffffff16614374565b616aa0565b846fffffffffffffffffffffffffffffffff16606060ff1685901b616a9f9190618ae4565b5b9050616ad3616ace828873ffffffffffffffffffffffffffffffffffffffff1661797c90919063ffffffff16565b61799f565b915050616b98565b600073ffffffffffffffffffffffffffffffffffffffff8016841115616b2a57616b25846c01000000000000000000000000876fffffffffffffffffffffffffffffffff1661582f565b616b4e565b616b4d606060ff1685901b866fffffffffffffffffffffffffffffffff16616a10565b5b9050808673ffffffffffffffffffffffffffffffffffffffff1611616b7257600080fd5b808673ffffffffffffffffffffffffffffffffffffffff16616b949190618b15565b9150505b949350505050565b6000808303616bb157849050616d4a565b6000606060ff16856fffffffffffffffffffffffffffffffff16901b90508215616cad5760008673ffffffffffffffffffffffffffffffffffffffff16858873ffffffffffffffffffffffffffffffffffffffff1687616c1191906196df565b925082616c1e9190618ae4565b03616c675760008183616c319190618a29565b9050828110616c6557616c5b838973ffffffffffffffffffffffffffffffffffffffff168361582f565b9350505050616d4a565b505b616ca482616c9f878a73ffffffffffffffffffffffffffffffffffffffff1686616c919190618ae4565b61797c90919063ffffffff16565b616a10565b92505050616d4a565b60008673ffffffffffffffffffffffffffffffffffffffff16858873ffffffffffffffffffffffffffffffffffffffff1687616ce991906196df565b925082616cf69190618ae4565b148015616d0257508082115b616d0b57600080fd5b60008183616d199190618b15565b9050616d44616d3f848a73ffffffffffffffffffffffffffffffffffffffff168461582f565b61799f565b93505050505b949350505050565b60008363ffffffff168363ffffffff1611158015616d7c57508363ffffffff168263ffffffff1611155b15616d98578163ffffffff168363ffffffff1611159050616e25565b60008463ffffffff168463ffffffff1611616dc9576401000000008463ffffffff16616dc4919061a0ba565b616dd1565b8363ffffffff165b64ffffffffff16905060008563ffffffff168463ffffffff1611616e0b576401000000008463ffffffff16616e06919061a0ba565b616e13565b8363ffffffff165b64ffffffffff16905080821115925050505b9392505050565b616e34617a39565b616e3c617a39565b600083600186616e4c9190619af8565b616e569190619b2e565b61ffff169050600060018561ffff1683616e709190618a29565b616e7a9190618b15565b905060005b6001156170f85760028284616e949190618a29565b616e9e9190618ae4565b9050898661ffff1682616eb19190619721565b61ffff8110616ec357616ec2619789565b5b016040518060800160405290816000820160009054906101000a900463ffffffff1663ffffffff1663ffffffff1681526020016000820160049054906101000a900460060b60060b60060b815260200160008201600b9054906101000a900473ffffffffffffffffffffffffffffffffffffffff1673ffffffffffffffffffffffffffffffffffffffff1673ffffffffffffffffffffffffffffffffffffffff16815260200160008201601f9054906101000a900460ff16151515158152505094508460600151616fa257600181616f9b9190618a29565b9250616e7f565b898661ffff16600183616fb59190618a29565b616fbf9190619721565b61ffff8110616fd157616fd0619789565b5b016040518060800160405290816000820160009054906101000a900463ffffffff1663ffffffff1663ffffffff1681526020016000820160049054906101000a900460060b60060b60060b815260200160008201600b9054906101000a900473ffffffffffffffffffffffffffffffffffffffff1673ffffffffffffffffffffffffffffffffffffffff1673ffffffffffffffffffffffffffffffffffffffff16815260200160008201601f9054906101000a900460ff161515151581525050935060006170a48a87600001518b616d52565b90508080156170be57506170bd8a8a8760000151616d52565b5b156170c957506170f8565b806170e2576001826170db9190618b15565b92506170f2565b6001826170ef9190618a29565b93505b50616e7f565b5050509550959350505050565b6000808c60008d60020b60020b8152602001908152602001600020905060008160000160009054906101000a90046fffffffffffffffffffffffffffffffff1690506000617153828d614906565b9050846fffffffffffffffffffffffffffffffff16816fffffffffffffffffffffffffffffffff1611156171bc576040517f08c379a00000000000000000000000000000000000000000000000000000000081526004016171b39061a13f565b60405180910390fd5b6000816fffffffffffffffffffffffffffffffff161415156000836fffffffffffffffffffffffffffffffff16141515141593506000826fffffffffffffffffffffffffffffffff16036172da578c60020b8e60020b136172bc578a8360010181905550898360020181905550888360030160076101000a81548173ffffffffffffffffffffffffffffffffffffffff021916908373ffffffffffffffffffffffffffffffffffffffff160217905550878360030160006101000a81548166ffffffffffffff021916908360060b66ffffffffffffff1602179055508683600301601b6101000a81548163ffffffff021916908363ffffffff1602179055505b600183600301601f6101000a81548160ff0219169083151502179055505b808360000160006101000a8154816fffffffffffffffffffffffffffffffff02191690836fffffffffffffffffffffffffffffffff1602179055508561733c578b8360000160109054906101000a9004600f0b617337919061a15f565b61735a565b8b8360000160109054906101000a9004600f0b617359919061a1c7565b5b8360000160106101000a8154816fffffffffffffffffffffffffffffffff0219169083600f0b6fffffffffffffffffffffffffffffffff1602179055505050509b9a5050505050505050505050565b600081836173b7919061956a565b60020b146173c457600080fd5b6000806173db83856173d6919061945b565b615cdd565b9150915060008160ff166001901b9050808660008560010b60010b815260200190815260200160002060008282541892505081905550505050505050565b60008060008860008960020b60020b8152602001908152602001600020905060008960008960020b60020b815260200190815260200160002090506000808a60020b8960020b1261747757836001015491508360020154905061749c565b8360010154886174879190618b15565b91508360020154876174999190618b15565b90505b6000808b60020b8b60020b136174bf5784600101549150846002015490506174e4565b84600101548a6174cf9190618b15565b91508460020154896174e19190618b15565b90505b83826174f09190618a29565b8a6174fb9190618b15565b975082816175099190618a29565b896175149190618b15565b9650505050505050965096945050505050565b6000846040518060a00160405290816000820160009054906101000a90046fffffffffffffffffffffffffffffffff166fffffffffffffffffffffffffffffffff166fffffffffffffffffffffffffffffffff16815260200160018201548152602001600282015481526020016003820160009054906101000a90046fffffffffffffffffffffffffffffffff166fffffffffffffffffffffffffffffffff166fffffffffffffffffffffffffffffffff1681526020016003820160109054906101000a90046fffffffffffffffffffffffffffffffff166fffffffffffffffffffffffffffffffff166fffffffffffffffffffffffffffffffff1681525050905060008085600f0b0361769a57600082600001516fffffffffffffffffffffffffffffffff160361768e576040517f08c379a00000000000000000000000000000000000000000000000000000000081526004016176859061a27b565b60405180910390fd5b816000015190506176ab565b6176a8826000015186614906565b90505b60006176ee8360200151866176c09190618b15565b84600001516fffffffffffffffffffffffffffffffff16700100000000000000000000000000000000614374565b905060006177338460400151866177059190618b15565b85600001516fffffffffffffffffffffffffffffffff16700100000000000000000000000000000000614374565b9050600087600f0b1461777c57828860000160006101000a8154816fffffffffffffffffffffffffffffffff02191690836fffffffffffffffffffffffffffffffff1602179055505b8588600101819055508488600201819055506000826fffffffffffffffffffffffffffffffff1611806177c157506000816fffffffffffffffffffffffffffffffff16115b1561789157818860030160008282829054906101000a90046fffffffffffffffffffffffffffffffff166177f59190618b49565b92506101000a8154816fffffffffffffffffffffffffffffffff02191690836fffffffffffffffffffffffffffffffff160217905550808860030160108282829054906101000a90046fffffffffffffffffffffffffffffffff1661785a9190618b49565b92506101000a8154816fffffffffffffffffffffffffffffffff02191690836fffffffffffffffffffffffffffffffff1602179055505b5050505050505050565b8160008260020b60020b8152602001908152602001600020600080820160006101000a8154906fffffffffffffffffffffffffffffffff02191690556000820160106101000a8154906fffffffffffffffffffffffffffffffff0219169055600182016000905560028201600090556003820160006101000a81549066ffffffffffffff02191690556003820160076101000a81549073ffffffffffffffffffffffffffffffffffffffff021916905560038201601b6101000a81549063ffffffff021916905560038201601f6101000a81549060ff021916905550505050565b600082828461798b9190618a29565b915081101561799957600080fd5b92915050565b6000818291508173ffffffffffffffffffffffffffffffffffffffff16146179c657600080fd5b919050565b6040518060e00160405280600073ffffffffffffffffffffffffffffffffffffffff168152602001600060020b8152602001600015158152602001600073ffffffffffffffffffffffffffffffffffffffff1681526020016000815260200160008152602001600081525090565b6040518060800160405280600063ffffffff168152602001600060060b8152602001600073ffffffffffffffffffffffffffffffffffffffff1681526020016000151581525090565b600073ffffffffffffffffffffffffffffffffffffffff82169050919050565b6000617aad82617a82565b9050919050565b617abd81617aa2565b82525050565b6000602082019050617ad86000830184617ab4565b92915050565b600080fd5b600080fd5b617af181617aa2565b8114617afc57600080fd5b50565b600081359050617b0e81617ae8565b92915050565b60008115159050919050565b617b2981617b14565b8114617b3457600080fd5b50565b600081359050617b4681617b20565b92915050565b6000819050919050565b617b5f81617b4c565b8114617b6a57600080fd5b50565b600081359050617b7c81617b56565b92915050565b617b8b81617a82565b8114617b9657600080fd5b50565b600081359050617ba881617b82565b92915050565b600080fd5b600080fd5b600080fd5b60008083601f840112617bd357617bd2617bae565b5b8235905067ffffffffffffffff811115617bf057617bef617bb3565b5b602083019150836001820283011115617c0c57617c0b617bb8565b5b9250929050565b60008060008060008060a08789031215617c3057617c2f617ade565b5b6000617c3e89828a01617aff565b9650506020617c4f89828a01617b37565b9550506040617c6089828a01617b6d565b9450506060617c7189828a01617b99565b935050608087013567ffffffffffffffff811115617c9257617c91617ae3565b5b617c9e89828a01617bbd565b92509250509295509295509295565b617cb681617b4c565b82525050565b6000604082019050617cd16000830185617cad565b617cde6020830184617cad565b9392505050565b60006fffffffffffffffffffffffffffffffff82169050919050565b617d0a81617ce5565b82525050565b6000602082019050617d256000830184617d01565b92915050565b6000604082019050617d406000830185617d01565b617d4d6020830184617d01565b9392505050565b6000819050919050565b617d6781617d54565b8114617d7257600080fd5b50565b600081359050617d8481617d5e565b92915050565b600060208284031215617da057617d9f617ade565b5b6000617dae84828501617d75565b91505092915050565b600063ffffffff82169050919050565b617dd081617db7565b82525050565b60008160060b9050919050565b617dec81617dd6565b82525050565b617dfb81617a82565b82525050565b617e0a81617b14565b82525050565b6000608082019050617e256000830187617dc7565b617e326020830186617de3565b617e3f6040830185617df2565b617e4c6060830184617e01565b95945050505050565b600061ffff82169050919050565b617e6c81617e55565b8114617e7757600080fd5b50565b600081359050617e8981617e63565b92915050565b600060208284031215617ea557617ea4617ade565b5b6000617eb384828501617e7a565b91505092915050565b60008160020b9050919050565b617ed281617ebc565b82525050565b617ee181617e55565b82525050565b600060ff82169050919050565b617efd81617ee7565b82525050565b600060e082019050617f18600083018a617df2565b617f256020830189617ec9565b617f326040830188617ed8565b617f3f6060830187617ed8565b617f4c6080830186617ed8565b617f5960a0830185617ef4565b617f6660c0830184617e01565b98975050505050505050565b617f7b81617ebc565b8114617f8657600080fd5b50565b600081359050617f9881617f72565b92915050565b617fa781617ce5565b8114617fb257600080fd5b50565b600081359050617fc481617f9e565b92915050565b60008060008060008060a08789031215617fe757617fe6617ade565b5b6000617ff589828a01617aff565b965050602061800689828a01617f89565b955050604061801789828a01617f89565b945050606061802889828a01617fb5565b935050608087013567ffffffffffffffff81111561804957618048617ae3565b5b61805589828a01617bbd565b92509250509295509295509295565b61806d81617d54565b82525050565b60006040820190506180886000830185618064565b6180956020830184618064565b9392505050565b60006020820190506180b16000830184618064565b92915050565b6000806000806000608086880312156180d3576180d2617ade565b5b60006180e188828901617aff565b95505060206180f288828901617d75565b945050604061810388828901617d75565b935050606086013567ffffffffffffffff81111561812457618123617ae3565b5b61813088828901617bbd565b92509250509295509295909350565b600080600080600060a0868803121561815b5761815a617ade565b5b600061816988828901617aff565b955050602061817a88828901617f89565b945050604061818b88828901617f89565b935050606061819c88828901617fb5565b92505060806181ad88828901617fb5565b9150509295509295909350565b6000819050919050565b6181cd816181ba565b81146181d857600080fd5b50565b6000813590506181ea816181c4565b92915050565b60006020828403121561820657618205617ade565b5b6000618214848285016181db565b91505092915050565b600060a0820190506182326000830188617d01565b61823f6020830187618064565b61824c6040830186618064565b6182596060830185617d01565b6182666080830184617d01565b9695505050505050565b60008160010b9050919050565b61828681618270565b811461829157600080fd5b50565b6000813590506182a38161827d565b92915050565b6000602082840312156182bf576182be617ade565b5b60006182cd84828501618294565b91505092915050565b6182df81617ee7565b81146182ea57600080fd5b50565b6000813590506182fc816182d6565b92915050565b6000806040838503121561831957618318617ade565b5b6000618327858286016182ed565b9250506020618338858286016182ed565b9150509250929050565b60008060006060848603121561835b5761835a617ade565b5b600061836986828701617aff565b935050602061837a86828701617fb5565b925050604061838b86828701617fb5565b9150509250925092565b60008083601f8401126183ab576183aa617bae565b5b8235905067ffffffffffffffff8111156183c8576183c7617bb3565b5b6020830191508360208202830111156183e4576183e3617bb8565b5b9250929050565b6000806020838503121561840257618401617ade565b5b600083013567ffffffffffffffff8111156184205761841f617ae3565b5b61842c85828601618395565b92509250509250929050565b600081519050919050565b600082825260208201905092915050565b6000819050602082019050919050565b61846d81617dd6565b82525050565b600061847f8383618464565b60208301905092915050565b6000602082019050919050565b60006184a382618438565b6184ad8185618443565b93506184b883618454565b8060005b838110156184e95781516184d08882618473565b97506184db8361848b565b9250506001810190506184bc565b5085935050505092915050565b600081519050919050565b600082825260208201905092915050565b6000819050602082019050919050565b61852b81617a82565b82525050565b600061853d8383618522565b60208301905092915050565b6000602082019050919050565b6000618561826184f6565b61856b8185618501565b935061857683618512565b8060005b838110156185a757815161858e8882618531565b975061859983618549565b92505060018101905061857a565b5085935050505092915050565b600060408201905081810360008301526185ce8185618498565b905081810360208301526185e28184618556565b90509392505050565b60008060006060848603121561860457618603617ade565b5b600061861286828701617f89565b935050602061862386828701617f89565b925050604061863486828701617fb5565b9150509250925092565b6000806040838503121561865557618654617ade565b5b600061866385828601617f89565b925050602061867485828601617f89565b9150509250929050565b60006060820190506186936000830186617de3565b6186a06020830185617df2565b6186ad6040830184617dc7565b949350505050565b60006020820190506186ca6000830184617ec9565b92915050565b600062ffffff82169050919050565b6186e8816186d0565b82525050565b600060208201905061870360008301846186df565b92915050565b60006020828403121561871f5761871e617ade565b5b600061872d84828501617f89565b91505092915050565b600081600f0b9050919050565b61874c81618736565b82525050565b600061010082019050618768600083018b617d01565b618775602083018a618743565b6187826040830189618064565b61878f6060830188618064565b61879c6080830187617de3565b6187a960a0830186617df2565b6187b660c0830185617dc7565b6187c360e0830184617e01565b9998505050505050505050565b6000602082840312156187e6576187e5617ade565b5b60006187f484828501617b99565b91505092915050565b600082825260208201905092915050565b7f4153000000000000000000000000000000000000000000000000000000000000600082015250565b60006188446002836187fd565b915061884f8261880e565b602082019050919050565b6000602082019050818103600083015261887381618837565b9050919050565b7f4c4f4b0000000000000000000000000000000000000000000000000000000000600082015250565b60006188b06003836187fd565b91506188bb8261887a565b602082019050919050565b600060208201905081810360008301526188df816188a3565b9050919050565b7f53504c0000000000000000000000000000000000000000000000000000000000600082015250565b600061891c6003836187fd565b9150618927826188e6565b602082019050919050565b6000602082019050818103600083015261894b8161890f565b9050919050565b7f4e487b7100000000000000000000000000000000000000000000000000000000600052601260045260246000fd5b600061898c82617ee7565b915061899783617ee7565b9250826189a7576189a6618952565b5b828206905092915050565b7f4e487b7100000000000000000000000000000000000000000000000000000000600052601160045260246000fd5b60006189ec82617ebc565b91507fffffffffffffffffffffffffffffffffffffffffffffffffffffffffff8000008203618a1e57618a1d6189b2565b5b816000039050919050565b6000618a3482617d54565b9150618a3f83617d54565b9250828201905080821115618a5757618a566189b2565b5b92915050565b6000618a6882617b4c565b9150618a7383617b4c565b9250828203905081811260008412168282136000851215161715618a9a57618a996189b2565b5b92915050565b6000618aab82617b4c565b9150618ab683617b4c565b925082820190508281121560008312168382126000841215161715618ade57618add6189b2565b5b92915050565b6000618aef82617d54565b9150618afa83617d54565b925082618b0a57618b09618952565b5b828204905092915050565b6000618b2082617d54565b9150618b2b83617d54565b9250828203905081811115618b4357618b426189b2565b5b92915050565b6000618b5482617ce5565b9150618b5f83617ce5565b925082820190506fffffffffffffffffffffffffffffffff811115618b8757618b866189b2565b5b92915050565b6000618b9882618736565b91507fffffffffffffffffffffffffffffffff800000000000000000000000000000008203618bca57618bc96189b2565b5b816000039050919050565b6000618be082617ebc565b9150618beb83617ebc565b92508282039050627fffff81137fffffffffffffffffffffffffffffffffffffffffffffffffffffffffff80000082121715618c2a57618c296189b2565b5b92915050565b6000618c3b82617b4c565b91507f80000000000000000000000000000000000000000000000000000000000000008203618c6d57618c6c6189b2565b5b816000039050919050565b600082825260208201905092915050565b82818337600083830152505050565b6000601f19601f8301169050919050565b6000618cb58385618c78565b9350618cc2838584618c89565b618ccb83618c98565b840190509392505050565b6000606082019050618ceb6000830187617cad565b618cf86020830186617cad565b8181036040830152618d0b818486618ca9565b905095945050505050565b7f4949410000000000000000000000000000000000000000000000000000000000600082015250565b6000618d4c6003836187fd565b9150618d5782618d16565b602082019050919050565b60006020820190508181036000830152618d7b81618d3f565b9050919050565b600060a082019050618d976000830188617cad565b618da46020830187617cad565b618db16040830186617df2565b618dbe6060830185617d01565b618dcb6080830184617ec9565b9695505050505050565b7f4c6f636b65640000000000000000000000000000000000000000000000000000600082015250565b6000618e0b6006836187fd565b9150618e1682618dd5565b602082019050919050565b60006020820190508181036000830152618e3a81618dfe565b9050919050565b6000604082019050618e566000830185617ed8565b618e636020830184617ed8565b9392505050565b6000606082019050618e7f6000830187618064565b618e8c6020830186618064565b8181036040830152618e9f818486618ca9565b905095945050505050565b7f4d30000000000000000000000000000000000000000000000000000000000000600082015250565b6000618ee06002836187fd565b9150618eeb82618eaa565b602082019050919050565b60006020820190508181036000830152618f0f81618ed3565b9050919050565b7f4d31000000000000000000000000000000000000000000000000000000000000600082015250565b6000618f4c6002836187fd565b9150618f5782618f16565b602082019050919050565b60006020820190508181036000830152618f7b81618f3f565b9050919050565b6000608082019050618f976000830187617ab4565b618fa46020830186617d01565b618fb16040830185618064565b618fbe6060830184618064565b95945050505050565b7f4c00000000000000000000000000000000000000000000000000000000000000600082015250565b6000618ffd6001836187fd565b915061900882618fc7565b602082019050919050565b6000602082019050818103600083015261902c81618ff0565b9050919050565b7f4630000000000000000000000000000000000000000000000000000000000000600082015250565b60006190696002836187fd565b915061907482619033565b602082019050919050565b600060208201905081810360008301526190988161905c565b9050919050565b7f4631000000000000000000000000000000000000000000000000000000000000600082015250565b60006190d56002836187fd565b91506190e08261909f565b602082019050919050565b60006020820190508181036000830152619104816190c8565b9050919050565b60006080820190506191206000830187618064565b61912d6020830186618064565b61913a6040830185618064565b6191476060830184618064565b95945050505050565b600061915b82617ce5565b915061916683617ce5565b925082820390506fffffffffffffffffffffffffffffffff81111561918e5761918d6189b2565b5b92915050565b60006060820190506191a96000830186617ab4565b6191b66020830185617d01565b6191c36040830184617d01565b949350505050565b6000815190506191da81617ae8565b92915050565b6000602082840312156191f6576191f5617ade565b5b6000619204848285016191cb565b91505092915050565b600061921882617ee7565b915061922383617ee7565b9250828201905060ff81111561923c5761923b6189b2565b5b92915050565b60006080820190506192576000830187617ef4565b6192646020830186617ef4565b6192716040830185617ef4565b61927e6060830184617ef4565b95945050505050565b600061929282617ce5565b9150600082036192a5576192a46189b2565b5b600182039050919050565b60006060820190506192c56000830186617d01565b6192d26020830185618064565b6192df6040830184618064565b949350505050565b60006192f282617dd6565b91506192fd83617dd6565b92508282039050667fffffffffffff81137fffffffffffffffffffffffffffffffffffffffffffffffffff80000000000000821217156193405761933f6189b2565b5b92915050565b600061935182617a82565b915061935c83617a82565b9250828203905073ffffffffffffffffffffffffffffffffffffffff811115619388576193876189b2565b5b92915050565b600061939982617db7565b91506193a483617db7565b9250828203905063ffffffff8111156193c0576193bf6189b2565b5b92915050565b7f416c726561647920496e697469616c697a656400000000000000000000000000600082015250565b60006193fc6013836187fd565b9150619407826193c6565b602082019050919050565b6000602082019050818103600083015261942b816193ef565b9050919050565b60006040820190506194476000830185617df2565b6194546020830184617ec9565b9392505050565b600061946682617ebc565b915061947183617ebc565b92508261948157619480618952565b5b600160000383147fffffffffffffffffffffffffffffffffffffffffffffffffffffffffff800000831416156194ba576194b96189b2565b5b828205905092915050565b60006194d082617ebc565b91506194db83617ebc565b92508282026194e981617ebc565b91508082146194fb576194fa6189b2565b5b5092915050565b600061950d826186d0565b9150619518836186d0565b9250828201905062ffffff811115619533576195326189b2565b5b92915050565b600061954482617ce5565b915061954f83617ce5565b92508261955f5761955e618952565b5b828204905092915050565b600061957582617ebc565b915061958083617ebc565b9250826195905761958f618952565b5b828207905092915050565b60006195a682617ebc565b91507fffffffffffffffffffffffffffffffffffffffffffffffffffffffffff80000082036195d8576195d76189b2565b5b600182039050919050565b60006195ee82617ee7565b91506195f983617ee7565b9250828203905060ff811115619612576196116189b2565b5b92915050565b600061962382617ebc565b915061962e83617ebc565b925082820190507fffffffffffffffffffffffffffffffffffffffffffffffffffffffffff8000008112627fffff8213171561966d5761966c6189b2565b5b92915050565b7f5400000000000000000000000000000000000000000000000000000000000000600082015250565b60006196a96001836187fd565b91506196b482619673565b602082019050919050565b600060208201905081810360008301526196d88161969c565b9050919050565b60006196ea82617d54565b91506196f583617d54565b925082820261970381617d54565b9150828204841483151761971a576197196189b2565b5b5092915050565b600061972c82617d54565b915061973783617d54565b92508261974757619746618952565b5b828206905092915050565b600061975d826186d0565b9150619768836186d0565b9250828203905062ffffff811115619783576197826189b2565b5b92915050565b7f4e487b7100000000000000000000000000000000000000000000000000000000600052603260045260246000fd5b60006197c382617dd6565b91506197ce83617dd6565b9250826197de576197dd618952565b5b600160000383147fffffffffffffffffffffffffffffffffffffffffffffffffff8000000000000083141615619817576198166189b2565b5b828205905092915050565b600061982d82617dd6565b915061983883617dd6565b925082820261984681617dd6565b9150808214619858576198576189b2565b5b5092915050565b600061986a82617dd6565b915061987583617dd6565b925082820190507fffffffffffffffffffffffffffffffffffffffffffffffffff800000000000008112667fffffffffffff821317156198b8576198b76189b2565b5b92915050565b60006198c982617a82565b91506198d483617a82565b9250828201905073ffffffffffffffffffffffffffffffffffffffff811115619900576198ff6189b2565b5b92915050565b7f4c53000000000000000000000000000000000000000000000000000000000000600082015250565b600061993c6002836187fd565b915061994782619906565b602082019050919050565b6000602082019050818103600083015261996b8161992f565b9050919050565b7f4c41000000000000000000000000000000000000000000000000000000000000600082015250565b60006199a86002836187fd565b91506199b382619972565b602082019050919050565b600060208201905081810360008301526199d78161999b565b9050919050565b7f5200000000000000000000000000000000000000000000000000000000000000600082015250565b6000619a146001836187fd565b9150619a1f826199de565b602082019050919050565b60006020820190508181036000830152619a4381619a07565b9050919050565b6000619a5582617b4c565b9150619a6083617b4c565b9250828202619a6e81617b4c565b91507f80000000000000000000000000000000000000000000000000000000000000008414600084121615619aa657619aa56189b2565b5b8282058414831517619abb57619aba6189b2565b5b5092915050565b6000619acd82617e55565b9150619ad883617e55565b9250828203905061ffff811115619af257619af16189b2565b5b92915050565b6000619b0382617e55565b9150619b0e83617e55565b9250828201905061ffff811115619b2857619b276189b2565b5b92915050565b6000619b3982617e55565b9150619b4483617e55565b925082619b5457619b53618952565b5b828206905092915050565b6000604082019050619b746000830185617ab4565b619b816020830184618064565b9392505050565b600081519050919050565b600081905092915050565b60005b83811015619bbc578082015181840152602081019050619ba1565b60008484015250505050565b6000619bd382619b88565b619bdd8185619b93565b9350619bed818560208601619b9e565b80840191505092915050565b6000619c058284619bc8565b915081905092915050565b600081519050619c1f81617b20565b92915050565b600060208284031215619c3b57619c3a617ade565b5b6000619c4984828501619c10565b91505092915050565b7f5446000000000000000000000000000000000000000000000000000000000000600082015250565b6000619c886002836187fd565b9150619c9382619c52565b602082019050919050565b60006020820190508181036000830152619cb781619c7b565b9050919050565b600081519050619ccd81617d5e565b92915050565b600060208284031215619ce957619ce8617ade565b5b6000619cf784828501619cbe565b91505092915050565b7f4900000000000000000000000000000000000000000000000000000000000000600082015250565b6000619d366001836187fd565b9150619d4182619d00565b602082019050919050565b60006020820190508181036000830152619d6581619d29565b9050919050565b6000619d7782617e55565b915061ffff8203619d8b57619d8a6189b2565b5b600182019050919050565b6000619da182617d54565b91507fffffffffffffffffffffffffffffffffffffffffffffffffffffffffffffffff8203619dd357619dd26189b2565b5b600182019050919050565b60008160601b9050919050565b6000619df682619dde565b9050919050565b6000619e0882619deb565b9050919050565b619e20619e1b82617aa2565b619dfd565b82525050565b60008160e81b9050919050565b6000619e3e82619e26565b9050919050565b619e56619e5182617ebc565b619e33565b82525050565b6000619e688286619e0f565b601482019150619e788285619e45565b600382019150619e888284619e45565b600382019150819050949350505050565b7f4e487b7100000000000000000000000000000000000000000000000000000000600052604160045260246000fd5b7f544c550000000000000000000000000000000000000000000000000000000000600082015250565b6000619efe6003836187fd565b9150619f0982619ec8565b602082019050919050565b60006020820190508181036000830152619f2d81619ef1565b9050919050565b7f544c4d0000000000000000000000000000000000000000000000000000000000600082015250565b6000619f6a6003836187fd565b9150619f7582619f34565b602082019050919050565b60006020820190508181036000830152619f9981619f5d565b9050919050565b7f54554d0000000000000000000000000000000000000000000000000000000000600082015250565b6000619fd66003836187fd565b9150619fe182619fa0565b602082019050919050565b6000602082019050818103600083015261a00581619fc9565b9050919050565b600061a01782617a82565b915061a02283617a82565b92508261a0325761a031618952565b5b828204905092915050565b7f4f4c440000000000000000000000000000000000000000000000000000000000600082015250565b600061a0736003836187fd565b915061a07e8261a03d565b602082019050919050565b6000602082019050818103600083015261a0a28161a066565b9050919050565b600064ffffffffff82169050919050565b600061a0c58261a0a9565b915061a0d08361a0a9565b9250828201905064ffffffffff81111561a0ed5761a0ec6189b2565b5b92915050565b7f6c6971756964697479206f766572666c6f770000000000000000000000000000600082015250565b600061a1296012836187fd565b915061a1348261a0f3565b602082019050919050565b6000602082019050818103600083015261a1588161a11c565b9050919050565b600061a16a82618736565b915061a17583618736565b925082820190507fffffffffffffffffffffffffffffffff8000000000000000000000000000000081126f7fffffffffffffffffffffffffffffff8213171561a1c15761a1c06189b2565b5b92915050565b600061a1d282618736565b915061a1dd83618736565b925082820390506f7fffffffffffffffffffffffffffffff81137fffffffffffffffffffffffffffffffff800000000000000000000000000000008212171561a2295761a2286189b2565b5b92915050565b7f6e6f20706f6b6500000000000000000000000000000000000000000000000000600082015250565b600061a2656007836187fd565b915061a2708261a22f565b602082019050919050565b6000602082019050818103600083015261a2948161a258565b905091905056fea2646970667358221220a720cfd73c5a200a96561324f865af03dfb4bc5750da8d493d97b3f60455b2df64736f6c63430008120033a26469706673582212203e9f82ee11fa7b43be7f97561df3bb800aa5f6e66d638544f1499efeaba94f6864736f6c63430008120033",
  "linkReferences": {},
  "deployedLinkReferences": {}
}